{
  "_format": "hh-sol-artifact-1",
  "contractName": "Exchange",
  "sourceName": "contracts/Exchange.sol",
  "abi": [
    {
      "inputs": [
        {
          "internalType": "address",
          "name": "_conditionalTokens",
          "type": "address"
        },
        {
          "internalType": "address",
          "name": "_feeRecipient",
          "type": "address"
        }
      ],
      "stateMutability": "nonpayable",
      "type": "constructor"
    },
    {
      "inputs": [],
      "name": "ECDSAInvalidSignature",
      "type": "error"
    },
    {
      "inputs": [
        {
          "internalType": "uint256",
          "name": "length",
          "type": "uint256"
        }
      ],
      "name": "ECDSAInvalidSignatureLength",
      "type": "error"
    },
    {
      "inputs": [
        {
          "internalType": "bytes32",
          "name": "s",
          "type": "bytes32"
        }
      ],
      "name": "ECDSAInvalidSignatureS",
      "type": "error"
    },
    {
      "inputs": [
        {
          "internalType": "address",
          "name": "owner",
          "type": "address"
        }
      ],
      "name": "OwnableInvalidOwner",
      "type": "error"
    },
    {
      "inputs": [
        {
          "internalType": "address",
          "name": "account",
          "type": "address"
        }
      ],
      "name": "OwnableUnauthorizedAccount",
      "type": "error"
    },
    {
      "inputs": [],
      "name": "ReentrancyGuardReentrantCall",
      "type": "error"
    },
    {
      "inputs": [
        {
          "internalType": "address",
          "name": "token",
          "type": "address"
        }
      ],
      "name": "SafeERC20FailedOperation",
      "type": "error"
    },
    {
      "anonymous": false,
      "inputs": [
        {
          "indexed": true,
          "internalType": "address",
          "name": "user",
          "type": "address"
        },
        {
          "indexed": true,
          "internalType": "address",
          "name": "token",
          "type": "address"
        },
        {
          "indexed": false,
          "internalType": "uint256",
          "name": "amount",
          "type": "uint256"
        }
      ],
      "name": "Deposit",
      "type": "event"
    },
    {
      "anonymous": false,
      "inputs": [
        {
          "indexed": true,
          "internalType": "bytes32",
          "name": "orderHash",
          "type": "bytes32"
        },
        {
          "indexed": true,
          "internalType": "address",
          "name": "maker",
          "type": "address"
        }
      ],
      "name": "OrderCancelled",
      "type": "event"
    },
    {
      "anonymous": false,
      "inputs": [
        {
          "indexed": true,
          "internalType": "bytes32",
          "name": "orderHash",
          "type": "bytes32"
        },
        {
          "indexed": true,
          "internalType": "address",
          "name": "maker",
          "type": "address"
        },
        {
          "indexed": true,
          "internalType": "address",
          "name": "taker",
          "type": "address"
        },
        {
          "indexed": false,
          "internalType": "bytes32",
          "name": "conditionId",
          "type": "bytes32"
        },
        {
          "indexed": false,
          "internalType": "uint256",
          "name": "fillAmount",
          "type": "uint256"
        },
        {
          "indexed": false,
          "internalType": "uint256",
          "name": "price",
          "type": "uint256"
        }
      ],
      "name": "OrderFilled",
      "type": "event"
    },
    {
      "anonymous": false,
      "inputs": [
        {
          "indexed": true,
          "internalType": "address",
          "name": "previousOwner",
          "type": "address"
        },
        {
          "indexed": true,
          "internalType": "address",
          "name": "newOwner",
          "type": "address"
        }
      ],
      "name": "OwnershipTransferred",
      "type": "event"
    },
    {
      "anonymous": false,
      "inputs": [
        {
          "indexed": true,
          "internalType": "address",
          "name": "user",
          "type": "address"
        },
        {
          "indexed": true,
          "internalType": "address",
          "name": "token",
          "type": "address"
        },
        {
          "indexed": false,
          "internalType": "uint256",
          "name": "amount",
          "type": "uint256"
        }
      ],
      "name": "Withdrawal",
      "type": "event"
    },
    {
      "inputs": [],
      "name": "DOMAIN_SEPARATOR",
      "outputs": [
        {
          "internalType": "bytes32",
          "name": "",
          "type": "bytes32"
        }
      ],
      "stateMutability": "view",
      "type": "function"
    },
    {
      "inputs": [],
      "name": "ORDER_TYPEHASH",
      "outputs": [
        {
          "internalType": "bytes32",
          "name": "",
          "type": "bytes32"
        }
      ],
      "stateMutability": "view",
      "type": "function"
    },
    {
      "inputs": [
        {
          "internalType": "address",
          "name": "",
          "type": "address"
        },
        {
          "internalType": "address",
          "name": "",
          "type": "address"
        }
      ],
      "name": "balances",
      "outputs": [
        {
          "internalType": "uint256",
          "name": "",
          "type": "uint256"
        }
      ],
      "stateMutability": "view",
      "type": "function"
    },
    {
      "inputs": [
        {
          "components": [
            {
              "internalType": "address",
              "name": "maker",
              "type": "address"
            },
            {
              "internalType": "bytes32",
              "name": "conditionId",
              "type": "bytes32"
            },
            {
              "internalType": "uint256",
              "name": "outcomeIndex",
              "type": "uint256"
            },
            {
              "internalType": "bool",
              "name": "isBuy",
              "type": "bool"
            },
            {
              "internalType": "uint256",
              "name": "price",
              "type": "uint256"
            },
            {
              "internalType": "uint256",
              "name": "amount",
              "type": "uint256"
            },
            {
              "internalType": "uint256",
              "name": "nonce",
              "type": "uint256"
            },
            {
              "internalType": "uint256",
              "name": "expiry",
              "type": "uint256"
            }
          ],
          "internalType": "struct Exchange.Order",
          "name": "order",
          "type": "tuple"
        }
      ],
      "name": "cancelOrder",
      "outputs": [],
      "stateMutability": "nonpayable",
      "type": "function"
    },
    {
      "inputs": [
        {
          "internalType": "bytes32",
          "name": "",
          "type": "bytes32"
        }
      ],
      "name": "cancelledOrders",
      "outputs": [
        {
          "internalType": "bool",
          "name": "",
          "type": "bool"
        }
      ],
      "stateMutability": "view",
      "type": "function"
    },
    {
      "inputs": [],
      "name": "conditionalTokens",
      "outputs": [
        {
          "internalType": "contract ConditionalTokens",
          "name": "",
          "type": "address"
        }
      ],
      "stateMutability": "view",
      "type": "function"
    },
    {
      "inputs": [
        {
          "internalType": "address",
          "name": "token",
          "type": "address"
        },
        {
          "internalType": "uint256",
          "name": "amount",
          "type": "uint256"
        }
      ],
      "name": "deposit",
      "outputs": [],
      "stateMutability": "payable",
      "type": "function"
    },
    {
      "inputs": [],
      "name": "feeRecipient",
      "outputs": [
        {
          "internalType": "address",
          "name": "",
          "type": "address"
        }
      ],
      "stateMutability": "view",
      "type": "function"
    },
    {
      "inputs": [
        {
          "components": [
            {
              "internalType": "address",
              "name": "maker",
              "type": "address"
            },
            {
              "internalType": "bytes32",
              "name": "conditionId",
              "type": "bytes32"
            },
            {
              "internalType": "uint256",
              "name": "outcomeIndex",
              "type": "uint256"
            },
            {
              "internalType": "bool",
              "name": "isBuy",
              "type": "bool"
            },
            {
              "internalType": "uint256",
              "name": "price",
              "type": "uint256"
            },
            {
              "internalType": "uint256",
              "name": "amount",
              "type": "uint256"
            },
            {
              "internalType": "uint256",
              "name": "nonce",
              "type": "uint256"
            },
            {
              "internalType": "uint256",
              "name": "expiry",
              "type": "uint256"
            }
          ],
          "internalType": "struct Exchange.Order",
          "name": "order",
          "type": "tuple"
        }
      ],
      "name": "getOrderHash",
      "outputs": [
        {
          "internalType": "bytes32",
          "name": "",
          "type": "bytes32"
        }
      ],
      "stateMutability": "view",
      "type": "function"
    },
    {
      "inputs": [],
      "name": "incrementNonce",
      "outputs": [],
      "stateMutability": "nonpayable",
      "type": "function"
    },
    {
      "inputs": [
        {
          "internalType": "address",
          "name": "",
          "type": "address"
        }
      ],
      "name": "operators",
      "outputs": [
        {
          "internalType": "bool",
          "name": "",
          "type": "bool"
        }
      ],
      "stateMutability": "view",
      "type": "function"
    },
    {
      "inputs": [
        {
          "internalType": "bytes32",
          "name": "",
          "type": "bytes32"
        }
      ],
      "name": "orderFills",
      "outputs": [
        {
          "internalType": "uint256",
          "name": "",
          "type": "uint256"
        }
      ],
      "stateMutability": "view",
      "type": "function"
    },
    {
      "inputs": [],
      "name": "owner",
      "outputs": [
        {
          "internalType": "address",
          "name": "",
          "type": "address"
        }
      ],
      "stateMutability": "view",
      "type": "function"
    },
    {
      "inputs": [],
      "name": "renounceOwnership",
      "outputs": [],
      "stateMutability": "nonpayable",
      "type": "function"
    },
    {
      "inputs": [
        {
          "internalType": "address",
          "name": "_feeRecipient",
          "type": "address"
        }
      ],
      "name": "setFeeRecipient",
      "outputs": [],
      "stateMutability": "nonpayable",
      "type": "function"
    },
    {
      "inputs": [
        {
          "internalType": "address",
          "name": "operator",
          "type": "address"
        },
        {
          "internalType": "bool",
          "name": "approved",
          "type": "bool"
        }
      ],
      "name": "setOperator",
      "outputs": [],
      "stateMutability": "nonpayable",
      "type": "function"
    },
    {
      "inputs": [
        {
          "internalType": "uint256",
          "name": "_feeBps",
          "type": "uint256"
        }
      ],
      "name": "setTradingFee",
      "outputs": [],
      "stateMutability": "nonpayable",
      "type": "function"
    },
    {
      "inputs": [
        {
          "components": [
            {
              "components": [
                {
                  "internalType": "address",
                  "name": "maker",
                  "type": "address"
                },
                {
                  "internalType": "bytes32",
                  "name": "conditionId",
                  "type": "bytes32"
                },
                {
                  "internalType": "uint256",
                  "name": "outcomeIndex",
                  "type": "uint256"
                },
                {
                  "internalType": "bool",
                  "name": "isBuy",
                  "type": "bool"
                },
                {
                  "internalType": "uint256",
                  "name": "price",
                  "type": "uint256"
                },
                {
                  "internalType": "uint256",
                  "name": "amount",
                  "type": "uint256"
                },
                {
                  "internalType": "uint256",
                  "name": "nonce",
                  "type": "uint256"
                },
                {
                  "internalType": "uint256",
                  "name": "expiry",
                  "type": "uint256"
                }
              ],
              "internalType": "struct Exchange.Order",
              "name": "makerOrder",
              "type": "tuple"
            },
            {
              "internalType": "bytes",
              "name": "makerSignature",
              "type": "bytes"
            },
            {
              "components": [
                {
                  "internalType": "address",
                  "name": "maker",
                  "type": "address"
                },
                {
                  "internalType": "bytes32",
                  "name": "conditionId",
                  "type": "bytes32"
                },
                {
                  "internalType": "uint256",
                  "name": "outcomeIndex",
                  "type": "uint256"
                },
                {
                  "internalType": "bool",
                  "name": "isBuy",
                  "type": "bool"
                },
                {
                  "internalType": "uint256",
                  "name": "price",
                  "type": "uint256"
                },
                {
                  "internalType": "uint256",
                  "name": "amount",
                  "type": "uint256"
                },
                {
                  "internalType": "uint256",
                  "name": "nonce",
                  "type": "uint256"
                },
                {
                  "internalType": "uint256",
                  "name": "expiry",
                  "type": "uint256"
                }
              ],
              "internalType": "struct Exchange.Order",
              "name": "takerOrder",
              "type": "tuple"
            },
            {
              "internalType": "bytes",
              "name": "takerSignature",
              "type": "bytes"
            },
            {
              "internalType": "uint256",
              "name": "fillAmount",
              "type": "uint256"
            }
          ],
          "internalType": "struct Exchange.Fill[]",
          "name": "fills",
          "type": "tuple[]"
        }
      ],
      "name": "settleBatch",
      "outputs": [],
      "stateMutability": "nonpayable",
      "type": "function"
    },
    {
      "inputs": [],
      "name": "tradingFeeBps",
      "outputs": [
        {
          "internalType": "uint256",
          "name": "",
          "type": "uint256"
        }
      ],
      "stateMutability": "view",
      "type": "function"
    },
    {
      "inputs": [
        {
          "internalType": "address",
          "name": "newOwner",
          "type": "address"
        }
      ],
      "name": "transferOwnership",
      "outputs": [],
      "stateMutability": "nonpayable",
      "type": "function"
    },
    {
      "inputs": [
        {
          "internalType": "address",
          "name": "",
          "type": "address"
        }
      ],
      "name": "userNonces",
      "outputs": [
        {
          "internalType": "uint256",
          "name": "",
          "type": "uint256"
        }
      ],
      "stateMutability": "view",
      "type": "function"
    },
    {
      "inputs": [
        {
          "internalType": "address",
          "name": "token",
          "type": "address"
        },
        {
          "internalType": "uint256",
          "name": "amount",
          "type": "uint256"
        }
      ],
      "name": "withdraw",
      "outputs": [],
      "stateMutability": "nonpayable",
      "type": "function"
    },
    {
      "stateMutability": "payable",
      "type": "receive"
    }
  ],
  "bytecode": "0x60a034620001d1576001600160401b039062001cfe90601f38839003908101601f191682019084821183831017620001d65780839160409586948552833981010312620001d1576200005f60206200005783620001ec565b9201620001ec565b913315620001ba5760008054336001600160a01b03198083168217845584519396939590936001600160a01b0393909284929183167f8be0079c531659141344cd1fd0a4f28419497f9722a3daafe3b4186f6b6457e08a80a360018055606460085516836002541617600255169060095416176009553383526007602052808320600160ff1982541617905560208201927f8b73c3c69bb8fe3d512ecc4cf759cc79239f7b179b0ffacaa9a75d522b39400f84527f6322afb7442a3ac87238475f8c077efdc20f49a0c8a860090182b32856c0bf49828401527fc89efdaa54c0f20c7adf612882df0950f5a951637e0307cdcb4c672f298b8bc660608401524660808401523060a084015260a0835260c083019483861090861117620001a65750839052519020608052611afc90816200020282396080518181816114e5015261183e0152f35b634e487b7160e01b81526041600452602490fd5b51631e4fbdf760e01b815260006004820152602490fd5b600080fd5b634e487b7160e01b600052604160045260246000fd5b51906001600160a01b0382168203620001d15756fe608080604052600436101561001d575b50361561001b57600080fd5b005b60003560e01c90816313e7c9d814611542575080632f7801f4146115085780633644e515146114cd57806346904840146114a457806347e7ef241461134d578063558a7297146112f75780635bd9e299146112ce578063627cdcb9146112a157806364d746b914610660578063715018a61461060757806377decc581461055f5780638da5cb5b146105365780638f13f48e14610505578063924cca9a146104e7578063b0d54bcf14610489578063c23f001f14610434578063d639402514610410578063e74b981b146103cd578063f2fde38b1461033f578063f3fef3a314610188578063f7213db61461015c5763f973a2091461011c573861000f565b346101575760003660031901126101575760206040517fef6fe60bef87416d1f4739a0ff08cd262a6a0eaec294bc7f65b4b58fc966be168152f35b600080fd5b346101575760203660031901126101575760043560005260056020526020604060002054604051908152f35b34610157576040366003190112610157576101a161157d565b6024356101ac611696565b3360005260206003815260406000209260018060a01b0316928360005281528160406000205410610304573360005260038152604060002083600052815260406000206101fa8382546116b9565b9055826102a857600080808085335af13d156102a3573d61021a816116c6565b906102286040519283611619565b81526000833d92013e5b15610269577f2717ead6b9200dd235aad468c9809ea400fe33ac69b5bfaa6d3e90fc922b6398905b6040519283523392a360018055005b6064906040519062461bcd60e51b825260048201526013602482015272159155081d1c985b9cd9995c8819985a5b1959606a1b6044820152fd5b610232565b60405163a9059cbb60e01b82820152336024820152604480820184905281527f2717ead6b9200dd235aad468c9809ea400fe33ac69b5bfaa6d3e90fc922b639891906102ff906102f9606482611619565b8561163a565b61025a565b6064906040519062461bcd60e51b825260048201526014602482015273496e73756666696369656e742062616c616e636560601b6044820152fd5b346101575760203660031901126101575761035861157d565b610360611593565b6001600160a01b039081169081156103b457600054826bffffffffffffffffffffffff60a01b821617600055167f8be0079c531659141344cd1fd0a4f28419497f9722a3daafe3b4186f6b6457e0600080a3005b604051631e4fbdf760e01b815260006004820152602490fd5b34610157576020366003190112610157576103e661157d565b6103ee611593565b600980546001600160a01b0319166001600160a01b0392909216919091179055005b346101575761010036600319011261015757602061042c611793565b604051908152f35b346101575760403660031901126101575761044d61157d565b6001600160a01b036024358181169290839003610157571660005260036020526040600020906000526020526020604060002054604051908152f35b34610157576020366003190112610157576004356104a5611593565b6101f481116104b357600855005b60405162461bcd60e51b815260206004820152600c60248201526b08ccaca40e8dede40d0d2ced60a31b6044820152606490fd5b34610157576000366003190112610157576020600854604051908152f35b34610157576020366003190112610157576004356000526006602052602060ff604060002054166040519015158152f35b34610157576000366003190112610157576000546040516001600160a01b039091168152602090f35b3461015757610100366003190112610157576004356001600160a01b038116908190036101575733036105d657610594611793565b8060005260066020526040600020600160ff1982541617905533907fa6eb7cdc219e1518ced964e9a34e61d68a94e4f1569db3e84256ba981ba52753600080a3005b60405162461bcd60e51b81526020600482015260096024820152682737ba1036b0b5b2b960b91b6044820152606490fd5b3461015757600036600319011261015757610620611593565b600080546001600160a01b0319811682556001600160a01b03167f8be0079c531659141344cd1fd0a4f28419497f9722a3daafe3b4186f6b6457e08280a3005b34610157576020366003190112610157576001600160401b036004351161015757366023600435011215610157576001600160401b036004356004013511610157573660246004356004013560051b6004350101116101575733600052600760205260ff604060002054161561126a576106d8611696565b60005b6004356004013581106106ee5760018055005b60248160051b600435010135906102821960043536030182121561015757600435820161016481013560449091013503611230576004358201610184810135606490910135036111f85761074860848360043501016116f0565b6107596101a48460043501016116f0565b1515901515146111c75761010482600435010135421115806111b4575b1561117f576001600160a01b0361079360043584016024016116fd565b16600052600460205260406000205460e48360043501013510611144576001600160a01b036107c96004358401610144016116fd565b1660005260046020526040600020546102048360043501013510611109576107f7602483600435010161187a565b61080861014484600435010161187a565b9281600052600660205260ff6040600020541615806110f5575b156110be576108576108406004358301610124810190602401611711565b61085060248560043501016116fd565b918561191b565b156110855761088d6108756004358301610244810190602401611711565b6108866101448560043501016116fd565b918761191b565b1561104c578160005260056020526108b260406000205460c4836004350101356116b9565b8460005260056020526108d36040600020546101e4846004350101356116b9565b6102648360043501013515159182611038575b5081611024575b5015610ff05760a481600435010135918261090e60848460043501016116f0565b15610fd257610928906101c4846004350101351115611743565b670de0b6b3a76400006109448461026485600435010135611780565b049460018060a01b03600254169560405163c3c95c7b60e01b815260448560043501013560048201526000816024818b5afa908115610c8c57600091610dee575b50602001516001600160a01b0316906109a460043586016084016116f0565b15610dd7576109b960248660043501016116fd565b905b6109cb60848760043501016116f0565b15610dc1576109e16101448760043501016116fd565b925b60018060a01b03831660005260036020526040600020816000526020528160406000205410610d7c576040519963345262bb60e11b8b5260448860043501013560048c015260648860043501013560248c015260208b604481845afa9a8b15610c8c5760009b610d47575b50604051627eeac760e11b81526001600160a01b0386166004820152602481018c905290602090829060449082905afa908115610c8c57600091610d15575b506102648860043501013511610cd05760018060a01b03831660005260036020526040600020816000526020526040600020610aca8382546116b9565b9055610ae6612710610ade60085485611780565b0480936116b9565b60018060a01b0385166000526003602052604060002082600052602052610b1360406000209182546115bf565b905581610c98575b50506002546001600160a01b0316803b15610157576000928360c4926040519b8c958694637921219560e11b865260018060a01b0316600486015260018060a01b03166024850152604484015261026489600435010135606484015260a060848401528160a48401525af18015610c8c57610c5c575b610c5795508160005260056020526040600020610bb86102648560043501013582546115bf565b905560005260056020526040600020610bdb6102648460043501013582546115bf565b90557f190620535c3067fb2903d49c3a877e2ca446a2a9889963ad4037c471f15192296060610c1060248560043501016116fd565b94610c226101448660043501016116fd565b6040805160043590970160448101358852610264013560208801528601919091526001600160a01b03908116951693a46116e1565b6106db565b6001600160401b038611610c7657610c5795604052610b91565b634e487b7160e01b600052604160045260246000fd5b6040513d6000823e3d90fd5b60018060a01b03600954166000526003602052604060002090600052602052610cc760406000209182546115bf565b90558880610b1b565b60405162461bcd60e51b815260206004820152601a60248201527f53656c6c657220696e73756666696369656e7420746f6b656e730000000000006044820152606490fd5b90506020813d602011610d3f575b81610d3060209383611619565b8101031261015757518b610a8d565b3d9150610d23565b909a506020813d602011610d74575b81610d6360209383611619565b810103126101575751996020610a4e565b3d9150610d56565b60405162461bcd60e51b815260206004820152601a60248201527f427579657220696e73756666696369656e742062616c616e63650000000000006044820152606490fd5b610dd160248760043501016116fd565b926109e3565b610de86101448660043501016116fd565b906109bb565b90503d806000833e610e008183611619565b60208282810103126101575781516001600160401b0381116101575761010092838282018483010312610157576040519384818101106001600160401b038287011117610c7657840160405280820180518552602001516001600160a01b03811681036101575760208501528082016040818101519086015260608082015190860152608001516001600160401b03811161015757838201601f828585010101121561015757808383010151906001600160401b038211610c76578160051b60405192610ed06020830185611619565b8352602083018685016020838589890101010111610157576020838787010101915b602081858989010101018310610fbe5750505050608085015280820160a0818101519086015260c0908101519081151582036101575785015260e082820101516001600160401b03811161015757838201601f82858501010112156101575780838301015192610f61846116c6565b94610f6f6040519687611619565b848652830160208584848701010101116101575760005b848110610fa5575050505060206000918301015260e082015288610985565b8060208092858588010101015182828901015201610f86565b602080809385518152019301929150610ef2565b5091610fea6101c48360043501013591821015611743565b91610928565b60405162461bcd60e51b815260206004820152600c60248201526b125b9d985b1a5908199a5b1b60a21b6044820152606490fd5b9050610264826004350101351115856108ed565b6004358401610264013511159150866108e6565b60405162461bcd60e51b8152602060048201526011602482015270496e76616c69642074616b65722073696760781b6044820152606490fd5b60405162461bcd60e51b8152602060048201526011602482015270496e76616c6964206d616b65722073696760781b6044820152606490fd5b60405162461bcd60e51b815260206004820152600f60248201526e13dc99195c8818d85b98d95b1b1959608a1b6044820152606490fd5b508360005260ff6040600020541615610822565b60405162461bcd60e51b815260206004820152601360248201527215185ad95c881b9bdb98d9481a5b9d985b1a59606a1b6044820152606490fd5b60405162461bcd60e51b815260206004820152601360248201527213585ad95c881b9bdb98d9481a5b9d985b1a59606a1b6044820152606490fd5b60405162461bcd60e51b815260206004820152600d60248201526c13dc99195c88195e1c1a5c9959609a1b6044820152606490fd5b5061022482600435010135421115610776565b60405162461bcd60e51b815260206004820152600960248201526853616d65207369646560b81b6044820152606490fd5b60405162461bcd60e51b815260206004820152601060248201526f09eeae8c6dedaca40dad2e6dac2e8c6d60831b6044820152606490fd5b60405162461bcd60e51b8152602060048201526012602482015271086dedcc8d2e8d2dedc40dad2e6dac2e8c6d60731b6044820152606490fd5b60405162461bcd60e51b815260206004820152600f60248201526e2737ba1030b71037b832b930ba37b960891b6044820152606490fd5b346101575760003660031901126101575733600052600460205260406000206112ca81546116e1565b9055005b34610157576000366003190112610157576002546040516001600160a01b039091168152602090f35b346101575760403660031901126101575761131061157d565b6024359081151580920361015757611326611593565b60018060a01b0316600052600760205260406000209060ff80198354169116179055600080f35b60403660031901126101575761136161157d565b6024359061136d611696565b6001600160a01b03169081611419578034036113dd575b33600052600360205260406000208260005260205260406000206113a98282546115bf565b90556040519081527f5548c837ab068cf56a2c2479df0882a4922fd203edb7517321831d95078c5f6260203392a360018055005b60405162461bcd60e51b8152602060048201526014602482015273125b98dbdc9c9958dd0815915508185b5bdd5b9d60621b6044820152606490fd5b3461146d576040516323b872dd60e01b60208201523360248201523060448201526064808201839052815260a08101906001600160401b03821181831017610c7657611468916040528361163a565b611384565b60405162461bcd60e51b815260206004820152600f60248201526e111bc81b9bdd081cd95b9908159155608a1b6044820152606490fd5b34610157576000366003190112610157576009546040516001600160a01b039091168152602090f35b346101575760003660031901126101575760206040517f00000000000000000000000000000000000000000000000000000000000000008152f35b34610157576020366003190112610157576001600160a01b0361152961157d565b1660005260046020526020604060002054604051908152f35b34610157576020366003190112610157576020906001600160a01b0361156661157d565b166000526007825260ff6040600020541615158152f35b600435906001600160a01b038216820361015757565b6000546001600160a01b031633036115a757565b60405163118cdaa760e01b8152336004820152602490fd5b919082018092116115cc57565b634e487b7160e01b600052601160045260246000fd5b61014081019081106001600160401b03821117610c7657604052565b608081019081106001600160401b03821117610c7657604052565b90601f801991011681019081106001600160401b03821117610c7657604052565b906000602091828151910182855af115610c8c576000513d61168d57506001600160a01b0381163b155b61166b5750565b604051635274afe760e01b81526001600160a01b039091166004820152602490fd5b60011415611664565b6002600154146116a7576002600155565b604051633ee5aeb560e01b8152600490fd5b919082039182116115cc57565b6001600160401b038111610c7657601f01601f191660200190565b60001981146115cc5760010190565b3580151581036101575790565b356001600160a01b03811681036101575790565b903590601e198136030182121561015757018035906001600160401b0382116101575760200191813603831361015757565b1561174a57565b60405162461bcd60e51b815260206004820152600e60248201526d0a0e4d2c6ca40dad2e6dac2e8c6d60931b6044820152606490fd5b818102929181159184041417156115cc57565b6004356001600160a01b0381169081900361015757606435801515809103610157576040519060208201927fef6fe60bef87416d1f4739a0ff08cd262a6a0eaec294bc7f65b4b58fc966be16845260408301526024356060830152604435608083015260a082015260843560c082015260a43560e082015260c43561010082015261012060e435818301528152611829816115e2565b519020604051602081019161190160f01b83527f00000000000000000000000000000000000000000000000000000000000000006022830152604282015260428152611874816115fe565b51902090565b611883816116fd565b90611890606082016116f0565b906040519160208301937fef6fe60bef87416d1f4739a0ff08cd262a6a0eaec294bc7f65b4b58fc966be16855260018060a01b031660408401526020820135606084015260408201356080840152151560a0830152608081013560c083015260a081013560e083015260c081013561010083015260e0610120910135818301528152611829816115e2565b929192611927846116c6565b906119356040519283611619565b84825236858401116101575760006020866119649761195b968387013784010152611975565b90939193611a41565b6001600160a01b0391821691161490565b81519190604183036119a65761199f92506020820151906060604084015193015160001a906119b1565b9192909190565b505060009160029190565b91907f7fffffffffffffffffffffffffffffff5d576e7357a4501ddfe92f46681b20a08411611a3557926020929160ff608095604051948552168484015260408301526060820152600092839182805260015afa15611a295780516001600160a01b03811615611a2057918190565b50809160019190565b604051903d90823e3d90fd5b50505060009160039190565b6004811015611ab05780611a53575050565b60018103611a6d5760405163f645eedf60e01b8152600490fd5b60028103611a8e5760405163fce698f760e01b815260048101839052602490fd5b600314611a985750565b602490604051906335e2f38360e21b82526004820152fd5b634e487b7160e01b600052602160045260246000fdfea2646970667358221220f9295d40de5e08f91db3c57158ddd7e01fdb13638c70fc0e0e65ef07705ef79a64736f6c63430008140033",
  "linkReferences": {},
  "deployedLinkReferences": {}
}