{"contracts/MarketFactory.sol":{"MarketFactory":{"abi":[{"inputs":[{"internalType":"address","name":"_conditionalTokens","type":"address"}],"stateMutability":"nonpayable","type":"constructor"},{"inputs":[{"internalType":"address","name":"owner","type":"address"}],"name":"OwnableInvalidOwner","type":"error"},{"inputs":[{"internalType":"address","name":"account","type":"address"}],"name":"OwnableUnauthorizedAccount","type":"error"},{"anonymous":false,"inputs":[{"indexed":true,"internalType":"address","name":"token","type":"address"},{"indexed":false,"internalType":"bool","name":"approved","type":"bool"}],"name":"CollateralApproved","type":"event"},{"anonymous":false,"inputs":[{"indexed":true,"internalType":"bytes32","name":"conditionId","type":"bytes32"}],"name":"MarketDeactivated","type":"event"},{"anonymous":false,"inputs":[{"indexed":true,"internalType":"address","name":"previousOwner","type":"address"},{"indexed":true,"internalType":"address","name":"newOwner","type":"address"}],"name":"OwnershipTransferred","type":"event"},{"anonymous":false,"inputs":[{"indexed":true,"internalType":"bytes32","name":"conditionId","type":"bytes32"},{"indexed":false,"internalType":"string","name":"eventName","type":"string"},{"indexed":false,"internalType":"string","name":"fighterA","type":"string"},{"indexed":false,"internalType":"string","name":"fighterB","type":"string"},{"indexed":false,"internalType":"enum MarketFactory.MarketType","name":"marketType","type":"uint8"},{"indexed":false,"internalType":"string[]","name":"outcomeLabels","type":"string[]"}],"name":"UFCMarketCreated","type":"event"},{"inputs":[{"internalType":"uint256","name":"","type":"uint256"}],"name":"allMarkets","outputs":[{"internalType":"bytes32","name":"","type":"bytes32"}],"stateMutability":"view","type":"function"},{"inputs":[{"internalType":"address","name":"","type":"address"}],"name":"approvedCollateral","outputs":[{"internalType":"bool","name":"","type":"bool"}],"stateMutability":"view","type":"function"},{"inputs":[],"name":"conditionalTokens","outputs":[{"internalType":"contract ConditionalTokens","name":"","type":"address"}],"stateMutability":"view","type":"function"},{"inputs":[{"internalType":"string","name":"eventName","type":"string"},{"internalType":"string","name":"fighterA","type":"string"},{"internalType":"string","name":"fighterB","type":"string"},{"internalType":"uint256","name":"eventDate","type":"uint256"},{"internalType":"address","name":"collateralToken","type":"address"},{"internalType":"string","name":"eventUri","type":"string"}],"name":"createGoesDistanceMarket","outputs":[{"internalType":"bytes32","name":"","type":"bytes32"}],"stateMutability":"nonpayable","type":"function"},{"inputs":[{"internalType":"string","name":"eventName","type":"string"},{"internalType":"string","name":"fighterA","type":"string"},{"internalType":"string","name":"fighterB","type":"string"},{"internalType":"uint256","name":"eventDate","type":"uint256"},{"internalType":"address","name":"collateralToken","type":"address"},{"internalType":"string","name":"eventUri","type":"string"}],"name":"createMethodMarket","outputs":[{"internalType":"bytes32","name":"","type":"bytes32"}],"stateMutability":"nonpayable","type":"function"},{"inputs":[{"internalType":"string","name":"eventName","type":"string"},{"internalType":"string","name":"fighterA","type":"string"},{"internalType":"string","name":"fighterB","type":"string"},{"internalType":"uint256","name":"eventDate","type":"uint256"},{"internalType":"address","name":"collateralToken","type":"address"},{"internalType":"string","name":"eventUri","type":"string"}],"name":"createWinnerMarket","outputs":[{"internalType":"bytes32","name":"","type":"bytes32"}],"stateMutability":"nonpayable","type":"function"},{"inputs":[{"internalType":"bytes32","name":"conditionId","type":"bytes32"}],"name":"deactivateMarket","outputs":[],"stateMutability":"nonpayable","type":"function"},{"inputs":[{"internalType":"string","name":"eventName","type":"string"},{"internalType":"string","name":"fighterA","type":"string"},{"internalType":"string","name":"fighterB","type":"string"},{"internalType":"enum MarketFactory.MarketType","name":"marketType","type":"uint8"}],"name":"generateConditionId","outputs":[{"internalType":"bytes32","name":"","type":"bytes32"}],"stateMutability":"view","type":"function"},{"inputs":[],"name":"getActiveMarketsCount","outputs":[{"internalType":"uint256","name":"count","type":"uint256"}],"stateMutability":"view","type":"function"},{"inputs":[],"name":"getAllMarkets","outputs":[{"internalType":"bytes32[]","name":"","type":"bytes32[]"}],"stateMutability":"view","type":"function"},{"inputs":[{"internalType":"bytes32","name":"conditionId","type":"bytes32"}],"name":"getOutcomeLabels","outputs":[{"internalType":"string[]","name":"","type":"string[]"}],"stateMutability":"view","type":"function"},{"inputs":[],"name":"owner","outputs":[{"internalType":"address","name":"","type":"address"}],"stateMutability":"view","type":"function"},{"inputs":[],"name":"renounceOwnership","outputs":[],"stateMutability":"nonpayable","type":"function"},{"inputs":[{"internalType":"address","name":"token","type":"address"},{"internalType":"bool","name":"approved","type":"bool"}],"name":"setCollateralApproval","outputs":[],"stateMutability":"nonpayable","type":"function"},{"inputs":[{"internalType":"address","name":"newOwner","type":"address"}],"name":"transferOwnership","outputs":[],"stateMutability":"nonpayable","type":"function"},{"inputs":[{"internalType":"bytes32","name":"","type":"bytes32"}],"name":"ufcMarkets","outputs":[{"internalType":"bytes32","name":"conditionId","type":"bytes32"},{"internalType":"string","name":"eventName","type":"string"},{"internalType":"string","name":"fighterA","type":"string"},{"internalType":"string","name":"fighterB","type":"string"},{"internalType":"enum MarketFactory.MarketType","name":"marketType","type":"uint8"},{"internalType":"uint256","name":"eventDate","type":"uint256"},{"internalType":"bool","name":"active","type":"bool"},{"internalType":"address","name":"collateralToken","type":"address"}],"stateMutability":"view","type":"function"}],"evm":{"bytecode":{"linkReferences":{},"object":"6080346100df57601f620027ce38819003918201601f19168301916001600160401b038311848410176100e4578084926020946040528339810103126100df57516001600160a01b0390818116908190036100df5733156100c657600080546001600160a01b03198082163390811784556040805196909593167f8be0079c531659141344cd1fd0a4f28419497f9722a3daafe3b4186f6b6457e08580a36001541617600155808052600460205220600160ff198254161790556126d39081620000fb8239f35b604051631e4fbdf760e01b815260006004820152602490fd5b600080fd5b634e487b7160e01b600052604160045260246000fdfe6080604052600436101561001257600080fd5b6000803560e01c8063010d2186146120625780634ca4888c14611f7c5780634e4797b5146117ab57806352d84d1e146117725780635bd9e299146117495780636264053314610f7e57806371225e6b14610ea2578063715018a614610e485780638da5cb5b14610e21578063b050b67214610de2578063b0772d0b14610d2e578063b83f211714610ca2578063d5a1db1414610bf8578063e4001f2714610207578063e4f54cf51461015a5763f2fde38b146100cd57600080fd5b34610157576020366003190112610157576100e6612291565b6100ee6123e8565b6001600160a01b0390811690811561013e57600054826001600160601b0360a01b821617600055167f8be0079c531659141344cd1fd0a4f28419497f9722a3daafe3b4186f6b6457e0600080a380f35b604051631e4fbdf760e01b815260048101849052602490fd5b80fd5b5034610157576020806003193601126102035760043582526003815260076040832001918254906001600160401b0382116101ed5792604051936101a3848460051b0186612158565b828552908152828120838086015b8484106101cf57604051828152806101cb8185018a61238c565b0390f35b60019182916101dd85612179565b81520192019201919084906101b1565b634e487b7160e01b600052604160045260246000fd5b5080fd5b503461015757610216366122a7565b9693949592916102289a91999a6123e8565b6001600160a01b03811682526004602052604082205461024a9060ff16612414565b610255428411612460565b600554998b858b8d8a8c81858d6040519787899860208a019b8c3788019160208301600081523701916020830160008152370190600160f81b60208301526021820152036021810182526041016102ac9082612158565b5190209a8b845260036020526040842054156102c7906124ac565b6102d0906124f0565b600555604051988960e081011060e08b016001600160401b0310176101ed5760e08a0160405260068a528789888c60005b60c08110610bdd575091602c9161046f610492948c604051818560208301378181019061034d602a8269206279204b4f2f544b4f60b01b9485602082015203600a810184520182612158565b61035684612559565b5261036083612559565b5060405191808660208501378083019261039d602e826d10313c9029bab136b4b9b9b4b7b760911b9687602082015203600e810184520182612158565b6103a685612566565b526103b084612566565b50806040519660208801378501946103e888826b10313c902232b1b4b9b4b7b760a11b9889602082015203600c810184520182612158565b6103f184612576565b526103fb83612576565b50610424602a60405180938c8a60208401378c820190602082015203600a810184520182612158565b61042d83612586565b5261043782612586565b50610460602e60405180938b8960208401378b820190602082015203600e810184520182612158565b61046982612596565b52612596565b5060405194859260208401378c820190602082015203600c810184520182612158565b61049b8b6125a6565b526104a58a6125a6565b506001546001600160a01b031690813b15610bd9576040516303a4b01960e01b8152600481018e90526001600160a01b0385166024820152600660448201526080606482015292859284929091839185918391610507916084840191906125b6565b03925af18015610bce57908391610bba575b50506040519261052884612121565b8a8452610536368b8e612609565b6020850152610546368688612609565b604085015261055636888a612609565b60608501526001608085015260a0840152600160c08401528760e084015260018060a01b0316610100830152888152600360205260408120908251825560208301518051906001600160401b03821161098b5781906105b860018601546120d4565b601f8111610b87575b50602090601f8311600114610b18578492610b0d575b50508160011b916000199060031b1c19161760018301555b60408301518051906001600160401b03821161098b57819061061460028601546120d4565b601f8111610ada575b50602090601f8311600114610a6b578492610a60575b50508160011b916000199060031b1c19161760028301555b60608301518051906001600160401b03821161098b57819061067060038601546120d4565b601f8111610a2d575b50602090601f83116001146109be5784926109b3575b50508160011b916000199060031b1c19161760038301555b600482016080840151600581101561099f5760ff8019835416911617905560a083015160058301556106ee60c08401511515600684019060ff801983541691151516179055565b60e0830151805190600160401b821161098b576007840154826007860155808310610913575b506020016007840183526020832083915b8383106107e5575050505050948897946107b76107da957fa288d5d6dd77b6573a9f886b36c4310244e9c0dc2e7de1b5abf1e8dfa7694cd299956107c595600860209f9b019061010060018060a01b03910151166001600160601b0360a01b8254161790556107938c612666565b6107aa6040519a8b9a60a08c5260a08c01916125b6565b918983038f8b01526125b6565b9186830360408801526125b6565b9060016060850152838203608085015261238c565b0390a2604051908152f35b80518051906001600160401b0382116108ff5761080284546120d4565b601f81116108c4575b50602090601f83116001146108575792826001949360209386958b9261084c575b5050600019600383901b1c191690841b1785555b01920192019190610725565b01519050388061082c565b908488526020882091885b601f19851681106108ac575083602093600196938796938794601f19811610610893575b505050811b018555610840565b015160001960f88460031b161c19169055388080610886565b91926020600181928685015181550194019201610862565b6108ef9085895260208920601f850160051c810191602086106108f5575b601f0160051c019061264f565b3861080b565b90915081906108e2565b634e487b7160e01b87526041600452602487fd5b60078501845260208420908382015b8183018110610932575050610714565b8086610940600193546120d4565b8061094e575b505001610922565b601f81118414610966575050600081555b8638610946565b828252610981601f60208420920160051c820185830161264f565b600083555561095f565b634e487b7160e01b83526041600452602483fd5b634e487b7160e01b83526021600452602483fd5b01519050388061068f565b9250600385018452602084209084935b601f1984168510610a12576001945083601f198116106109f9575b505050811b0160038301556106a7565b015160001960f88460031b161c191690553880806109e9565b818101518355602094850194600190930192909101906109ce565b610a5a9060038701865260208620601f850160051c810191602086106108f557601f0160051c019061264f565b38610679565b015190503880610633565b9250600285018452602084209084935b601f1984168510610abf576001945083601f19811610610aa6575b505050811b01600283015561064b565b015160001960f88460031b161c19169055388080610a96565b81810151835560209485019460019093019290910190610a7b565b610b079060028701865260208620601f850160051c810191602086106108f557601f0160051c019061264f565b3861061d565b0151905038806105d7565b9250600185018452602084209084935b601f1984168510610b6c576001945083601f19811610610b53575b505050811b0160018301556105ef565b015160001960f88460031b161c19169055388080610b43565b81810151835560209485019460019093019290910190610b28565b610bb49060018701865260208620601f850160051c810191602086106108f557601f0160051c019061264f565b386105c1565b610bc39061210e565b610203578138610519565b6040513d85823e3d90fd5b8480fd5b602094508093506060925084910101520189888c8b93610301565b503461015757602036600319011261015757600435610c156123e8565b8082526003602052604082205415610c6557808252600360205260408220600601805460ff191690557f69de45da87f2810fb331b57fb71ef84ed05e9b14551c59b43c5241c7926b47618280a280f35b60405162461bcd60e51b815260206004820152601560248201527413585c9ad95d08191bd95cc81b9bdd08195e1a5cdd605a1b6044820152606490fd5b503461015757604036600319011261015757610cbc612291565b6024359081151590818303610d2a577fd0780922098a7954b5b7fa7a30d189ace43dc3396b4d4bde7cba3ed0082f88ae91610d20602092610cfb6123e8565b60018060a01b03169485875260048452604087209060ff801983541691151516179055565b604051908152a280f35b8380fd5b503461015757806003193601126101575760405180916002549081835260208093018092600283527f405787fa12a823e0f2b7631cc41b3ba8828b3321ca811111fa75cd3aa3bb5ace90835b818110610dce5750505084610d90910385612158565b60405193838594850191818652518092526040850193925b828110610db757505050500390f35b835185528695509381019392810192600101610da8565b825484529286019260019283019201610d7a565b50346101575760203660031901126101575760209060ff906040906001600160a01b03610e0d612291565b168152600484522054166040519015158152f35b5034610157578060031936011261015757546040516001600160a01b039091168152602090f35b5034610157578060031936011261015757610e616123e8565b600080546001600160a01b0319811682556001600160a01b03167f8be0079c531659141344cd1fd0a4f28419497f9722a3daafe3b4186f6b6457e08280a380f35b5034610157576080366003190112610157576001600160401b039060043582811161020357610ed590369060040161225f565b92909160243582811161020357610ef090369060040161225f565b92604435908111610f7a57610f0990369060040161225f565b9060643593600585101561015757509260419282610f6f956020999488600554946040519a888c998f8b019e8f378901918e8301600081523701918b83016000815237019160ff60f81b9060f81b16888301526021820152036021810184520182612158565b519020604051908152f35b8280fd5b503461015757610f8d366122a7565b989990969394959291610f9e6123e8565b6001600160a01b038116825260046020526040822054610fc09060ff16612414565b610fcb428411612460565b600554998b858b8d8a8c81858d6040519787899860208a019b8c3788019160208301600081523701916020830160008152370190600160f91b60208301526021820152036021810182526041016110229082612158565b5190209a8b8452600360205260408420541561103d906124ac565b611046906124f0565b600555611051612515565b9860405161105e8161213d565b60168152752cb2b990169023b7b2b9903a37902232b1b4b9b4b7b760511b602082015261108a8b612559565b526110948a612559565b506040516110a18161213d565b600b81526a09cde405a408cd2dcd2e6d60ab1b60208201526110c28b612566565b526110cc8a612566565b506001546001600160a01b0316803b15610bd95790849184838f611106604051978896879586946303a4b01960e01b8652600486016125d7565b03925af18015610bce57908391611735575b50506040519261112784612121565b8a8452611135368b8e612609565b6020850152611145368688612609565b604085015261115536888a612609565b60608501526002608085015260a0840152600160c08401528760e084015260018060a01b0316610100830152888152600360205260408120908251825560208301518051906001600160401b03821161098b5781906111b760018601546120d4565b601f8111611702575b50602090601f8311600114611693578492611688575b50508160011b916000199060031b1c19161760018301555b60408301518051906001600160401b03821161098b57819061121360028601546120d4565b601f8111611655575b50602090601f83116001146115e65784926115db575b50508160011b916000199060031b1c19161760028301555b60608301518051906001600160401b03821161098b57819061126f60038601546120d4565b601f81116115a8575b50602090601f831160011461153957849261152e575b50508160011b916000199060031b1c19161760038301555b600482016080840151600581101561099f5760ff8019835416911617905560a083015160058301556112ed60c08401511515600684019060ff801983541691151516179055565b60e0830151805190600160401b821161098b5760078401548260078601558083106114b6575b506020016007840183526020832083915b8383106113a7575050505050948897946107b76107da957fa288d5d6dd77b6573a9f886b36c4310244e9c0dc2e7de1b5abf1e8dfa7694cd2999561139295600860209f9b019061010060018060a01b03910151166001600160601b0360a01b8254161790556107938c612666565b9060026060850152838203608085015261238c565b80518051906001600160401b0382116108ff576113c484546120d4565b601f8111611486575b50602090601f83116001146114195792826001949360209386958b9261140e575b5050600019600383901b1c191690841b1785555b01920192019190611324565b0151905038806113ee565b908488526020882091885b601f198516811061146e575083602093600196938796938794601f19811610611455575b505050811b018555611402565b015160001960f88460031b161c19169055388080611448565b91926020600181928685015181550194019201611424565b6114b09085895260208920601f850160051c810191602086106108f557601f0160051c019061264f565b386113cd565b60078501845260208420908382015b81830181106114d5575050611313565b80866114e3600193546120d4565b806114f1575b5050016114c5565b601f81118414611509575050600081555b86386114e9565b828252611524601f60208420920160051c820185830161264f565b6000835555611502565b01519050388061128e565b9250600385018452602084209084935b601f198416851061158d576001945083601f19811610611574575b505050811b0160038301556112a6565b015160001960f88460031b161c19169055388080611564565b81810151835560209485019460019093019290910190611549565b6115d59060038701865260208620601f850160051c810191602086106108f557601f0160051c019061264f565b38611278565b015190503880611232565b9250600285018452602084209084935b601f198416851061163a576001945083601f19811610611621575b505050811b01600283015561124a565b015160001960f88460031b161c19169055388080611611565b818101518355602094850194600190930192909101906115f6565b6116829060028701865260208620601f850160051c810191602086106108f557601f0160051c019061264f565b3861121c565b0151905038806111d6565b9250600185018452602084209084935b601f19841685106116e7576001945083601f198116106116ce575b505050811b0160018301556111ee565b015160001960f88460031b161c191690553880806116be565b818101518355602094850194600190930192909101906116a3565b61172f9060018701865260208620601f850160051c810191602086106108f557601f0160051c019061264f565b386111c0565b61173e9061210e565b610203578138611118565b50346101575780600319360112610157576001546040516001600160a01b039091168152602090f35b5034610157576020366003190112610157576004359060025482101561015757602061179d8361233f565b90546040519160031b1c8152f35b5034610157576117ba366122a7565b98996117cc97949596939291976123e8565b6001600160a01b0382168152600460205260408120546117ee9060ff16612414565b6117f9428411612460565b600554998b858b8d8a8c81858d6040519787899860208a019b8c37880191602083018d8152370191602083018a815237019086602083015260218201520360218101825260410161184a9082612158565b5190209a8b83526003602052604083205415611865906124ac565b61186e906124f0565b600555611879612515565b98604051868860208301378681019080642077696e7360d81b92836020820152036005810182526025016118ad9082612158565b6118b68c612559565b526118c08b612559565b5060405180918a8c60208401378a8201906020820152036005810182526025016118ea9082612158565b6118f38b612566565b526118fd8a612566565b506001546001600160a01b0316803b15610d2a5790839185838f611937604051978896879586946303a4b01960e01b8652600486016125d7565b03925af18015611f7157611f62575b50906040519261195584612121565b8a8452611963368b8e612609565b6020850152611973368688612609565b604085015261198336888a612609565b606085015282608085015260a0840152600160c08401528760e084015260018060a01b0316610100830152888152600360205260408120908251825560208301518051906001600160401b03821161098b5781906119e460018601546120d4565b601f8111611f2f575b50602090601f8311600114611ec0578492611eb5575b50508160011b916000199060031b1c19161760018301555b60408301518051906001600160401b03821161098b578190611a4060028601546120d4565b601f8111611e82575b50602090601f8311600114611e13578492611e08575b50508160011b916000199060031b1c19161760028301555b60608301518051906001600160401b03821161098b578190611a9c60038601546120d4565b601f8111611dd5575b50602090601f8311600114611d66578492611d5b575b50508160011b916000199060031b1c19161760038301555b600482016080840151600581101561099f5760ff8019835416911617905560a08301516005830155611b1a60c08401511515600684019060ff801983541691151516179055565b60e0830151805190600160401b821161098b576007840154826007860155808310611ce3575b506020016007840183526020832083915b838310611bd4575050505050948897946107b76107da957fa288d5d6dd77b6573a9f886b36c4310244e9c0dc2e7de1b5abf1e8dfa7694cd29995611bbf95600860209f9b019061010060018060a01b03910151166001600160601b0360a01b8254161790556107938c612666565b9060006060850152838203608085015261238c565b80518051906001600160401b0382116108ff57611bf184546120d4565b601f8111611cb3575b50602090601f8311600114611c465792826001949360209386958b92611c3b575b5050600019600383901b1c191690841b1785555b01920192019190611b51565b015190503880611c1b565b908488526020882091885b601f1985168110611c9b575083602093600196938796938794601f19811610611c82575b505050811b018555611c2f565b015160001960f88460031b161c19169055388080611c75565b91926020600181928685015181550194019201611c51565b611cdd9085895260208920601f850160051c810191602086106108f557601f0160051c019061264f565b38611bfa565b60078501845260208420908382015b8183018110611d02575050611b40565b8086611d10600193546120d4565b80611d1e575b505001611cf2565b601f81118414611d36575050600081555b8638611d16565b828252611d51601f60208420920160051c820185830161264f565b6000835555611d2f565b015190503880611abb565b9250600385018452602084209084935b601f1984168510611dba576001945083601f19811610611da1575b505050811b016003830155611ad3565b015160001960f88460031b161c19169055388080611d91565b81810151835560209485019460019093019290910190611d76565b611e029060038701865260208620601f850160051c810191602086106108f557601f0160051c019061264f565b38611aa5565b015190503880611a5f565b9250600285018452602084209084935b601f1984168510611e67576001945083601f19811610611e4e575b505050811b016002830155611a77565b015160001960f88460031b161c19169055388080611e3e565b81810151835560209485019460019093019290910190611e23565b611eaf9060028701865260208620601f850160051c810191602086106108f557601f0160051c019061264f565b38611a49565b015190503880611a03565b9250600185018452602084209084935b601f1984168510611f14576001945083601f19811610611efb575b505050811b016001830155611a1b565b015160001960f88460031b161c19169055388080611eeb565b81810151835560209485019460019093019290910190611ed0565b611f5c9060018701865260208620601f850160051c810191602086106108f557601f0160051c019061264f565b386119ed565b611f6b9061210e565b38611946565b6040513d84823e3d90fd5b5034610157576020366003190112610157576004358152600360205260408120805490611fab60018201612179565b611fb760028301612179565b91611fc460038201612179565b9261202760ff6004840154169461201960058501549361200b60ff60068801541696600860018060a01b0391015416976040519a8b526101008060208d01528b019061221f565b9089820360408b015261221f565b90878203606089015261221f565b93600581101561204e57859650608086015260a0850152151560c084015260e08301520390f35b634e487b7160e01b87526021600452602487fd5b503461015757806003193601126101575760025481805b82811061208b57602084604051908152f35b6120948161233f565b9054600391821b1c835260205260ff6006604084200154166120bf575b6120ba906124f0565b612079565b926120cc6120ba916124f0565b9390506120b1565b90600182811c92168015612104575b60208310146120ee57565b634e487b7160e01b600052602260045260246000fd5b91607f16916120e3565b6001600160401b0381116101ed57604052565b61012081019081106001600160401b038211176101ed57604052565b604081019081106001600160401b038211176101ed57604052565b90601f801991011681019081106001600160401b038211176101ed57604052565b906040519182600082549261218d846120d4565b9081845260019485811690816000146121fc57506001146121b9575b50506121b792500383612158565b565b9093915060005260209081600020936000915b8183106121e45750506121b7935082010138806121a9565b855488840185015294850194879450918301916121cc565b9150506121b794506020925060ff191682840152151560051b82010138806121a9565b919082519283825260005b84811061224b575050826000602080949584010152601f8019910116010190565b60208183018101518483018201520161222a565b9181601f8401121561228c578235916001600160401b03831161228c576020838186019501011161228c57565b600080fd5b600435906001600160a01b038216820361228c57565b60c060031982011261228c576001600160401b039160043583811161228c57826122d39160040161225f565b9390939260243582811161228c57816122ee9160040161225f565b9390939260443581811161228c57836123099160040161225f565b90939092606435926084356001600160a01b038116810361228c579260a43591821161228c5761233b9160040161225f565b9091565b6002548110156123765760026000527f405787fa12a823e0f2b7631cc41b3ba8828b3321ca811111fa75cd3aa3bb5ace0190600090565b634e487b7160e01b600052603260045260246000fd5b908082519081815260208091019281808460051b8301019501936000915b8483106123ba5750505050505090565b90919293949584806123d8600193601f198682030187528a5161221f565b98019301930191949392906123aa565b6000546001600160a01b031633036123fc57565b60405163118cdaa760e01b8152336004820152602490fd5b1561241b57565b60405162461bcd60e51b815260206004820152601760248201527f436f6c6c61746572616c206e6f7420617070726f7665640000000000000000006044820152606490fd5b1561246757565b60405162461bcd60e51b815260206004820152601760248201527f4576656e74206d75737420626520696e206675747572650000000000000000006044820152606490fd5b156124b357565b60405162461bcd60e51b81526020600482015260156024820152744d61726b657420616c72656164792065786973747360581b6044820152606490fd5b60001981146124ff5760010190565b634e487b7160e01b600052601160045260246000fd5b60409081519160608084018481106001600160401b038211176101ed578252600284528360005b8381106125495750505050565b808360208093850101520161253c565b8051156123765760200190565b8051600110156123765760400190565b8051600210156123765760600190565b8051600310156123765760800190565b8051600410156123765760a00190565b8051600510156123765760c00190565b908060209392818452848401376000828201840152601f01601f1916010190565b9081526001600160a01b03909116602082015260026040820152608060608201819052612606939101916125b6565b90565b9291926001600160401b0382116101ed5760405191612632601f8201601f191660200184612158565b82948184528183011161228c578281602093846000960137010152565b81811061265a575050565b6000815560010161264f565b600254600160401b8110156101ed57806001612685920160025561233f565b819291549060031b91821b91600019901b191617905556fea2646970667358221220837c46884e69dad55efe6fd37ee8d8428c21dddeab9c7420a10e61fd7d15d0ad64736f6c63430008140033","opcodes":"PUSH1 0x80 CALLVALUE PUSH2 0xDF JUMPI PUSH1 0x1F PUSH3 0x27CE CODESIZE DUP2 SWAP1 SUB SWAP2 DUP3 ADD PUSH1 0x1F NOT AND DUP4 ADD SWAP2 PUSH1 0x1 PUSH1 0x1 PUSH1 0x40 SHL SUB DUP4 GT DUP5 DUP5 LT OR PUSH2 0xE4 JUMPI DUP1 DUP5 SWAP3 PUSH1 0x20 SWAP5 PUSH1 0x40 MSTORE DUP4 CODECOPY DUP2 ADD SUB SLT PUSH2 0xDF JUMPI MLOAD PUSH1 0x1 PUSH1 0x1 PUSH1 0xA0 SHL SUB SWAP1 DUP2 DUP2 AND SWAP1 DUP2 SWAP1 SUB PUSH2 0xDF JUMPI CALLER ISZERO PUSH2 0xC6 JUMPI PUSH1 0x0 DUP1 SLOAD PUSH1 0x1 PUSH1 0x1 PUSH1 0xA0 SHL SUB NOT DUP1 DUP3 AND CALLER SWAP1 DUP2 OR DUP5 SSTORE PUSH1 0x40 DUP1 MLOAD SWAP7 SWAP1 SWAP6 SWAP4 AND PUSH32 0x8BE0079C531659141344CD1FD0A4F28419497F9722A3DAAFE3B4186F6B6457E0 DUP6 DUP1 LOG3 PUSH1 0x1 SLOAD AND OR PUSH1 0x1 SSTORE DUP1 DUP1 MSTORE PUSH1 0x4 PUSH1 0x20 MSTORE KECCAK256 PUSH1 0x1 PUSH1 0xFF NOT DUP3 SLOAD AND OR SWAP1 SSTORE PUSH2 0x26D3 SWAP1 DUP2 PUSH3 0xFB DUP3 CODECOPY RETURN JUMPDEST PUSH1 0x40 MLOAD PUSH4 0x1E4FBDF7 PUSH1 0xE0 SHL DUP2 MSTORE PUSH1 0x0 PUSH1 0x4 DUP3 ADD MSTORE PUSH1 0x24 SWAP1 REVERT JUMPDEST PUSH1 0x0 DUP1 REVERT JUMPDEST PUSH4 0x4E487B71 PUSH1 0xE0 SHL PUSH1 0x0 MSTORE PUSH1 0x41 PUSH1 0x4 MSTORE PUSH1 0x24 PUSH1 0x0 REVERT INVALID PUSH1 0x80 PUSH1 0x40 MSTORE PUSH1 0x4 CALLDATASIZE LT ISZERO PUSH2 0x12 JUMPI PUSH1 0x0 DUP1 REVERT JUMPDEST PUSH1 0x0 DUP1 CALLDATALOAD PUSH1 0xE0 SHR DUP1 PUSH4 0x10D2186 EQ PUSH2 0x2062 JUMPI DUP1 PUSH4 0x4CA4888C EQ PUSH2 0x1F7C JUMPI DUP1 PUSH4 0x4E4797B5 EQ PUSH2 0x17AB JUMPI DUP1 PUSH4 0x52D84D1E EQ PUSH2 0x1772 JUMPI DUP1 PUSH4 0x5BD9E299 EQ PUSH2 0x1749 JUMPI DUP1 PUSH4 0x62640533 EQ PUSH2 0xF7E JUMPI DUP1 PUSH4 0x71225E6B EQ PUSH2 0xEA2 JUMPI DUP1 PUSH4 0x715018A6 EQ PUSH2 0xE48 JUMPI DUP1 PUSH4 0x8DA5CB5B EQ PUSH2 0xE21 JUMPI DUP1 PUSH4 0xB050B672 EQ PUSH2 0xDE2 JUMPI DUP1 PUSH4 0xB0772D0B EQ PUSH2 0xD2E JUMPI DUP1 PUSH4 0xB83F2117 EQ PUSH2 0xCA2 JUMPI DUP1 PUSH4 0xD5A1DB14 EQ PUSH2 0xBF8 JUMPI DUP1 PUSH4 0xE4001F27 EQ PUSH2 0x207 JUMPI DUP1 PUSH4 0xE4F54CF5 EQ PUSH2 0x15A JUMPI PUSH4 0xF2FDE38B EQ PUSH2 0xCD JUMPI PUSH1 0x0 DUP1 REVERT JUMPDEST CALLVALUE PUSH2 0x157 JUMPI PUSH1 0x20 CALLDATASIZE PUSH1 0x3 NOT ADD SLT PUSH2 0x157 JUMPI PUSH2 0xE6 PUSH2 0x2291 JUMP JUMPDEST PUSH2 0xEE PUSH2 0x23E8 JUMP JUMPDEST PUSH1 0x1 PUSH1 0x1 PUSH1 0xA0 SHL SUB SWAP1 DUP2 AND SWAP1 DUP2 ISZERO PUSH2 0x13E JUMPI PUSH1 0x0 SLOAD DUP3 PUSH1 0x1 PUSH1 0x1 PUSH1 0x60 SHL SUB PUSH1 0xA0 SHL DUP3 AND OR PUSH1 0x0 SSTORE AND PUSH32 0x8BE0079C531659141344CD1FD0A4F28419497F9722A3DAAFE3B4186F6B6457E0 PUSH1 0x0 DUP1 LOG3 DUP1 RETURN JUMPDEST PUSH1 0x40 MLOAD PUSH4 0x1E4FBDF7 PUSH1 0xE0 SHL DUP2 MSTORE PUSH1 0x4 DUP2 ADD DUP5 SWAP1 MSTORE PUSH1 0x24 SWAP1 REVERT JUMPDEST DUP1 REVERT JUMPDEST POP CALLVALUE PUSH2 0x157 JUMPI PUSH1 0x20 DUP1 PUSH1 0x3 NOT CALLDATASIZE ADD SLT PUSH2 0x203 JUMPI PUSH1 0x4 CALLDATALOAD DUP3 MSTORE PUSH1 0x3 DUP2 MSTORE PUSH1 0x7 PUSH1 0x40 DUP4 KECCAK256 ADD SWAP2 DUP3 SLOAD SWAP1 PUSH1 0x1 PUSH1 0x1 PUSH1 0x40 SHL SUB DUP3 GT PUSH2 0x1ED JUMPI SWAP3 PUSH1 0x40 MLOAD SWAP4 PUSH2 0x1A3 DUP5 DUP5 PUSH1 0x5 SHL ADD DUP7 PUSH2 0x2158 JUMP JUMPDEST DUP3 DUP6 MSTORE SWAP1 DUP2 MSTORE DUP3 DUP2 KECCAK256 DUP4 DUP1 DUP7 ADD JUMPDEST DUP5 DUP5 LT PUSH2 0x1CF JUMPI PUSH1 0x40 MLOAD DUP3 DUP2 MSTORE DUP1 PUSH2 0x1CB DUP2 DUP6 ADD DUP11 PUSH2 0x238C JUMP JUMPDEST SUB SWAP1 RETURN JUMPDEST PUSH1 0x1 SWAP2 DUP3 SWAP2 PUSH2 0x1DD DUP6 PUSH2 0x2179 JUMP JUMPDEST DUP2 MSTORE ADD SWAP3 ADD SWAP3 ADD SWAP2 SWAP1 DUP5 SWAP1 PUSH2 0x1B1 JUMP JUMPDEST PUSH4 0x4E487B71 PUSH1 0xE0 SHL PUSH1 0x0 MSTORE PUSH1 0x41 PUSH1 0x4 MSTORE PUSH1 0x24 PUSH1 0x0 REVERT JUMPDEST POP DUP1 REVERT JUMPDEST POP CALLVALUE PUSH2 0x157 JUMPI PUSH2 0x216 CALLDATASIZE PUSH2 0x22A7 JUMP JUMPDEST SWAP7 SWAP4 SWAP5 SWAP6 SWAP3 SWAP2 PUSH2 0x228 SWAP11 SWAP2 SWAP10 SWAP11 PUSH2 0x23E8 JUMP JUMPDEST PUSH1 0x1 PUSH1 0x1 PUSH1 0xA0 SHL SUB DUP2 AND DUP3 MSTORE PUSH1 0x4 PUSH1 0x20 MSTORE PUSH1 0x40 DUP3 KECCAK256 SLOAD PUSH2 0x24A SWAP1 PUSH1 0xFF AND PUSH2 0x2414 JUMP JUMPDEST PUSH2 0x255 TIMESTAMP DUP5 GT PUSH2 0x2460 JUMP JUMPDEST PUSH1 0x5 SLOAD SWAP10 DUP12 DUP6 DUP12 DUP14 DUP11 DUP13 DUP2 DUP6 DUP14 PUSH1 0x40 MLOAD SWAP8 DUP8 DUP10 SWAP9 PUSH1 0x20 DUP11 ADD SWAP12 DUP13 CALLDATACOPY DUP9 ADD SWAP2 PUSH1 0x20 DUP4 ADD PUSH1 0x0 DUP2 MSTORE CALLDATACOPY ADD SWAP2 PUSH1 0x20 DUP4 ADD PUSH1 0x0 DUP2 MSTORE CALLDATACOPY ADD SWAP1 PUSH1 0x1 PUSH1 0xF8 SHL PUSH1 0x20 DUP4 ADD MSTORE PUSH1 0x21 DUP3 ADD MSTORE SUB PUSH1 0x21 DUP2 ADD DUP3 MSTORE PUSH1 0x41 ADD PUSH2 0x2AC SWAP1 DUP3 PUSH2 0x2158 JUMP JUMPDEST MLOAD SWAP1 KECCAK256 SWAP11 DUP12 DUP5 MSTORE PUSH1 0x3 PUSH1 0x20 MSTORE PUSH1 0x40 DUP5 KECCAK256 SLOAD ISZERO PUSH2 0x2C7 SWAP1 PUSH2 0x24AC JUMP JUMPDEST PUSH2 0x2D0 SWAP1 PUSH2 0x24F0 JUMP JUMPDEST PUSH1 0x5 SSTORE PUSH1 0x40 MLOAD SWAP9 DUP10 PUSH1 0xE0 DUP2 ADD LT PUSH1 0xE0 DUP12 ADD PUSH1 0x1 PUSH1 0x1 PUSH1 0x40 SHL SUB LT OR PUSH2 0x1ED JUMPI PUSH1 0xE0 DUP11 ADD PUSH1 0x40 MSTORE PUSH1 0x6 DUP11 MSTORE DUP8 DUP10 DUP9 DUP13 PUSH1 0x0 JUMPDEST PUSH1 0xC0 DUP2 LT PUSH2 0xBDD JUMPI POP SWAP2 PUSH1 0x2C SWAP2 PUSH2 0x46F PUSH2 0x492 SWAP5 DUP13 PUSH1 0x40 MLOAD DUP2 DUP6 PUSH1 0x20 DUP4 ADD CALLDATACOPY DUP2 DUP2 ADD SWAP1 PUSH2 0x34D PUSH1 0x2A DUP3 PUSH10 0x206279204B4F2F544B4F PUSH1 0xB0 SHL SWAP5 DUP6 PUSH1 0x20 DUP3 ADD MSTORE SUB PUSH1 0xA DUP2 ADD DUP5 MSTORE ADD DUP3 PUSH2 0x2158 JUMP JUMPDEST PUSH2 0x356 DUP5 PUSH2 0x2559 JUMP JUMPDEST MSTORE PUSH2 0x360 DUP4 PUSH2 0x2559 JUMP JUMPDEST POP PUSH1 0x40 MLOAD SWAP2 DUP1 DUP7 PUSH1 0x20 DUP6 ADD CALLDATACOPY DUP1 DUP4 ADD SWAP3 PUSH2 0x39D PUSH1 0x2E DUP3 PUSH14 0x10313C9029BAB136B4B9B9B4B7B7 PUSH1 0x91 SHL SWAP7 DUP8 PUSH1 0x20 DUP3 ADD MSTORE SUB PUSH1 0xE DUP2 ADD DUP5 MSTORE ADD DUP3 PUSH2 0x2158 JUMP JUMPDEST PUSH2 0x3A6 DUP6 PUSH2 0x2566 JUMP JUMPDEST MSTORE PUSH2 0x3B0 DUP5 PUSH2 0x2566 JUMP JUMPDEST POP DUP1 PUSH1 0x40 MLOAD SWAP7 PUSH1 0x20 DUP9 ADD CALLDATACOPY DUP6 ADD SWAP5 PUSH2 0x3E8 DUP9 DUP3 PUSH12 0x10313C902232B1B4B9B4B7B7 PUSH1 0xA1 SHL SWAP9 DUP10 PUSH1 0x20 DUP3 ADD MSTORE SUB PUSH1 0xC DUP2 ADD DUP5 MSTORE ADD DUP3 PUSH2 0x2158 JUMP JUMPDEST PUSH2 0x3F1 DUP5 PUSH2 0x2576 JUMP JUMPDEST MSTORE PUSH2 0x3FB DUP4 PUSH2 0x2576 JUMP JUMPDEST POP PUSH2 0x424 PUSH1 0x2A PUSH1 0x40 MLOAD DUP1 SWAP4 DUP13 DUP11 PUSH1 0x20 DUP5 ADD CALLDATACOPY DUP13 DUP3 ADD SWAP1 PUSH1 0x20 DUP3 ADD MSTORE SUB PUSH1 0xA DUP2 ADD DUP5 MSTORE ADD DUP3 PUSH2 0x2158 JUMP JUMPDEST PUSH2 0x42D DUP4 PUSH2 0x2586 JUMP JUMPDEST MSTORE PUSH2 0x437 DUP3 PUSH2 0x2586 JUMP JUMPDEST POP PUSH2 0x460 PUSH1 0x2E PUSH1 0x40 MLOAD DUP1 SWAP4 DUP12 DUP10 PUSH1 0x20 DUP5 ADD CALLDATACOPY DUP12 DUP3 ADD SWAP1 PUSH1 0x20 DUP3 ADD MSTORE SUB PUSH1 0xE DUP2 ADD DUP5 MSTORE ADD DUP3 PUSH2 0x2158 JUMP JUMPDEST PUSH2 0x469 DUP3 PUSH2 0x2596 JUMP JUMPDEST MSTORE PUSH2 0x2596 JUMP JUMPDEST POP PUSH1 0x40 MLOAD SWAP5 DUP6 SWAP3 PUSH1 0x20 DUP5 ADD CALLDATACOPY DUP13 DUP3 ADD SWAP1 PUSH1 0x20 DUP3 ADD MSTORE SUB PUSH1 0xC DUP2 ADD DUP5 MSTORE ADD DUP3 PUSH2 0x2158 JUMP JUMPDEST PUSH2 0x49B DUP12 PUSH2 0x25A6 JUMP JUMPDEST MSTORE PUSH2 0x4A5 DUP11 PUSH2 0x25A6 JUMP JUMPDEST POP PUSH1 0x1 SLOAD PUSH1 0x1 PUSH1 0x1 PUSH1 0xA0 SHL SUB AND SWAP1 DUP2 EXTCODESIZE ISZERO PUSH2 0xBD9 JUMPI PUSH1 0x40 MLOAD PUSH4 0x3A4B019 PUSH1 0xE0 SHL DUP2 MSTORE PUSH1 0x4 DUP2 ADD DUP15 SWAP1 MSTORE PUSH1 0x1 PUSH1 0x1 PUSH1 0xA0 SHL SUB DUP6 AND PUSH1 0x24 DUP3 ADD MSTORE PUSH1 0x6 PUSH1 0x44 DUP3 ADD MSTORE PUSH1 0x80 PUSH1 0x64 DUP3 ADD MSTORE SWAP3 DUP6 SWAP3 DUP5 SWAP3 SWAP1 SWAP2 DUP4 SWAP2 DUP6 SWAP2 DUP4 SWAP2 PUSH2 0x507 SWAP2 PUSH1 0x84 DUP5 ADD SWAP2 SWAP1 PUSH2 0x25B6 JUMP JUMPDEST SUB SWAP3 GAS CALL DUP1 ISZERO PUSH2 0xBCE JUMPI SWAP1 DUP4 SWAP2 PUSH2 0xBBA JUMPI JUMPDEST POP POP PUSH1 0x40 MLOAD SWAP3 PUSH2 0x528 DUP5 PUSH2 0x2121 JUMP JUMPDEST DUP11 DUP5 MSTORE PUSH2 0x536 CALLDATASIZE DUP12 DUP15 PUSH2 0x2609 JUMP JUMPDEST PUSH1 0x20 DUP6 ADD MSTORE PUSH2 0x546 CALLDATASIZE DUP7 DUP9 PUSH2 0x2609 JUMP JUMPDEST PUSH1 0x40 DUP6 ADD MSTORE PUSH2 0x556 CALLDATASIZE DUP9 DUP11 PUSH2 0x2609 JUMP JUMPDEST PUSH1 0x60 DUP6 ADD MSTORE PUSH1 0x1 PUSH1 0x80 DUP6 ADD MSTORE PUSH1 0xA0 DUP5 ADD MSTORE PUSH1 0x1 PUSH1 0xC0 DUP5 ADD MSTORE DUP8 PUSH1 0xE0 DUP5 ADD MSTORE PUSH1 0x1 DUP1 PUSH1 0xA0 SHL SUB AND PUSH2 0x100 DUP4 ADD MSTORE DUP9 DUP2 MSTORE PUSH1 0x3 PUSH1 0x20 MSTORE PUSH1 0x40 DUP2 KECCAK256 SWAP1 DUP3 MLOAD DUP3 SSTORE PUSH1 0x20 DUP4 ADD MLOAD DUP1 MLOAD SWAP1 PUSH1 0x1 PUSH1 0x1 PUSH1 0x40 SHL SUB DUP3 GT PUSH2 0x98B JUMPI DUP2 SWAP1 PUSH2 0x5B8 PUSH1 0x1 DUP7 ADD SLOAD PUSH2 0x20D4 JUMP JUMPDEST PUSH1 0x1F DUP2 GT PUSH2 0xB87 JUMPI JUMPDEST POP PUSH1 0x20 SWAP1 PUSH1 0x1F DUP4 GT PUSH1 0x1 EQ PUSH2 0xB18 JUMPI DUP5 SWAP3 PUSH2 0xB0D JUMPI JUMPDEST POP POP DUP2 PUSH1 0x1 SHL SWAP2 PUSH1 0x0 NOT SWAP1 PUSH1 0x3 SHL SHR NOT AND OR PUSH1 0x1 DUP4 ADD SSTORE JUMPDEST PUSH1 0x40 DUP4 ADD MLOAD DUP1 MLOAD SWAP1 PUSH1 0x1 PUSH1 0x1 PUSH1 0x40 SHL SUB DUP3 GT PUSH2 0x98B JUMPI DUP2 SWAP1 PUSH2 0x614 PUSH1 0x2 DUP7 ADD SLOAD PUSH2 0x20D4 JUMP JUMPDEST PUSH1 0x1F DUP2 GT PUSH2 0xADA JUMPI JUMPDEST POP PUSH1 0x20 SWAP1 PUSH1 0x1F DUP4 GT PUSH1 0x1 EQ PUSH2 0xA6B JUMPI DUP5 SWAP3 PUSH2 0xA60 JUMPI JUMPDEST POP POP DUP2 PUSH1 0x1 SHL SWAP2 PUSH1 0x0 NOT SWAP1 PUSH1 0x3 SHL SHR NOT AND OR PUSH1 0x2 DUP4 ADD SSTORE JUMPDEST PUSH1 0x60 DUP4 ADD MLOAD DUP1 MLOAD SWAP1 PUSH1 0x1 PUSH1 0x1 PUSH1 0x40 SHL SUB DUP3 GT PUSH2 0x98B JUMPI DUP2 SWAP1 PUSH2 0x670 PUSH1 0x3 DUP7 ADD SLOAD PUSH2 0x20D4 JUMP JUMPDEST PUSH1 0x1F DUP2 GT PUSH2 0xA2D JUMPI JUMPDEST POP PUSH1 0x20 SWAP1 PUSH1 0x1F DUP4 GT PUSH1 0x1 EQ PUSH2 0x9BE JUMPI DUP5 SWAP3 PUSH2 0x9B3 JUMPI JUMPDEST POP POP DUP2 PUSH1 0x1 SHL SWAP2 PUSH1 0x0 NOT SWAP1 PUSH1 0x3 SHL SHR NOT AND OR PUSH1 0x3 DUP4 ADD SSTORE JUMPDEST PUSH1 0x4 DUP3 ADD PUSH1 0x80 DUP5 ADD MLOAD PUSH1 0x5 DUP2 LT ISZERO PUSH2 0x99F JUMPI PUSH1 0xFF DUP1 NOT DUP4 SLOAD AND SWAP2 AND OR SWAP1 SSTORE PUSH1 0xA0 DUP4 ADD MLOAD PUSH1 0x5 DUP4 ADD SSTORE PUSH2 0x6EE PUSH1 0xC0 DUP5 ADD MLOAD ISZERO ISZERO PUSH1 0x6 DUP5 ADD SWAP1 PUSH1 0xFF DUP1 NOT DUP4 SLOAD AND SWAP2 ISZERO ISZERO AND OR SWAP1 SSTORE JUMP JUMPDEST PUSH1 0xE0 DUP4 ADD MLOAD DUP1 MLOAD SWAP1 PUSH1 0x1 PUSH1 0x40 SHL DUP3 GT PUSH2 0x98B JUMPI PUSH1 0x7 DUP5 ADD SLOAD DUP3 PUSH1 0x7 DUP7 ADD SSTORE DUP1 DUP4 LT PUSH2 0x913 JUMPI JUMPDEST POP PUSH1 0x20 ADD PUSH1 0x7 DUP5 ADD DUP4 MSTORE PUSH1 0x20 DUP4 KECCAK256 DUP4 SWAP2 JUMPDEST DUP4 DUP4 LT PUSH2 0x7E5 JUMPI POP POP POP POP POP SWAP5 DUP9 SWAP8 SWAP5 PUSH2 0x7B7 PUSH2 0x7DA SWAP6 PUSH32 0xA288D5D6DD77B6573A9F886B36C4310244E9C0DC2E7DE1B5ABF1E8DFA7694CD2 SWAP10 SWAP6 PUSH2 0x7C5 SWAP6 PUSH1 0x8 PUSH1 0x20 SWAP16 SWAP12 ADD SWAP1 PUSH2 0x100 PUSH1 0x1 DUP1 PUSH1 0xA0 SHL SUB SWAP2 ADD MLOAD AND PUSH1 0x1 PUSH1 0x1 PUSH1 0x60 SHL SUB PUSH1 0xA0 SHL DUP3 SLOAD AND OR SWAP1 SSTORE PUSH2 0x793 DUP13 PUSH2 0x2666 JUMP JUMPDEST PUSH2 0x7AA PUSH1 0x40 MLOAD SWAP11 DUP12 SWAP11 PUSH1 0xA0 DUP13 MSTORE PUSH1 0xA0 DUP13 ADD SWAP2 PUSH2 0x25B6 JUMP JUMPDEST SWAP2 DUP10 DUP4 SUB DUP16 DUP12 ADD MSTORE PUSH2 0x25B6 JUMP JUMPDEST SWAP2 DUP7 DUP4 SUB PUSH1 0x40 DUP9 ADD MSTORE PUSH2 0x25B6 JUMP JUMPDEST SWAP1 PUSH1 0x1 PUSH1 0x60 DUP6 ADD MSTORE DUP4 DUP3 SUB PUSH1 0x80 DUP6 ADD MSTORE PUSH2 0x238C JUMP JUMPDEST SUB SWAP1 LOG2 PUSH1 0x40 MLOAD SWAP1 DUP2 MSTORE RETURN JUMPDEST DUP1 MLOAD DUP1 MLOAD SWAP1 PUSH1 0x1 PUSH1 0x1 PUSH1 0x40 SHL SUB DUP3 GT PUSH2 0x8FF JUMPI PUSH2 0x802 DUP5 SLOAD PUSH2 0x20D4 JUMP JUMPDEST PUSH1 0x1F DUP2 GT PUSH2 0x8C4 JUMPI JUMPDEST POP PUSH1 0x20 SWAP1 PUSH1 0x1F DUP4 GT PUSH1 0x1 EQ PUSH2 0x857 JUMPI SWAP3 DUP3 PUSH1 0x1 SWAP5 SWAP4 PUSH1 0x20 SWAP4 DUP7 SWAP6 DUP12 SWAP3 PUSH2 0x84C JUMPI JUMPDEST POP POP PUSH1 0x0 NOT PUSH1 0x3 DUP4 SWAP1 SHL SHR NOT AND SWAP1 DUP5 SHL OR DUP6 SSTORE JUMPDEST ADD SWAP3 ADD SWAP3 ADD SWAP2 SWAP1 PUSH2 0x725 JUMP JUMPDEST ADD MLOAD SWAP1 POP CODESIZE DUP1 PUSH2 0x82C JUMP JUMPDEST SWAP1 DUP5 DUP9 MSTORE PUSH1 0x20 DUP9 KECCAK256 SWAP2 DUP9 JUMPDEST PUSH1 0x1F NOT DUP6 AND DUP2 LT PUSH2 0x8AC JUMPI POP DUP4 PUSH1 0x20 SWAP4 PUSH1 0x1 SWAP7 SWAP4 DUP8 SWAP7 SWAP4 DUP8 SWAP5 PUSH1 0x1F NOT DUP2 AND LT PUSH2 0x893 JUMPI JUMPDEST POP POP POP DUP2 SHL ADD DUP6 SSTORE PUSH2 0x840 JUMP JUMPDEST ADD MLOAD PUSH1 0x0 NOT PUSH1 0xF8 DUP5 PUSH1 0x3 SHL AND SHR NOT AND SWAP1 SSTORE CODESIZE DUP1 DUP1 PUSH2 0x886 JUMP JUMPDEST SWAP2 SWAP3 PUSH1 0x20 PUSH1 0x1 DUP2 SWAP3 DUP7 DUP6 ADD MLOAD DUP2 SSTORE ADD SWAP5 ADD SWAP3 ADD PUSH2 0x862 JUMP JUMPDEST PUSH2 0x8EF SWAP1 DUP6 DUP10 MSTORE PUSH1 0x20 DUP10 KECCAK256 PUSH1 0x1F DUP6 ADD PUSH1 0x5 SHR DUP2 ADD SWAP2 PUSH1 0x20 DUP7 LT PUSH2 0x8F5 JUMPI JUMPDEST PUSH1 0x1F ADD PUSH1 0x5 SHR ADD SWAP1 PUSH2 0x264F JUMP JUMPDEST CODESIZE PUSH2 0x80B JUMP JUMPDEST SWAP1 SWAP2 POP DUP2 SWAP1 PUSH2 0x8E2 JUMP JUMPDEST PUSH4 0x4E487B71 PUSH1 0xE0 SHL DUP8 MSTORE PUSH1 0x41 PUSH1 0x4 MSTORE PUSH1 0x24 DUP8 REVERT JUMPDEST PUSH1 0x7 DUP6 ADD DUP5 MSTORE PUSH1 0x20 DUP5 KECCAK256 SWAP1 DUP4 DUP3 ADD JUMPDEST DUP2 DUP4 ADD DUP2 LT PUSH2 0x932 JUMPI POP POP PUSH2 0x714 JUMP JUMPDEST DUP1 DUP7 PUSH2 0x940 PUSH1 0x1 SWAP4 SLOAD PUSH2 0x20D4 JUMP JUMPDEST DUP1 PUSH2 0x94E JUMPI JUMPDEST POP POP ADD PUSH2 0x922 JUMP JUMPDEST PUSH1 0x1F DUP2 GT DUP5 EQ PUSH2 0x966 JUMPI POP POP PUSH1 0x0 DUP2 SSTORE JUMPDEST DUP7 CODESIZE PUSH2 0x946 JUMP JUMPDEST DUP3 DUP3 MSTORE PUSH2 0x981 PUSH1 0x1F PUSH1 0x20 DUP5 KECCAK256 SWAP3 ADD PUSH1 0x5 SHR DUP3 ADD DUP6 DUP4 ADD PUSH2 0x264F JUMP JUMPDEST PUSH1 0x0 DUP4 SSTORE SSTORE PUSH2 0x95F JUMP JUMPDEST PUSH4 0x4E487B71 PUSH1 0xE0 SHL DUP4 MSTORE PUSH1 0x41 PUSH1 0x4 MSTORE PUSH1 0x24 DUP4 REVERT JUMPDEST PUSH4 0x4E487B71 PUSH1 0xE0 SHL DUP4 MSTORE PUSH1 0x21 PUSH1 0x4 MSTORE PUSH1 0x24 DUP4 REVERT JUMPDEST ADD MLOAD SWAP1 POP CODESIZE DUP1 PUSH2 0x68F JUMP JUMPDEST SWAP3 POP PUSH1 0x3 DUP6 ADD DUP5 MSTORE PUSH1 0x20 DUP5 KECCAK256 SWAP1 DUP5 SWAP4 JUMPDEST PUSH1 0x1F NOT DUP5 AND DUP6 LT PUSH2 0xA12 JUMPI PUSH1 0x1 SWAP5 POP DUP4 PUSH1 0x1F NOT DUP2 AND LT PUSH2 0x9F9 JUMPI JUMPDEST POP POP POP DUP2 SHL ADD PUSH1 0x3 DUP4 ADD SSTORE PUSH2 0x6A7 JUMP JUMPDEST ADD MLOAD PUSH1 0x0 NOT PUSH1 0xF8 DUP5 PUSH1 0x3 SHL AND SHR NOT AND SWAP1 SSTORE CODESIZE DUP1 DUP1 PUSH2 0x9E9 JUMP JUMPDEST DUP2 DUP2 ADD MLOAD DUP4 SSTORE PUSH1 0x20 SWAP5 DUP6 ADD SWAP5 PUSH1 0x1 SWAP1 SWAP4 ADD SWAP3 SWAP1 SWAP2 ADD SWAP1 PUSH2 0x9CE JUMP JUMPDEST PUSH2 0xA5A SWAP1 PUSH1 0x3 DUP8 ADD DUP7 MSTORE PUSH1 0x20 DUP7 KECCAK256 PUSH1 0x1F DUP6 ADD PUSH1 0x5 SHR DUP2 ADD SWAP2 PUSH1 0x20 DUP7 LT PUSH2 0x8F5 JUMPI PUSH1 0x1F ADD PUSH1 0x5 SHR ADD SWAP1 PUSH2 0x264F JUMP JUMPDEST CODESIZE PUSH2 0x679 JUMP JUMPDEST ADD MLOAD SWAP1 POP CODESIZE DUP1 PUSH2 0x633 JUMP JUMPDEST SWAP3 POP PUSH1 0x2 DUP6 ADD DUP5 MSTORE PUSH1 0x20 DUP5 KECCAK256 SWAP1 DUP5 SWAP4 JUMPDEST PUSH1 0x1F NOT DUP5 AND DUP6 LT PUSH2 0xABF JUMPI PUSH1 0x1 SWAP5 POP DUP4 PUSH1 0x1F NOT DUP2 AND LT PUSH2 0xAA6 JUMPI JUMPDEST POP POP POP DUP2 SHL ADD PUSH1 0x2 DUP4 ADD SSTORE PUSH2 0x64B JUMP JUMPDEST ADD MLOAD PUSH1 0x0 NOT PUSH1 0xF8 DUP5 PUSH1 0x3 SHL AND SHR NOT AND SWAP1 SSTORE CODESIZE DUP1 DUP1 PUSH2 0xA96 JUMP JUMPDEST DUP2 DUP2 ADD MLOAD DUP4 SSTORE PUSH1 0x20 SWAP5 DUP6 ADD SWAP5 PUSH1 0x1 SWAP1 SWAP4 ADD SWAP3 SWAP1 SWAP2 ADD SWAP1 PUSH2 0xA7B JUMP JUMPDEST PUSH2 0xB07 SWAP1 PUSH1 0x2 DUP8 ADD DUP7 MSTORE PUSH1 0x20 DUP7 KECCAK256 PUSH1 0x1F DUP6 ADD PUSH1 0x5 SHR DUP2 ADD SWAP2 PUSH1 0x20 DUP7 LT PUSH2 0x8F5 JUMPI PUSH1 0x1F ADD PUSH1 0x5 SHR ADD SWAP1 PUSH2 0x264F JUMP JUMPDEST CODESIZE PUSH2 0x61D JUMP JUMPDEST ADD MLOAD SWAP1 POP CODESIZE DUP1 PUSH2 0x5D7 JUMP JUMPDEST SWAP3 POP PUSH1 0x1 DUP6 ADD DUP5 MSTORE PUSH1 0x20 DUP5 KECCAK256 SWAP1 DUP5 SWAP4 JUMPDEST PUSH1 0x1F NOT DUP5 AND DUP6 LT PUSH2 0xB6C JUMPI PUSH1 0x1 SWAP5 POP DUP4 PUSH1 0x1F NOT DUP2 AND LT PUSH2 0xB53 JUMPI JUMPDEST POP POP POP DUP2 SHL ADD PUSH1 0x1 DUP4 ADD SSTORE PUSH2 0x5EF JUMP JUMPDEST ADD MLOAD PUSH1 0x0 NOT PUSH1 0xF8 DUP5 PUSH1 0x3 SHL AND SHR NOT AND SWAP1 SSTORE CODESIZE DUP1 DUP1 PUSH2 0xB43 JUMP JUMPDEST DUP2 DUP2 ADD MLOAD DUP4 SSTORE PUSH1 0x20 SWAP5 DUP6 ADD SWAP5 PUSH1 0x1 SWAP1 SWAP4 ADD SWAP3 SWAP1 SWAP2 ADD SWAP1 PUSH2 0xB28 JUMP JUMPDEST PUSH2 0xBB4 SWAP1 PUSH1 0x1 DUP8 ADD DUP7 MSTORE PUSH1 0x20 DUP7 KECCAK256 PUSH1 0x1F DUP6 ADD PUSH1 0x5 SHR DUP2 ADD SWAP2 PUSH1 0x20 DUP7 LT PUSH2 0x8F5 JUMPI PUSH1 0x1F ADD PUSH1 0x5 SHR ADD SWAP1 PUSH2 0x264F JUMP JUMPDEST CODESIZE PUSH2 0x5C1 JUMP JUMPDEST PUSH2 0xBC3 SWAP1 PUSH2 0x210E JUMP JUMPDEST PUSH2 0x203 JUMPI DUP2 CODESIZE PUSH2 0x519 JUMP JUMPDEST PUSH1 0x40 MLOAD RETURNDATASIZE DUP6 DUP3 RETURNDATACOPY RETURNDATASIZE SWAP1 REVERT JUMPDEST DUP5 DUP1 REVERT JUMPDEST PUSH1 0x20 SWAP5 POP DUP1 SWAP4 POP PUSH1 0x60 SWAP3 POP DUP5 SWAP2 ADD ADD MSTORE ADD DUP10 DUP9 DUP13 DUP12 SWAP4 PUSH2 0x301 JUMP JUMPDEST POP CALLVALUE PUSH2 0x157 JUMPI PUSH1 0x20 CALLDATASIZE PUSH1 0x3 NOT ADD SLT PUSH2 0x157 JUMPI PUSH1 0x4 CALLDATALOAD PUSH2 0xC15 PUSH2 0x23E8 JUMP JUMPDEST DUP1 DUP3 MSTORE PUSH1 0x3 PUSH1 0x20 MSTORE PUSH1 0x40 DUP3 KECCAK256 SLOAD ISZERO PUSH2 0xC65 JUMPI DUP1 DUP3 MSTORE PUSH1 0x3 PUSH1 0x20 MSTORE PUSH1 0x40 DUP3 KECCAK256 PUSH1 0x6 ADD DUP1 SLOAD PUSH1 0xFF NOT AND SWAP1 SSTORE PUSH32 0x69DE45DA87F2810FB331B57FB71EF84ED05E9B14551C59B43C5241C7926B4761 DUP3 DUP1 LOG2 DUP1 RETURN JUMPDEST PUSH1 0x40 MLOAD PUSH3 0x461BCD PUSH1 0xE5 SHL DUP2 MSTORE PUSH1 0x20 PUSH1 0x4 DUP3 ADD MSTORE PUSH1 0x15 PUSH1 0x24 DUP3 ADD MSTORE PUSH21 0x13585C9AD95D08191BD95CC81B9BDD08195E1A5CDD PUSH1 0x5A SHL PUSH1 0x44 DUP3 ADD MSTORE PUSH1 0x64 SWAP1 REVERT JUMPDEST POP CALLVALUE PUSH2 0x157 JUMPI PUSH1 0x40 CALLDATASIZE PUSH1 0x3 NOT ADD SLT PUSH2 0x157 JUMPI PUSH2 0xCBC PUSH2 0x2291 JUMP JUMPDEST PUSH1 0x24 CALLDATALOAD SWAP1 DUP2 ISZERO ISZERO SWAP1 DUP2 DUP4 SUB PUSH2 0xD2A JUMPI PUSH32 0xD0780922098A7954B5B7FA7A30D189ACE43DC3396B4D4BDE7CBA3ED0082F88AE SWAP2 PUSH2 0xD20 PUSH1 0x20 SWAP3 PUSH2 0xCFB PUSH2 0x23E8 JUMP JUMPDEST PUSH1 0x1 DUP1 PUSH1 0xA0 SHL SUB AND SWAP5 DUP6 DUP8 MSTORE PUSH1 0x4 DUP5 MSTORE PUSH1 0x40 DUP8 KECCAK256 SWAP1 PUSH1 0xFF DUP1 NOT DUP4 SLOAD AND SWAP2 ISZERO ISZERO AND OR SWAP1 SSTORE JUMP JUMPDEST PUSH1 0x40 MLOAD SWAP1 DUP2 MSTORE LOG2 DUP1 RETURN JUMPDEST DUP4 DUP1 REVERT JUMPDEST POP CALLVALUE PUSH2 0x157 JUMPI DUP1 PUSH1 0x3 NOT CALLDATASIZE ADD SLT PUSH2 0x157 JUMPI PUSH1 0x40 MLOAD DUP1 SWAP2 PUSH1 0x2 SLOAD SWAP1 DUP2 DUP4 MSTORE PUSH1 0x20 DUP1 SWAP4 ADD DUP1 SWAP3 PUSH1 0x2 DUP4 MSTORE PUSH32 0x405787FA12A823E0F2B7631CC41B3BA8828B3321CA811111FA75CD3AA3BB5ACE SWAP1 DUP4 JUMPDEST DUP2 DUP2 LT PUSH2 0xDCE JUMPI POP POP POP DUP5 PUSH2 0xD90 SWAP2 SUB DUP6 PUSH2 0x2158 JUMP JUMPDEST PUSH1 0x40 MLOAD SWAP4 DUP4 DUP6 SWAP5 DUP6 ADD SWAP2 DUP2 DUP7 MSTORE MLOAD DUP1 SWAP3 MSTORE PUSH1 0x40 DUP6 ADD SWAP4 SWAP3 JUMPDEST DUP3 DUP2 LT PUSH2 0xDB7 JUMPI POP POP POP POP SUB SWAP1 RETURN JUMPDEST DUP4 MLOAD DUP6 MSTORE DUP7 SWAP6 POP SWAP4 DUP2 ADD SWAP4 SWAP3 DUP2 ADD SWAP3 PUSH1 0x1 ADD PUSH2 0xDA8 JUMP JUMPDEST DUP3 SLOAD DUP5 MSTORE SWAP3 DUP7 ADD SWAP3 PUSH1 0x1 SWAP3 DUP4 ADD SWAP3 ADD PUSH2 0xD7A JUMP JUMPDEST POP CALLVALUE PUSH2 0x157 JUMPI PUSH1 0x20 CALLDATASIZE PUSH1 0x3 NOT ADD SLT PUSH2 0x157 JUMPI PUSH1 0x20 SWAP1 PUSH1 0xFF SWAP1 PUSH1 0x40 SWAP1 PUSH1 0x1 PUSH1 0x1 PUSH1 0xA0 SHL SUB PUSH2 0xE0D PUSH2 0x2291 JUMP JUMPDEST AND DUP2 MSTORE PUSH1 0x4 DUP5 MSTORE KECCAK256 SLOAD AND PUSH1 0x40 MLOAD SWAP1 ISZERO ISZERO DUP2 MSTORE RETURN JUMPDEST POP CALLVALUE PUSH2 0x157 JUMPI DUP1 PUSH1 0x3 NOT CALLDATASIZE ADD SLT PUSH2 0x157 JUMPI SLOAD PUSH1 0x40 MLOAD PUSH1 0x1 PUSH1 0x1 PUSH1 0xA0 SHL SUB SWAP1 SWAP2 AND DUP2 MSTORE PUSH1 0x20 SWAP1 RETURN JUMPDEST POP CALLVALUE PUSH2 0x157 JUMPI DUP1 PUSH1 0x3 NOT CALLDATASIZE ADD SLT PUSH2 0x157 JUMPI PUSH2 0xE61 PUSH2 0x23E8 JUMP JUMPDEST PUSH1 0x0 DUP1 SLOAD PUSH1 0x1 PUSH1 0x1 PUSH1 0xA0 SHL SUB NOT DUP2 AND DUP3 SSTORE PUSH1 0x1 PUSH1 0x1 PUSH1 0xA0 SHL SUB AND PUSH32 0x8BE0079C531659141344CD1FD0A4F28419497F9722A3DAAFE3B4186F6B6457E0 DUP3 DUP1 LOG3 DUP1 RETURN JUMPDEST POP CALLVALUE PUSH2 0x157 JUMPI PUSH1 0x80 CALLDATASIZE PUSH1 0x3 NOT ADD SLT PUSH2 0x157 JUMPI PUSH1 0x1 PUSH1 0x1 PUSH1 0x40 SHL SUB SWAP1 PUSH1 0x4 CALLDATALOAD DUP3 DUP2 GT PUSH2 0x203 JUMPI PUSH2 0xED5 SWAP1 CALLDATASIZE SWAP1 PUSH1 0x4 ADD PUSH2 0x225F JUMP JUMPDEST SWAP3 SWAP1 SWAP2 PUSH1 0x24 CALLDATALOAD DUP3 DUP2 GT PUSH2 0x203 JUMPI PUSH2 0xEF0 SWAP1 CALLDATASIZE SWAP1 PUSH1 0x4 ADD PUSH2 0x225F JUMP JUMPDEST SWAP3 PUSH1 0x44 CALLDATALOAD SWAP1 DUP2 GT PUSH2 0xF7A JUMPI PUSH2 0xF09 SWAP1 CALLDATASIZE SWAP1 PUSH1 0x4 ADD PUSH2 0x225F JUMP JUMPDEST SWAP1 PUSH1 0x64 CALLDATALOAD SWAP4 PUSH1 0x5 DUP6 LT ISZERO PUSH2 0x157 JUMPI POP SWAP3 PUSH1 0x41 SWAP3 DUP3 PUSH2 0xF6F SWAP6 PUSH1 0x20 SWAP10 SWAP5 DUP9 PUSH1 0x5 SLOAD SWAP5 PUSH1 0x40 MLOAD SWAP11 DUP9 DUP13 SWAP10 DUP16 DUP12 ADD SWAP15 DUP16 CALLDATACOPY DUP10 ADD SWAP2 DUP15 DUP4 ADD PUSH1 0x0 DUP2 MSTORE CALLDATACOPY ADD SWAP2 DUP12 DUP4 ADD PUSH1 0x0 DUP2 MSTORE CALLDATACOPY ADD SWAP2 PUSH1 0xFF PUSH1 0xF8 SHL SWAP1 PUSH1 0xF8 SHL AND DUP9 DUP4 ADD MSTORE PUSH1 0x21 DUP3 ADD MSTORE SUB PUSH1 0x21 DUP2 ADD DUP5 MSTORE ADD DUP3 PUSH2 0x2158 JUMP JUMPDEST MLOAD SWAP1 KECCAK256 PUSH1 0x40 MLOAD SWAP1 DUP2 MSTORE RETURN JUMPDEST DUP3 DUP1 REVERT JUMPDEST POP CALLVALUE PUSH2 0x157 JUMPI PUSH2 0xF8D CALLDATASIZE PUSH2 0x22A7 JUMP JUMPDEST SWAP9 SWAP10 SWAP1 SWAP7 SWAP4 SWAP5 SWAP6 SWAP3 SWAP2 PUSH2 0xF9E PUSH2 0x23E8 JUMP JUMPDEST PUSH1 0x1 PUSH1 0x1 PUSH1 0xA0 SHL SUB DUP2 AND DUP3 MSTORE PUSH1 0x4 PUSH1 0x20 MSTORE PUSH1 0x40 DUP3 KECCAK256 SLOAD PUSH2 0xFC0 SWAP1 PUSH1 0xFF AND PUSH2 0x2414 JUMP JUMPDEST PUSH2 0xFCB TIMESTAMP DUP5 GT PUSH2 0x2460 JUMP JUMPDEST PUSH1 0x5 SLOAD SWAP10 DUP12 DUP6 DUP12 DUP14 DUP11 DUP13 DUP2 DUP6 DUP14 PUSH1 0x40 MLOAD SWAP8 DUP8 DUP10 SWAP9 PUSH1 0x20 DUP11 ADD SWAP12 DUP13 CALLDATACOPY DUP9 ADD SWAP2 PUSH1 0x20 DUP4 ADD PUSH1 0x0 DUP2 MSTORE CALLDATACOPY ADD SWAP2 PUSH1 0x20 DUP4 ADD PUSH1 0x0 DUP2 MSTORE CALLDATACOPY ADD SWAP1 PUSH1 0x1 PUSH1 0xF9 SHL PUSH1 0x20 DUP4 ADD MSTORE PUSH1 0x21 DUP3 ADD MSTORE SUB PUSH1 0x21 DUP2 ADD DUP3 MSTORE PUSH1 0x41 ADD PUSH2 0x1022 SWAP1 DUP3 PUSH2 0x2158 JUMP JUMPDEST MLOAD SWAP1 KECCAK256 SWAP11 DUP12 DUP5 MSTORE PUSH1 0x3 PUSH1 0x20 MSTORE PUSH1 0x40 DUP5 KECCAK256 SLOAD ISZERO PUSH2 0x103D SWAP1 PUSH2 0x24AC JUMP JUMPDEST PUSH2 0x1046 SWAP1 PUSH2 0x24F0 JUMP JUMPDEST PUSH1 0x5 SSTORE PUSH2 0x1051 PUSH2 0x2515 JUMP JUMPDEST SWAP9 PUSH1 0x40 MLOAD PUSH2 0x105E DUP2 PUSH2 0x213D JUMP JUMPDEST PUSH1 0x16 DUP2 MSTORE PUSH22 0x2CB2B990169023B7B2B9903A37902232B1B4B9B4B7B7 PUSH1 0x51 SHL PUSH1 0x20 DUP3 ADD MSTORE PUSH2 0x108A DUP12 PUSH2 0x2559 JUMP JUMPDEST MSTORE PUSH2 0x1094 DUP11 PUSH2 0x2559 JUMP JUMPDEST POP PUSH1 0x40 MLOAD PUSH2 0x10A1 DUP2 PUSH2 0x213D JUMP JUMPDEST PUSH1 0xB DUP2 MSTORE PUSH11 0x9CDE405A408CD2DCD2E6D PUSH1 0xAB SHL PUSH1 0x20 DUP3 ADD MSTORE PUSH2 0x10C2 DUP12 PUSH2 0x2566 JUMP JUMPDEST MSTORE PUSH2 0x10CC DUP11 PUSH2 0x2566 JUMP JUMPDEST POP PUSH1 0x1 SLOAD PUSH1 0x1 PUSH1 0x1 PUSH1 0xA0 SHL SUB AND DUP1 EXTCODESIZE ISZERO PUSH2 0xBD9 JUMPI SWAP1 DUP5 SWAP2 DUP5 DUP4 DUP16 PUSH2 0x1106 PUSH1 0x40 MLOAD SWAP8 DUP9 SWAP7 DUP8 SWAP6 DUP7 SWAP5 PUSH4 0x3A4B019 PUSH1 0xE0 SHL DUP7 MSTORE PUSH1 0x4 DUP7 ADD PUSH2 0x25D7 JUMP JUMPDEST SUB SWAP3 GAS CALL DUP1 ISZERO PUSH2 0xBCE JUMPI SWAP1 DUP4 SWAP2 PUSH2 0x1735 JUMPI JUMPDEST POP POP PUSH1 0x40 MLOAD SWAP3 PUSH2 0x1127 DUP5 PUSH2 0x2121 JUMP JUMPDEST DUP11 DUP5 MSTORE PUSH2 0x1135 CALLDATASIZE DUP12 DUP15 PUSH2 0x2609 JUMP JUMPDEST PUSH1 0x20 DUP6 ADD MSTORE PUSH2 0x1145 CALLDATASIZE DUP7 DUP9 PUSH2 0x2609 JUMP JUMPDEST PUSH1 0x40 DUP6 ADD MSTORE PUSH2 0x1155 CALLDATASIZE DUP9 DUP11 PUSH2 0x2609 JUMP JUMPDEST PUSH1 0x60 DUP6 ADD MSTORE PUSH1 0x2 PUSH1 0x80 DUP6 ADD MSTORE PUSH1 0xA0 DUP5 ADD MSTORE PUSH1 0x1 PUSH1 0xC0 DUP5 ADD MSTORE DUP8 PUSH1 0xE0 DUP5 ADD MSTORE PUSH1 0x1 DUP1 PUSH1 0xA0 SHL SUB AND PUSH2 0x100 DUP4 ADD MSTORE DUP9 DUP2 MSTORE PUSH1 0x3 PUSH1 0x20 MSTORE PUSH1 0x40 DUP2 KECCAK256 SWAP1 DUP3 MLOAD DUP3 SSTORE PUSH1 0x20 DUP4 ADD MLOAD DUP1 MLOAD SWAP1 PUSH1 0x1 PUSH1 0x1 PUSH1 0x40 SHL SUB DUP3 GT PUSH2 0x98B JUMPI DUP2 SWAP1 PUSH2 0x11B7 PUSH1 0x1 DUP7 ADD SLOAD PUSH2 0x20D4 JUMP JUMPDEST PUSH1 0x1F DUP2 GT PUSH2 0x1702 JUMPI JUMPDEST POP PUSH1 0x20 SWAP1 PUSH1 0x1F DUP4 GT PUSH1 0x1 EQ PUSH2 0x1693 JUMPI DUP5 SWAP3 PUSH2 0x1688 JUMPI JUMPDEST POP POP DUP2 PUSH1 0x1 SHL SWAP2 PUSH1 0x0 NOT SWAP1 PUSH1 0x3 SHL SHR NOT AND OR PUSH1 0x1 DUP4 ADD SSTORE JUMPDEST PUSH1 0x40 DUP4 ADD MLOAD DUP1 MLOAD SWAP1 PUSH1 0x1 PUSH1 0x1 PUSH1 0x40 SHL SUB DUP3 GT PUSH2 0x98B JUMPI DUP2 SWAP1 PUSH2 0x1213 PUSH1 0x2 DUP7 ADD SLOAD PUSH2 0x20D4 JUMP JUMPDEST PUSH1 0x1F DUP2 GT PUSH2 0x1655 JUMPI JUMPDEST POP PUSH1 0x20 SWAP1 PUSH1 0x1F DUP4 GT PUSH1 0x1 EQ PUSH2 0x15E6 JUMPI DUP5 SWAP3 PUSH2 0x15DB JUMPI JUMPDEST POP POP DUP2 PUSH1 0x1 SHL SWAP2 PUSH1 0x0 NOT SWAP1 PUSH1 0x3 SHL SHR NOT AND OR PUSH1 0x2 DUP4 ADD SSTORE JUMPDEST PUSH1 0x60 DUP4 ADD MLOAD DUP1 MLOAD SWAP1 PUSH1 0x1 PUSH1 0x1 PUSH1 0x40 SHL SUB DUP3 GT PUSH2 0x98B JUMPI DUP2 SWAP1 PUSH2 0x126F PUSH1 0x3 DUP7 ADD SLOAD PUSH2 0x20D4 JUMP JUMPDEST PUSH1 0x1F DUP2 GT PUSH2 0x15A8 JUMPI JUMPDEST POP PUSH1 0x20 SWAP1 PUSH1 0x1F DUP4 GT PUSH1 0x1 EQ PUSH2 0x1539 JUMPI DUP5 SWAP3 PUSH2 0x152E JUMPI JUMPDEST POP POP DUP2 PUSH1 0x1 SHL SWAP2 PUSH1 0x0 NOT SWAP1 PUSH1 0x3 SHL SHR NOT AND OR PUSH1 0x3 DUP4 ADD SSTORE JUMPDEST PUSH1 0x4 DUP3 ADD PUSH1 0x80 DUP5 ADD MLOAD PUSH1 0x5 DUP2 LT ISZERO PUSH2 0x99F JUMPI PUSH1 0xFF DUP1 NOT DUP4 SLOAD AND SWAP2 AND OR SWAP1 SSTORE PUSH1 0xA0 DUP4 ADD MLOAD PUSH1 0x5 DUP4 ADD SSTORE PUSH2 0x12ED PUSH1 0xC0 DUP5 ADD MLOAD ISZERO ISZERO PUSH1 0x6 DUP5 ADD SWAP1 PUSH1 0xFF DUP1 NOT DUP4 SLOAD AND SWAP2 ISZERO ISZERO AND OR SWAP1 SSTORE JUMP JUMPDEST PUSH1 0xE0 DUP4 ADD MLOAD DUP1 MLOAD SWAP1 PUSH1 0x1 PUSH1 0x40 SHL DUP3 GT PUSH2 0x98B JUMPI PUSH1 0x7 DUP5 ADD SLOAD DUP3 PUSH1 0x7 DUP7 ADD SSTORE DUP1 DUP4 LT PUSH2 0x14B6 JUMPI JUMPDEST POP PUSH1 0x20 ADD PUSH1 0x7 DUP5 ADD DUP4 MSTORE PUSH1 0x20 DUP4 KECCAK256 DUP4 SWAP2 JUMPDEST DUP4 DUP4 LT PUSH2 0x13A7 JUMPI POP POP POP POP POP SWAP5 DUP9 SWAP8 SWAP5 PUSH2 0x7B7 PUSH2 0x7DA SWAP6 PUSH32 0xA288D5D6DD77B6573A9F886B36C4310244E9C0DC2E7DE1B5ABF1E8DFA7694CD2 SWAP10 SWAP6 PUSH2 0x1392 SWAP6 PUSH1 0x8 PUSH1 0x20 SWAP16 SWAP12 ADD SWAP1 PUSH2 0x100 PUSH1 0x1 DUP1 PUSH1 0xA0 SHL SUB SWAP2 ADD MLOAD AND PUSH1 0x1 PUSH1 0x1 PUSH1 0x60 SHL SUB PUSH1 0xA0 SHL DUP3 SLOAD AND OR SWAP1 SSTORE PUSH2 0x793 DUP13 PUSH2 0x2666 JUMP JUMPDEST SWAP1 PUSH1 0x2 PUSH1 0x60 DUP6 ADD MSTORE DUP4 DUP3 SUB PUSH1 0x80 DUP6 ADD MSTORE PUSH2 0x238C JUMP JUMPDEST DUP1 MLOAD DUP1 MLOAD SWAP1 PUSH1 0x1 PUSH1 0x1 PUSH1 0x40 SHL SUB DUP3 GT PUSH2 0x8FF JUMPI PUSH2 0x13C4 DUP5 SLOAD PUSH2 0x20D4 JUMP JUMPDEST PUSH1 0x1F DUP2 GT PUSH2 0x1486 JUMPI JUMPDEST POP PUSH1 0x20 SWAP1 PUSH1 0x1F DUP4 GT PUSH1 0x1 EQ PUSH2 0x1419 JUMPI SWAP3 DUP3 PUSH1 0x1 SWAP5 SWAP4 PUSH1 0x20 SWAP4 DUP7 SWAP6 DUP12 SWAP3 PUSH2 0x140E JUMPI JUMPDEST POP POP PUSH1 0x0 NOT PUSH1 0x3 DUP4 SWAP1 SHL SHR NOT AND SWAP1 DUP5 SHL OR DUP6 SSTORE JUMPDEST ADD SWAP3 ADD SWAP3 ADD SWAP2 SWAP1 PUSH2 0x1324 JUMP JUMPDEST ADD MLOAD SWAP1 POP CODESIZE DUP1 PUSH2 0x13EE JUMP JUMPDEST SWAP1 DUP5 DUP9 MSTORE PUSH1 0x20 DUP9 KECCAK256 SWAP2 DUP9 JUMPDEST PUSH1 0x1F NOT DUP6 AND DUP2 LT PUSH2 0x146E JUMPI POP DUP4 PUSH1 0x20 SWAP4 PUSH1 0x1 SWAP7 SWAP4 DUP8 SWAP7 SWAP4 DUP8 SWAP5 PUSH1 0x1F NOT DUP2 AND LT PUSH2 0x1455 JUMPI JUMPDEST POP POP POP DUP2 SHL ADD DUP6 SSTORE PUSH2 0x1402 JUMP JUMPDEST ADD MLOAD PUSH1 0x0 NOT PUSH1 0xF8 DUP5 PUSH1 0x3 SHL AND SHR NOT AND SWAP1 SSTORE CODESIZE DUP1 DUP1 PUSH2 0x1448 JUMP JUMPDEST SWAP2 SWAP3 PUSH1 0x20 PUSH1 0x1 DUP2 SWAP3 DUP7 DUP6 ADD MLOAD DUP2 SSTORE ADD SWAP5 ADD SWAP3 ADD PUSH2 0x1424 JUMP JUMPDEST PUSH2 0x14B0 SWAP1 DUP6 DUP10 MSTORE PUSH1 0x20 DUP10 KECCAK256 PUSH1 0x1F DUP6 ADD PUSH1 0x5 SHR DUP2 ADD SWAP2 PUSH1 0x20 DUP7 LT PUSH2 0x8F5 JUMPI PUSH1 0x1F ADD PUSH1 0x5 SHR ADD SWAP1 PUSH2 0x264F JUMP JUMPDEST CODESIZE PUSH2 0x13CD JUMP JUMPDEST PUSH1 0x7 DUP6 ADD DUP5 MSTORE PUSH1 0x20 DUP5 KECCAK256 SWAP1 DUP4 DUP3 ADD JUMPDEST DUP2 DUP4 ADD DUP2 LT PUSH2 0x14D5 JUMPI POP POP PUSH2 0x1313 JUMP JUMPDEST DUP1 DUP7 PUSH2 0x14E3 PUSH1 0x1 SWAP4 SLOAD PUSH2 0x20D4 JUMP JUMPDEST DUP1 PUSH2 0x14F1 JUMPI JUMPDEST POP POP ADD PUSH2 0x14C5 JUMP JUMPDEST PUSH1 0x1F DUP2 GT DUP5 EQ PUSH2 0x1509 JUMPI POP POP PUSH1 0x0 DUP2 SSTORE JUMPDEST DUP7 CODESIZE PUSH2 0x14E9 JUMP JUMPDEST DUP3 DUP3 MSTORE PUSH2 0x1524 PUSH1 0x1F PUSH1 0x20 DUP5 KECCAK256 SWAP3 ADD PUSH1 0x5 SHR DUP3 ADD DUP6 DUP4 ADD PUSH2 0x264F JUMP JUMPDEST PUSH1 0x0 DUP4 SSTORE SSTORE PUSH2 0x1502 JUMP JUMPDEST ADD MLOAD SWAP1 POP CODESIZE DUP1 PUSH2 0x128E JUMP JUMPDEST SWAP3 POP PUSH1 0x3 DUP6 ADD DUP5 MSTORE PUSH1 0x20 DUP5 KECCAK256 SWAP1 DUP5 SWAP4 JUMPDEST PUSH1 0x1F NOT DUP5 AND DUP6 LT PUSH2 0x158D JUMPI PUSH1 0x1 SWAP5 POP DUP4 PUSH1 0x1F NOT DUP2 AND LT PUSH2 0x1574 JUMPI JUMPDEST POP POP POP DUP2 SHL ADD PUSH1 0x3 DUP4 ADD SSTORE PUSH2 0x12A6 JUMP JUMPDEST ADD MLOAD PUSH1 0x0 NOT PUSH1 0xF8 DUP5 PUSH1 0x3 SHL AND SHR NOT AND SWAP1 SSTORE CODESIZE DUP1 DUP1 PUSH2 0x1564 JUMP JUMPDEST DUP2 DUP2 ADD MLOAD DUP4 SSTORE PUSH1 0x20 SWAP5 DUP6 ADD SWAP5 PUSH1 0x1 SWAP1 SWAP4 ADD SWAP3 SWAP1 SWAP2 ADD SWAP1 PUSH2 0x1549 JUMP JUMPDEST PUSH2 0x15D5 SWAP1 PUSH1 0x3 DUP8 ADD DUP7 MSTORE PUSH1 0x20 DUP7 KECCAK256 PUSH1 0x1F DUP6 ADD PUSH1 0x5 SHR DUP2 ADD SWAP2 PUSH1 0x20 DUP7 LT PUSH2 0x8F5 JUMPI PUSH1 0x1F ADD PUSH1 0x5 SHR ADD SWAP1 PUSH2 0x264F JUMP JUMPDEST CODESIZE PUSH2 0x1278 JUMP JUMPDEST ADD MLOAD SWAP1 POP CODESIZE DUP1 PUSH2 0x1232 JUMP JUMPDEST SWAP3 POP PUSH1 0x2 DUP6 ADD DUP5 MSTORE PUSH1 0x20 DUP5 KECCAK256 SWAP1 DUP5 SWAP4 JUMPDEST PUSH1 0x1F NOT DUP5 AND DUP6 LT PUSH2 0x163A JUMPI PUSH1 0x1 SWAP5 POP DUP4 PUSH1 0x1F NOT DUP2 AND LT PUSH2 0x1621 JUMPI JUMPDEST POP POP POP DUP2 SHL ADD PUSH1 0x2 DUP4 ADD SSTORE PUSH2 0x124A JUMP JUMPDEST ADD MLOAD PUSH1 0x0 NOT PUSH1 0xF8 DUP5 PUSH1 0x3 SHL AND SHR NOT AND SWAP1 SSTORE CODESIZE DUP1 DUP1 PUSH2 0x1611 JUMP JUMPDEST DUP2 DUP2 ADD MLOAD DUP4 SSTORE PUSH1 0x20 SWAP5 DUP6 ADD SWAP5 PUSH1 0x1 SWAP1 SWAP4 ADD SWAP3 SWAP1 SWAP2 ADD SWAP1 PUSH2 0x15F6 JUMP JUMPDEST PUSH2 0x1682 SWAP1 PUSH1 0x2 DUP8 ADD DUP7 MSTORE PUSH1 0x20 DUP7 KECCAK256 PUSH1 0x1F DUP6 ADD PUSH1 0x5 SHR DUP2 ADD SWAP2 PUSH1 0x20 DUP7 LT PUSH2 0x8F5 JUMPI PUSH1 0x1F ADD PUSH1 0x5 SHR ADD SWAP1 PUSH2 0x264F JUMP JUMPDEST CODESIZE PUSH2 0x121C JUMP JUMPDEST ADD MLOAD SWAP1 POP CODESIZE DUP1 PUSH2 0x11D6 JUMP JUMPDEST SWAP3 POP PUSH1 0x1 DUP6 ADD DUP5 MSTORE PUSH1 0x20 DUP5 KECCAK256 SWAP1 DUP5 SWAP4 JUMPDEST PUSH1 0x1F NOT DUP5 AND DUP6 LT PUSH2 0x16E7 JUMPI PUSH1 0x1 SWAP5 POP DUP4 PUSH1 0x1F NOT DUP2 AND LT PUSH2 0x16CE JUMPI JUMPDEST POP POP POP DUP2 SHL ADD PUSH1 0x1 DUP4 ADD SSTORE PUSH2 0x11EE JUMP JUMPDEST ADD MLOAD PUSH1 0x0 NOT PUSH1 0xF8 DUP5 PUSH1 0x3 SHL AND SHR NOT AND SWAP1 SSTORE CODESIZE DUP1 DUP1 PUSH2 0x16BE JUMP JUMPDEST DUP2 DUP2 ADD MLOAD DUP4 SSTORE PUSH1 0x20 SWAP5 DUP6 ADD SWAP5 PUSH1 0x1 SWAP1 SWAP4 ADD SWAP3 SWAP1 SWAP2 ADD SWAP1 PUSH2 0x16A3 JUMP JUMPDEST PUSH2 0x172F SWAP1 PUSH1 0x1 DUP8 ADD DUP7 MSTORE PUSH1 0x20 DUP7 KECCAK256 PUSH1 0x1F DUP6 ADD PUSH1 0x5 SHR DUP2 ADD SWAP2 PUSH1 0x20 DUP7 LT PUSH2 0x8F5 JUMPI PUSH1 0x1F ADD PUSH1 0x5 SHR ADD SWAP1 PUSH2 0x264F JUMP JUMPDEST CODESIZE PUSH2 0x11C0 JUMP JUMPDEST PUSH2 0x173E SWAP1 PUSH2 0x210E JUMP JUMPDEST PUSH2 0x203 JUMPI DUP2 CODESIZE PUSH2 0x1118 JUMP JUMPDEST POP CALLVALUE PUSH2 0x157 JUMPI DUP1 PUSH1 0x3 NOT CALLDATASIZE ADD SLT PUSH2 0x157 JUMPI PUSH1 0x1 SLOAD PUSH1 0x40 MLOAD PUSH1 0x1 PUSH1 0x1 PUSH1 0xA0 SHL SUB SWAP1 SWAP2 AND DUP2 MSTORE PUSH1 0x20 SWAP1 RETURN JUMPDEST POP CALLVALUE PUSH2 0x157 JUMPI PUSH1 0x20 CALLDATASIZE PUSH1 0x3 NOT ADD SLT PUSH2 0x157 JUMPI PUSH1 0x4 CALLDATALOAD SWAP1 PUSH1 0x2 SLOAD DUP3 LT ISZERO PUSH2 0x157 JUMPI PUSH1 0x20 PUSH2 0x179D DUP4 PUSH2 0x233F JUMP JUMPDEST SWAP1 SLOAD PUSH1 0x40 MLOAD SWAP2 PUSH1 0x3 SHL SHR DUP2 MSTORE RETURN JUMPDEST POP CALLVALUE PUSH2 0x157 JUMPI PUSH2 0x17BA CALLDATASIZE PUSH2 0x22A7 JUMP JUMPDEST SWAP9 SWAP10 PUSH2 0x17CC SWAP8 SWAP5 SWAP6 SWAP7 SWAP4 SWAP3 SWAP2 SWAP8 PUSH2 0x23E8 JUMP JUMPDEST PUSH1 0x1 PUSH1 0x1 PUSH1 0xA0 SHL SUB DUP3 AND DUP2 MSTORE PUSH1 0x4 PUSH1 0x20 MSTORE PUSH1 0x40 DUP2 KECCAK256 SLOAD PUSH2 0x17EE SWAP1 PUSH1 0xFF AND PUSH2 0x2414 JUMP JUMPDEST PUSH2 0x17F9 TIMESTAMP DUP5 GT PUSH2 0x2460 JUMP JUMPDEST PUSH1 0x5 SLOAD SWAP10 DUP12 DUP6 DUP12 DUP14 DUP11 DUP13 DUP2 DUP6 DUP14 PUSH1 0x40 MLOAD SWAP8 DUP8 DUP10 SWAP9 PUSH1 0x20 DUP11 ADD SWAP12 DUP13 CALLDATACOPY DUP9 ADD SWAP2 PUSH1 0x20 DUP4 ADD DUP14 DUP2 MSTORE CALLDATACOPY ADD SWAP2 PUSH1 0x20 DUP4 ADD DUP11 DUP2 MSTORE CALLDATACOPY ADD SWAP1 DUP7 PUSH1 0x20 DUP4 ADD MSTORE PUSH1 0x21 DUP3 ADD MSTORE SUB PUSH1 0x21 DUP2 ADD DUP3 MSTORE PUSH1 0x41 ADD PUSH2 0x184A SWAP1 DUP3 PUSH2 0x2158 JUMP JUMPDEST MLOAD SWAP1 KECCAK256 SWAP11 DUP12 DUP4 MSTORE PUSH1 0x3 PUSH1 0x20 MSTORE PUSH1 0x40 DUP4 KECCAK256 SLOAD ISZERO PUSH2 0x1865 SWAP1 PUSH2 0x24AC JUMP JUMPDEST PUSH2 0x186E SWAP1 PUSH2 0x24F0 JUMP JUMPDEST PUSH1 0x5 SSTORE PUSH2 0x1879 PUSH2 0x2515 JUMP JUMPDEST SWAP9 PUSH1 0x40 MLOAD DUP7 DUP9 PUSH1 0x20 DUP4 ADD CALLDATACOPY DUP7 DUP2 ADD SWAP1 DUP1 PUSH5 0x2077696E73 PUSH1 0xD8 SHL SWAP3 DUP4 PUSH1 0x20 DUP3 ADD MSTORE SUB PUSH1 0x5 DUP2 ADD DUP3 MSTORE PUSH1 0x25 ADD PUSH2 0x18AD SWAP1 DUP3 PUSH2 0x2158 JUMP JUMPDEST PUSH2 0x18B6 DUP13 PUSH2 0x2559 JUMP JUMPDEST MSTORE PUSH2 0x18C0 DUP12 PUSH2 0x2559 JUMP JUMPDEST POP PUSH1 0x40 MLOAD DUP1 SWAP2 DUP11 DUP13 PUSH1 0x20 DUP5 ADD CALLDATACOPY DUP11 DUP3 ADD SWAP1 PUSH1 0x20 DUP3 ADD MSTORE SUB PUSH1 0x5 DUP2 ADD DUP3 MSTORE PUSH1 0x25 ADD PUSH2 0x18EA SWAP1 DUP3 PUSH2 0x2158 JUMP JUMPDEST PUSH2 0x18F3 DUP12 PUSH2 0x2566 JUMP JUMPDEST MSTORE PUSH2 0x18FD DUP11 PUSH2 0x2566 JUMP JUMPDEST POP PUSH1 0x1 SLOAD PUSH1 0x1 PUSH1 0x1 PUSH1 0xA0 SHL SUB AND DUP1 EXTCODESIZE ISZERO PUSH2 0xD2A JUMPI SWAP1 DUP4 SWAP2 DUP6 DUP4 DUP16 PUSH2 0x1937 PUSH1 0x40 MLOAD SWAP8 DUP9 SWAP7 DUP8 SWAP6 DUP7 SWAP5 PUSH4 0x3A4B019 PUSH1 0xE0 SHL DUP7 MSTORE PUSH1 0x4 DUP7 ADD PUSH2 0x25D7 JUMP JUMPDEST SUB SWAP3 GAS CALL DUP1 ISZERO PUSH2 0x1F71 JUMPI PUSH2 0x1F62 JUMPI JUMPDEST POP SWAP1 PUSH1 0x40 MLOAD SWAP3 PUSH2 0x1955 DUP5 PUSH2 0x2121 JUMP JUMPDEST DUP11 DUP5 MSTORE PUSH2 0x1963 CALLDATASIZE DUP12 DUP15 PUSH2 0x2609 JUMP JUMPDEST PUSH1 0x20 DUP6 ADD MSTORE PUSH2 0x1973 CALLDATASIZE DUP7 DUP9 PUSH2 0x2609 JUMP JUMPDEST PUSH1 0x40 DUP6 ADD MSTORE PUSH2 0x1983 CALLDATASIZE DUP9 DUP11 PUSH2 0x2609 JUMP JUMPDEST PUSH1 0x60 DUP6 ADD MSTORE DUP3 PUSH1 0x80 DUP6 ADD MSTORE PUSH1 0xA0 DUP5 ADD MSTORE PUSH1 0x1 PUSH1 0xC0 DUP5 ADD MSTORE DUP8 PUSH1 0xE0 DUP5 ADD MSTORE PUSH1 0x1 DUP1 PUSH1 0xA0 SHL SUB AND PUSH2 0x100 DUP4 ADD MSTORE DUP9 DUP2 MSTORE PUSH1 0x3 PUSH1 0x20 MSTORE PUSH1 0x40 DUP2 KECCAK256 SWAP1 DUP3 MLOAD DUP3 SSTORE PUSH1 0x20 DUP4 ADD MLOAD DUP1 MLOAD SWAP1 PUSH1 0x1 PUSH1 0x1 PUSH1 0x40 SHL SUB DUP3 GT PUSH2 0x98B JUMPI DUP2 SWAP1 PUSH2 0x19E4 PUSH1 0x1 DUP7 ADD SLOAD PUSH2 0x20D4 JUMP JUMPDEST PUSH1 0x1F DUP2 GT PUSH2 0x1F2F JUMPI JUMPDEST POP PUSH1 0x20 SWAP1 PUSH1 0x1F DUP4 GT PUSH1 0x1 EQ PUSH2 0x1EC0 JUMPI DUP5 SWAP3 PUSH2 0x1EB5 JUMPI JUMPDEST POP POP DUP2 PUSH1 0x1 SHL SWAP2 PUSH1 0x0 NOT SWAP1 PUSH1 0x3 SHL SHR NOT AND OR PUSH1 0x1 DUP4 ADD SSTORE JUMPDEST PUSH1 0x40 DUP4 ADD MLOAD DUP1 MLOAD SWAP1 PUSH1 0x1 PUSH1 0x1 PUSH1 0x40 SHL SUB DUP3 GT PUSH2 0x98B JUMPI DUP2 SWAP1 PUSH2 0x1A40 PUSH1 0x2 DUP7 ADD SLOAD PUSH2 0x20D4 JUMP JUMPDEST PUSH1 0x1F DUP2 GT PUSH2 0x1E82 JUMPI JUMPDEST POP PUSH1 0x20 SWAP1 PUSH1 0x1F DUP4 GT PUSH1 0x1 EQ PUSH2 0x1E13 JUMPI DUP5 SWAP3 PUSH2 0x1E08 JUMPI JUMPDEST POP POP DUP2 PUSH1 0x1 SHL SWAP2 PUSH1 0x0 NOT SWAP1 PUSH1 0x3 SHL SHR NOT AND OR PUSH1 0x2 DUP4 ADD SSTORE JUMPDEST PUSH1 0x60 DUP4 ADD MLOAD DUP1 MLOAD SWAP1 PUSH1 0x1 PUSH1 0x1 PUSH1 0x40 SHL SUB DUP3 GT PUSH2 0x98B JUMPI DUP2 SWAP1 PUSH2 0x1A9C PUSH1 0x3 DUP7 ADD SLOAD PUSH2 0x20D4 JUMP JUMPDEST PUSH1 0x1F DUP2 GT PUSH2 0x1DD5 JUMPI JUMPDEST POP PUSH1 0x20 SWAP1 PUSH1 0x1F DUP4 GT PUSH1 0x1 EQ PUSH2 0x1D66 JUMPI DUP5 SWAP3 PUSH2 0x1D5B JUMPI JUMPDEST POP POP DUP2 PUSH1 0x1 SHL SWAP2 PUSH1 0x0 NOT SWAP1 PUSH1 0x3 SHL SHR NOT AND OR PUSH1 0x3 DUP4 ADD SSTORE JUMPDEST PUSH1 0x4 DUP3 ADD PUSH1 0x80 DUP5 ADD MLOAD PUSH1 0x5 DUP2 LT ISZERO PUSH2 0x99F JUMPI PUSH1 0xFF DUP1 NOT DUP4 SLOAD AND SWAP2 AND OR SWAP1 SSTORE PUSH1 0xA0 DUP4 ADD MLOAD PUSH1 0x5 DUP4 ADD SSTORE PUSH2 0x1B1A PUSH1 0xC0 DUP5 ADD MLOAD ISZERO ISZERO PUSH1 0x6 DUP5 ADD SWAP1 PUSH1 0xFF DUP1 NOT DUP4 SLOAD AND SWAP2 ISZERO ISZERO AND OR SWAP1 SSTORE JUMP JUMPDEST PUSH1 0xE0 DUP4 ADD MLOAD DUP1 MLOAD SWAP1 PUSH1 0x1 PUSH1 0x40 SHL DUP3 GT PUSH2 0x98B JUMPI PUSH1 0x7 DUP5 ADD SLOAD DUP3 PUSH1 0x7 DUP7 ADD SSTORE DUP1 DUP4 LT PUSH2 0x1CE3 JUMPI JUMPDEST POP PUSH1 0x20 ADD PUSH1 0x7 DUP5 ADD DUP4 MSTORE PUSH1 0x20 DUP4 KECCAK256 DUP4 SWAP2 JUMPDEST DUP4 DUP4 LT PUSH2 0x1BD4 JUMPI POP POP POP POP POP SWAP5 DUP9 SWAP8 SWAP5 PUSH2 0x7B7 PUSH2 0x7DA SWAP6 PUSH32 0xA288D5D6DD77B6573A9F886B36C4310244E9C0DC2E7DE1B5ABF1E8DFA7694CD2 SWAP10 SWAP6 PUSH2 0x1BBF SWAP6 PUSH1 0x8 PUSH1 0x20 SWAP16 SWAP12 ADD SWAP1 PUSH2 0x100 PUSH1 0x1 DUP1 PUSH1 0xA0 SHL SUB SWAP2 ADD MLOAD AND PUSH1 0x1 PUSH1 0x1 PUSH1 0x60 SHL SUB PUSH1 0xA0 SHL DUP3 SLOAD AND OR SWAP1 SSTORE PUSH2 0x793 DUP13 PUSH2 0x2666 JUMP JUMPDEST SWAP1 PUSH1 0x0 PUSH1 0x60 DUP6 ADD MSTORE DUP4 DUP3 SUB PUSH1 0x80 DUP6 ADD MSTORE PUSH2 0x238C JUMP JUMPDEST DUP1 MLOAD DUP1 MLOAD SWAP1 PUSH1 0x1 PUSH1 0x1 PUSH1 0x40 SHL SUB DUP3 GT PUSH2 0x8FF JUMPI PUSH2 0x1BF1 DUP5 SLOAD PUSH2 0x20D4 JUMP JUMPDEST PUSH1 0x1F DUP2 GT PUSH2 0x1CB3 JUMPI JUMPDEST POP PUSH1 0x20 SWAP1 PUSH1 0x1F DUP4 GT PUSH1 0x1 EQ PUSH2 0x1C46 JUMPI SWAP3 DUP3 PUSH1 0x1 SWAP5 SWAP4 PUSH1 0x20 SWAP4 DUP7 SWAP6 DUP12 SWAP3 PUSH2 0x1C3B JUMPI JUMPDEST POP POP PUSH1 0x0 NOT PUSH1 0x3 DUP4 SWAP1 SHL SHR NOT AND SWAP1 DUP5 SHL OR DUP6 SSTORE JUMPDEST ADD SWAP3 ADD SWAP3 ADD SWAP2 SWAP1 PUSH2 0x1B51 JUMP JUMPDEST ADD MLOAD SWAP1 POP CODESIZE DUP1 PUSH2 0x1C1B JUMP JUMPDEST SWAP1 DUP5 DUP9 MSTORE PUSH1 0x20 DUP9 KECCAK256 SWAP2 DUP9 JUMPDEST PUSH1 0x1F NOT DUP6 AND DUP2 LT PUSH2 0x1C9B JUMPI POP DUP4 PUSH1 0x20 SWAP4 PUSH1 0x1 SWAP7 SWAP4 DUP8 SWAP7 SWAP4 DUP8 SWAP5 PUSH1 0x1F NOT DUP2 AND LT PUSH2 0x1C82 JUMPI JUMPDEST POP POP POP DUP2 SHL ADD DUP6 SSTORE PUSH2 0x1C2F JUMP JUMPDEST ADD MLOAD PUSH1 0x0 NOT PUSH1 0xF8 DUP5 PUSH1 0x3 SHL AND SHR NOT AND SWAP1 SSTORE CODESIZE DUP1 DUP1 PUSH2 0x1C75 JUMP JUMPDEST SWAP2 SWAP3 PUSH1 0x20 PUSH1 0x1 DUP2 SWAP3 DUP7 DUP6 ADD MLOAD DUP2 SSTORE ADD SWAP5 ADD SWAP3 ADD PUSH2 0x1C51 JUMP JUMPDEST PUSH2 0x1CDD SWAP1 DUP6 DUP10 MSTORE PUSH1 0x20 DUP10 KECCAK256 PUSH1 0x1F DUP6 ADD PUSH1 0x5 SHR DUP2 ADD SWAP2 PUSH1 0x20 DUP7 LT PUSH2 0x8F5 JUMPI PUSH1 0x1F ADD PUSH1 0x5 SHR ADD SWAP1 PUSH2 0x264F JUMP JUMPDEST CODESIZE PUSH2 0x1BFA JUMP JUMPDEST PUSH1 0x7 DUP6 ADD DUP5 MSTORE PUSH1 0x20 DUP5 KECCAK256 SWAP1 DUP4 DUP3 ADD JUMPDEST DUP2 DUP4 ADD DUP2 LT PUSH2 0x1D02 JUMPI POP POP PUSH2 0x1B40 JUMP JUMPDEST DUP1 DUP7 PUSH2 0x1D10 PUSH1 0x1 SWAP4 SLOAD PUSH2 0x20D4 JUMP JUMPDEST DUP1 PUSH2 0x1D1E JUMPI JUMPDEST POP POP ADD PUSH2 0x1CF2 JUMP JUMPDEST PUSH1 0x1F DUP2 GT DUP5 EQ PUSH2 0x1D36 JUMPI POP POP PUSH1 0x0 DUP2 SSTORE JUMPDEST DUP7 CODESIZE PUSH2 0x1D16 JUMP JUMPDEST DUP3 DUP3 MSTORE PUSH2 0x1D51 PUSH1 0x1F PUSH1 0x20 DUP5 KECCAK256 SWAP3 ADD PUSH1 0x5 SHR DUP3 ADD DUP6 DUP4 ADD PUSH2 0x264F JUMP JUMPDEST PUSH1 0x0 DUP4 SSTORE SSTORE PUSH2 0x1D2F JUMP JUMPDEST ADD MLOAD SWAP1 POP CODESIZE DUP1 PUSH2 0x1ABB JUMP JUMPDEST SWAP3 POP PUSH1 0x3 DUP6 ADD DUP5 MSTORE PUSH1 0x20 DUP5 KECCAK256 SWAP1 DUP5 SWAP4 JUMPDEST PUSH1 0x1F NOT DUP5 AND DUP6 LT PUSH2 0x1DBA JUMPI PUSH1 0x1 SWAP5 POP DUP4 PUSH1 0x1F NOT DUP2 AND LT PUSH2 0x1DA1 JUMPI JUMPDEST POP POP POP DUP2 SHL ADD PUSH1 0x3 DUP4 ADD SSTORE PUSH2 0x1AD3 JUMP JUMPDEST ADD MLOAD PUSH1 0x0 NOT PUSH1 0xF8 DUP5 PUSH1 0x3 SHL AND SHR NOT AND SWAP1 SSTORE CODESIZE DUP1 DUP1 PUSH2 0x1D91 JUMP JUMPDEST DUP2 DUP2 ADD MLOAD DUP4 SSTORE PUSH1 0x20 SWAP5 DUP6 ADD SWAP5 PUSH1 0x1 SWAP1 SWAP4 ADD SWAP3 SWAP1 SWAP2 ADD SWAP1 PUSH2 0x1D76 JUMP JUMPDEST PUSH2 0x1E02 SWAP1 PUSH1 0x3 DUP8 ADD DUP7 MSTORE PUSH1 0x20 DUP7 KECCAK256 PUSH1 0x1F DUP6 ADD PUSH1 0x5 SHR DUP2 ADD SWAP2 PUSH1 0x20 DUP7 LT PUSH2 0x8F5 JUMPI PUSH1 0x1F ADD PUSH1 0x5 SHR ADD SWAP1 PUSH2 0x264F JUMP JUMPDEST CODESIZE PUSH2 0x1AA5 JUMP JUMPDEST ADD MLOAD SWAP1 POP CODESIZE DUP1 PUSH2 0x1A5F JUMP JUMPDEST SWAP3 POP PUSH1 0x2 DUP6 ADD DUP5 MSTORE PUSH1 0x20 DUP5 KECCAK256 SWAP1 DUP5 SWAP4 JUMPDEST PUSH1 0x1F NOT DUP5 AND DUP6 LT PUSH2 0x1E67 JUMPI PUSH1 0x1 SWAP5 POP DUP4 PUSH1 0x1F NOT DUP2 AND LT PUSH2 0x1E4E JUMPI JUMPDEST POP POP POP DUP2 SHL ADD PUSH1 0x2 DUP4 ADD SSTORE PUSH2 0x1A77 JUMP JUMPDEST ADD MLOAD PUSH1 0x0 NOT PUSH1 0xF8 DUP5 PUSH1 0x3 SHL AND SHR NOT AND SWAP1 SSTORE CODESIZE DUP1 DUP1 PUSH2 0x1E3E JUMP JUMPDEST DUP2 DUP2 ADD MLOAD DUP4 SSTORE PUSH1 0x20 SWAP5 DUP6 ADD SWAP5 PUSH1 0x1 SWAP1 SWAP4 ADD SWAP3 SWAP1 SWAP2 ADD SWAP1 PUSH2 0x1E23 JUMP JUMPDEST PUSH2 0x1EAF SWAP1 PUSH1 0x2 DUP8 ADD DUP7 MSTORE PUSH1 0x20 DUP7 KECCAK256 PUSH1 0x1F DUP6 ADD PUSH1 0x5 SHR DUP2 ADD SWAP2 PUSH1 0x20 DUP7 LT PUSH2 0x8F5 JUMPI PUSH1 0x1F ADD PUSH1 0x5 SHR ADD SWAP1 PUSH2 0x264F JUMP JUMPDEST CODESIZE PUSH2 0x1A49 JUMP JUMPDEST ADD MLOAD SWAP1 POP CODESIZE DUP1 PUSH2 0x1A03 JUMP JUMPDEST SWAP3 POP PUSH1 0x1 DUP6 ADD DUP5 MSTORE PUSH1 0x20 DUP5 KECCAK256 SWAP1 DUP5 SWAP4 JUMPDEST PUSH1 0x1F NOT DUP5 AND DUP6 LT PUSH2 0x1F14 JUMPI PUSH1 0x1 SWAP5 POP DUP4 PUSH1 0x1F NOT DUP2 AND LT PUSH2 0x1EFB JUMPI JUMPDEST POP POP POP DUP2 SHL ADD PUSH1 0x1 DUP4 ADD SSTORE PUSH2 0x1A1B JUMP JUMPDEST ADD MLOAD PUSH1 0x0 NOT PUSH1 0xF8 DUP5 PUSH1 0x3 SHL AND SHR NOT AND SWAP1 SSTORE CODESIZE DUP1 DUP1 PUSH2 0x1EEB JUMP JUMPDEST DUP2 DUP2 ADD MLOAD DUP4 SSTORE PUSH1 0x20 SWAP5 DUP6 ADD SWAP5 PUSH1 0x1 SWAP1 SWAP4 ADD SWAP3 SWAP1 SWAP2 ADD SWAP1 PUSH2 0x1ED0 JUMP JUMPDEST PUSH2 0x1F5C SWAP1 PUSH1 0x1 DUP8 ADD DUP7 MSTORE PUSH1 0x20 DUP7 KECCAK256 PUSH1 0x1F DUP6 ADD PUSH1 0x5 SHR DUP2 ADD SWAP2 PUSH1 0x20 DUP7 LT PUSH2 0x8F5 JUMPI PUSH1 0x1F ADD PUSH1 0x5 SHR ADD SWAP1 PUSH2 0x264F JUMP JUMPDEST CODESIZE PUSH2 0x19ED JUMP JUMPDEST PUSH2 0x1F6B SWAP1 PUSH2 0x210E JUMP JUMPDEST CODESIZE PUSH2 0x1946 JUMP JUMPDEST PUSH1 0x40 MLOAD RETURNDATASIZE DUP5 DUP3 RETURNDATACOPY RETURNDATASIZE SWAP1 REVERT JUMPDEST POP CALLVALUE PUSH2 0x157 JUMPI PUSH1 0x20 CALLDATASIZE PUSH1 0x3 NOT ADD SLT PUSH2 0x157 JUMPI PUSH1 0x4 CALLDATALOAD DUP2 MSTORE PUSH1 0x3 PUSH1 0x20 MSTORE PUSH1 0x40 DUP2 KECCAK256 DUP1 SLOAD SWAP1 PUSH2 0x1FAB PUSH1 0x1 DUP3 ADD PUSH2 0x2179 JUMP JUMPDEST PUSH2 0x1FB7 PUSH1 0x2 DUP4 ADD PUSH2 0x2179 JUMP JUMPDEST SWAP2 PUSH2 0x1FC4 PUSH1 0x3 DUP3 ADD PUSH2 0x2179 JUMP JUMPDEST SWAP3 PUSH2 0x2027 PUSH1 0xFF PUSH1 0x4 DUP5 ADD SLOAD AND SWAP5 PUSH2 0x2019 PUSH1 0x5 DUP6 ADD SLOAD SWAP4 PUSH2 0x200B PUSH1 0xFF PUSH1 0x6 DUP9 ADD SLOAD AND SWAP7 PUSH1 0x8 PUSH1 0x1 DUP1 PUSH1 0xA0 SHL SUB SWAP2 ADD SLOAD AND SWAP8 PUSH1 0x40 MLOAD SWAP11 DUP12 MSTORE PUSH2 0x100 DUP1 PUSH1 0x20 DUP14 ADD MSTORE DUP12 ADD SWAP1 PUSH2 0x221F JUMP JUMPDEST SWAP1 DUP10 DUP3 SUB PUSH1 0x40 DUP12 ADD MSTORE PUSH2 0x221F JUMP JUMPDEST SWAP1 DUP8 DUP3 SUB PUSH1 0x60 DUP10 ADD MSTORE PUSH2 0x221F JUMP JUMPDEST SWAP4 PUSH1 0x5 DUP2 LT ISZERO PUSH2 0x204E JUMPI DUP6 SWAP7 POP PUSH1 0x80 DUP7 ADD MSTORE PUSH1 0xA0 DUP6 ADD MSTORE ISZERO ISZERO PUSH1 0xC0 DUP5 ADD MSTORE PUSH1 0xE0 DUP4 ADD MSTORE SUB SWAP1 RETURN JUMPDEST PUSH4 0x4E487B71 PUSH1 0xE0 SHL DUP8 MSTORE PUSH1 0x21 PUSH1 0x4 MSTORE PUSH1 0x24 DUP8 REVERT JUMPDEST POP CALLVALUE PUSH2 0x157 JUMPI DUP1 PUSH1 0x3 NOT CALLDATASIZE ADD SLT PUSH2 0x157 JUMPI PUSH1 0x2 SLOAD DUP2 DUP1 JUMPDEST DUP3 DUP2 LT PUSH2 0x208B JUMPI PUSH1 0x20 DUP5 PUSH1 0x40 MLOAD SWAP1 DUP2 MSTORE RETURN JUMPDEST PUSH2 0x2094 DUP2 PUSH2 0x233F JUMP JUMPDEST SWAP1 SLOAD PUSH1 0x3 SWAP2 DUP3 SHL SHR DUP4 MSTORE PUSH1 0x20 MSTORE PUSH1 0xFF PUSH1 0x6 PUSH1 0x40 DUP5 KECCAK256 ADD SLOAD AND PUSH2 0x20BF JUMPI JUMPDEST PUSH2 0x20BA SWAP1 PUSH2 0x24F0 JUMP JUMPDEST PUSH2 0x2079 JUMP JUMPDEST SWAP3 PUSH2 0x20CC PUSH2 0x20BA SWAP2 PUSH2 0x24F0 JUMP JUMPDEST SWAP4 SWAP1 POP PUSH2 0x20B1 JUMP JUMPDEST SWAP1 PUSH1 0x1 DUP3 DUP2 SHR SWAP3 AND DUP1 ISZERO PUSH2 0x2104 JUMPI JUMPDEST PUSH1 0x20 DUP4 LT EQ PUSH2 0x20EE JUMPI JUMP JUMPDEST PUSH4 0x4E487B71 PUSH1 0xE0 SHL PUSH1 0x0 MSTORE PUSH1 0x22 PUSH1 0x4 MSTORE PUSH1 0x24 PUSH1 0x0 REVERT JUMPDEST SWAP2 PUSH1 0x7F AND SWAP2 PUSH2 0x20E3 JUMP JUMPDEST PUSH1 0x1 PUSH1 0x1 PUSH1 0x40 SHL SUB DUP2 GT PUSH2 0x1ED JUMPI PUSH1 0x40 MSTORE JUMP JUMPDEST PUSH2 0x120 DUP2 ADD SWAP1 DUP2 LT PUSH1 0x1 PUSH1 0x1 PUSH1 0x40 SHL SUB DUP3 GT OR PUSH2 0x1ED JUMPI PUSH1 0x40 MSTORE JUMP JUMPDEST PUSH1 0x40 DUP2 ADD SWAP1 DUP2 LT PUSH1 0x1 PUSH1 0x1 PUSH1 0x40 SHL SUB DUP3 GT OR PUSH2 0x1ED JUMPI PUSH1 0x40 MSTORE JUMP JUMPDEST SWAP1 PUSH1 0x1F DUP1 NOT SWAP2 ADD AND DUP2 ADD SWAP1 DUP2 LT PUSH1 0x1 PUSH1 0x1 PUSH1 0x40 SHL SUB DUP3 GT OR PUSH2 0x1ED JUMPI PUSH1 0x40 MSTORE JUMP JUMPDEST SWAP1 PUSH1 0x40 MLOAD SWAP2 DUP3 PUSH1 0x0 DUP3 SLOAD SWAP3 PUSH2 0x218D DUP5 PUSH2 0x20D4 JUMP JUMPDEST SWAP1 DUP2 DUP5 MSTORE PUSH1 0x1 SWAP5 DUP6 DUP2 AND SWAP1 DUP2 PUSH1 0x0 EQ PUSH2 0x21FC JUMPI POP PUSH1 0x1 EQ PUSH2 0x21B9 JUMPI JUMPDEST POP POP PUSH2 0x21B7 SWAP3 POP SUB DUP4 PUSH2 0x2158 JUMP JUMPDEST JUMP JUMPDEST SWAP1 SWAP4 SWAP2 POP PUSH1 0x0 MSTORE PUSH1 0x20 SWAP1 DUP2 PUSH1 0x0 KECCAK256 SWAP4 PUSH1 0x0 SWAP2 JUMPDEST DUP2 DUP4 LT PUSH2 0x21E4 JUMPI POP POP PUSH2 0x21B7 SWAP4 POP DUP3 ADD ADD CODESIZE DUP1 PUSH2 0x21A9 JUMP JUMPDEST DUP6 SLOAD DUP9 DUP5 ADD DUP6 ADD MSTORE SWAP5 DUP6 ADD SWAP5 DUP8 SWAP5 POP SWAP2 DUP4 ADD SWAP2 PUSH2 0x21CC JUMP JUMPDEST SWAP2 POP POP PUSH2 0x21B7 SWAP5 POP PUSH1 0x20 SWAP3 POP PUSH1 0xFF NOT AND DUP3 DUP5 ADD MSTORE ISZERO ISZERO PUSH1 0x5 SHL DUP3 ADD ADD CODESIZE DUP1 PUSH2 0x21A9 JUMP JUMPDEST SWAP2 SWAP1 DUP3 MLOAD SWAP3 DUP4 DUP3 MSTORE PUSH1 0x0 JUMPDEST DUP5 DUP2 LT PUSH2 0x224B JUMPI POP POP DUP3 PUSH1 0x0 PUSH1 0x20 DUP1 SWAP5 SWAP6 DUP5 ADD ADD MSTORE PUSH1 0x1F DUP1 NOT SWAP2 ADD AND ADD ADD SWAP1 JUMP JUMPDEST PUSH1 0x20 DUP2 DUP4 ADD DUP2 ADD MLOAD DUP5 DUP4 ADD DUP3 ADD MSTORE ADD PUSH2 0x222A JUMP JUMPDEST SWAP2 DUP2 PUSH1 0x1F DUP5 ADD SLT ISZERO PUSH2 0x228C JUMPI DUP3 CALLDATALOAD SWAP2 PUSH1 0x1 PUSH1 0x1 PUSH1 0x40 SHL SUB DUP4 GT PUSH2 0x228C JUMPI PUSH1 0x20 DUP4 DUP2 DUP7 ADD SWAP6 ADD ADD GT PUSH2 0x228C JUMPI JUMP JUMPDEST PUSH1 0x0 DUP1 REVERT JUMPDEST PUSH1 0x4 CALLDATALOAD SWAP1 PUSH1 0x1 PUSH1 0x1 PUSH1 0xA0 SHL SUB DUP3 AND DUP3 SUB PUSH2 0x228C JUMPI JUMP JUMPDEST PUSH1 0xC0 PUSH1 0x3 NOT DUP3 ADD SLT PUSH2 0x228C JUMPI PUSH1 0x1 PUSH1 0x1 PUSH1 0x40 SHL SUB SWAP2 PUSH1 0x4 CALLDATALOAD DUP4 DUP2 GT PUSH2 0x228C JUMPI DUP3 PUSH2 0x22D3 SWAP2 PUSH1 0x4 ADD PUSH2 0x225F JUMP JUMPDEST SWAP4 SWAP1 SWAP4 SWAP3 PUSH1 0x24 CALLDATALOAD DUP3 DUP2 GT PUSH2 0x228C JUMPI DUP2 PUSH2 0x22EE SWAP2 PUSH1 0x4 ADD PUSH2 0x225F JUMP JUMPDEST SWAP4 SWAP1 SWAP4 SWAP3 PUSH1 0x44 CALLDATALOAD DUP2 DUP2 GT PUSH2 0x228C JUMPI DUP4 PUSH2 0x2309 SWAP2 PUSH1 0x4 ADD PUSH2 0x225F JUMP JUMPDEST SWAP1 SWAP4 SWAP1 SWAP3 PUSH1 0x64 CALLDATALOAD SWAP3 PUSH1 0x84 CALLDATALOAD PUSH1 0x1 PUSH1 0x1 PUSH1 0xA0 SHL SUB DUP2 AND DUP2 SUB PUSH2 0x228C JUMPI SWAP3 PUSH1 0xA4 CALLDATALOAD SWAP2 DUP3 GT PUSH2 0x228C JUMPI PUSH2 0x233B SWAP2 PUSH1 0x4 ADD PUSH2 0x225F JUMP JUMPDEST SWAP1 SWAP2 JUMP JUMPDEST PUSH1 0x2 SLOAD DUP2 LT ISZERO PUSH2 0x2376 JUMPI PUSH1 0x2 PUSH1 0x0 MSTORE PUSH32 0x405787FA12A823E0F2B7631CC41B3BA8828B3321CA811111FA75CD3AA3BB5ACE ADD SWAP1 PUSH1 0x0 SWAP1 JUMP JUMPDEST PUSH4 0x4E487B71 PUSH1 0xE0 SHL PUSH1 0x0 MSTORE PUSH1 0x32 PUSH1 0x4 MSTORE PUSH1 0x24 PUSH1 0x0 REVERT JUMPDEST SWAP1 DUP1 DUP3 MLOAD SWAP1 DUP2 DUP2 MSTORE PUSH1 0x20 DUP1 SWAP2 ADD SWAP3 DUP2 DUP1 DUP5 PUSH1 0x5 SHL DUP4 ADD ADD SWAP6 ADD SWAP4 PUSH1 0x0 SWAP2 JUMPDEST DUP5 DUP4 LT PUSH2 0x23BA JUMPI POP POP POP POP POP POP SWAP1 JUMP JUMPDEST SWAP1 SWAP2 SWAP3 SWAP4 SWAP5 SWAP6 DUP5 DUP1 PUSH2 0x23D8 PUSH1 0x1 SWAP4 PUSH1 0x1F NOT DUP7 DUP3 SUB ADD DUP8 MSTORE DUP11 MLOAD PUSH2 0x221F JUMP JUMPDEST SWAP9 ADD SWAP4 ADD SWAP4 ADD SWAP2 SWAP5 SWAP4 SWAP3 SWAP1 PUSH2 0x23AA JUMP JUMPDEST PUSH1 0x0 SLOAD PUSH1 0x1 PUSH1 0x1 PUSH1 0xA0 SHL SUB AND CALLER SUB PUSH2 0x23FC JUMPI JUMP JUMPDEST PUSH1 0x40 MLOAD PUSH4 0x118CDAA7 PUSH1 0xE0 SHL DUP2 MSTORE CALLER PUSH1 0x4 DUP3 ADD MSTORE PUSH1 0x24 SWAP1 REVERT JUMPDEST ISZERO PUSH2 0x241B JUMPI JUMP JUMPDEST PUSH1 0x40 MLOAD PUSH3 0x461BCD PUSH1 0xE5 SHL DUP2 MSTORE PUSH1 0x20 PUSH1 0x4 DUP3 ADD MSTORE PUSH1 0x17 PUSH1 0x24 DUP3 ADD MSTORE PUSH32 0x436F6C6C61746572616C206E6F7420617070726F766564000000000000000000 PUSH1 0x44 DUP3 ADD MSTORE PUSH1 0x64 SWAP1 REVERT JUMPDEST ISZERO PUSH2 0x2467 JUMPI JUMP JUMPDEST PUSH1 0x40 MLOAD PUSH3 0x461BCD PUSH1 0xE5 SHL DUP2 MSTORE PUSH1 0x20 PUSH1 0x4 DUP3 ADD MSTORE PUSH1 0x17 PUSH1 0x24 DUP3 ADD MSTORE PUSH32 0x4576656E74206D75737420626520696E20667574757265000000000000000000 PUSH1 0x44 DUP3 ADD MSTORE PUSH1 0x64 SWAP1 REVERT JUMPDEST ISZERO PUSH2 0x24B3 JUMPI JUMP JUMPDEST PUSH1 0x40 MLOAD PUSH3 0x461BCD PUSH1 0xE5 SHL DUP2 MSTORE PUSH1 0x20 PUSH1 0x4 DUP3 ADD MSTORE PUSH1 0x15 PUSH1 0x24 DUP3 ADD MSTORE PUSH21 0x4D61726B657420616C726561647920657869737473 PUSH1 0x58 SHL PUSH1 0x44 DUP3 ADD MSTORE PUSH1 0x64 SWAP1 REVERT JUMPDEST PUSH1 0x0 NOT DUP2 EQ PUSH2 0x24FF JUMPI PUSH1 0x1 ADD SWAP1 JUMP JUMPDEST PUSH4 0x4E487B71 PUSH1 0xE0 SHL PUSH1 0x0 MSTORE PUSH1 0x11 PUSH1 0x4 MSTORE PUSH1 0x24 PUSH1 0x0 REVERT JUMPDEST PUSH1 0x40 SWAP1 DUP2 MLOAD SWAP2 PUSH1 0x60 DUP1 DUP5 ADD DUP5 DUP2 LT PUSH1 0x1 PUSH1 0x1 PUSH1 0x40 SHL SUB DUP3 GT OR PUSH2 0x1ED JUMPI DUP3 MSTORE PUSH1 0x2 DUP5 MSTORE DUP4 PUSH1 0x0 JUMPDEST DUP4 DUP2 LT PUSH2 0x2549 JUMPI POP POP POP POP JUMP JUMPDEST DUP1 DUP4 PUSH1 0x20 DUP1 SWAP4 DUP6 ADD ADD MSTORE ADD PUSH2 0x253C JUMP JUMPDEST DUP1 MLOAD ISZERO PUSH2 0x2376 JUMPI PUSH1 0x20 ADD SWAP1 JUMP JUMPDEST DUP1 MLOAD PUSH1 0x1 LT ISZERO PUSH2 0x2376 JUMPI PUSH1 0x40 ADD SWAP1 JUMP JUMPDEST DUP1 MLOAD PUSH1 0x2 LT ISZERO PUSH2 0x2376 JUMPI PUSH1 0x60 ADD SWAP1 JUMP JUMPDEST DUP1 MLOAD PUSH1 0x3 LT ISZERO PUSH2 0x2376 JUMPI PUSH1 0x80 ADD SWAP1 JUMP JUMPDEST DUP1 MLOAD PUSH1 0x4 LT ISZERO PUSH2 0x2376 JUMPI PUSH1 0xA0 ADD SWAP1 JUMP JUMPDEST DUP1 MLOAD PUSH1 0x5 LT ISZERO PUSH2 0x2376 JUMPI PUSH1 0xC0 ADD SWAP1 JUMP JUMPDEST SWAP1 DUP1 PUSH1 0x20 SWAP4 SWAP3 DUP2 DUP5 MSTORE DUP5 DUP5 ADD CALLDATACOPY PUSH1 0x0 DUP3 DUP3 ADD DUP5 ADD MSTORE PUSH1 0x1F ADD PUSH1 0x1F NOT AND ADD ADD SWAP1 JUMP JUMPDEST SWAP1 DUP2 MSTORE PUSH1 0x1 PUSH1 0x1 PUSH1 0xA0 SHL SUB SWAP1 SWAP2 AND PUSH1 0x20 DUP3 ADD MSTORE PUSH1 0x2 PUSH1 0x40 DUP3 ADD MSTORE PUSH1 0x80 PUSH1 0x60 DUP3 ADD DUP2 SWAP1 MSTORE PUSH2 0x2606 SWAP4 SWAP2 ADD SWAP2 PUSH2 0x25B6 JUMP JUMPDEST SWAP1 JUMP JUMPDEST SWAP3 SWAP2 SWAP3 PUSH1 0x1 PUSH1 0x1 PUSH1 0x40 SHL SUB DUP3 GT PUSH2 0x1ED JUMPI PUSH1 0x40 MLOAD SWAP2 PUSH2 0x2632 PUSH1 0x1F DUP3 ADD PUSH1 0x1F NOT AND PUSH1 0x20 ADD DUP5 PUSH2 0x2158 JUMP JUMPDEST DUP3 SWAP5 DUP2 DUP5 MSTORE DUP2 DUP4 ADD GT PUSH2 0x228C JUMPI DUP3 DUP2 PUSH1 0x20 SWAP4 DUP5 PUSH1 0x0 SWAP7 ADD CALLDATACOPY ADD ADD MSTORE JUMP JUMPDEST DUP2 DUP2 LT PUSH2 0x265A JUMPI POP POP JUMP JUMPDEST PUSH1 0x0 DUP2 SSTORE PUSH1 0x1 ADD PUSH2 0x264F JUMP JUMPDEST PUSH1 0x2 SLOAD PUSH1 0x1 PUSH1 0x40 SHL DUP2 LT ISZERO PUSH2 0x1ED JUMPI DUP1 PUSH1 0x1 PUSH2 0x2685 SWAP3 ADD PUSH1 0x2 SSTORE PUSH2 0x233F JUMP JUMPDEST DUP2 SWAP3 SWAP2 SLOAD SWAP1 PUSH1 0x3 SHL SWAP2 DUP3 SHL SWAP2 PUSH1 0x0 NOT SWAP1 SHL NOT AND OR SWAP1 SSTORE JUMP INVALID LOG2 PUSH5 0x6970667358 0x22 SLT KECCAK256 DUP4 PUSH29 0x46884E69DAD55EFE6FD37EE8D8428C21DDDEAB9C7420A10E61FD7D15D0 0xAD PUSH5 0x736F6C6343 STOP ADDMOD EQ STOP CALLER "},"methodIdentifiers":{"allMarkets(uint256)":"52d84d1e","approvedCollateral(address)":"b050b672","conditionalTokens()":"5bd9e299","createGoesDistanceMarket(string,string,string,uint256,address,string)":"62640533","createMethodMarket(string,string,string,uint256,address,string)":"e4001f27","createWinnerMarket(string,string,string,uint256,address,string)":"4e4797b5","deactivateMarket(bytes32)":"d5a1db14","generateConditionId(string,string,string,uint8)":"71225e6b","getActiveMarketsCount()":"010d2186","getAllMarkets()":"b0772d0b","getOutcomeLabels(bytes32)":"e4f54cf5","owner()":"8da5cb5b","renounceOwnership()":"715018a6","setCollateralApproval(address,bool)":"b83f2117","transferOwnership(address)":"f2fde38b","ufcMarkets(bytes32)":"4ca4888c"}}}}}