{"contracts/Exchange.sol":{"Exchange":{"abi":[{"inputs":[{"internalType":"address","name":"_conditionalTokens","type":"address"},{"internalType":"address","name":"_feeRecipient","type":"address"}],"stateMutability":"nonpayable","type":"constructor"},{"inputs":[],"name":"ECDSAInvalidSignature","type":"error"},{"inputs":[{"internalType":"uint256","name":"length","type":"uint256"}],"name":"ECDSAInvalidSignatureLength","type":"error"},{"inputs":[{"internalType":"bytes32","name":"s","type":"bytes32"}],"name":"ECDSAInvalidSignatureS","type":"error"},{"inputs":[{"internalType":"address","name":"owner","type":"address"}],"name":"OwnableInvalidOwner","type":"error"},{"inputs":[{"internalType":"address","name":"account","type":"address"}],"name":"OwnableUnauthorizedAccount","type":"error"},{"inputs":[],"name":"ReentrancyGuardReentrantCall","type":"error"},{"inputs":[{"internalType":"address","name":"token","type":"address"}],"name":"SafeERC20FailedOperation","type":"error"},{"anonymous":false,"inputs":[{"indexed":true,"internalType":"address","name":"user","type":"address"},{"indexed":true,"internalType":"address","name":"token","type":"address"},{"indexed":false,"internalType":"uint256","name":"amount","type":"uint256"}],"name":"Deposit","type":"event"},{"anonymous":false,"inputs":[{"indexed":true,"internalType":"bytes32","name":"orderHash","type":"bytes32"},{"indexed":true,"internalType":"address","name":"maker","type":"address"}],"name":"OrderCancelled","type":"event"},{"anonymous":false,"inputs":[{"indexed":true,"internalType":"bytes32","name":"orderHash","type":"bytes32"},{"indexed":true,"internalType":"address","name":"maker","type":"address"},{"indexed":true,"internalType":"address","name":"taker","type":"address"},{"indexed":false,"internalType":"bytes32","name":"conditionId","type":"bytes32"},{"indexed":false,"internalType":"uint256","name":"fillAmount","type":"uint256"},{"indexed":false,"internalType":"uint256","name":"price","type":"uint256"}],"name":"OrderFilled","type":"event"},{"anonymous":false,"inputs":[{"indexed":true,"internalType":"address","name":"previousOwner","type":"address"},{"indexed":true,"internalType":"address","name":"newOwner","type":"address"}],"name":"OwnershipTransferred","type":"event"},{"anonymous":false,"inputs":[{"indexed":true,"internalType":"address","name":"user","type":"address"},{"indexed":true,"internalType":"address","name":"token","type":"address"},{"indexed":false,"internalType":"uint256","name":"amount","type":"uint256"}],"name":"Withdrawal","type":"event"},{"inputs":[],"name":"DOMAIN_SEPARATOR","outputs":[{"internalType":"bytes32","name":"","type":"bytes32"}],"stateMutability":"view","type":"function"},{"inputs":[],"name":"ORDER_TYPEHASH","outputs":[{"internalType":"bytes32","name":"","type":"bytes32"}],"stateMutability":"view","type":"function"},{"inputs":[{"internalType":"address","name":"","type":"address"},{"internalType":"address","name":"","type":"address"}],"name":"balances","outputs":[{"internalType":"uint256","name":"","type":"uint256"}],"stateMutability":"view","type":"function"},{"inputs":[{"components":[{"internalType":"address","name":"maker","type":"address"},{"internalType":"bytes32","name":"conditionId","type":"bytes32"},{"internalType":"uint256","name":"outcomeIndex","type":"uint256"},{"internalType":"bool","name":"isBuy","type":"bool"},{"internalType":"uint256","name":"price","type":"uint256"},{"internalType":"uint256","name":"amount","type":"uint256"},{"internalType":"uint256","name":"nonce","type":"uint256"},{"internalType":"uint256","name":"expiry","type":"uint256"}],"internalType":"struct Exchange.Order","name":"order","type":"tuple"}],"name":"cancelOrder","outputs":[],"stateMutability":"nonpayable","type":"function"},{"inputs":[{"internalType":"bytes32","name":"","type":"bytes32"}],"name":"cancelledOrders","outputs":[{"internalType":"bool","name":"","type":"bool"}],"stateMutability":"view","type":"function"},{"inputs":[],"name":"conditionalTokens","outputs":[{"internalType":"contract ConditionalTokens","name":"","type":"address"}],"stateMutability":"view","type":"function"},{"inputs":[{"internalType":"address","name":"token","type":"address"},{"internalType":"uint256","name":"amount","type":"uint256"}],"name":"deposit","outputs":[],"stateMutability":"payable","type":"function"},{"inputs":[],"name":"feeRecipient","outputs":[{"internalType":"address","name":"","type":"address"}],"stateMutability":"view","type":"function"},{"inputs":[{"components":[{"internalType":"address","name":"maker","type":"address"},{"internalType":"bytes32","name":"conditionId","type":"bytes32"},{"internalType":"uint256","name":"outcomeIndex","type":"uint256"},{"internalType":"bool","name":"isBuy","type":"bool"},{"internalType":"uint256","name":"price","type":"uint256"},{"internalType":"uint256","name":"amount","type":"uint256"},{"internalType":"uint256","name":"nonce","type":"uint256"},{"internalType":"uint256","name":"expiry","type":"uint256"}],"internalType":"struct Exchange.Order","name":"order","type":"tuple"}],"name":"getOrderHash","outputs":[{"internalType":"bytes32","name":"","type":"bytes32"}],"stateMutability":"view","type":"function"},{"inputs":[],"name":"incrementNonce","outputs":[],"stateMutability":"nonpayable","type":"function"},{"inputs":[{"internalType":"address","name":"","type":"address"}],"name":"operators","outputs":[{"internalType":"bool","name":"","type":"bool"}],"stateMutability":"view","type":"function"},{"inputs":[{"internalType":"bytes32","name":"","type":"bytes32"}],"name":"orderFills","outputs":[{"internalType":"uint256","name":"","type":"uint256"}],"stateMutability":"view","type":"function"},{"inputs":[],"name":"owner","outputs":[{"internalType":"address","name":"","type":"address"}],"stateMutability":"view","type":"function"},{"inputs":[],"name":"renounceOwnership","outputs":[],"stateMutability":"nonpayable","type":"function"},{"inputs":[{"internalType":"address","name":"_feeRecipient","type":"address"}],"name":"setFeeRecipient","outputs":[],"stateMutability":"nonpayable","type":"function"},{"inputs":[{"internalType":"address","name":"operator","type":"address"},{"internalType":"bool","name":"approved","type":"bool"}],"name":"setOperator","outputs":[],"stateMutability":"nonpayable","type":"function"},{"inputs":[{"internalType":"uint256","name":"_feeBps","type":"uint256"}],"name":"setTradingFee","outputs":[],"stateMutability":"nonpayable","type":"function"},{"inputs":[{"components":[{"components":[{"internalType":"address","name":"maker","type":"address"},{"internalType":"bytes32","name":"conditionId","type":"bytes32"},{"internalType":"uint256","name":"outcomeIndex","type":"uint256"},{"internalType":"bool","name":"isBuy","type":"bool"},{"internalType":"uint256","name":"price","type":"uint256"},{"internalType":"uint256","name":"amount","type":"uint256"},{"internalType":"uint256","name":"nonce","type":"uint256"},{"internalType":"uint256","name":"expiry","type":"uint256"}],"internalType":"struct Exchange.Order","name":"makerOrder","type":"tuple"},{"internalType":"bytes","name":"makerSignature","type":"bytes"},{"components":[{"internalType":"address","name":"maker","type":"address"},{"internalType":"bytes32","name":"conditionId","type":"bytes32"},{"internalType":"uint256","name":"outcomeIndex","type":"uint256"},{"internalType":"bool","name":"isBuy","type":"bool"},{"internalType":"uint256","name":"price","type":"uint256"},{"internalType":"uint256","name":"amount","type":"uint256"},{"internalType":"uint256","name":"nonce","type":"uint256"},{"internalType":"uint256","name":"expiry","type":"uint256"}],"internalType":"struct Exchange.Order","name":"takerOrder","type":"tuple"},{"internalType":"bytes","name":"takerSignature","type":"bytes"},{"internalType":"uint256","name":"fillAmount","type":"uint256"}],"internalType":"struct Exchange.Fill[]","name":"fills","type":"tuple[]"}],"name":"settleBatch","outputs":[],"stateMutability":"nonpayable","type":"function"},{"inputs":[],"name":"tradingFeeBps","outputs":[{"internalType":"uint256","name":"","type":"uint256"}],"stateMutability":"view","type":"function"},{"inputs":[{"internalType":"address","name":"newOwner","type":"address"}],"name":"transferOwnership","outputs":[],"stateMutability":"nonpayable","type":"function"},{"inputs":[{"internalType":"address","name":"","type":"address"}],"name":"userNonces","outputs":[{"internalType":"uint256","name":"","type":"uint256"}],"stateMutability":"view","type":"function"},{"inputs":[{"internalType":"address","name":"token","type":"address"},{"internalType":"uint256","name":"amount","type":"uint256"}],"name":"withdraw","outputs":[],"stateMutability":"nonpayable","type":"function"},{"stateMutability":"payable","type":"receive"}],"evm":{"bytecode":{"linkReferences":{},"object":"60a034620001d1576001600160401b039062001cfe90601f38839003908101601f191682019084821183831017620001d65780839160409586948552833981010312620001d1576200005f60206200005783620001ec565b9201620001ec565b913315620001ba5760008054336001600160a01b03198083168217845584519396939590936001600160a01b0393909284929183167f8be0079c531659141344cd1fd0a4f28419497f9722a3daafe3b4186f6b6457e08a80a360018055606460085516836002541617600255169060095416176009553383526007602052808320600160ff1982541617905560208201927f8b73c3c69bb8fe3d512ecc4cf759cc79239f7b179b0ffacaa9a75d522b39400f84527f6322afb7442a3ac87238475f8c077efdc20f49a0c8a860090182b32856c0bf49828401527fc89efdaa54c0f20c7adf612882df0950f5a951637e0307cdcb4c672f298b8bc660608401524660808401523060a084015260a0835260c083019483861090861117620001a65750839052519020608052611afc90816200020282396080518181816114e5015261183e0152f35b634e487b7160e01b81526041600452602490fd5b51631e4fbdf760e01b815260006004820152602490fd5b600080fd5b634e487b7160e01b600052604160045260246000fd5b51906001600160a01b0382168203620001d15756fe608080604052600436101561001d575b50361561001b57600080fd5b005b60003560e01c90816313e7c9d814611542575080632f7801f4146115085780633644e515146114cd57806346904840146114a457806347e7ef241461134d578063558a7297146112f75780635bd9e299146112ce578063627cdcb9146112a157806364d746b914610660578063715018a61461060757806377decc581461055f5780638da5cb5b146105365780638f13f48e14610505578063924cca9a146104e7578063b0d54bcf14610489578063c23f001f14610434578063d639402514610410578063e74b981b146103cd578063f2fde38b1461033f578063f3fef3a314610188578063f7213db61461015c5763f973a2091461011c573861000f565b346101575760003660031901126101575760206040517fef6fe60bef87416d1f4739a0ff08cd262a6a0eaec294bc7f65b4b58fc966be168152f35b600080fd5b346101575760203660031901126101575760043560005260056020526020604060002054604051908152f35b34610157576040366003190112610157576101a161157d565b6024356101ac611696565b3360005260206003815260406000209260018060a01b0316928360005281528160406000205410610304573360005260038152604060002083600052815260406000206101fa8382546116b9565b9055826102a857600080808085335af13d156102a3573d61021a816116c6565b906102286040519283611619565b81526000833d92013e5b15610269577f2717ead6b9200dd235aad468c9809ea400fe33ac69b5bfaa6d3e90fc922b6398905b6040519283523392a360018055005b6064906040519062461bcd60e51b825260048201526013602482015272159155081d1c985b9cd9995c8819985a5b1959606a1b6044820152fd5b610232565b60405163a9059cbb60e01b82820152336024820152604480820184905281527f2717ead6b9200dd235aad468c9809ea400fe33ac69b5bfaa6d3e90fc922b639891906102ff906102f9606482611619565b8561163a565b61025a565b6064906040519062461bcd60e51b825260048201526014602482015273496e73756666696369656e742062616c616e636560601b6044820152fd5b346101575760203660031901126101575761035861157d565b610360611593565b6001600160a01b039081169081156103b457600054826bffffffffffffffffffffffff60a01b821617600055167f8be0079c531659141344cd1fd0a4f28419497f9722a3daafe3b4186f6b6457e0600080a3005b604051631e4fbdf760e01b815260006004820152602490fd5b34610157576020366003190112610157576103e661157d565b6103ee611593565b600980546001600160a01b0319166001600160a01b0392909216919091179055005b346101575761010036600319011261015757602061042c611793565b604051908152f35b346101575760403660031901126101575761044d61157d565b6001600160a01b036024358181169290839003610157571660005260036020526040600020906000526020526020604060002054604051908152f35b34610157576020366003190112610157576004356104a5611593565b6101f481116104b357600855005b60405162461bcd60e51b815260206004820152600c60248201526b08ccaca40e8dede40d0d2ced60a31b6044820152606490fd5b34610157576000366003190112610157576020600854604051908152f35b34610157576020366003190112610157576004356000526006602052602060ff604060002054166040519015158152f35b34610157576000366003190112610157576000546040516001600160a01b039091168152602090f35b3461015757610100366003190112610157576004356001600160a01b038116908190036101575733036105d657610594611793565b8060005260066020526040600020600160ff1982541617905533907fa6eb7cdc219e1518ced964e9a34e61d68a94e4f1569db3e84256ba981ba52753600080a3005b60405162461bcd60e51b81526020600482015260096024820152682737ba1036b0b5b2b960b91b6044820152606490fd5b3461015757600036600319011261015757610620611593565b600080546001600160a01b0319811682556001600160a01b03167f8be0079c531659141344cd1fd0a4f28419497f9722a3daafe3b4186f6b6457e08280a3005b34610157576020366003190112610157576001600160401b036004351161015757366023600435011215610157576001600160401b036004356004013511610157573660246004356004013560051b6004350101116101575733600052600760205260ff604060002054161561126a576106d8611696565b60005b6004356004013581106106ee5760018055005b60248160051b600435010135906102821960043536030182121561015757600435820161016481013560449091013503611230576004358201610184810135606490910135036111f85761074860848360043501016116f0565b6107596101a48460043501016116f0565b1515901515146111c75761010482600435010135421115806111b4575b1561117f576001600160a01b0361079360043584016024016116fd565b16600052600460205260406000205460e48360043501013510611144576001600160a01b036107c96004358401610144016116fd565b1660005260046020526040600020546102048360043501013510611109576107f7602483600435010161187a565b61080861014484600435010161187a565b9281600052600660205260ff6040600020541615806110f5575b156110be576108576108406004358301610124810190602401611711565b61085060248560043501016116fd565b918561191b565b156110855761088d6108756004358301610244810190602401611711565b6108866101448560043501016116fd565b918761191b565b1561104c578160005260056020526108b260406000205460c4836004350101356116b9565b8460005260056020526108d36040600020546101e4846004350101356116b9565b6102648360043501013515159182611038575b5081611024575b5015610ff05760a481600435010135918261090e60848460043501016116f0565b15610fd257610928906101c4846004350101351115611743565b670de0b6b3a76400006109448461026485600435010135611780565b049460018060a01b03600254169560405163c3c95c7b60e01b815260448560043501013560048201526000816024818b5afa908115610c8c57600091610dee575b50602001516001600160a01b0316906109a460043586016084016116f0565b15610dd7576109b960248660043501016116fd565b905b6109cb60848760043501016116f0565b15610dc1576109e16101448760043501016116fd565b925b60018060a01b03831660005260036020526040600020816000526020528160406000205410610d7c576040519963345262bb60e11b8b5260448860043501013560048c015260648860043501013560248c015260208b604481845afa9a8b15610c8c5760009b610d47575b50604051627eeac760e11b81526001600160a01b0386166004820152602481018c905290602090829060449082905afa908115610c8c57600091610d15575b506102648860043501013511610cd05760018060a01b03831660005260036020526040600020816000526020526040600020610aca8382546116b9565b9055610ae6612710610ade60085485611780565b0480936116b9565b60018060a01b0385166000526003602052604060002082600052602052610b1360406000209182546115bf565b905581610c98575b50506002546001600160a01b0316803b15610157576000928360c4926040519b8c958694637921219560e11b865260018060a01b0316600486015260018060a01b03166024850152604484015261026489600435010135606484015260a060848401528160a48401525af18015610c8c57610c5c575b610c5795508160005260056020526040600020610bb86102648560043501013582546115bf565b905560005260056020526040600020610bdb6102648460043501013582546115bf565b90557f190620535c3067fb2903d49c3a877e2ca446a2a9889963ad4037c471f15192296060610c1060248560043501016116fd565b94610c226101448660043501016116fd565b6040805160043590970160448101358852610264013560208801528601919091526001600160a01b03908116951693a46116e1565b6106db565b6001600160401b038611610c7657610c5795604052610b91565b634e487b7160e01b600052604160045260246000fd5b6040513d6000823e3d90fd5b60018060a01b03600954166000526003602052604060002090600052602052610cc760406000209182546115bf565b90558880610b1b565b60405162461bcd60e51b815260206004820152601a60248201527f53656c6c657220696e73756666696369656e7420746f6b656e730000000000006044820152606490fd5b90506020813d602011610d3f575b81610d3060209383611619565b8101031261015757518b610a8d565b3d9150610d23565b909a506020813d602011610d74575b81610d6360209383611619565b810103126101575751996020610a4e565b3d9150610d56565b60405162461bcd60e51b815260206004820152601a60248201527f427579657220696e73756666696369656e742062616c616e63650000000000006044820152606490fd5b610dd160248760043501016116fd565b926109e3565b610de86101448660043501016116fd565b906109bb565b90503d806000833e610e008183611619565b60208282810103126101575781516001600160401b0381116101575761010092838282018483010312610157576040519384818101106001600160401b038287011117610c7657840160405280820180518552602001516001600160a01b03811681036101575760208501528082016040818101519086015260608082015190860152608001516001600160401b03811161015757838201601f828585010101121561015757808383010151906001600160401b038211610c76578160051b60405192610ed06020830185611619565b8352602083018685016020838589890101010111610157576020838787010101915b602081858989010101018310610fbe5750505050608085015280820160a0818101519086015260c0908101519081151582036101575785015260e082820101516001600160401b03811161015757838201601f82858501010112156101575780838301015192610f61846116c6565b94610f6f6040519687611619565b848652830160208584848701010101116101575760005b848110610fa5575050505060206000918301015260e082015288610985565b8060208092858588010101015182828901015201610f86565b602080809385518152019301929150610ef2565b5091610fea6101c48360043501013591821015611743565b91610928565b60405162461bcd60e51b815260206004820152600c60248201526b125b9d985b1a5908199a5b1b60a21b6044820152606490fd5b9050610264826004350101351115856108ed565b6004358401610264013511159150866108e6565b60405162461bcd60e51b8152602060048201526011602482015270496e76616c69642074616b65722073696760781b6044820152606490fd5b60405162461bcd60e51b8152602060048201526011602482015270496e76616c6964206d616b65722073696760781b6044820152606490fd5b60405162461bcd60e51b815260206004820152600f60248201526e13dc99195c8818d85b98d95b1b1959608a1b6044820152606490fd5b508360005260ff6040600020541615610822565b60405162461bcd60e51b815260206004820152601360248201527215185ad95c881b9bdb98d9481a5b9d985b1a59606a1b6044820152606490fd5b60405162461bcd60e51b815260206004820152601360248201527213585ad95c881b9bdb98d9481a5b9d985b1a59606a1b6044820152606490fd5b60405162461bcd60e51b815260206004820152600d60248201526c13dc99195c88195e1c1a5c9959609a1b6044820152606490fd5b5061022482600435010135421115610776565b60405162461bcd60e51b815260206004820152600960248201526853616d65207369646560b81b6044820152606490fd5b60405162461bcd60e51b815260206004820152601060248201526f09eeae8c6dedaca40dad2e6dac2e8c6d60831b6044820152606490fd5b60405162461bcd60e51b8152602060048201526012602482015271086dedcc8d2e8d2dedc40dad2e6dac2e8c6d60731b6044820152606490fd5b60405162461bcd60e51b815260206004820152600f60248201526e2737ba1030b71037b832b930ba37b960891b6044820152606490fd5b346101575760003660031901126101575733600052600460205260406000206112ca81546116e1565b9055005b34610157576000366003190112610157576002546040516001600160a01b039091168152602090f35b346101575760403660031901126101575761131061157d565b6024359081151580920361015757611326611593565b60018060a01b0316600052600760205260406000209060ff80198354169116179055600080f35b60403660031901126101575761136161157d565b6024359061136d611696565b6001600160a01b03169081611419578034036113dd575b33600052600360205260406000208260005260205260406000206113a98282546115bf565b90556040519081527f5548c837ab068cf56a2c2479df0882a4922fd203edb7517321831d95078c5f6260203392a360018055005b60405162461bcd60e51b8152602060048201526014602482015273125b98dbdc9c9958dd0815915508185b5bdd5b9d60621b6044820152606490fd5b3461146d576040516323b872dd60e01b60208201523360248201523060448201526064808201839052815260a08101906001600160401b03821181831017610c7657611468916040528361163a565b611384565b60405162461bcd60e51b815260206004820152600f60248201526e111bc81b9bdd081cd95b9908159155608a1b6044820152606490fd5b34610157576000366003190112610157576009546040516001600160a01b039091168152602090f35b346101575760003660031901126101575760206040517f00000000000000000000000000000000000000000000000000000000000000008152f35b34610157576020366003190112610157576001600160a01b0361152961157d565b1660005260046020526020604060002054604051908152f35b34610157576020366003190112610157576020906001600160a01b0361156661157d565b166000526007825260ff6040600020541615158152f35b600435906001600160a01b038216820361015757565b6000546001600160a01b031633036115a757565b60405163118cdaa760e01b8152336004820152602490fd5b919082018092116115cc57565b634e487b7160e01b600052601160045260246000fd5b61014081019081106001600160401b03821117610c7657604052565b608081019081106001600160401b03821117610c7657604052565b90601f801991011681019081106001600160401b03821117610c7657604052565b906000602091828151910182855af115610c8c576000513d61168d57506001600160a01b0381163b155b61166b5750565b604051635274afe760e01b81526001600160a01b039091166004820152602490fd5b60011415611664565b6002600154146116a7576002600155565b604051633ee5aeb560e01b8152600490fd5b919082039182116115cc57565b6001600160401b038111610c7657601f01601f191660200190565b60001981146115cc5760010190565b3580151581036101575790565b356001600160a01b03811681036101575790565b903590601e198136030182121561015757018035906001600160401b0382116101575760200191813603831361015757565b1561174a57565b60405162461bcd60e51b815260206004820152600e60248201526d0a0e4d2c6ca40dad2e6dac2e8c6d60931b6044820152606490fd5b818102929181159184041417156115cc57565b6004356001600160a01b0381169081900361015757606435801515809103610157576040519060208201927fef6fe60bef87416d1f4739a0ff08cd262a6a0eaec294bc7f65b4b58fc966be16845260408301526024356060830152604435608083015260a082015260843560c082015260a43560e082015260c43561010082015261012060e435818301528152611829816115e2565b519020604051602081019161190160f01b83527f00000000000000000000000000000000000000000000000000000000000000006022830152604282015260428152611874816115fe565b51902090565b611883816116fd565b90611890606082016116f0565b906040519160208301937fef6fe60bef87416d1f4739a0ff08cd262a6a0eaec294bc7f65b4b58fc966be16855260018060a01b031660408401526020820135606084015260408201356080840152151560a0830152608081013560c083015260a081013560e083015260c081013561010083015260e0610120910135818301528152611829816115e2565b929192611927846116c6565b906119356040519283611619565b84825236858401116101575760006020866119649761195b968387013784010152611975565b90939193611a41565b6001600160a01b0391821691161490565b81519190604183036119a65761199f92506020820151906060604084015193015160001a906119b1565b9192909190565b505060009160029190565b91907f7fffffffffffffffffffffffffffffff5d576e7357a4501ddfe92f46681b20a08411611a3557926020929160ff608095604051948552168484015260408301526060820152600092839182805260015afa15611a295780516001600160a01b03811615611a2057918190565b50809160019190565b604051903d90823e3d90fd5b50505060009160039190565b6004811015611ab05780611a53575050565b60018103611a6d5760405163f645eedf60e01b8152600490fd5b60028103611a8e5760405163fce698f760e01b815260048101839052602490fd5b600314611a985750565b602490604051906335e2f38360e21b82526004820152fd5b634e487b7160e01b600052602160045260246000fdfea2646970667358221220f9295d40de5e08f91db3c57158ddd7e01fdb13638c70fc0e0e65ef07705ef79a64736f6c63430008140033","opcodes":"PUSH1 0xA0 CALLVALUE PUSH3 0x1D1 JUMPI PUSH1 0x1 PUSH1 0x1 PUSH1 0x40 SHL SUB SWAP1 PUSH3 0x1CFE SWAP1 PUSH1 0x1F CODESIZE DUP4 SWAP1 SUB SWAP1 DUP2 ADD PUSH1 0x1F NOT AND DUP3 ADD SWAP1 DUP5 DUP3 GT DUP4 DUP4 LT OR PUSH3 0x1D6 JUMPI DUP1 DUP4 SWAP2 PUSH1 0x40 SWAP6 DUP7 SWAP5 DUP6 MSTORE DUP4 CODECOPY DUP2 ADD SUB SLT PUSH3 0x1D1 JUMPI PUSH3 0x5F PUSH1 0x20 PUSH3 0x57 DUP4 PUSH3 0x1EC JUMP JUMPDEST SWAP3 ADD PUSH3 0x1EC JUMP JUMPDEST SWAP2 CALLER ISZERO PUSH3 0x1BA JUMPI PUSH1 0x0 DUP1 SLOAD CALLER PUSH1 0x1 PUSH1 0x1 PUSH1 0xA0 SHL SUB NOT DUP1 DUP4 AND DUP3 OR DUP5 SSTORE DUP5 MLOAD SWAP4 SWAP7 SWAP4 SWAP6 SWAP1 SWAP4 PUSH1 0x1 PUSH1 0x1 PUSH1 0xA0 SHL SUB SWAP4 SWAP1 SWAP3 DUP5 SWAP3 SWAP2 DUP4 AND PUSH32 0x8BE0079C531659141344CD1FD0A4F28419497F9722A3DAAFE3B4186F6B6457E0 DUP11 DUP1 LOG3 PUSH1 0x1 DUP1 SSTORE PUSH1 0x64 PUSH1 0x8 SSTORE AND DUP4 PUSH1 0x2 SLOAD AND OR PUSH1 0x2 SSTORE AND SWAP1 PUSH1 0x9 SLOAD AND OR PUSH1 0x9 SSTORE CALLER DUP4 MSTORE PUSH1 0x7 PUSH1 0x20 MSTORE DUP1 DUP4 KECCAK256 PUSH1 0x1 PUSH1 0xFF NOT DUP3 SLOAD AND OR SWAP1 SSTORE PUSH1 0x20 DUP3 ADD SWAP3 PUSH32 0x8B73C3C69BB8FE3D512ECC4CF759CC79239F7B179B0FFACAA9A75D522B39400F DUP5 MSTORE PUSH32 0x6322AFB7442A3AC87238475F8C077EFDC20F49A0C8A860090182B32856C0BF49 DUP3 DUP5 ADD MSTORE PUSH32 0xC89EFDAA54C0F20C7ADF612882DF0950F5A951637E0307CDCB4C672F298B8BC6 PUSH1 0x60 DUP5 ADD MSTORE CHAINID PUSH1 0x80 DUP5 ADD MSTORE ADDRESS PUSH1 0xA0 DUP5 ADD MSTORE PUSH1 0xA0 DUP4 MSTORE PUSH1 0xC0 DUP4 ADD SWAP5 DUP4 DUP7 LT SWAP1 DUP7 GT OR PUSH3 0x1A6 JUMPI POP DUP4 SWAP1 MSTORE MLOAD SWAP1 KECCAK256 PUSH1 0x80 MSTORE PUSH2 0x1AFC SWAP1 DUP2 PUSH3 0x202 DUP3 CODECOPY PUSH1 0x80 MLOAD DUP2 DUP2 DUP2 PUSH2 0x14E5 ADD MSTORE PUSH2 0x183E ADD MSTORE RETURN JUMPDEST PUSH4 0x4E487B71 PUSH1 0xE0 SHL DUP2 MSTORE PUSH1 0x41 PUSH1 0x4 MSTORE PUSH1 0x24 SWAP1 REVERT JUMPDEST MLOAD PUSH4 0x1E4FBDF7 PUSH1 0xE0 SHL DUP2 MSTORE PUSH1 0x0 PUSH1 0x4 DUP3 ADD MSTORE PUSH1 0x24 SWAP1 REVERT JUMPDEST PUSH1 0x0 DUP1 REVERT JUMPDEST PUSH4 0x4E487B71 PUSH1 0xE0 SHL PUSH1 0x0 MSTORE PUSH1 0x41 PUSH1 0x4 MSTORE PUSH1 0x24 PUSH1 0x0 REVERT JUMPDEST MLOAD SWAP1 PUSH1 0x1 PUSH1 0x1 PUSH1 0xA0 SHL SUB DUP3 AND DUP3 SUB PUSH3 0x1D1 JUMPI JUMP INVALID PUSH1 0x80 DUP1 PUSH1 0x40 MSTORE PUSH1 0x4 CALLDATASIZE LT ISZERO PUSH2 0x1D JUMPI JUMPDEST POP CALLDATASIZE ISZERO PUSH2 0x1B JUMPI PUSH1 0x0 DUP1 REVERT JUMPDEST STOP JUMPDEST PUSH1 0x0 CALLDATALOAD PUSH1 0xE0 SHR SWAP1 DUP2 PUSH4 0x13E7C9D8 EQ PUSH2 0x1542 JUMPI POP DUP1 PUSH4 0x2F7801F4 EQ PUSH2 0x1508 JUMPI DUP1 PUSH4 0x3644E515 EQ PUSH2 0x14CD JUMPI DUP1 PUSH4 0x46904840 EQ PUSH2 0x14A4 JUMPI DUP1 PUSH4 0x47E7EF24 EQ PUSH2 0x134D JUMPI DUP1 PUSH4 0x558A7297 EQ PUSH2 0x12F7 JUMPI DUP1 PUSH4 0x5BD9E299 EQ PUSH2 0x12CE JUMPI DUP1 PUSH4 0x627CDCB9 EQ PUSH2 0x12A1 JUMPI DUP1 PUSH4 0x64D746B9 EQ PUSH2 0x660 JUMPI DUP1 PUSH4 0x715018A6 EQ PUSH2 0x607 JUMPI DUP1 PUSH4 0x77DECC58 EQ PUSH2 0x55F JUMPI DUP1 PUSH4 0x8DA5CB5B EQ PUSH2 0x536 JUMPI DUP1 PUSH4 0x8F13F48E EQ PUSH2 0x505 JUMPI DUP1 PUSH4 0x924CCA9A EQ PUSH2 0x4E7 JUMPI DUP1 PUSH4 0xB0D54BCF EQ PUSH2 0x489 JUMPI DUP1 PUSH4 0xC23F001F EQ PUSH2 0x434 JUMPI DUP1 PUSH4 0xD6394025 EQ PUSH2 0x410 JUMPI DUP1 PUSH4 0xE74B981B EQ PUSH2 0x3CD JUMPI DUP1 PUSH4 0xF2FDE38B EQ PUSH2 0x33F JUMPI DUP1 PUSH4 0xF3FEF3A3 EQ PUSH2 0x188 JUMPI DUP1 PUSH4 0xF7213DB6 EQ PUSH2 0x15C JUMPI PUSH4 0xF973A209 EQ PUSH2 0x11C JUMPI CODESIZE PUSH2 0xF JUMP JUMPDEST CALLVALUE PUSH2 0x157 JUMPI PUSH1 0x0 CALLDATASIZE PUSH1 0x3 NOT ADD SLT PUSH2 0x157 JUMPI PUSH1 0x20 PUSH1 0x40 MLOAD PUSH32 0xEF6FE60BEF87416D1F4739A0FF08CD262A6A0EAEC294BC7F65B4B58FC966BE16 DUP2 MSTORE RETURN JUMPDEST PUSH1 0x0 DUP1 REVERT JUMPDEST CALLVALUE PUSH2 0x157 JUMPI PUSH1 0x20 CALLDATASIZE PUSH1 0x3 NOT ADD SLT PUSH2 0x157 JUMPI PUSH1 0x4 CALLDATALOAD PUSH1 0x0 MSTORE PUSH1 0x5 PUSH1 0x20 MSTORE PUSH1 0x20 PUSH1 0x40 PUSH1 0x0 KECCAK256 SLOAD PUSH1 0x40 MLOAD SWAP1 DUP2 MSTORE RETURN JUMPDEST CALLVALUE PUSH2 0x157 JUMPI PUSH1 0x40 CALLDATASIZE PUSH1 0x3 NOT ADD SLT PUSH2 0x157 JUMPI PUSH2 0x1A1 PUSH2 0x157D JUMP JUMPDEST PUSH1 0x24 CALLDATALOAD PUSH2 0x1AC PUSH2 0x1696 JUMP JUMPDEST CALLER PUSH1 0x0 MSTORE PUSH1 0x20 PUSH1 0x3 DUP2 MSTORE PUSH1 0x40 PUSH1 0x0 KECCAK256 SWAP3 PUSH1 0x1 DUP1 PUSH1 0xA0 SHL SUB AND SWAP3 DUP4 PUSH1 0x0 MSTORE DUP2 MSTORE DUP2 PUSH1 0x40 PUSH1 0x0 KECCAK256 SLOAD LT PUSH2 0x304 JUMPI CALLER PUSH1 0x0 MSTORE PUSH1 0x3 DUP2 MSTORE PUSH1 0x40 PUSH1 0x0 KECCAK256 DUP4 PUSH1 0x0 MSTORE DUP2 MSTORE PUSH1 0x40 PUSH1 0x0 KECCAK256 PUSH2 0x1FA DUP4 DUP3 SLOAD PUSH2 0x16B9 JUMP JUMPDEST SWAP1 SSTORE DUP3 PUSH2 0x2A8 JUMPI PUSH1 0x0 DUP1 DUP1 DUP1 DUP6 CALLER GAS CALL RETURNDATASIZE ISZERO PUSH2 0x2A3 JUMPI RETURNDATASIZE PUSH2 0x21A DUP2 PUSH2 0x16C6 JUMP JUMPDEST SWAP1 PUSH2 0x228 PUSH1 0x40 MLOAD SWAP3 DUP4 PUSH2 0x1619 JUMP JUMPDEST DUP2 MSTORE PUSH1 0x0 DUP4 RETURNDATASIZE SWAP3 ADD RETURNDATACOPY JUMPDEST ISZERO PUSH2 0x269 JUMPI PUSH32 0x2717EAD6B9200DD235AAD468C9809EA400FE33AC69B5BFAA6D3E90FC922B6398 SWAP1 JUMPDEST PUSH1 0x40 MLOAD SWAP3 DUP4 MSTORE CALLER SWAP3 LOG3 PUSH1 0x1 DUP1 SSTORE STOP JUMPDEST PUSH1 0x64 SWAP1 PUSH1 0x40 MLOAD SWAP1 PUSH3 0x461BCD PUSH1 0xE5 SHL DUP3 MSTORE PUSH1 0x4 DUP3 ADD MSTORE PUSH1 0x13 PUSH1 0x24 DUP3 ADD MSTORE PUSH19 0x159155081D1C985B9CD9995C8819985A5B1959 PUSH1 0x6A SHL PUSH1 0x44 DUP3 ADD MSTORE REVERT JUMPDEST PUSH2 0x232 JUMP JUMPDEST PUSH1 0x40 MLOAD PUSH4 0xA9059CBB PUSH1 0xE0 SHL DUP3 DUP3 ADD MSTORE CALLER PUSH1 0x24 DUP3 ADD MSTORE PUSH1 0x44 DUP1 DUP3 ADD DUP5 SWAP1 MSTORE DUP2 MSTORE PUSH32 0x2717EAD6B9200DD235AAD468C9809EA400FE33AC69B5BFAA6D3E90FC922B6398 SWAP2 SWAP1 PUSH2 0x2FF SWAP1 PUSH2 0x2F9 PUSH1 0x64 DUP3 PUSH2 0x1619 JUMP JUMPDEST DUP6 PUSH2 0x163A JUMP JUMPDEST PUSH2 0x25A JUMP JUMPDEST PUSH1 0x64 SWAP1 PUSH1 0x40 MLOAD SWAP1 PUSH3 0x461BCD PUSH1 0xE5 SHL DUP3 MSTORE PUSH1 0x4 DUP3 ADD MSTORE PUSH1 0x14 PUSH1 0x24 DUP3 ADD MSTORE PUSH20 0x496E73756666696369656E742062616C616E6365 PUSH1 0x60 SHL PUSH1 0x44 DUP3 ADD MSTORE REVERT JUMPDEST CALLVALUE PUSH2 0x157 JUMPI PUSH1 0x20 CALLDATASIZE PUSH1 0x3 NOT ADD SLT PUSH2 0x157 JUMPI PUSH2 0x358 PUSH2 0x157D JUMP JUMPDEST PUSH2 0x360 PUSH2 0x1593 JUMP JUMPDEST PUSH1 0x1 PUSH1 0x1 PUSH1 0xA0 SHL SUB SWAP1 DUP2 AND SWAP1 DUP2 ISZERO PUSH2 0x3B4 JUMPI PUSH1 0x0 SLOAD DUP3 PUSH12 0xFFFFFFFFFFFFFFFFFFFFFFFF PUSH1 0xA0 SHL DUP3 AND OR PUSH1 0x0 SSTORE AND PUSH32 0x8BE0079C531659141344CD1FD0A4F28419497F9722A3DAAFE3B4186F6B6457E0 PUSH1 0x0 DUP1 LOG3 STOP JUMPDEST PUSH1 0x40 MLOAD PUSH4 0x1E4FBDF7 PUSH1 0xE0 SHL DUP2 MSTORE PUSH1 0x0 PUSH1 0x4 DUP3 ADD MSTORE PUSH1 0x24 SWAP1 REVERT JUMPDEST CALLVALUE PUSH2 0x157 JUMPI PUSH1 0x20 CALLDATASIZE PUSH1 0x3 NOT ADD SLT PUSH2 0x157 JUMPI PUSH2 0x3E6 PUSH2 0x157D JUMP JUMPDEST PUSH2 0x3EE PUSH2 0x1593 JUMP JUMPDEST PUSH1 0x9 DUP1 SLOAD PUSH1 0x1 PUSH1 0x1 PUSH1 0xA0 SHL SUB NOT AND PUSH1 0x1 PUSH1 0x1 PUSH1 0xA0 SHL SUB SWAP3 SWAP1 SWAP3 AND SWAP2 SWAP1 SWAP2 OR SWAP1 SSTORE STOP JUMPDEST CALLVALUE PUSH2 0x157 JUMPI PUSH2 0x100 CALLDATASIZE PUSH1 0x3 NOT ADD SLT PUSH2 0x157 JUMPI PUSH1 0x20 PUSH2 0x42C PUSH2 0x1793 JUMP JUMPDEST PUSH1 0x40 MLOAD SWAP1 DUP2 MSTORE RETURN JUMPDEST CALLVALUE PUSH2 0x157 JUMPI PUSH1 0x40 CALLDATASIZE PUSH1 0x3 NOT ADD SLT PUSH2 0x157 JUMPI PUSH2 0x44D PUSH2 0x157D JUMP JUMPDEST PUSH1 0x1 PUSH1 0x1 PUSH1 0xA0 SHL SUB PUSH1 0x24 CALLDATALOAD DUP2 DUP2 AND SWAP3 SWAP1 DUP4 SWAP1 SUB PUSH2 0x157 JUMPI AND PUSH1 0x0 MSTORE PUSH1 0x3 PUSH1 0x20 MSTORE PUSH1 0x40 PUSH1 0x0 KECCAK256 SWAP1 PUSH1 0x0 MSTORE PUSH1 0x20 MSTORE PUSH1 0x20 PUSH1 0x40 PUSH1 0x0 KECCAK256 SLOAD PUSH1 0x40 MLOAD SWAP1 DUP2 MSTORE RETURN JUMPDEST CALLVALUE PUSH2 0x157 JUMPI PUSH1 0x20 CALLDATASIZE PUSH1 0x3 NOT ADD SLT PUSH2 0x157 JUMPI PUSH1 0x4 CALLDATALOAD PUSH2 0x4A5 PUSH2 0x1593 JUMP JUMPDEST PUSH2 0x1F4 DUP2 GT PUSH2 0x4B3 JUMPI PUSH1 0x8 SSTORE STOP JUMPDEST PUSH1 0x40 MLOAD PUSH3 0x461BCD PUSH1 0xE5 SHL DUP2 MSTORE PUSH1 0x20 PUSH1 0x4 DUP3 ADD MSTORE PUSH1 0xC PUSH1 0x24 DUP3 ADD MSTORE PUSH12 0x8CCACA40E8DEDE40D0D2CED PUSH1 0xA3 SHL PUSH1 0x44 DUP3 ADD MSTORE PUSH1 0x64 SWAP1 REVERT JUMPDEST CALLVALUE PUSH2 0x157 JUMPI PUSH1 0x0 CALLDATASIZE PUSH1 0x3 NOT ADD SLT PUSH2 0x157 JUMPI PUSH1 0x20 PUSH1 0x8 SLOAD PUSH1 0x40 MLOAD SWAP1 DUP2 MSTORE RETURN JUMPDEST CALLVALUE PUSH2 0x157 JUMPI PUSH1 0x20 CALLDATASIZE PUSH1 0x3 NOT ADD SLT PUSH2 0x157 JUMPI PUSH1 0x4 CALLDATALOAD PUSH1 0x0 MSTORE PUSH1 0x6 PUSH1 0x20 MSTORE PUSH1 0x20 PUSH1 0xFF PUSH1 0x40 PUSH1 0x0 KECCAK256 SLOAD AND PUSH1 0x40 MLOAD SWAP1 ISZERO ISZERO DUP2 MSTORE RETURN JUMPDEST CALLVALUE PUSH2 0x157 JUMPI PUSH1 0x0 CALLDATASIZE PUSH1 0x3 NOT ADD SLT PUSH2 0x157 JUMPI PUSH1 0x0 SLOAD PUSH1 0x40 MLOAD PUSH1 0x1 PUSH1 0x1 PUSH1 0xA0 SHL SUB SWAP1 SWAP2 AND DUP2 MSTORE PUSH1 0x20 SWAP1 RETURN JUMPDEST CALLVALUE PUSH2 0x157 JUMPI PUSH2 0x100 CALLDATASIZE PUSH1 0x3 NOT ADD SLT PUSH2 0x157 JUMPI PUSH1 0x4 CALLDATALOAD PUSH1 0x1 PUSH1 0x1 PUSH1 0xA0 SHL SUB DUP2 AND SWAP1 DUP2 SWAP1 SUB PUSH2 0x157 JUMPI CALLER SUB PUSH2 0x5D6 JUMPI PUSH2 0x594 PUSH2 0x1793 JUMP JUMPDEST DUP1 PUSH1 0x0 MSTORE PUSH1 0x6 PUSH1 0x20 MSTORE PUSH1 0x40 PUSH1 0x0 KECCAK256 PUSH1 0x1 PUSH1 0xFF NOT DUP3 SLOAD AND OR SWAP1 SSTORE CALLER SWAP1 PUSH32 0xA6EB7CDC219E1518CED964E9A34E61D68A94E4F1569DB3E84256BA981BA52753 PUSH1 0x0 DUP1 LOG3 STOP JUMPDEST PUSH1 0x40 MLOAD PUSH3 0x461BCD PUSH1 0xE5 SHL DUP2 MSTORE PUSH1 0x20 PUSH1 0x4 DUP3 ADD MSTORE PUSH1 0x9 PUSH1 0x24 DUP3 ADD MSTORE PUSH9 0x2737BA1036B0B5B2B9 PUSH1 0xB9 SHL PUSH1 0x44 DUP3 ADD MSTORE PUSH1 0x64 SWAP1 REVERT JUMPDEST CALLVALUE PUSH2 0x157 JUMPI PUSH1 0x0 CALLDATASIZE PUSH1 0x3 NOT ADD SLT PUSH2 0x157 JUMPI PUSH2 0x620 PUSH2 0x1593 JUMP JUMPDEST PUSH1 0x0 DUP1 SLOAD PUSH1 0x1 PUSH1 0x1 PUSH1 0xA0 SHL SUB NOT DUP2 AND DUP3 SSTORE PUSH1 0x1 PUSH1 0x1 PUSH1 0xA0 SHL SUB AND PUSH32 0x8BE0079C531659141344CD1FD0A4F28419497F9722A3DAAFE3B4186F6B6457E0 DUP3 DUP1 LOG3 STOP JUMPDEST CALLVALUE PUSH2 0x157 JUMPI PUSH1 0x20 CALLDATASIZE PUSH1 0x3 NOT ADD SLT PUSH2 0x157 JUMPI PUSH1 0x1 PUSH1 0x1 PUSH1 0x40 SHL SUB PUSH1 0x4 CALLDATALOAD GT PUSH2 0x157 JUMPI CALLDATASIZE PUSH1 0x23 PUSH1 0x4 CALLDATALOAD ADD SLT ISZERO PUSH2 0x157 JUMPI PUSH1 0x1 PUSH1 0x1 PUSH1 0x40 SHL SUB PUSH1 0x4 CALLDATALOAD PUSH1 0x4 ADD CALLDATALOAD GT PUSH2 0x157 JUMPI CALLDATASIZE PUSH1 0x24 PUSH1 0x4 CALLDATALOAD PUSH1 0x4 ADD CALLDATALOAD PUSH1 0x5 SHL PUSH1 0x4 CALLDATALOAD ADD ADD GT PUSH2 0x157 JUMPI CALLER PUSH1 0x0 MSTORE PUSH1 0x7 PUSH1 0x20 MSTORE PUSH1 0xFF PUSH1 0x40 PUSH1 0x0 KECCAK256 SLOAD AND ISZERO PUSH2 0x126A JUMPI PUSH2 0x6D8 PUSH2 0x1696 JUMP JUMPDEST PUSH1 0x0 JUMPDEST PUSH1 0x4 CALLDATALOAD PUSH1 0x4 ADD CALLDATALOAD DUP2 LT PUSH2 0x6EE JUMPI PUSH1 0x1 DUP1 SSTORE STOP JUMPDEST PUSH1 0x24 DUP2 PUSH1 0x5 SHL PUSH1 0x4 CALLDATALOAD ADD ADD CALLDATALOAD SWAP1 PUSH2 0x282 NOT PUSH1 0x4 CALLDATALOAD CALLDATASIZE SUB ADD DUP3 SLT ISZERO PUSH2 0x157 JUMPI PUSH1 0x4 CALLDATALOAD DUP3 ADD PUSH2 0x164 DUP2 ADD CALLDATALOAD PUSH1 0x44 SWAP1 SWAP2 ADD CALLDATALOAD SUB PUSH2 0x1230 JUMPI PUSH1 0x4 CALLDATALOAD DUP3 ADD PUSH2 0x184 DUP2 ADD CALLDATALOAD PUSH1 0x64 SWAP1 SWAP2 ADD CALLDATALOAD SUB PUSH2 0x11F8 JUMPI PUSH2 0x748 PUSH1 0x84 DUP4 PUSH1 0x4 CALLDATALOAD ADD ADD PUSH2 0x16F0 JUMP JUMPDEST PUSH2 0x759 PUSH2 0x1A4 DUP5 PUSH1 0x4 CALLDATALOAD ADD ADD PUSH2 0x16F0 JUMP JUMPDEST ISZERO ISZERO SWAP1 ISZERO ISZERO EQ PUSH2 0x11C7 JUMPI PUSH2 0x104 DUP3 PUSH1 0x4 CALLDATALOAD ADD ADD CALLDATALOAD TIMESTAMP GT ISZERO DUP1 PUSH2 0x11B4 JUMPI JUMPDEST ISZERO PUSH2 0x117F JUMPI PUSH1 0x1 PUSH1 0x1 PUSH1 0xA0 SHL SUB PUSH2 0x793 PUSH1 0x4 CALLDATALOAD DUP5 ADD PUSH1 0x24 ADD PUSH2 0x16FD JUMP JUMPDEST AND PUSH1 0x0 MSTORE PUSH1 0x4 PUSH1 0x20 MSTORE PUSH1 0x40 PUSH1 0x0 KECCAK256 SLOAD PUSH1 0xE4 DUP4 PUSH1 0x4 CALLDATALOAD ADD ADD CALLDATALOAD LT PUSH2 0x1144 JUMPI PUSH1 0x1 PUSH1 0x1 PUSH1 0xA0 SHL SUB PUSH2 0x7C9 PUSH1 0x4 CALLDATALOAD DUP5 ADD PUSH2 0x144 ADD PUSH2 0x16FD JUMP JUMPDEST AND PUSH1 0x0 MSTORE PUSH1 0x4 PUSH1 0x20 MSTORE PUSH1 0x40 PUSH1 0x0 KECCAK256 SLOAD PUSH2 0x204 DUP4 PUSH1 0x4 CALLDATALOAD ADD ADD CALLDATALOAD LT PUSH2 0x1109 JUMPI PUSH2 0x7F7 PUSH1 0x24 DUP4 PUSH1 0x4 CALLDATALOAD ADD ADD PUSH2 0x187A JUMP JUMPDEST PUSH2 0x808 PUSH2 0x144 DUP5 PUSH1 0x4 CALLDATALOAD ADD ADD PUSH2 0x187A JUMP JUMPDEST SWAP3 DUP2 PUSH1 0x0 MSTORE PUSH1 0x6 PUSH1 0x20 MSTORE PUSH1 0xFF PUSH1 0x40 PUSH1 0x0 KECCAK256 SLOAD AND ISZERO DUP1 PUSH2 0x10F5 JUMPI JUMPDEST ISZERO PUSH2 0x10BE JUMPI PUSH2 0x857 PUSH2 0x840 PUSH1 0x4 CALLDATALOAD DUP4 ADD PUSH2 0x124 DUP2 ADD SWAP1 PUSH1 0x24 ADD PUSH2 0x1711 JUMP JUMPDEST PUSH2 0x850 PUSH1 0x24 DUP6 PUSH1 0x4 CALLDATALOAD ADD ADD PUSH2 0x16FD JUMP JUMPDEST SWAP2 DUP6 PUSH2 0x191B JUMP JUMPDEST ISZERO PUSH2 0x1085 JUMPI PUSH2 0x88D PUSH2 0x875 PUSH1 0x4 CALLDATALOAD DUP4 ADD PUSH2 0x244 DUP2 ADD SWAP1 PUSH1 0x24 ADD PUSH2 0x1711 JUMP JUMPDEST PUSH2 0x886 PUSH2 0x144 DUP6 PUSH1 0x4 CALLDATALOAD ADD ADD PUSH2 0x16FD JUMP JUMPDEST SWAP2 DUP8 PUSH2 0x191B JUMP JUMPDEST ISZERO PUSH2 0x104C JUMPI DUP2 PUSH1 0x0 MSTORE PUSH1 0x5 PUSH1 0x20 MSTORE PUSH2 0x8B2 PUSH1 0x40 PUSH1 0x0 KECCAK256 SLOAD PUSH1 0xC4 DUP4 PUSH1 0x4 CALLDATALOAD ADD ADD CALLDATALOAD PUSH2 0x16B9 JUMP JUMPDEST DUP5 PUSH1 0x0 MSTORE PUSH1 0x5 PUSH1 0x20 MSTORE PUSH2 0x8D3 PUSH1 0x40 PUSH1 0x0 KECCAK256 SLOAD PUSH2 0x1E4 DUP5 PUSH1 0x4 CALLDATALOAD ADD ADD CALLDATALOAD PUSH2 0x16B9 JUMP JUMPDEST PUSH2 0x264 DUP4 PUSH1 0x4 CALLDATALOAD ADD ADD CALLDATALOAD ISZERO ISZERO SWAP2 DUP3 PUSH2 0x1038 JUMPI JUMPDEST POP DUP2 PUSH2 0x1024 JUMPI JUMPDEST POP ISZERO PUSH2 0xFF0 JUMPI PUSH1 0xA4 DUP2 PUSH1 0x4 CALLDATALOAD ADD ADD CALLDATALOAD SWAP2 DUP3 PUSH2 0x90E PUSH1 0x84 DUP5 PUSH1 0x4 CALLDATALOAD ADD ADD PUSH2 0x16F0 JUMP JUMPDEST ISZERO PUSH2 0xFD2 JUMPI PUSH2 0x928 SWAP1 PUSH2 0x1C4 DUP5 PUSH1 0x4 CALLDATALOAD ADD ADD CALLDATALOAD GT ISZERO PUSH2 0x1743 JUMP JUMPDEST PUSH8 0xDE0B6B3A7640000 PUSH2 0x944 DUP5 PUSH2 0x264 DUP6 PUSH1 0x4 CALLDATALOAD ADD ADD CALLDATALOAD PUSH2 0x1780 JUMP JUMPDEST DIV SWAP5 PUSH1 0x1 DUP1 PUSH1 0xA0 SHL SUB PUSH1 0x2 SLOAD AND SWAP6 PUSH1 0x40 MLOAD PUSH4 0xC3C95C7B PUSH1 0xE0 SHL DUP2 MSTORE PUSH1 0x44 DUP6 PUSH1 0x4 CALLDATALOAD ADD ADD CALLDATALOAD PUSH1 0x4 DUP3 ADD MSTORE PUSH1 0x0 DUP2 PUSH1 0x24 DUP2 DUP12 GAS STATICCALL SWAP1 DUP2 ISZERO PUSH2 0xC8C JUMPI PUSH1 0x0 SWAP2 PUSH2 0xDEE JUMPI JUMPDEST POP PUSH1 0x20 ADD MLOAD PUSH1 0x1 PUSH1 0x1 PUSH1 0xA0 SHL SUB AND SWAP1 PUSH2 0x9A4 PUSH1 0x4 CALLDATALOAD DUP7 ADD PUSH1 0x84 ADD PUSH2 0x16F0 JUMP JUMPDEST ISZERO PUSH2 0xDD7 JUMPI PUSH2 0x9B9 PUSH1 0x24 DUP7 PUSH1 0x4 CALLDATALOAD ADD ADD PUSH2 0x16FD JUMP JUMPDEST SWAP1 JUMPDEST PUSH2 0x9CB PUSH1 0x84 DUP8 PUSH1 0x4 CALLDATALOAD ADD ADD PUSH2 0x16F0 JUMP JUMPDEST ISZERO PUSH2 0xDC1 JUMPI PUSH2 0x9E1 PUSH2 0x144 DUP8 PUSH1 0x4 CALLDATALOAD ADD ADD PUSH2 0x16FD JUMP JUMPDEST SWAP3 JUMPDEST PUSH1 0x1 DUP1 PUSH1 0xA0 SHL SUB DUP4 AND PUSH1 0x0 MSTORE PUSH1 0x3 PUSH1 0x20 MSTORE PUSH1 0x40 PUSH1 0x0 KECCAK256 DUP2 PUSH1 0x0 MSTORE PUSH1 0x20 MSTORE DUP2 PUSH1 0x40 PUSH1 0x0 KECCAK256 SLOAD LT PUSH2 0xD7C JUMPI PUSH1 0x40 MLOAD SWAP10 PUSH4 0x345262BB PUSH1 0xE1 SHL DUP12 MSTORE PUSH1 0x44 DUP9 PUSH1 0x4 CALLDATALOAD ADD ADD CALLDATALOAD PUSH1 0x4 DUP13 ADD MSTORE PUSH1 0x64 DUP9 PUSH1 0x4 CALLDATALOAD ADD ADD CALLDATALOAD PUSH1 0x24 DUP13 ADD MSTORE PUSH1 0x20 DUP12 PUSH1 0x44 DUP2 DUP5 GAS STATICCALL SWAP11 DUP12 ISZERO PUSH2 0xC8C JUMPI PUSH1 0x0 SWAP12 PUSH2 0xD47 JUMPI JUMPDEST POP PUSH1 0x40 MLOAD PUSH3 0x7EEAC7 PUSH1 0xE1 SHL DUP2 MSTORE PUSH1 0x1 PUSH1 0x1 PUSH1 0xA0 SHL SUB DUP7 AND PUSH1 0x4 DUP3 ADD MSTORE PUSH1 0x24 DUP2 ADD DUP13 SWAP1 MSTORE SWAP1 PUSH1 0x20 SWAP1 DUP3 SWAP1 PUSH1 0x44 SWAP1 DUP3 SWAP1 GAS STATICCALL SWAP1 DUP2 ISZERO PUSH2 0xC8C JUMPI PUSH1 0x0 SWAP2 PUSH2 0xD15 JUMPI JUMPDEST POP PUSH2 0x264 DUP9 PUSH1 0x4 CALLDATALOAD ADD ADD CALLDATALOAD GT PUSH2 0xCD0 JUMPI PUSH1 0x1 DUP1 PUSH1 0xA0 SHL SUB DUP4 AND PUSH1 0x0 MSTORE PUSH1 0x3 PUSH1 0x20 MSTORE PUSH1 0x40 PUSH1 0x0 KECCAK256 DUP2 PUSH1 0x0 MSTORE PUSH1 0x20 MSTORE PUSH1 0x40 PUSH1 0x0 KECCAK256 PUSH2 0xACA DUP4 DUP3 SLOAD PUSH2 0x16B9 JUMP JUMPDEST SWAP1 SSTORE PUSH2 0xAE6 PUSH2 0x2710 PUSH2 0xADE PUSH1 0x8 SLOAD DUP6 PUSH2 0x1780 JUMP JUMPDEST DIV DUP1 SWAP4 PUSH2 0x16B9 JUMP JUMPDEST PUSH1 0x1 DUP1 PUSH1 0xA0 SHL SUB DUP6 AND PUSH1 0x0 MSTORE PUSH1 0x3 PUSH1 0x20 MSTORE PUSH1 0x40 PUSH1 0x0 KECCAK256 DUP3 PUSH1 0x0 MSTORE PUSH1 0x20 MSTORE PUSH2 0xB13 PUSH1 0x40 PUSH1 0x0 KECCAK256 SWAP2 DUP3 SLOAD PUSH2 0x15BF JUMP JUMPDEST SWAP1 SSTORE DUP2 PUSH2 0xC98 JUMPI JUMPDEST POP POP PUSH1 0x2 SLOAD PUSH1 0x1 PUSH1 0x1 PUSH1 0xA0 SHL SUB AND DUP1 EXTCODESIZE ISZERO PUSH2 0x157 JUMPI PUSH1 0x0 SWAP3 DUP4 PUSH1 0xC4 SWAP3 PUSH1 0x40 MLOAD SWAP12 DUP13 SWAP6 DUP7 SWAP5 PUSH4 0x79212195 PUSH1 0xE1 SHL DUP7 MSTORE PUSH1 0x1 DUP1 PUSH1 0xA0 SHL SUB AND PUSH1 0x4 DUP7 ADD MSTORE PUSH1 0x1 DUP1 PUSH1 0xA0 SHL SUB AND PUSH1 0x24 DUP6 ADD MSTORE PUSH1 0x44 DUP5 ADD MSTORE PUSH2 0x264 DUP10 PUSH1 0x4 CALLDATALOAD ADD ADD CALLDATALOAD PUSH1 0x64 DUP5 ADD MSTORE PUSH1 0xA0 PUSH1 0x84 DUP5 ADD MSTORE DUP2 PUSH1 0xA4 DUP5 ADD MSTORE GAS CALL DUP1 ISZERO PUSH2 0xC8C JUMPI PUSH2 0xC5C JUMPI JUMPDEST PUSH2 0xC57 SWAP6 POP DUP2 PUSH1 0x0 MSTORE PUSH1 0x5 PUSH1 0x20 MSTORE PUSH1 0x40 PUSH1 0x0 KECCAK256 PUSH2 0xBB8 PUSH2 0x264 DUP6 PUSH1 0x4 CALLDATALOAD ADD ADD CALLDATALOAD DUP3 SLOAD PUSH2 0x15BF JUMP JUMPDEST SWAP1 SSTORE PUSH1 0x0 MSTORE PUSH1 0x5 PUSH1 0x20 MSTORE PUSH1 0x40 PUSH1 0x0 KECCAK256 PUSH2 0xBDB PUSH2 0x264 DUP5 PUSH1 0x4 CALLDATALOAD ADD ADD CALLDATALOAD DUP3 SLOAD PUSH2 0x15BF JUMP JUMPDEST SWAP1 SSTORE PUSH32 0x190620535C3067FB2903D49C3A877E2CA446A2A9889963AD4037C471F1519229 PUSH1 0x60 PUSH2 0xC10 PUSH1 0x24 DUP6 PUSH1 0x4 CALLDATALOAD ADD ADD PUSH2 0x16FD JUMP JUMPDEST SWAP5 PUSH2 0xC22 PUSH2 0x144 DUP7 PUSH1 0x4 CALLDATALOAD ADD ADD PUSH2 0x16FD JUMP JUMPDEST PUSH1 0x40 DUP1 MLOAD PUSH1 0x4 CALLDATALOAD SWAP1 SWAP8 ADD PUSH1 0x44 DUP2 ADD CALLDATALOAD DUP9 MSTORE PUSH2 0x264 ADD CALLDATALOAD PUSH1 0x20 DUP9 ADD MSTORE DUP7 ADD SWAP2 SWAP1 SWAP2 MSTORE PUSH1 0x1 PUSH1 0x1 PUSH1 0xA0 SHL SUB SWAP1 DUP2 AND SWAP6 AND SWAP4 LOG4 PUSH2 0x16E1 JUMP JUMPDEST PUSH2 0x6DB JUMP JUMPDEST PUSH1 0x1 PUSH1 0x1 PUSH1 0x40 SHL SUB DUP7 GT PUSH2 0xC76 JUMPI PUSH2 0xC57 SWAP6 PUSH1 0x40 MSTORE PUSH2 0xB91 JUMP JUMPDEST PUSH4 0x4E487B71 PUSH1 0xE0 SHL PUSH1 0x0 MSTORE PUSH1 0x41 PUSH1 0x4 MSTORE PUSH1 0x24 PUSH1 0x0 REVERT JUMPDEST PUSH1 0x40 MLOAD RETURNDATASIZE PUSH1 0x0 DUP3 RETURNDATACOPY RETURNDATASIZE SWAP1 REVERT JUMPDEST PUSH1 0x1 DUP1 PUSH1 0xA0 SHL SUB PUSH1 0x9 SLOAD AND PUSH1 0x0 MSTORE PUSH1 0x3 PUSH1 0x20 MSTORE PUSH1 0x40 PUSH1 0x0 KECCAK256 SWAP1 PUSH1 0x0 MSTORE PUSH1 0x20 MSTORE PUSH2 0xCC7 PUSH1 0x40 PUSH1 0x0 KECCAK256 SWAP2 DUP3 SLOAD PUSH2 0x15BF JUMP JUMPDEST SWAP1 SSTORE DUP9 DUP1 PUSH2 0xB1B JUMP JUMPDEST PUSH1 0x40 MLOAD PUSH3 0x461BCD PUSH1 0xE5 SHL DUP2 MSTORE PUSH1 0x20 PUSH1 0x4 DUP3 ADD MSTORE PUSH1 0x1A PUSH1 0x24 DUP3 ADD MSTORE PUSH32 0x53656C6C657220696E73756666696369656E7420746F6B656E73000000000000 PUSH1 0x44 DUP3 ADD MSTORE PUSH1 0x64 SWAP1 REVERT JUMPDEST SWAP1 POP PUSH1 0x20 DUP2 RETURNDATASIZE PUSH1 0x20 GT PUSH2 0xD3F JUMPI JUMPDEST DUP2 PUSH2 0xD30 PUSH1 0x20 SWAP4 DUP4 PUSH2 0x1619 JUMP JUMPDEST DUP2 ADD SUB SLT PUSH2 0x157 JUMPI MLOAD DUP12 PUSH2 0xA8D JUMP JUMPDEST RETURNDATASIZE SWAP2 POP PUSH2 0xD23 JUMP JUMPDEST SWAP1 SWAP11 POP PUSH1 0x20 DUP2 RETURNDATASIZE PUSH1 0x20 GT PUSH2 0xD74 JUMPI JUMPDEST DUP2 PUSH2 0xD63 PUSH1 0x20 SWAP4 DUP4 PUSH2 0x1619 JUMP JUMPDEST DUP2 ADD SUB SLT PUSH2 0x157 JUMPI MLOAD SWAP10 PUSH1 0x20 PUSH2 0xA4E JUMP JUMPDEST RETURNDATASIZE SWAP2 POP PUSH2 0xD56 JUMP JUMPDEST PUSH1 0x40 MLOAD PUSH3 0x461BCD PUSH1 0xE5 SHL DUP2 MSTORE PUSH1 0x20 PUSH1 0x4 DUP3 ADD MSTORE PUSH1 0x1A PUSH1 0x24 DUP3 ADD MSTORE PUSH32 0x427579657220696E73756666696369656E742062616C616E6365000000000000 PUSH1 0x44 DUP3 ADD MSTORE PUSH1 0x64 SWAP1 REVERT JUMPDEST PUSH2 0xDD1 PUSH1 0x24 DUP8 PUSH1 0x4 CALLDATALOAD ADD ADD PUSH2 0x16FD JUMP JUMPDEST SWAP3 PUSH2 0x9E3 JUMP JUMPDEST PUSH2 0xDE8 PUSH2 0x144 DUP7 PUSH1 0x4 CALLDATALOAD ADD ADD PUSH2 0x16FD JUMP JUMPDEST SWAP1 PUSH2 0x9BB JUMP JUMPDEST SWAP1 POP RETURNDATASIZE DUP1 PUSH1 0x0 DUP4 RETURNDATACOPY PUSH2 0xE00 DUP2 DUP4 PUSH2 0x1619 JUMP JUMPDEST PUSH1 0x20 DUP3 DUP3 DUP2 ADD SUB SLT PUSH2 0x157 JUMPI DUP2 MLOAD PUSH1 0x1 PUSH1 0x1 PUSH1 0x40 SHL SUB DUP2 GT PUSH2 0x157 JUMPI PUSH2 0x100 SWAP3 DUP4 DUP3 DUP3 ADD DUP5 DUP4 ADD SUB SLT PUSH2 0x157 JUMPI PUSH1 0x40 MLOAD SWAP4 DUP5 DUP2 DUP2 ADD LT PUSH1 0x1 PUSH1 0x1 PUSH1 0x40 SHL SUB DUP3 DUP8 ADD GT OR PUSH2 0xC76 JUMPI DUP5 ADD PUSH1 0x40 MSTORE DUP1 DUP3 ADD DUP1 MLOAD DUP6 MSTORE PUSH1 0x20 ADD MLOAD PUSH1 0x1 PUSH1 0x1 PUSH1 0xA0 SHL SUB DUP2 AND DUP2 SUB PUSH2 0x157 JUMPI PUSH1 0x20 DUP6 ADD MSTORE DUP1 DUP3 ADD PUSH1 0x40 DUP2 DUP2 ADD MLOAD SWAP1 DUP7 ADD MSTORE PUSH1 0x60 DUP1 DUP3 ADD MLOAD SWAP1 DUP7 ADD MSTORE PUSH1 0x80 ADD MLOAD PUSH1 0x1 PUSH1 0x1 PUSH1 0x40 SHL SUB DUP2 GT PUSH2 0x157 JUMPI DUP4 DUP3 ADD PUSH1 0x1F DUP3 DUP6 DUP6 ADD ADD ADD SLT ISZERO PUSH2 0x157 JUMPI DUP1 DUP4 DUP4 ADD ADD MLOAD SWAP1 PUSH1 0x1 PUSH1 0x1 PUSH1 0x40 SHL SUB DUP3 GT PUSH2 0xC76 JUMPI DUP2 PUSH1 0x5 SHL PUSH1 0x40 MLOAD SWAP3 PUSH2 0xED0 PUSH1 0x20 DUP4 ADD DUP6 PUSH2 0x1619 JUMP JUMPDEST DUP4 MSTORE PUSH1 0x20 DUP4 ADD DUP7 DUP6 ADD PUSH1 0x20 DUP4 DUP6 DUP10 DUP10 ADD ADD ADD ADD GT PUSH2 0x157 JUMPI PUSH1 0x20 DUP4 DUP8 DUP8 ADD ADD ADD SWAP2 JUMPDEST PUSH1 0x20 DUP2 DUP6 DUP10 DUP10 ADD ADD ADD ADD DUP4 LT PUSH2 0xFBE JUMPI POP POP POP POP PUSH1 0x80 DUP6 ADD MSTORE DUP1 DUP3 ADD PUSH1 0xA0 DUP2 DUP2 ADD MLOAD SWAP1 DUP7 ADD MSTORE PUSH1 0xC0 SWAP1 DUP2 ADD MLOAD SWAP1 DUP2 ISZERO ISZERO DUP3 SUB PUSH2 0x157 JUMPI DUP6 ADD MSTORE PUSH1 0xE0 DUP3 DUP3 ADD ADD MLOAD PUSH1 0x1 PUSH1 0x1 PUSH1 0x40 SHL SUB DUP2 GT PUSH2 0x157 JUMPI DUP4 DUP3 ADD PUSH1 0x1F DUP3 DUP6 DUP6 ADD ADD ADD SLT ISZERO PUSH2 0x157 JUMPI DUP1 DUP4 DUP4 ADD ADD MLOAD SWAP3 PUSH2 0xF61 DUP5 PUSH2 0x16C6 JUMP JUMPDEST SWAP5 PUSH2 0xF6F PUSH1 0x40 MLOAD SWAP7 DUP8 PUSH2 0x1619 JUMP JUMPDEST DUP5 DUP7 MSTORE DUP4 ADD PUSH1 0x20 DUP6 DUP5 DUP5 DUP8 ADD ADD ADD ADD GT PUSH2 0x157 JUMPI PUSH1 0x0 JUMPDEST DUP5 DUP2 LT PUSH2 0xFA5 JUMPI POP POP POP POP PUSH1 0x20 PUSH1 0x0 SWAP2 DUP4 ADD ADD MSTORE PUSH1 0xE0 DUP3 ADD MSTORE DUP9 PUSH2 0x985 JUMP JUMPDEST DUP1 PUSH1 0x20 DUP1 SWAP3 DUP6 DUP6 DUP9 ADD ADD ADD ADD MLOAD DUP3 DUP3 DUP10 ADD ADD MSTORE ADD PUSH2 0xF86 JUMP JUMPDEST PUSH1 0x20 DUP1 DUP1 SWAP4 DUP6 MLOAD DUP2 MSTORE ADD SWAP4 ADD SWAP3 SWAP2 POP PUSH2 0xEF2 JUMP JUMPDEST POP SWAP2 PUSH2 0xFEA PUSH2 0x1C4 DUP4 PUSH1 0x4 CALLDATALOAD ADD ADD CALLDATALOAD SWAP2 DUP3 LT ISZERO PUSH2 0x1743 JUMP JUMPDEST SWAP2 PUSH2 0x928 JUMP JUMPDEST PUSH1 0x40 MLOAD PUSH3 0x461BCD PUSH1 0xE5 SHL DUP2 MSTORE PUSH1 0x20 PUSH1 0x4 DUP3 ADD MSTORE PUSH1 0xC PUSH1 0x24 DUP3 ADD MSTORE PUSH12 0x125B9D985B1A5908199A5B1B PUSH1 0xA2 SHL PUSH1 0x44 DUP3 ADD MSTORE PUSH1 0x64 SWAP1 REVERT JUMPDEST SWAP1 POP PUSH2 0x264 DUP3 PUSH1 0x4 CALLDATALOAD ADD ADD CALLDATALOAD GT ISZERO DUP6 PUSH2 0x8ED JUMP JUMPDEST PUSH1 0x4 CALLDATALOAD DUP5 ADD PUSH2 0x264 ADD CALLDATALOAD GT ISZERO SWAP2 POP DUP7 PUSH2 0x8E6 JUMP JUMPDEST PUSH1 0x40 MLOAD PUSH3 0x461BCD PUSH1 0xE5 SHL DUP2 MSTORE PUSH1 0x20 PUSH1 0x4 DUP3 ADD MSTORE PUSH1 0x11 PUSH1 0x24 DUP3 ADD MSTORE PUSH17 0x496E76616C69642074616B657220736967 PUSH1 0x78 SHL PUSH1 0x44 DUP3 ADD MSTORE PUSH1 0x64 SWAP1 REVERT JUMPDEST PUSH1 0x40 MLOAD PUSH3 0x461BCD PUSH1 0xE5 SHL DUP2 MSTORE PUSH1 0x20 PUSH1 0x4 DUP3 ADD MSTORE PUSH1 0x11 PUSH1 0x24 DUP3 ADD MSTORE PUSH17 0x496E76616C6964206D616B657220736967 PUSH1 0x78 SHL PUSH1 0x44 DUP3 ADD MSTORE PUSH1 0x64 SWAP1 REVERT JUMPDEST PUSH1 0x40 MLOAD PUSH3 0x461BCD PUSH1 0xE5 SHL DUP2 MSTORE PUSH1 0x20 PUSH1 0x4 DUP3 ADD MSTORE PUSH1 0xF PUSH1 0x24 DUP3 ADD MSTORE PUSH15 0x13DC99195C8818D85B98D95B1B1959 PUSH1 0x8A SHL PUSH1 0x44 DUP3 ADD MSTORE PUSH1 0x64 SWAP1 REVERT JUMPDEST POP DUP4 PUSH1 0x0 MSTORE PUSH1 0xFF PUSH1 0x40 PUSH1 0x0 KECCAK256 SLOAD AND ISZERO PUSH2 0x822 JUMP JUMPDEST PUSH1 0x40 MLOAD PUSH3 0x461BCD PUSH1 0xE5 SHL DUP2 MSTORE PUSH1 0x20 PUSH1 0x4 DUP3 ADD MSTORE PUSH1 0x13 PUSH1 0x24 DUP3 ADD MSTORE PUSH19 0x15185AD95C881B9BDB98D9481A5B9D985B1A59 PUSH1 0x6A SHL PUSH1 0x44 DUP3 ADD MSTORE PUSH1 0x64 SWAP1 REVERT JUMPDEST PUSH1 0x40 MLOAD PUSH3 0x461BCD PUSH1 0xE5 SHL DUP2 MSTORE PUSH1 0x20 PUSH1 0x4 DUP3 ADD MSTORE PUSH1 0x13 PUSH1 0x24 DUP3 ADD MSTORE PUSH19 0x13585AD95C881B9BDB98D9481A5B9D985B1A59 PUSH1 0x6A SHL PUSH1 0x44 DUP3 ADD MSTORE PUSH1 0x64 SWAP1 REVERT JUMPDEST PUSH1 0x40 MLOAD PUSH3 0x461BCD PUSH1 0xE5 SHL DUP2 MSTORE PUSH1 0x20 PUSH1 0x4 DUP3 ADD MSTORE PUSH1 0xD PUSH1 0x24 DUP3 ADD MSTORE PUSH13 0x13DC99195C88195E1C1A5C9959 PUSH1 0x9A SHL PUSH1 0x44 DUP3 ADD MSTORE PUSH1 0x64 SWAP1 REVERT JUMPDEST POP PUSH2 0x224 DUP3 PUSH1 0x4 CALLDATALOAD ADD ADD CALLDATALOAD TIMESTAMP GT ISZERO PUSH2 0x776 JUMP JUMPDEST PUSH1 0x40 MLOAD PUSH3 0x461BCD PUSH1 0xE5 SHL DUP2 MSTORE PUSH1 0x20 PUSH1 0x4 DUP3 ADD MSTORE PUSH1 0x9 PUSH1 0x24 DUP3 ADD MSTORE PUSH9 0x53616D652073696465 PUSH1 0xB8 SHL PUSH1 0x44 DUP3 ADD MSTORE PUSH1 0x64 SWAP1 REVERT JUMPDEST PUSH1 0x40 MLOAD PUSH3 0x461BCD PUSH1 0xE5 SHL DUP2 MSTORE PUSH1 0x20 PUSH1 0x4 DUP3 ADD MSTORE PUSH1 0x10 PUSH1 0x24 DUP3 ADD MSTORE PUSH16 0x9EEAE8C6DEDACA40DAD2E6DAC2E8C6D PUSH1 0x83 SHL PUSH1 0x44 DUP3 ADD MSTORE PUSH1 0x64 SWAP1 REVERT JUMPDEST PUSH1 0x40 MLOAD PUSH3 0x461BCD PUSH1 0xE5 SHL DUP2 MSTORE PUSH1 0x20 PUSH1 0x4 DUP3 ADD MSTORE PUSH1 0x12 PUSH1 0x24 DUP3 ADD MSTORE PUSH18 0x86DEDCC8D2E8D2DEDC40DAD2E6DAC2E8C6D PUSH1 0x73 SHL PUSH1 0x44 DUP3 ADD MSTORE PUSH1 0x64 SWAP1 REVERT JUMPDEST PUSH1 0x40 MLOAD PUSH3 0x461BCD PUSH1 0xE5 SHL DUP2 MSTORE PUSH1 0x20 PUSH1 0x4 DUP3 ADD MSTORE PUSH1 0xF PUSH1 0x24 DUP3 ADD MSTORE PUSH15 0x2737BA1030B71037B832B930BA37B9 PUSH1 0x89 SHL PUSH1 0x44 DUP3 ADD MSTORE PUSH1 0x64 SWAP1 REVERT JUMPDEST CALLVALUE PUSH2 0x157 JUMPI PUSH1 0x0 CALLDATASIZE PUSH1 0x3 NOT ADD SLT PUSH2 0x157 JUMPI CALLER PUSH1 0x0 MSTORE PUSH1 0x4 PUSH1 0x20 MSTORE PUSH1 0x40 PUSH1 0x0 KECCAK256 PUSH2 0x12CA DUP2 SLOAD PUSH2 0x16E1 JUMP JUMPDEST SWAP1 SSTORE STOP JUMPDEST CALLVALUE PUSH2 0x157 JUMPI PUSH1 0x0 CALLDATASIZE PUSH1 0x3 NOT ADD SLT PUSH2 0x157 JUMPI PUSH1 0x2 SLOAD PUSH1 0x40 MLOAD PUSH1 0x1 PUSH1 0x1 PUSH1 0xA0 SHL SUB SWAP1 SWAP2 AND DUP2 MSTORE PUSH1 0x20 SWAP1 RETURN JUMPDEST CALLVALUE PUSH2 0x157 JUMPI PUSH1 0x40 CALLDATASIZE PUSH1 0x3 NOT ADD SLT PUSH2 0x157 JUMPI PUSH2 0x1310 PUSH2 0x157D JUMP JUMPDEST PUSH1 0x24 CALLDATALOAD SWAP1 DUP2 ISZERO ISZERO DUP1 SWAP3 SUB PUSH2 0x157 JUMPI PUSH2 0x1326 PUSH2 0x1593 JUMP JUMPDEST PUSH1 0x1 DUP1 PUSH1 0xA0 SHL SUB AND PUSH1 0x0 MSTORE PUSH1 0x7 PUSH1 0x20 MSTORE PUSH1 0x40 PUSH1 0x0 KECCAK256 SWAP1 PUSH1 0xFF DUP1 NOT DUP4 SLOAD AND SWAP2 AND OR SWAP1 SSTORE PUSH1 0x0 DUP1 RETURN JUMPDEST PUSH1 0x40 CALLDATASIZE PUSH1 0x3 NOT ADD SLT PUSH2 0x157 JUMPI PUSH2 0x1361 PUSH2 0x157D JUMP JUMPDEST PUSH1 0x24 CALLDATALOAD SWAP1 PUSH2 0x136D PUSH2 0x1696 JUMP JUMPDEST PUSH1 0x1 PUSH1 0x1 PUSH1 0xA0 SHL SUB AND SWAP1 DUP2 PUSH2 0x1419 JUMPI DUP1 CALLVALUE SUB PUSH2 0x13DD JUMPI JUMPDEST CALLER PUSH1 0x0 MSTORE PUSH1 0x3 PUSH1 0x20 MSTORE PUSH1 0x40 PUSH1 0x0 KECCAK256 DUP3 PUSH1 0x0 MSTORE PUSH1 0x20 MSTORE PUSH1 0x40 PUSH1 0x0 KECCAK256 PUSH2 0x13A9 DUP3 DUP3 SLOAD PUSH2 0x15BF JUMP JUMPDEST SWAP1 SSTORE PUSH1 0x40 MLOAD SWAP1 DUP2 MSTORE PUSH32 0x5548C837AB068CF56A2C2479DF0882A4922FD203EDB7517321831D95078C5F62 PUSH1 0x20 CALLER SWAP3 LOG3 PUSH1 0x1 DUP1 SSTORE STOP JUMPDEST PUSH1 0x40 MLOAD PUSH3 0x461BCD PUSH1 0xE5 SHL DUP2 MSTORE PUSH1 0x20 PUSH1 0x4 DUP3 ADD MSTORE PUSH1 0x14 PUSH1 0x24 DUP3 ADD MSTORE PUSH20 0x125B98DBDC9C9958DD0815915508185B5BDD5B9D PUSH1 0x62 SHL PUSH1 0x44 DUP3 ADD MSTORE PUSH1 0x64 SWAP1 REVERT JUMPDEST CALLVALUE PUSH2 0x146D JUMPI PUSH1 0x40 MLOAD PUSH4 0x23B872DD PUSH1 0xE0 SHL PUSH1 0x20 DUP3 ADD MSTORE CALLER PUSH1 0x24 DUP3 ADD MSTORE ADDRESS PUSH1 0x44 DUP3 ADD MSTORE PUSH1 0x64 DUP1 DUP3 ADD DUP4 SWAP1 MSTORE DUP2 MSTORE PUSH1 0xA0 DUP2 ADD SWAP1 PUSH1 0x1 PUSH1 0x1 PUSH1 0x40 SHL SUB DUP3 GT DUP2 DUP4 LT OR PUSH2 0xC76 JUMPI PUSH2 0x1468 SWAP2 PUSH1 0x40 MSTORE DUP4 PUSH2 0x163A JUMP JUMPDEST PUSH2 0x1384 JUMP JUMPDEST PUSH1 0x40 MLOAD PUSH3 0x461BCD PUSH1 0xE5 SHL DUP2 MSTORE PUSH1 0x20 PUSH1 0x4 DUP3 ADD MSTORE PUSH1 0xF PUSH1 0x24 DUP3 ADD MSTORE PUSH15 0x111BC81B9BDD081CD95B9908159155 PUSH1 0x8A SHL PUSH1 0x44 DUP3 ADD MSTORE PUSH1 0x64 SWAP1 REVERT JUMPDEST CALLVALUE PUSH2 0x157 JUMPI PUSH1 0x0 CALLDATASIZE PUSH1 0x3 NOT ADD SLT PUSH2 0x157 JUMPI PUSH1 0x9 SLOAD PUSH1 0x40 MLOAD PUSH1 0x1 PUSH1 0x1 PUSH1 0xA0 SHL SUB SWAP1 SWAP2 AND DUP2 MSTORE PUSH1 0x20 SWAP1 RETURN JUMPDEST CALLVALUE PUSH2 0x157 JUMPI PUSH1 0x0 CALLDATASIZE PUSH1 0x3 NOT ADD SLT PUSH2 0x157 JUMPI PUSH1 0x20 PUSH1 0x40 MLOAD PUSH32 0x0 DUP2 MSTORE RETURN JUMPDEST CALLVALUE PUSH2 0x157 JUMPI PUSH1 0x20 CALLDATASIZE PUSH1 0x3 NOT ADD SLT PUSH2 0x157 JUMPI PUSH1 0x1 PUSH1 0x1 PUSH1 0xA0 SHL SUB PUSH2 0x1529 PUSH2 0x157D JUMP JUMPDEST AND PUSH1 0x0 MSTORE PUSH1 0x4 PUSH1 0x20 MSTORE PUSH1 0x20 PUSH1 0x40 PUSH1 0x0 KECCAK256 SLOAD PUSH1 0x40 MLOAD SWAP1 DUP2 MSTORE RETURN JUMPDEST CALLVALUE PUSH2 0x157 JUMPI PUSH1 0x20 CALLDATASIZE PUSH1 0x3 NOT ADD SLT PUSH2 0x157 JUMPI PUSH1 0x20 SWAP1 PUSH1 0x1 PUSH1 0x1 PUSH1 0xA0 SHL SUB PUSH2 0x1566 PUSH2 0x157D JUMP JUMPDEST AND PUSH1 0x0 MSTORE PUSH1 0x7 DUP3 MSTORE PUSH1 0xFF PUSH1 0x40 PUSH1 0x0 KECCAK256 SLOAD AND ISZERO ISZERO DUP2 MSTORE RETURN JUMPDEST PUSH1 0x4 CALLDATALOAD SWAP1 PUSH1 0x1 PUSH1 0x1 PUSH1 0xA0 SHL SUB DUP3 AND DUP3 SUB PUSH2 0x157 JUMPI JUMP JUMPDEST PUSH1 0x0 SLOAD PUSH1 0x1 PUSH1 0x1 PUSH1 0xA0 SHL SUB AND CALLER SUB PUSH2 0x15A7 JUMPI JUMP JUMPDEST PUSH1 0x40 MLOAD PUSH4 0x118CDAA7 PUSH1 0xE0 SHL DUP2 MSTORE CALLER PUSH1 0x4 DUP3 ADD MSTORE PUSH1 0x24 SWAP1 REVERT JUMPDEST SWAP2 SWAP1 DUP3 ADD DUP1 SWAP3 GT PUSH2 0x15CC JUMPI JUMP JUMPDEST PUSH4 0x4E487B71 PUSH1 0xE0 SHL PUSH1 0x0 MSTORE PUSH1 0x11 PUSH1 0x4 MSTORE PUSH1 0x24 PUSH1 0x0 REVERT JUMPDEST PUSH2 0x140 DUP2 ADD SWAP1 DUP2 LT PUSH1 0x1 PUSH1 0x1 PUSH1 0x40 SHL SUB DUP3 GT OR PUSH2 0xC76 JUMPI PUSH1 0x40 MSTORE JUMP JUMPDEST PUSH1 0x80 DUP2 ADD SWAP1 DUP2 LT PUSH1 0x1 PUSH1 0x1 PUSH1 0x40 SHL SUB DUP3 GT OR PUSH2 0xC76 JUMPI PUSH1 0x40 MSTORE JUMP JUMPDEST SWAP1 PUSH1 0x1F DUP1 NOT SWAP2 ADD AND DUP2 ADD SWAP1 DUP2 LT PUSH1 0x1 PUSH1 0x1 PUSH1 0x40 SHL SUB DUP3 GT OR PUSH2 0xC76 JUMPI PUSH1 0x40 MSTORE JUMP JUMPDEST SWAP1 PUSH1 0x0 PUSH1 0x20 SWAP2 DUP3 DUP2 MLOAD SWAP2 ADD DUP3 DUP6 GAS CALL ISZERO PUSH2 0xC8C JUMPI PUSH1 0x0 MLOAD RETURNDATASIZE PUSH2 0x168D JUMPI POP PUSH1 0x1 PUSH1 0x1 PUSH1 0xA0 SHL SUB DUP2 AND EXTCODESIZE ISZERO JUMPDEST PUSH2 0x166B JUMPI POP JUMP JUMPDEST PUSH1 0x40 MLOAD PUSH4 0x5274AFE7 PUSH1 0xE0 SHL DUP2 MSTORE PUSH1 0x1 PUSH1 0x1 PUSH1 0xA0 SHL SUB SWAP1 SWAP2 AND PUSH1 0x4 DUP3 ADD MSTORE PUSH1 0x24 SWAP1 REVERT JUMPDEST PUSH1 0x1 EQ ISZERO PUSH2 0x1664 JUMP JUMPDEST PUSH1 0x2 PUSH1 0x1 SLOAD EQ PUSH2 0x16A7 JUMPI PUSH1 0x2 PUSH1 0x1 SSTORE JUMP JUMPDEST PUSH1 0x40 MLOAD PUSH4 0x3EE5AEB5 PUSH1 0xE0 SHL DUP2 MSTORE PUSH1 0x4 SWAP1 REVERT JUMPDEST SWAP2 SWAP1 DUP3 SUB SWAP2 DUP3 GT PUSH2 0x15CC JUMPI JUMP JUMPDEST PUSH1 0x1 PUSH1 0x1 PUSH1 0x40 SHL SUB DUP2 GT PUSH2 0xC76 JUMPI PUSH1 0x1F ADD PUSH1 0x1F NOT AND PUSH1 0x20 ADD SWAP1 JUMP JUMPDEST PUSH1 0x0 NOT DUP2 EQ PUSH2 0x15CC JUMPI PUSH1 0x1 ADD SWAP1 JUMP JUMPDEST CALLDATALOAD DUP1 ISZERO ISZERO DUP2 SUB PUSH2 0x157 JUMPI SWAP1 JUMP JUMPDEST CALLDATALOAD PUSH1 0x1 PUSH1 0x1 PUSH1 0xA0 SHL SUB DUP2 AND DUP2 SUB PUSH2 0x157 JUMPI SWAP1 JUMP JUMPDEST SWAP1 CALLDATALOAD SWAP1 PUSH1 0x1E NOT DUP2 CALLDATASIZE SUB ADD DUP3 SLT ISZERO PUSH2 0x157 JUMPI ADD DUP1 CALLDATALOAD SWAP1 PUSH1 0x1 PUSH1 0x1 PUSH1 0x40 SHL SUB DUP3 GT PUSH2 0x157 JUMPI PUSH1 0x20 ADD SWAP2 DUP2 CALLDATASIZE SUB DUP4 SGT PUSH2 0x157 JUMPI JUMP JUMPDEST ISZERO PUSH2 0x174A JUMPI JUMP JUMPDEST PUSH1 0x40 MLOAD PUSH3 0x461BCD PUSH1 0xE5 SHL DUP2 MSTORE PUSH1 0x20 PUSH1 0x4 DUP3 ADD MSTORE PUSH1 0xE PUSH1 0x24 DUP3 ADD MSTORE PUSH14 0xA0E4D2C6CA40DAD2E6DAC2E8C6D PUSH1 0x93 SHL PUSH1 0x44 DUP3 ADD MSTORE PUSH1 0x64 SWAP1 REVERT JUMPDEST DUP2 DUP2 MUL SWAP3 SWAP2 DUP2 ISZERO SWAP2 DUP5 DIV EQ OR ISZERO PUSH2 0x15CC JUMPI JUMP JUMPDEST PUSH1 0x4 CALLDATALOAD PUSH1 0x1 PUSH1 0x1 PUSH1 0xA0 SHL SUB DUP2 AND SWAP1 DUP2 SWAP1 SUB PUSH2 0x157 JUMPI PUSH1 0x64 CALLDATALOAD DUP1 ISZERO ISZERO DUP1 SWAP2 SUB PUSH2 0x157 JUMPI PUSH1 0x40 MLOAD SWAP1 PUSH1 0x20 DUP3 ADD SWAP3 PUSH32 0xEF6FE60BEF87416D1F4739A0FF08CD262A6A0EAEC294BC7F65B4B58FC966BE16 DUP5 MSTORE PUSH1 0x40 DUP4 ADD MSTORE PUSH1 0x24 CALLDATALOAD PUSH1 0x60 DUP4 ADD MSTORE PUSH1 0x44 CALLDATALOAD PUSH1 0x80 DUP4 ADD MSTORE PUSH1 0xA0 DUP3 ADD MSTORE PUSH1 0x84 CALLDATALOAD PUSH1 0xC0 DUP3 ADD MSTORE PUSH1 0xA4 CALLDATALOAD PUSH1 0xE0 DUP3 ADD MSTORE PUSH1 0xC4 CALLDATALOAD PUSH2 0x100 DUP3 ADD MSTORE PUSH2 0x120 PUSH1 0xE4 CALLDATALOAD DUP2 DUP4 ADD MSTORE DUP2 MSTORE PUSH2 0x1829 DUP2 PUSH2 0x15E2 JUMP JUMPDEST MLOAD SWAP1 KECCAK256 PUSH1 0x40 MLOAD PUSH1 0x20 DUP2 ADD SWAP2 PUSH2 0x1901 PUSH1 0xF0 SHL DUP4 MSTORE PUSH32 0x0 PUSH1 0x22 DUP4 ADD MSTORE PUSH1 0x42 DUP3 ADD MSTORE PUSH1 0x42 DUP2 MSTORE PUSH2 0x1874 DUP2 PUSH2 0x15FE JUMP JUMPDEST MLOAD SWAP1 KECCAK256 SWAP1 JUMP JUMPDEST PUSH2 0x1883 DUP2 PUSH2 0x16FD JUMP JUMPDEST SWAP1 PUSH2 0x1890 PUSH1 0x60 DUP3 ADD PUSH2 0x16F0 JUMP JUMPDEST SWAP1 PUSH1 0x40 MLOAD SWAP2 PUSH1 0x20 DUP4 ADD SWAP4 PUSH32 0xEF6FE60BEF87416D1F4739A0FF08CD262A6A0EAEC294BC7F65B4B58FC966BE16 DUP6 MSTORE PUSH1 0x1 DUP1 PUSH1 0xA0 SHL SUB AND PUSH1 0x40 DUP5 ADD MSTORE PUSH1 0x20 DUP3 ADD CALLDATALOAD PUSH1 0x60 DUP5 ADD MSTORE PUSH1 0x40 DUP3 ADD CALLDATALOAD PUSH1 0x80 DUP5 ADD MSTORE ISZERO ISZERO PUSH1 0xA0 DUP4 ADD MSTORE PUSH1 0x80 DUP2 ADD CALLDATALOAD PUSH1 0xC0 DUP4 ADD MSTORE PUSH1 0xA0 DUP2 ADD CALLDATALOAD PUSH1 0xE0 DUP4 ADD MSTORE PUSH1 0xC0 DUP2 ADD CALLDATALOAD PUSH2 0x100 DUP4 ADD MSTORE PUSH1 0xE0 PUSH2 0x120 SWAP2 ADD CALLDATALOAD DUP2 DUP4 ADD MSTORE DUP2 MSTORE PUSH2 0x1829 DUP2 PUSH2 0x15E2 JUMP JUMPDEST SWAP3 SWAP2 SWAP3 PUSH2 0x1927 DUP5 PUSH2 0x16C6 JUMP JUMPDEST SWAP1 PUSH2 0x1935 PUSH1 0x40 MLOAD SWAP3 DUP4 PUSH2 0x1619 JUMP JUMPDEST DUP5 DUP3 MSTORE CALLDATASIZE DUP6 DUP5 ADD GT PUSH2 0x157 JUMPI PUSH1 0x0 PUSH1 0x20 DUP7 PUSH2 0x1964 SWAP8 PUSH2 0x195B SWAP7 DUP4 DUP8 ADD CALLDATACOPY DUP5 ADD ADD MSTORE PUSH2 0x1975 JUMP JUMPDEST SWAP1 SWAP4 SWAP2 SWAP4 PUSH2 0x1A41 JUMP JUMPDEST PUSH1 0x1 PUSH1 0x1 PUSH1 0xA0 SHL SUB SWAP2 DUP3 AND SWAP2 AND EQ SWAP1 JUMP JUMPDEST DUP2 MLOAD SWAP2 SWAP1 PUSH1 0x41 DUP4 SUB PUSH2 0x19A6 JUMPI PUSH2 0x199F SWAP3 POP PUSH1 0x20 DUP3 ADD MLOAD SWAP1 PUSH1 0x60 PUSH1 0x40 DUP5 ADD MLOAD SWAP4 ADD MLOAD PUSH1 0x0 BYTE SWAP1 PUSH2 0x19B1 JUMP JUMPDEST SWAP2 SWAP3 SWAP1 SWAP2 SWAP1 JUMP JUMPDEST POP POP PUSH1 0x0 SWAP2 PUSH1 0x2 SWAP2 SWAP1 JUMP JUMPDEST SWAP2 SWAP1 PUSH32 0x7FFFFFFFFFFFFFFFFFFFFFFFFFFFFFFF5D576E7357A4501DDFE92F46681B20A0 DUP5 GT PUSH2 0x1A35 JUMPI SWAP3 PUSH1 0x20 SWAP3 SWAP2 PUSH1 0xFF PUSH1 0x80 SWAP6 PUSH1 0x40 MLOAD SWAP5 DUP6 MSTORE AND DUP5 DUP5 ADD MSTORE PUSH1 0x40 DUP4 ADD MSTORE PUSH1 0x60 DUP3 ADD MSTORE PUSH1 0x0 SWAP3 DUP4 SWAP2 DUP3 DUP1 MSTORE PUSH1 0x1 GAS STATICCALL ISZERO PUSH2 0x1A29 JUMPI DUP1 MLOAD PUSH1 0x1 PUSH1 0x1 PUSH1 0xA0 SHL SUB DUP2 AND ISZERO PUSH2 0x1A20 JUMPI SWAP2 DUP2 SWAP1 JUMP JUMPDEST POP DUP1 SWAP2 PUSH1 0x1 SWAP2 SWAP1 JUMP JUMPDEST PUSH1 0x40 MLOAD SWAP1 RETURNDATASIZE SWAP1 DUP3 RETURNDATACOPY RETURNDATASIZE SWAP1 REVERT JUMPDEST POP POP POP PUSH1 0x0 SWAP2 PUSH1 0x3 SWAP2 SWAP1 JUMP JUMPDEST PUSH1 0x4 DUP2 LT ISZERO PUSH2 0x1AB0 JUMPI DUP1 PUSH2 0x1A53 JUMPI POP POP JUMP JUMPDEST PUSH1 0x1 DUP2 SUB PUSH2 0x1A6D JUMPI PUSH1 0x40 MLOAD PUSH4 0xF645EEDF PUSH1 0xE0 SHL DUP2 MSTORE PUSH1 0x4 SWAP1 REVERT JUMPDEST PUSH1 0x2 DUP2 SUB PUSH2 0x1A8E JUMPI PUSH1 0x40 MLOAD PUSH4 0xFCE698F7 PUSH1 0xE0 SHL DUP2 MSTORE PUSH1 0x4 DUP2 ADD DUP4 SWAP1 MSTORE PUSH1 0x24 SWAP1 REVERT JUMPDEST PUSH1 0x3 EQ PUSH2 0x1A98 JUMPI POP JUMP JUMPDEST PUSH1 0x24 SWAP1 PUSH1 0x40 MLOAD SWAP1 PUSH4 0x35E2F383 PUSH1 0xE2 SHL DUP3 MSTORE PUSH1 0x4 DUP3 ADD MSTORE REVERT JUMPDEST PUSH4 0x4E487B71 PUSH1 0xE0 SHL PUSH1 0x0 MSTORE PUSH1 0x21 PUSH1 0x4 MSTORE PUSH1 0x24 PUSH1 0x0 REVERT INVALID LOG2 PUSH5 0x6970667358 0x22 SLT KECCAK256 0xF9 0x29 0x5D BLOCKHASH 0xDE 0x5E ADDMOD 0xF9 SAR 0xB3 0xC5 PUSH18 0x58DDD7E01FDB13638C70FC0E0E65EF07705E 0xF7 SWAP11 PUSH5 0x736F6C6343 STOP ADDMOD EQ STOP CALLER "},"methodIdentifiers":{"DOMAIN_SEPARATOR()":"3644e515","ORDER_TYPEHASH()":"f973a209","balances(address,address)":"c23f001f","cancelOrder((address,bytes32,uint256,bool,uint256,uint256,uint256,uint256))":"77decc58","cancelledOrders(bytes32)":"8f13f48e","conditionalTokens()":"5bd9e299","deposit(address,uint256)":"47e7ef24","feeRecipient()":"46904840","getOrderHash((address,bytes32,uint256,bool,uint256,uint256,uint256,uint256))":"d6394025","incrementNonce()":"627cdcb9","operators(address)":"13e7c9d8","orderFills(bytes32)":"f7213db6","owner()":"8da5cb5b","renounceOwnership()":"715018a6","setFeeRecipient(address)":"e74b981b","setOperator(address,bool)":"558a7297","setTradingFee(uint256)":"b0d54bcf","settleBatch(((address,bytes32,uint256,bool,uint256,uint256,uint256,uint256),bytes,(address,bytes32,uint256,bool,uint256,uint256,uint256,uint256),bytes,uint256)[])":"64d746b9","tradingFeeBps()":"924cca9a","transferOwnership(address)":"f2fde38b","userNonces(address)":"2f7801f4","withdraw(address,uint256)":"f3fef3a3"}}}}}