{"contracts/AdminOracle.sol":{"AdminOracle":{"abi":[{"inputs":[{"internalType":"address","name":"_conditionalTokens","type":"address"}],"stateMutability":"nonpayable","type":"constructor"},{"inputs":[],"name":"AccessControlBadConfirmation","type":"error"},{"inputs":[{"internalType":"address","name":"account","type":"address"},{"internalType":"bytes32","name":"neededRole","type":"bytes32"}],"name":"AccessControlUnauthorizedAccount","type":"error"},{"inputs":[{"internalType":"address","name":"owner","type":"address"}],"name":"OwnableInvalidOwner","type":"error"},{"inputs":[{"internalType":"address","name":"account","type":"address"}],"name":"OwnableUnauthorizedAccount","type":"error"},{"anonymous":false,"inputs":[{"indexed":false,"internalType":"uint256","name":"newPeriod","type":"uint256"}],"name":"ChallengePeriodUpdated","type":"event"},{"anonymous":false,"inputs":[{"indexed":true,"internalType":"address","name":"previousOwner","type":"address"},{"indexed":true,"internalType":"address","name":"newOwner","type":"address"}],"name":"OwnershipTransferred","type":"event"},{"anonymous":false,"inputs":[{"indexed":true,"internalType":"bytes32","name":"conditionId","type":"bytes32"}],"name":"ResolutionFinalized","type":"event"},{"anonymous":false,"inputs":[{"indexed":true,"internalType":"bytes32","name":"conditionId","type":"bytes32"},{"indexed":false,"internalType":"string","name":"reason","type":"string"}],"name":"ResolutionOverwritten","type":"event"},{"anonymous":false,"inputs":[{"indexed":true,"internalType":"bytes32","name":"conditionId","type":"bytes32"},{"indexed":false,"internalType":"uint256[]","name":"payoutNumerators","type":"uint256[]"},{"indexed":false,"internalType":"string","name":"resultSource","type":"string"}],"name":"ResolutionProposed","type":"event"},{"anonymous":false,"inputs":[{"indexed":true,"internalType":"bytes32","name":"role","type":"bytes32"},{"indexed":true,"internalType":"bytes32","name":"previousAdminRole","type":"bytes32"},{"indexed":true,"internalType":"bytes32","name":"newAdminRole","type":"bytes32"}],"name":"RoleAdminChanged","type":"event"},{"anonymous":false,"inputs":[{"indexed":true,"internalType":"bytes32","name":"role","type":"bytes32"},{"indexed":true,"internalType":"address","name":"account","type":"address"},{"indexed":true,"internalType":"address","name":"sender","type":"address"}],"name":"RoleGranted","type":"event"},{"anonymous":false,"inputs":[{"indexed":true,"internalType":"bytes32","name":"role","type":"bytes32"},{"indexed":true,"internalType":"address","name":"account","type":"address"},{"indexed":true,"internalType":"address","name":"sender","type":"address"}],"name":"RoleRevoked","type":"event"},{"inputs":[],"name":"DEFAULT_ADMIN_ROLE","outputs":[{"internalType":"bytes32","name":"","type":"bytes32"}],"stateMutability":"view","type":"function"},{"inputs":[],"name":"RESOLVER_ROLE","outputs":[{"internalType":"bytes32","name":"","type":"bytes32"}],"stateMutability":"view","type":"function"},{"inputs":[{"internalType":"address","name":"resolver","type":"address"}],"name":"addResolver","outputs":[],"stateMutability":"nonpayable","type":"function"},{"inputs":[],"name":"challengePeriod","outputs":[{"internalType":"uint256","name":"","type":"uint256"}],"stateMutability":"view","type":"function"},{"inputs":[],"name":"conditionalTokens","outputs":[{"internalType":"contract ConditionalTokens","name":"","type":"address"}],"stateMutability":"view","type":"function"},{"inputs":[{"internalType":"bytes32","name":"conditionId","type":"bytes32"},{"internalType":"uint256[]","name":"payoutNumerators","type":"uint256[]"},{"internalType":"string","name":"resultSource","type":"string"}],"name":"emergencyResolve","outputs":[],"stateMutability":"nonpayable","type":"function"},{"inputs":[{"internalType":"bytes32","name":"conditionId","type":"bytes32"}],"name":"finalizeResolution","outputs":[],"stateMutability":"nonpayable","type":"function"},{"inputs":[{"internalType":"bytes32","name":"conditionId","type":"bytes32"}],"name":"getPayoutNumerators","outputs":[{"internalType":"uint256[]","name":"","type":"uint256[]"}],"stateMutability":"view","type":"function"},{"inputs":[{"internalType":"bytes32","name":"conditionId","type":"bytes32"}],"name":"getProposal","outputs":[{"components":[{"internalType":"bytes32","name":"conditionId","type":"bytes32"},{"internalType":"uint256[]","name":"payoutNumerators","type":"uint256[]"},{"internalType":"uint256","name":"proposedAt","type":"uint256"},{"internalType":"bool","name":"finalized","type":"bool"},{"internalType":"string","name":"resultSource","type":"string"}],"internalType":"struct AdminOracle.ResolutionProposal","name":"","type":"tuple"}],"stateMutability":"view","type":"function"},{"inputs":[{"internalType":"bytes32","name":"role","type":"bytes32"}],"name":"getRoleAdmin","outputs":[{"internalType":"bytes32","name":"","type":"bytes32"}],"stateMutability":"view","type":"function"},{"inputs":[{"internalType":"bytes32","name":"role","type":"bytes32"},{"internalType":"address","name":"account","type":"address"}],"name":"grantRole","outputs":[],"stateMutability":"nonpayable","type":"function"},{"inputs":[{"internalType":"bytes32","name":"role","type":"bytes32"},{"internalType":"address","name":"account","type":"address"}],"name":"hasRole","outputs":[{"internalType":"bool","name":"","type":"bool"}],"stateMutability":"view","type":"function"},{"inputs":[],"name":"owner","outputs":[{"internalType":"address","name":"","type":"address"}],"stateMutability":"view","type":"function"},{"inputs":[{"internalType":"bytes32","name":"","type":"bytes32"}],"name":"proposals","outputs":[{"internalType":"bytes32","name":"conditionId","type":"bytes32"},{"internalType":"uint256","name":"proposedAt","type":"uint256"},{"internalType":"bool","name":"finalized","type":"bool"},{"internalType":"string","name":"resultSource","type":"string"}],"stateMutability":"view","type":"function"},{"inputs":[{"internalType":"bytes32","name":"conditionId","type":"bytes32"},{"internalType":"uint256[]","name":"payoutNumerators","type":"uint256[]"},{"internalType":"string","name":"resultSource","type":"string"}],"name":"proposeResolution","outputs":[],"stateMutability":"nonpayable","type":"function"},{"inputs":[{"internalType":"address","name":"resolver","type":"address"}],"name":"removeResolver","outputs":[],"stateMutability":"nonpayable","type":"function"},{"inputs":[],"name":"renounceOwnership","outputs":[],"stateMutability":"nonpayable","type":"function"},{"inputs":[{"internalType":"bytes32","name":"role","type":"bytes32"},{"internalType":"address","name":"callerConfirmation","type":"address"}],"name":"renounceRole","outputs":[],"stateMutability":"nonpayable","type":"function"},{"inputs":[{"internalType":"bytes32","name":"role","type":"bytes32"},{"internalType":"address","name":"account","type":"address"}],"name":"revokeRole","outputs":[],"stateMutability":"nonpayable","type":"function"},{"inputs":[{"internalType":"uint256","name":"_period","type":"uint256"}],"name":"setChallengePeriod","outputs":[],"stateMutability":"nonpayable","type":"function"},{"inputs":[{"internalType":"bytes4","name":"interfaceId","type":"bytes4"}],"name":"supportsInterface","outputs":[{"internalType":"bool","name":"","type":"bool"}],"stateMutability":"view","type":"function"},{"inputs":[{"internalType":"address","name":"newOwner","type":"address"}],"name":"transferOwnership","outputs":[],"stateMutability":"nonpayable","type":"function"}],"evm":{"bytecode":{"linkReferences":{},"object":"608034620000e857601f62001c5438819003918201601f19168301916001600160401b03831184841017620000ed57808492602094604052833981010312620000e857516001600160a01b0380821691829003620000e8573315620000cf5760005460018060a01b03199133838316176000553391167f8be0079c531659141344cd1fd0a4f28419497f9722a3daafe3b4186f6b6457e0600080a360006003556002541617600255620000b23362000103565b50620000be3362000184565b50604051611a0c9081620002288239f35b604051631e4fbdf760e01b815260006004820152602490fd5b600080fd5b634e487b7160e01b600052604160045260246000fd5b6001600160a01b031660008181527fa6eef7e35abe7026729641147f7915573c7e97b47efa546f5f6e3230263bcb49602052604081205490919060ff16620001805781805260016020526040822081835260205260408220600160ff19825416179055339160008051602062001c348339815191528180a4600190565b5090565b6001600160a01b031660008181527f75e26f58cca2d71dbbeeec7adfb8d72df51164003ce85ac5b2d9b2a24a39870660205260408120549091907f92a19c77d2ea87c7f81d50c74403cb2f401780f3ad919571121efe2bdb427eb19060ff16620002225780835260016020526040832082845260205260408320600160ff1982541617905560008051602062001c34833981519152339380a4600190565b50509056fe608080604052600436101561001357600080fd5b600090813560e01c90816301ffc9a71461104757508063248a9ca31461101b5780632f2ff15d14610fdd57806332ed5b1214610f7857806336568abe14610f30578063390a0b6f14610ee0578063430694cf14610df85780635bd9e29914610dcf5780635d475fdd14610d8157806363317cb2146109c55780636d996c911461096e578063715018a61461091457806378fab260146108eb5780638da5cb5b146108c457806391d1485414610878578063a133353614610828578063a217fddf1461080c578063d547741f146107ca578063de5464c2146102ca578063ea685565146101c3578063f2fde38b146101335763f3f480d91461011357600080fd5b346101305780600319360112610130576020600354604051908152f35b80fd5b50346101305760203660031901126101305761014d6110bf565b610155611590565b6001600160a01b039081169081156101aa57600054826bffffffffffffffffffffffff60a01b821617600055167f8be0079c531659141344cd1fd0a4f28419497f9722a3daafe3b4186f6b6457e0600080a380f35b604051631e4fbdf760e01b815260048101849052602490fd5b5034610130576020366003190112610130576004358082526004602052604082206002810154908115610297576003015460ff1661025e5760035461020791611783565b421061021957610216906118df565b80f35b60405162461bcd60e51b815260206004820152601760248201527f4368616c6c656e676520706572696f64206163746976650000000000000000006044820152606490fd5b60405162461bcd60e51b8152602060048201526011602482015270105b1c9958591e48199a5b985b1a5e9959607a1b6044820152606490fd5b60405162461bcd60e51b815260206004820152600b60248201526a139bc81c1c9bdc1bdcd85b60aa1b6044820152606490fd5b5034610130576102d936611299565b3360009081527f75e26f58cca2d71dbbeeec7adfb8d72df51164003ce85ac5b2d9b2a24a39870660209081526040909120546000805160206119b7833981519152979695939493929160019160ff16156107ab5760025460405163c3c95c7b60e01b81526004810189905260249a5090899082908c9082906001600160a01b03165afa9081156107a057899161077e575b5060408101908151156107425760c001516106fe5761038b9051861461173f565b87885b8681106106c8575015610685578688526004815260408820600281015415159081610675575b5061062a575b604051916103c78361110f565b8783526103d53687876117a6565b918084019283526040840193428552606081018b81526103f636888c6117f4565b95608083019687528b8d526004845260408d20925183558c85840196519687519167ffffffffffffffff9889841161061357600160401b841161061357879083548585558086106105f9575b500191815287878220915b8481106105e75750505050506004929161047f91516002840155511515600383019060ff801983541691151516179055565b01935180519384116105d4578a8a9b9c5061049d869b9a9b546110d5565b83601f821161059b575b5050508b82601f861160011461051c5750936104f9969593819382936000805160206119978339815191529c9d9794610511575b50501b916000199060031b1c19161790555b60405194859485611866565b0390a260035415610508575080f35b610216906118df565b0151925038806104db565b868252808220949594939291601f198616915b828210610581575050916000805160206119978339815191529a9b959391856104f99998969410610568575b505050811b0190556104ed565b015160001960f88460031b161c1916905538808061055b565b8385015186558e9c5094870194938401939081019061052f565b82886105c2945220601f870160051c8101918588106105ca575b601f0160051c019061182b565b8b38836104a7565b90915081906105b5565b634e487b7160e01b8b5260416004528b8bfd5b8884519401938184015501889061044d565b84845282842061060d91810190870161182b565b38610442565b5090508f9150634e487b7160e01b81526041600452fd5b867fd66fa4e3b90b395938378d54e5695d17dc5a6da78074bf2e7949fffdae27024d6060604051848152600c858201526b13995dc81c1c9bdc1bdcd85b60a21b6040820152a26103ba565b60ff9150600301541615386103b4565b60649060198a6040519262461bcd60e51b845260048401528201527f4d75737420686176652077696e6e696e67206f7574636f6d65000000000000006044820152fd5b906106da908260051b87013590611783565b9060001981146106eb57830161038e565b634e487b7160e01b8a5260116004528a8afd5b60405162461bcd60e51b8152600481018390526019818c01527f416c7265616479207265736f6c766564206f6e20636861696e000000000000006044820152606490fd5b60405162461bcd60e51b8152600481018490526015818d01527413585c9ad95d08191bd95cc81b9bdd08195e1a5cdd605a1b6044820152606490fd5b61079a91503d808b833e6107928183611155565b8101906115f0565b3861036a565b6040513d8b823e3d90fd5b60405163e2517d3f60e01b8152336004820152602481018a9052604490fd5b5034610130576040366003190112610130576108086004356107ea6110a4565b908084526001602052610803600160408620015461131f565b611519565b5080f35b5034610130578060031936011261013057602090604051908152f35b5034610130576020366003190112610130576108086108456110bf565b61084d611590565b6000805160206119b783398151915283526001602052610873600160408520015461131f565b61147f565b50346101305760403660031901126101305760406108946110a4565b9160043581526001602052209060018060a01b0316600052602052602060ff604060002054166040519015158152f35b5034610130578060031936011261013057546040516001600160a01b039091168152602090f35b503461013057806003193601126101305760206040516000805160206119b78339815191528152f35b503461013057806003193601126101305761092d611590565b600080546001600160a01b0319811682556001600160a01b03167f8be0079c531659141344cd1fd0a4f28419497f9722a3daafe3b4186f6b6457e08280a380f35b5034610130576020366003190112610130576109a66109ad600160406109c194600435815260046020522001604051928380926118a2565b0382611155565b604051918291602083526020830190611265565b0390f35b5034610130576109d436611299565b906109e0939293611590565b60025460405163c3c95c7b60e01b815260048101879052908790829060249082906001600160a01b03165afa908115610c1e578791610d67575b5060c0810151610d2f576040610a33910151851461173f565b604051610a3f8161110f565b858152610a4d3686866117a6565b906020810191825260408101428152606082019060018252610a703687876117f4565b6080840152888a52600460205260408a2093835185555180519067ffffffffffffffff8211610d1b57600160401b8211610d1b57602060018701918d835485855585818110610d00575b50505001908c5260208c208c5b838110610cec575050505060809291610af891516002860155511515600385019060ff801983541691151516179055565b015180519067ffffffffffffffff8211610cd857610b1960048401546110d5565b601f8111610ca5575b50602090601f8311600114610c3857600492918a9183610c2d575b50508160011b916000199060031b1c1916179101555b6002546001600160a01b0316803b15610c295786604051809263d5ffd93560e01b825288600483015260406024830152818381610b94604482018c8c611842565b03925af18015610c1e57610bf1575b5091610bc78594926000805160206119978339815191529460405194859485611866565b0390a27f4d9db1a2f6b8d06dab17e9e5b1c4883ea6c6b230063e72c4ee6cc1143744c2888280a280f35b859492600080516020611997833981519152949297610c12610bc793611141565b97929450929450610ba3565b6040513d89823e3d90fd5b8680fd5b015190503880610b3d565b90600484018a5260208a20918a5b601f1985168110610c8d5750918391600193600495601f19811610610c74575b505050811b01910155610b53565b015160001960f88460031b161c19169055388080610c66565b91926020600181928685015181550194019201610c46565b610cd290600485018b5260208b20601f850160051c810191602086106105ca57601f0160051c019061182b565b38610b22565b634e487b7160e01b89526041600452602489fd5b600190602084519401938184015501610ac7565b848387610d13955220918201910161182b565b8d3885610aba565b634e487b7160e01b8c52604160045260248cfd5b60405162461bcd60e51b815260206004820152601060248201526f105b1c9958591e481c995cdbdb1d995960821b6044820152606490fd5b610d7b91503d8089833e6107928183611155565b38610a1a565b5034610130576020366003190112610130577f51df27ef8d4882ded82aa403cd74bcd8aaa267c36dc91cab36ed396f8dbfd2e16020600435610dc1611590565b80600355604051908152a180f35b50346101305780600319360112610130576002546040516001600160a01b039091168152602090f35b5034610130576020908160031936011261013057604090606060808351610e1e8161110f565b8381528286820152838582015283838201520152600435815260048352206109c160405191610e4c8361110f565b80548352604051610e64816109a681600186016118a2565b84840190815260028201549160408501928352610ebf610e97600460ff6003850154169360608901941515855201611177565b926080870193845260405197889781895251908801525160a0604088015260c0870190611265565b92516060860152511515608085015251838203601f190160a0850152611240565b503461013057602036600319011261013057610808610efd6110bf565b610f05611590565b6000805160206119b783398151915283526001602052610f2b600160408520015461131f565b611363565b503461013057604036600319011261013057610f4a6110a4565b336001600160a01b03821603610f665761080890600435611519565b60405163334bd91960e11b8152600490fd5b503461013057602036600319011261013057604090600435815260046020522080546109c1600283015492610fb7600460ff6003840154169201611177565b906040519485948552602085015215156040840152608060608401526080830190611240565b503461013057604036600319011261013057610808600435610ffd6110a4565b908084526001602052611016600160408620015461131f565b611404565b503461013057602036600319011261013057600160406020926004358152828452200154604051908152f35b9050346110a05760203660031901126110a05760043563ffffffff60e01b811680910361109c5760209250637965db0b60e01b811490811561108b575b5015158152f35b6301ffc9a760e01b14905038611084565b8280fd5b5080fd5b602435906001600160a01b03821682036110ba57565b600080fd5b600435906001600160a01b03821682036110ba57565b90600182811c92168015611105575b60208310146110ef57565b634e487b7160e01b600052602260045260246000fd5b91607f16916110e4565b60a0810190811067ffffffffffffffff82111761112b57604052565b634e487b7160e01b600052604160045260246000fd5b67ffffffffffffffff811161112b57604052565b90601f8019910116810190811067ffffffffffffffff82111761112b57604052565b906040519182600082549261118b846110d5565b9081845260019485811690816000146111fa57506001146111b7575b50506111b592500383611155565b565b9093915060005260209081600020936000915b8183106111e25750506111b5935082010138806111a7565b855488840185015294850194879450918301916111ca565b9150506111b594506020925060ff191682840152151560051b82010138806111a7565b60005b8381106112305750506000910152565b8181015183820152602001611220565b906020916112598151809281855285808601910161121d565b601f01601f1916010190565b90815180825260208080930193019160005b828110611285575050505090565b835185529381019392810192600101611277565b9060606003198301126110ba57600435916024359167ffffffffffffffff908184116110ba57826023850112156110ba578360040135938285116110ba578360248660051b830101116110ba576024019392604435908382116110ba57806023830112156110ba5781600401359384116110ba57602484830101116110ba576024019190565b80600052600160205260406000203360005260205260ff60406000205416156113455750565b6044906040519063e2517d3f60e01b82523360048301526024820152fd5b6001600160a01b031660008181527f75e26f58cca2d71dbbeeec7adfb8d72df51164003ce85ac5b2d9b2a24a39870660205260408120549091906000805160206119b78339815191529060ff166113ff5780835260016020526040832082845260205260408320600160ff198254161790557f2f8788117e7eff1d82e926ec794901d17c78024a50270940304540a733656f0d339380a4600190565b505090565b906000918083526001602052604083209160018060a01b03169182845260205260ff604084205416156000146113ff5780835260016020526040832082845260205260408320600160ff198254161790557f2f8788117e7eff1d82e926ec794901d17c78024a50270940304540a733656f0d339380a4600190565b6001600160a01b031660008181527f75e26f58cca2d71dbbeeec7adfb8d72df51164003ce85ac5b2d9b2a24a39870660205260408120549091906000805160206119b78339815191529060ff16156113ff578083526001602052604083208284526020526040832060ff1981541690557ff6391f5c32d9c69d2a47ea670b442974b53935d1edc7fd64eb21e047a839171b339380a4600190565b906000918083526001602052604083209160018060a01b03169182845260205260ff6040842054166000146113ff578083526001602052604083208284526020526040832060ff1981541690557ff6391f5c32d9c69d2a47ea670b442974b53935d1edc7fd64eb21e047a839171b339380a4600190565b6000546001600160a01b031633036115a457565b60405163118cdaa760e01b8152336004820152602490fd5b67ffffffffffffffff811161112b5760051b60200190565b67ffffffffffffffff811161112b57601f01601f191660200190565b90602080838303126110ba57825167ffffffffffffffff938482116110ba5701916101009384848303126110ba5760409384519586018681108382111761112b57855280518652838101516001600160a01b03811681036110ba578487015284810151858701526060810151606087015260808101518281116110ba57810183601f820112156110ba57805190611686826115bc565b9161169388519384611155565b808352868084019160051b830101918683116110ba5787809101915b83831061172f5750505050608087015260a081015160a087015260c081015180151581036110ba5760c087015260e08101519182116110ba570181601f820112156110ba5780519161170c611703846115d4565b95519586611155565b8285528383830101116110ba5782611727938501910161121d565b60e082015290565b82518152918101918891016116af565b1561174657565b60405162461bcd60e51b8152602060048201526015602482015274092dcecc2d8d2c840e0c2f2deeae840d8cadccee8d605b1b6044820152606490fd5b9190820180921161179057565b634e487b7160e01b600052601160045260246000fd5b92916117b1826115bc565b916117bf6040519384611155565b829481845260208094019160051b81019283116110ba57905b8282106117e55750505050565b813581529083019083016117d8565b929192611800826115d4565b9161180e6040519384611155565b8294818452818301116110ba578281602093846000960137010152565b818110611836575050565b6000815560010161182b565b81835290916001600160fb1b0383116110ba5760209260051b809284830137010190565b9261187f85939260209693604087526040870191611842565b9385818603910152818452848401376000828201840152601f01601f1916010190565b90815480825260208092019260005281600020916000905b8282106118c8575050505090565b8354855293840193600193840193909101906118ba565b600081815260046020526040812060038101805460ff191660011790556002546001600160a01b031690813b1561109c576119448392839260405194858094819363d5ffd93560e01b83528a60048401526040602484015260016044840191016118a2565b03925af1801561198b57907f4d9db1a2f6b8d06dab17e9e5b1c4883ea6c6b230063e72c4ee6cc1143744c288929161197c575b5080a2565b61198590611141565b38611977565b6040513d84823e3d90fdfe27681e3e622586071759d981490706e981dd90cbb9d0e895928556bf2039bafa92a19c77d2ea87c7f81d50c74403cb2f401780f3ad919571121efe2bdb427eb1a2646970667358221220cdb2ce3c704e5319bcf4b959e2845de06b050d0470b87526f418ef69076afe7d64736f6c634300081400332f8788117e7eff1d82e926ec794901d17c78024a50270940304540a733656f0d","opcodes":"PUSH1 0x80 CALLVALUE PUSH3 0xE8 JUMPI PUSH1 0x1F PUSH3 0x1C54 CODESIZE DUP2 SWAP1 SUB SWAP2 DUP3 ADD PUSH1 0x1F NOT AND DUP4 ADD SWAP2 PUSH1 0x1 PUSH1 0x1 PUSH1 0x40 SHL SUB DUP4 GT DUP5 DUP5 LT OR PUSH3 0xED JUMPI DUP1 DUP5 SWAP3 PUSH1 0x20 SWAP5 PUSH1 0x40 MSTORE DUP4 CODECOPY DUP2 ADD SUB SLT PUSH3 0xE8 JUMPI MLOAD PUSH1 0x1 PUSH1 0x1 PUSH1 0xA0 SHL SUB DUP1 DUP3 AND SWAP2 DUP3 SWAP1 SUB PUSH3 0xE8 JUMPI CALLER ISZERO PUSH3 0xCF JUMPI PUSH1 0x0 SLOAD PUSH1 0x1 DUP1 PUSH1 0xA0 SHL SUB NOT SWAP2 CALLER DUP4 DUP4 AND OR PUSH1 0x0 SSTORE CALLER SWAP2 AND PUSH32 0x8BE0079C531659141344CD1FD0A4F28419497F9722A3DAAFE3B4186F6B6457E0 PUSH1 0x0 DUP1 LOG3 PUSH1 0x0 PUSH1 0x3 SSTORE PUSH1 0x2 SLOAD AND OR PUSH1 0x2 SSTORE PUSH3 0xB2 CALLER PUSH3 0x103 JUMP JUMPDEST POP PUSH3 0xBE CALLER PUSH3 0x184 JUMP JUMPDEST POP PUSH1 0x40 MLOAD PUSH2 0x1A0C SWAP1 DUP2 PUSH3 0x228 DUP3 CODECOPY RETURN JUMPDEST PUSH1 0x40 MLOAD PUSH4 0x1E4FBDF7 PUSH1 0xE0 SHL DUP2 MSTORE PUSH1 0x0 PUSH1 0x4 DUP3 ADD MSTORE PUSH1 0x24 SWAP1 REVERT JUMPDEST PUSH1 0x0 DUP1 REVERT JUMPDEST PUSH4 0x4E487B71 PUSH1 0xE0 SHL PUSH1 0x0 MSTORE PUSH1 0x41 PUSH1 0x4 MSTORE PUSH1 0x24 PUSH1 0x0 REVERT JUMPDEST PUSH1 0x1 PUSH1 0x1 PUSH1 0xA0 SHL SUB AND PUSH1 0x0 DUP2 DUP2 MSTORE PUSH32 0xA6EEF7E35ABE7026729641147F7915573C7E97B47EFA546F5F6E3230263BCB49 PUSH1 0x20 MSTORE PUSH1 0x40 DUP2 KECCAK256 SLOAD SWAP1 SWAP2 SWAP1 PUSH1 0xFF AND PUSH3 0x180 JUMPI DUP2 DUP1 MSTORE PUSH1 0x1 PUSH1 0x20 MSTORE PUSH1 0x40 DUP3 KECCAK256 DUP2 DUP4 MSTORE PUSH1 0x20 MSTORE PUSH1 0x40 DUP3 KECCAK256 PUSH1 0x1 PUSH1 0xFF NOT DUP3 SLOAD AND OR SWAP1 SSTORE CALLER SWAP2 PUSH1 0x0 DUP1 MLOAD PUSH1 0x20 PUSH3 0x1C34 DUP4 CODECOPY DUP2 MLOAD SWAP2 MSTORE DUP2 DUP1 LOG4 PUSH1 0x1 SWAP1 JUMP JUMPDEST POP SWAP1 JUMP JUMPDEST PUSH1 0x1 PUSH1 0x1 PUSH1 0xA0 SHL SUB AND PUSH1 0x0 DUP2 DUP2 MSTORE PUSH32 0x75E26F58CCA2D71DBBEEEC7ADFB8D72DF51164003CE85AC5B2D9B2A24A398706 PUSH1 0x20 MSTORE PUSH1 0x40 DUP2 KECCAK256 SLOAD SWAP1 SWAP2 SWAP1 PUSH32 0x92A19C77D2EA87C7F81D50C74403CB2F401780F3AD919571121EFE2BDB427EB1 SWAP1 PUSH1 0xFF AND PUSH3 0x222 JUMPI DUP1 DUP4 MSTORE PUSH1 0x1 PUSH1 0x20 MSTORE PUSH1 0x40 DUP4 KECCAK256 DUP3 DUP5 MSTORE PUSH1 0x20 MSTORE PUSH1 0x40 DUP4 KECCAK256 PUSH1 0x1 PUSH1 0xFF NOT DUP3 SLOAD AND OR SWAP1 SSTORE PUSH1 0x0 DUP1 MLOAD PUSH1 0x20 PUSH3 0x1C34 DUP4 CODECOPY DUP2 MLOAD SWAP2 MSTORE CALLER SWAP4 DUP1 LOG4 PUSH1 0x1 SWAP1 JUMP JUMPDEST POP POP SWAP1 JUMP INVALID PUSH1 0x80 DUP1 PUSH1 0x40 MSTORE PUSH1 0x4 CALLDATASIZE LT ISZERO PUSH2 0x13 JUMPI PUSH1 0x0 DUP1 REVERT JUMPDEST PUSH1 0x0 SWAP1 DUP2 CALLDATALOAD PUSH1 0xE0 SHR SWAP1 DUP2 PUSH4 0x1FFC9A7 EQ PUSH2 0x1047 JUMPI POP DUP1 PUSH4 0x248A9CA3 EQ PUSH2 0x101B JUMPI DUP1 PUSH4 0x2F2FF15D EQ PUSH2 0xFDD JUMPI DUP1 PUSH4 0x32ED5B12 EQ PUSH2 0xF78 JUMPI DUP1 PUSH4 0x36568ABE EQ PUSH2 0xF30 JUMPI DUP1 PUSH4 0x390A0B6F EQ PUSH2 0xEE0 JUMPI DUP1 PUSH4 0x430694CF EQ PUSH2 0xDF8 JUMPI DUP1 PUSH4 0x5BD9E299 EQ PUSH2 0xDCF JUMPI DUP1 PUSH4 0x5D475FDD EQ PUSH2 0xD81 JUMPI DUP1 PUSH4 0x63317CB2 EQ PUSH2 0x9C5 JUMPI DUP1 PUSH4 0x6D996C91 EQ PUSH2 0x96E JUMPI DUP1 PUSH4 0x715018A6 EQ PUSH2 0x914 JUMPI DUP1 PUSH4 0x78FAB260 EQ PUSH2 0x8EB JUMPI DUP1 PUSH4 0x8DA5CB5B EQ PUSH2 0x8C4 JUMPI DUP1 PUSH4 0x91D14854 EQ PUSH2 0x878 JUMPI DUP1 PUSH4 0xA1333536 EQ PUSH2 0x828 JUMPI DUP1 PUSH4 0xA217FDDF EQ PUSH2 0x80C JUMPI DUP1 PUSH4 0xD547741F EQ PUSH2 0x7CA JUMPI DUP1 PUSH4 0xDE5464C2 EQ PUSH2 0x2CA JUMPI DUP1 PUSH4 0xEA685565 EQ PUSH2 0x1C3 JUMPI DUP1 PUSH4 0xF2FDE38B EQ PUSH2 0x133 JUMPI PUSH4 0xF3F480D9 EQ PUSH2 0x113 JUMPI PUSH1 0x0 DUP1 REVERT JUMPDEST CALLVALUE PUSH2 0x130 JUMPI DUP1 PUSH1 0x3 NOT CALLDATASIZE ADD SLT PUSH2 0x130 JUMPI PUSH1 0x20 PUSH1 0x3 SLOAD PUSH1 0x40 MLOAD SWAP1 DUP2 MSTORE RETURN JUMPDEST DUP1 REVERT JUMPDEST POP CALLVALUE PUSH2 0x130 JUMPI PUSH1 0x20 CALLDATASIZE PUSH1 0x3 NOT ADD SLT PUSH2 0x130 JUMPI PUSH2 0x14D PUSH2 0x10BF JUMP JUMPDEST PUSH2 0x155 PUSH2 0x1590 JUMP JUMPDEST PUSH1 0x1 PUSH1 0x1 PUSH1 0xA0 SHL SUB SWAP1 DUP2 AND SWAP1 DUP2 ISZERO PUSH2 0x1AA JUMPI PUSH1 0x0 SLOAD DUP3 PUSH12 0xFFFFFFFFFFFFFFFFFFFFFFFF PUSH1 0xA0 SHL DUP3 AND OR PUSH1 0x0 SSTORE AND PUSH32 0x8BE0079C531659141344CD1FD0A4F28419497F9722A3DAAFE3B4186F6B6457E0 PUSH1 0x0 DUP1 LOG3 DUP1 RETURN JUMPDEST PUSH1 0x40 MLOAD PUSH4 0x1E4FBDF7 PUSH1 0xE0 SHL DUP2 MSTORE PUSH1 0x4 DUP2 ADD DUP5 SWAP1 MSTORE PUSH1 0x24 SWAP1 REVERT JUMPDEST POP CALLVALUE PUSH2 0x130 JUMPI PUSH1 0x20 CALLDATASIZE PUSH1 0x3 NOT ADD SLT PUSH2 0x130 JUMPI PUSH1 0x4 CALLDATALOAD DUP1 DUP3 MSTORE PUSH1 0x4 PUSH1 0x20 MSTORE PUSH1 0x40 DUP3 KECCAK256 PUSH1 0x2 DUP2 ADD SLOAD SWAP1 DUP2 ISZERO PUSH2 0x297 JUMPI PUSH1 0x3 ADD SLOAD PUSH1 0xFF AND PUSH2 0x25E JUMPI PUSH1 0x3 SLOAD PUSH2 0x207 SWAP2 PUSH2 0x1783 JUMP JUMPDEST TIMESTAMP LT PUSH2 0x219 JUMPI PUSH2 0x216 SWAP1 PUSH2 0x18DF JUMP JUMPDEST DUP1 RETURN JUMPDEST PUSH1 0x40 MLOAD PUSH3 0x461BCD PUSH1 0xE5 SHL DUP2 MSTORE PUSH1 0x20 PUSH1 0x4 DUP3 ADD MSTORE PUSH1 0x17 PUSH1 0x24 DUP3 ADD MSTORE PUSH32 0x4368616C6C656E676520706572696F6420616374697665000000000000000000 PUSH1 0x44 DUP3 ADD MSTORE PUSH1 0x64 SWAP1 REVERT JUMPDEST PUSH1 0x40 MLOAD PUSH3 0x461BCD PUSH1 0xE5 SHL DUP2 MSTORE PUSH1 0x20 PUSH1 0x4 DUP3 ADD MSTORE PUSH1 0x11 PUSH1 0x24 DUP3 ADD MSTORE PUSH17 0x105B1C9958591E48199A5B985B1A5E9959 PUSH1 0x7A SHL PUSH1 0x44 DUP3 ADD MSTORE PUSH1 0x64 SWAP1 REVERT JUMPDEST PUSH1 0x40 MLOAD PUSH3 0x461BCD PUSH1 0xE5 SHL DUP2 MSTORE PUSH1 0x20 PUSH1 0x4 DUP3 ADD MSTORE PUSH1 0xB PUSH1 0x24 DUP3 ADD MSTORE PUSH11 0x139BC81C1C9BDC1BDCD85B PUSH1 0xAA SHL PUSH1 0x44 DUP3 ADD MSTORE PUSH1 0x64 SWAP1 REVERT JUMPDEST POP CALLVALUE PUSH2 0x130 JUMPI PUSH2 0x2D9 CALLDATASIZE PUSH2 0x1299 JUMP JUMPDEST CALLER PUSH1 0x0 SWAP1 DUP2 MSTORE PUSH32 0x75E26F58CCA2D71DBBEEEC7ADFB8D72DF51164003CE85AC5B2D9B2A24A398706 PUSH1 0x20 SWAP1 DUP2 MSTORE PUSH1 0x40 SWAP1 SWAP2 KECCAK256 SLOAD PUSH1 0x0 DUP1 MLOAD PUSH1 0x20 PUSH2 0x19B7 DUP4 CODECOPY DUP2 MLOAD SWAP2 MSTORE SWAP8 SWAP7 SWAP6 SWAP4 SWAP5 SWAP4 SWAP3 SWAP2 PUSH1 0x1 SWAP2 PUSH1 0xFF AND ISZERO PUSH2 0x7AB JUMPI PUSH1 0x2 SLOAD PUSH1 0x40 MLOAD PUSH4 0xC3C95C7B PUSH1 0xE0 SHL DUP2 MSTORE PUSH1 0x4 DUP2 ADD DUP10 SWAP1 MSTORE PUSH1 0x24 SWAP11 POP SWAP1 DUP10 SWAP1 DUP3 SWAP1 DUP13 SWAP1 DUP3 SWAP1 PUSH1 0x1 PUSH1 0x1 PUSH1 0xA0 SHL SUB AND GAS STATICCALL SWAP1 DUP2 ISZERO PUSH2 0x7A0 JUMPI DUP10 SWAP2 PUSH2 0x77E JUMPI JUMPDEST POP PUSH1 0x40 DUP2 ADD SWAP1 DUP2 MLOAD ISZERO PUSH2 0x742 JUMPI PUSH1 0xC0 ADD MLOAD PUSH2 0x6FE JUMPI PUSH2 0x38B SWAP1 MLOAD DUP7 EQ PUSH2 0x173F JUMP JUMPDEST DUP8 DUP9 JUMPDEST DUP7 DUP2 LT PUSH2 0x6C8 JUMPI POP ISZERO PUSH2 0x685 JUMPI DUP7 DUP9 MSTORE PUSH1 0x4 DUP2 MSTORE PUSH1 0x40 DUP9 KECCAK256 PUSH1 0x2 DUP2 ADD SLOAD ISZERO ISZERO SWAP1 DUP2 PUSH2 0x675 JUMPI JUMPDEST POP PUSH2 0x62A JUMPI JUMPDEST PUSH1 0x40 MLOAD SWAP2 PUSH2 0x3C7 DUP4 PUSH2 0x110F JUMP JUMPDEST DUP8 DUP4 MSTORE PUSH2 0x3D5 CALLDATASIZE DUP8 DUP8 PUSH2 0x17A6 JUMP JUMPDEST SWAP2 DUP1 DUP5 ADD SWAP3 DUP4 MSTORE PUSH1 0x40 DUP5 ADD SWAP4 TIMESTAMP DUP6 MSTORE PUSH1 0x60 DUP2 ADD DUP12 DUP2 MSTORE PUSH2 0x3F6 CALLDATASIZE DUP9 DUP13 PUSH2 0x17F4 JUMP JUMPDEST SWAP6 PUSH1 0x80 DUP4 ADD SWAP7 DUP8 MSTORE DUP12 DUP14 MSTORE PUSH1 0x4 DUP5 MSTORE PUSH1 0x40 DUP14 KECCAK256 SWAP3 MLOAD DUP4 SSTORE DUP13 DUP6 DUP5 ADD SWAP7 MLOAD SWAP7 DUP8 MLOAD SWAP2 PUSH8 0xFFFFFFFFFFFFFFFF SWAP9 DUP10 DUP5 GT PUSH2 0x613 JUMPI PUSH1 0x1 PUSH1 0x40 SHL DUP5 GT PUSH2 0x613 JUMPI DUP8 SWAP1 DUP4 SLOAD DUP6 DUP6 SSTORE DUP1 DUP7 LT PUSH2 0x5F9 JUMPI JUMPDEST POP ADD SWAP2 DUP2 MSTORE DUP8 DUP8 DUP3 KECCAK256 SWAP2 JUMPDEST DUP5 DUP2 LT PUSH2 0x5E7 JUMPI POP POP POP POP POP PUSH1 0x4 SWAP3 SWAP2 PUSH2 0x47F SWAP2 MLOAD PUSH1 0x2 DUP5 ADD SSTORE MLOAD ISZERO ISZERO PUSH1 0x3 DUP4 ADD SWAP1 PUSH1 0xFF DUP1 NOT DUP4 SLOAD AND SWAP2 ISZERO ISZERO AND OR SWAP1 SSTORE JUMP JUMPDEST ADD SWAP4 MLOAD DUP1 MLOAD SWAP4 DUP5 GT PUSH2 0x5D4 JUMPI DUP11 DUP11 SWAP12 SWAP13 POP PUSH2 0x49D DUP7 SWAP12 SWAP11 SWAP12 SLOAD PUSH2 0x10D5 JUMP JUMPDEST DUP4 PUSH1 0x1F DUP3 GT PUSH2 0x59B JUMPI JUMPDEST POP POP POP DUP12 DUP3 PUSH1 0x1F DUP7 GT PUSH1 0x1 EQ PUSH2 0x51C JUMPI POP SWAP4 PUSH2 0x4F9 SWAP7 SWAP6 SWAP4 DUP2 SWAP4 DUP3 SWAP4 PUSH1 0x0 DUP1 MLOAD PUSH1 0x20 PUSH2 0x1997 DUP4 CODECOPY DUP2 MLOAD SWAP2 MSTORE SWAP13 SWAP14 SWAP8 SWAP5 PUSH2 0x511 JUMPI JUMPDEST POP POP SHL SWAP2 PUSH1 0x0 NOT SWAP1 PUSH1 0x3 SHL SHR NOT AND OR SWAP1 SSTORE JUMPDEST PUSH1 0x40 MLOAD SWAP5 DUP6 SWAP5 DUP6 PUSH2 0x1866 JUMP JUMPDEST SUB SWAP1 LOG2 PUSH1 0x3 SLOAD ISZERO PUSH2 0x508 JUMPI POP DUP1 RETURN JUMPDEST PUSH2 0x216 SWAP1 PUSH2 0x18DF JUMP JUMPDEST ADD MLOAD SWAP3 POP CODESIZE DUP1 PUSH2 0x4DB JUMP JUMPDEST DUP7 DUP3 MSTORE DUP1 DUP3 KECCAK256 SWAP5 SWAP6 SWAP5 SWAP4 SWAP3 SWAP2 PUSH1 0x1F NOT DUP7 AND SWAP2 JUMPDEST DUP3 DUP3 LT PUSH2 0x581 JUMPI POP POP SWAP2 PUSH1 0x0 DUP1 MLOAD PUSH1 0x20 PUSH2 0x1997 DUP4 CODECOPY DUP2 MLOAD SWAP2 MSTORE SWAP11 SWAP12 SWAP6 SWAP4 SWAP2 DUP6 PUSH2 0x4F9 SWAP10 SWAP9 SWAP7 SWAP5 LT PUSH2 0x568 JUMPI JUMPDEST POP POP POP DUP2 SHL ADD SWAP1 SSTORE PUSH2 0x4ED JUMP JUMPDEST ADD MLOAD PUSH1 0x0 NOT PUSH1 0xF8 DUP5 PUSH1 0x3 SHL AND SHR NOT AND SWAP1 SSTORE CODESIZE DUP1 DUP1 PUSH2 0x55B JUMP JUMPDEST DUP4 DUP6 ADD MLOAD DUP7 SSTORE DUP15 SWAP13 POP SWAP5 DUP8 ADD SWAP5 SWAP4 DUP5 ADD SWAP4 SWAP1 DUP2 ADD SWAP1 PUSH2 0x52F JUMP JUMPDEST DUP3 DUP9 PUSH2 0x5C2 SWAP5 MSTORE KECCAK256 PUSH1 0x1F DUP8 ADD PUSH1 0x5 SHR DUP2 ADD SWAP2 DUP6 DUP9 LT PUSH2 0x5CA JUMPI JUMPDEST PUSH1 0x1F ADD PUSH1 0x5 SHR ADD SWAP1 PUSH2 0x182B JUMP JUMPDEST DUP12 CODESIZE DUP4 PUSH2 0x4A7 JUMP JUMPDEST SWAP1 SWAP2 POP DUP2 SWAP1 PUSH2 0x5B5 JUMP JUMPDEST PUSH4 0x4E487B71 PUSH1 0xE0 SHL DUP12 MSTORE PUSH1 0x41 PUSH1 0x4 MSTORE DUP12 DUP12 REVERT JUMPDEST DUP9 DUP5 MLOAD SWAP5 ADD SWAP4 DUP2 DUP5 ADD SSTORE ADD DUP9 SWAP1 PUSH2 0x44D JUMP JUMPDEST DUP5 DUP5 MSTORE DUP3 DUP5 KECCAK256 PUSH2 0x60D SWAP2 DUP2 ADD SWAP1 DUP8 ADD PUSH2 0x182B JUMP JUMPDEST CODESIZE PUSH2 0x442 JUMP JUMPDEST POP SWAP1 POP DUP16 SWAP2 POP PUSH4 0x4E487B71 PUSH1 0xE0 SHL DUP2 MSTORE PUSH1 0x41 PUSH1 0x4 MSTORE REVERT JUMPDEST DUP7 PUSH32 0xD66FA4E3B90B395938378D54E5695D17DC5A6DA78074BF2E7949FFFDAE27024D PUSH1 0x60 PUSH1 0x40 MLOAD DUP5 DUP2 MSTORE PUSH1 0xC DUP6 DUP3 ADD MSTORE PUSH12 0x13995DC81C1C9BDC1BDCD85B PUSH1 0xA2 SHL PUSH1 0x40 DUP3 ADD MSTORE LOG2 PUSH2 0x3BA JUMP JUMPDEST PUSH1 0xFF SWAP2 POP PUSH1 0x3 ADD SLOAD AND ISZERO CODESIZE PUSH2 0x3B4 JUMP JUMPDEST PUSH1 0x64 SWAP1 PUSH1 0x19 DUP11 PUSH1 0x40 MLOAD SWAP3 PUSH3 0x461BCD PUSH1 0xE5 SHL DUP5 MSTORE PUSH1 0x4 DUP5 ADD MSTORE DUP3 ADD MSTORE PUSH32 0x4D75737420686176652077696E6E696E67206F7574636F6D6500000000000000 PUSH1 0x44 DUP3 ADD MSTORE REVERT JUMPDEST SWAP1 PUSH2 0x6DA SWAP1 DUP3 PUSH1 0x5 SHL DUP8 ADD CALLDATALOAD SWAP1 PUSH2 0x1783 JUMP JUMPDEST SWAP1 PUSH1 0x0 NOT DUP2 EQ PUSH2 0x6EB JUMPI DUP4 ADD PUSH2 0x38E JUMP JUMPDEST PUSH4 0x4E487B71 PUSH1 0xE0 SHL DUP11 MSTORE PUSH1 0x11 PUSH1 0x4 MSTORE DUP11 DUP11 REVERT JUMPDEST PUSH1 0x40 MLOAD PUSH3 0x461BCD PUSH1 0xE5 SHL DUP2 MSTORE PUSH1 0x4 DUP2 ADD DUP4 SWAP1 MSTORE PUSH1 0x19 DUP2 DUP13 ADD MSTORE PUSH32 0x416C7265616479207265736F6C766564206F6E20636861696E00000000000000 PUSH1 0x44 DUP3 ADD MSTORE PUSH1 0x64 SWAP1 REVERT JUMPDEST PUSH1 0x40 MLOAD PUSH3 0x461BCD PUSH1 0xE5 SHL DUP2 MSTORE PUSH1 0x4 DUP2 ADD DUP5 SWAP1 MSTORE PUSH1 0x15 DUP2 DUP14 ADD MSTORE PUSH21 0x13585C9AD95D08191BD95CC81B9BDD08195E1A5CDD PUSH1 0x5A SHL PUSH1 0x44 DUP3 ADD MSTORE PUSH1 0x64 SWAP1 REVERT JUMPDEST PUSH2 0x79A SWAP2 POP RETURNDATASIZE DUP1 DUP12 DUP4 RETURNDATACOPY PUSH2 0x792 DUP2 DUP4 PUSH2 0x1155 JUMP JUMPDEST DUP2 ADD SWAP1 PUSH2 0x15F0 JUMP JUMPDEST CODESIZE PUSH2 0x36A JUMP JUMPDEST PUSH1 0x40 MLOAD RETURNDATASIZE DUP12 DUP3 RETURNDATACOPY RETURNDATASIZE SWAP1 REVERT JUMPDEST PUSH1 0x40 MLOAD PUSH4 0xE2517D3F PUSH1 0xE0 SHL DUP2 MSTORE CALLER PUSH1 0x4 DUP3 ADD MSTORE PUSH1 0x24 DUP2 ADD DUP11 SWAP1 MSTORE PUSH1 0x44 SWAP1 REVERT JUMPDEST POP CALLVALUE PUSH2 0x130 JUMPI PUSH1 0x40 CALLDATASIZE PUSH1 0x3 NOT ADD SLT PUSH2 0x130 JUMPI PUSH2 0x808 PUSH1 0x4 CALLDATALOAD PUSH2 0x7EA PUSH2 0x10A4 JUMP JUMPDEST SWAP1 DUP1 DUP5 MSTORE PUSH1 0x1 PUSH1 0x20 MSTORE PUSH2 0x803 PUSH1 0x1 PUSH1 0x40 DUP7 KECCAK256 ADD SLOAD PUSH2 0x131F JUMP JUMPDEST PUSH2 0x1519 JUMP JUMPDEST POP DUP1 RETURN JUMPDEST POP CALLVALUE PUSH2 0x130 JUMPI DUP1 PUSH1 0x3 NOT CALLDATASIZE ADD SLT PUSH2 0x130 JUMPI PUSH1 0x20 SWAP1 PUSH1 0x40 MLOAD SWAP1 DUP2 MSTORE RETURN JUMPDEST POP CALLVALUE PUSH2 0x130 JUMPI PUSH1 0x20 CALLDATASIZE PUSH1 0x3 NOT ADD SLT PUSH2 0x130 JUMPI PUSH2 0x808 PUSH2 0x845 PUSH2 0x10BF JUMP JUMPDEST PUSH2 0x84D PUSH2 0x1590 JUMP JUMPDEST PUSH1 0x0 DUP1 MLOAD PUSH1 0x20 PUSH2 0x19B7 DUP4 CODECOPY DUP2 MLOAD SWAP2 MSTORE DUP4 MSTORE PUSH1 0x1 PUSH1 0x20 MSTORE PUSH2 0x873 PUSH1 0x1 PUSH1 0x40 DUP6 KECCAK256 ADD SLOAD PUSH2 0x131F JUMP JUMPDEST PUSH2 0x147F JUMP JUMPDEST POP CALLVALUE PUSH2 0x130 JUMPI PUSH1 0x40 CALLDATASIZE PUSH1 0x3 NOT ADD SLT PUSH2 0x130 JUMPI PUSH1 0x40 PUSH2 0x894 PUSH2 0x10A4 JUMP JUMPDEST SWAP2 PUSH1 0x4 CALLDATALOAD DUP2 MSTORE PUSH1 0x1 PUSH1 0x20 MSTORE KECCAK256 SWAP1 PUSH1 0x1 DUP1 PUSH1 0xA0 SHL SUB AND PUSH1 0x0 MSTORE PUSH1 0x20 MSTORE PUSH1 0x20 PUSH1 0xFF PUSH1 0x40 PUSH1 0x0 KECCAK256 SLOAD AND PUSH1 0x40 MLOAD SWAP1 ISZERO ISZERO DUP2 MSTORE RETURN JUMPDEST POP CALLVALUE PUSH2 0x130 JUMPI DUP1 PUSH1 0x3 NOT CALLDATASIZE ADD SLT PUSH2 0x130 JUMPI SLOAD PUSH1 0x40 MLOAD PUSH1 0x1 PUSH1 0x1 PUSH1 0xA0 SHL SUB SWAP1 SWAP2 AND DUP2 MSTORE PUSH1 0x20 SWAP1 RETURN JUMPDEST POP CALLVALUE PUSH2 0x130 JUMPI DUP1 PUSH1 0x3 NOT CALLDATASIZE ADD SLT PUSH2 0x130 JUMPI PUSH1 0x20 PUSH1 0x40 MLOAD PUSH1 0x0 DUP1 MLOAD PUSH1 0x20 PUSH2 0x19B7 DUP4 CODECOPY DUP2 MLOAD SWAP2 MSTORE DUP2 MSTORE RETURN JUMPDEST POP CALLVALUE PUSH2 0x130 JUMPI DUP1 PUSH1 0x3 NOT CALLDATASIZE ADD SLT PUSH2 0x130 JUMPI PUSH2 0x92D PUSH2 0x1590 JUMP JUMPDEST PUSH1 0x0 DUP1 SLOAD PUSH1 0x1 PUSH1 0x1 PUSH1 0xA0 SHL SUB NOT DUP2 AND DUP3 SSTORE PUSH1 0x1 PUSH1 0x1 PUSH1 0xA0 SHL SUB AND PUSH32 0x8BE0079C531659141344CD1FD0A4F28419497F9722A3DAAFE3B4186F6B6457E0 DUP3 DUP1 LOG3 DUP1 RETURN JUMPDEST POP CALLVALUE PUSH2 0x130 JUMPI PUSH1 0x20 CALLDATASIZE PUSH1 0x3 NOT ADD SLT PUSH2 0x130 JUMPI PUSH2 0x9A6 PUSH2 0x9AD PUSH1 0x1 PUSH1 0x40 PUSH2 0x9C1 SWAP5 PUSH1 0x4 CALLDATALOAD DUP2 MSTORE PUSH1 0x4 PUSH1 0x20 MSTORE KECCAK256 ADD PUSH1 0x40 MLOAD SWAP3 DUP4 DUP1 SWAP3 PUSH2 0x18A2 JUMP JUMPDEST SUB DUP3 PUSH2 0x1155 JUMP JUMPDEST PUSH1 0x40 MLOAD SWAP2 DUP3 SWAP2 PUSH1 0x20 DUP4 MSTORE PUSH1 0x20 DUP4 ADD SWAP1 PUSH2 0x1265 JUMP JUMPDEST SUB SWAP1 RETURN JUMPDEST POP CALLVALUE PUSH2 0x130 JUMPI PUSH2 0x9D4 CALLDATASIZE PUSH2 0x1299 JUMP JUMPDEST SWAP1 PUSH2 0x9E0 SWAP4 SWAP3 SWAP4 PUSH2 0x1590 JUMP JUMPDEST PUSH1 0x2 SLOAD PUSH1 0x40 MLOAD PUSH4 0xC3C95C7B PUSH1 0xE0 SHL DUP2 MSTORE PUSH1 0x4 DUP2 ADD DUP8 SWAP1 MSTORE SWAP1 DUP8 SWAP1 DUP3 SWAP1 PUSH1 0x24 SWAP1 DUP3 SWAP1 PUSH1 0x1 PUSH1 0x1 PUSH1 0xA0 SHL SUB AND GAS STATICCALL SWAP1 DUP2 ISZERO PUSH2 0xC1E JUMPI DUP8 SWAP2 PUSH2 0xD67 JUMPI JUMPDEST POP PUSH1 0xC0 DUP2 ADD MLOAD PUSH2 0xD2F JUMPI PUSH1 0x40 PUSH2 0xA33 SWAP2 ADD MLOAD DUP6 EQ PUSH2 0x173F JUMP JUMPDEST PUSH1 0x40 MLOAD PUSH2 0xA3F DUP2 PUSH2 0x110F JUMP JUMPDEST DUP6 DUP2 MSTORE PUSH2 0xA4D CALLDATASIZE DUP7 DUP7 PUSH2 0x17A6 JUMP JUMPDEST SWAP1 PUSH1 0x20 DUP2 ADD SWAP2 DUP3 MSTORE PUSH1 0x40 DUP2 ADD TIMESTAMP DUP2 MSTORE PUSH1 0x60 DUP3 ADD SWAP1 PUSH1 0x1 DUP3 MSTORE PUSH2 0xA70 CALLDATASIZE DUP8 DUP8 PUSH2 0x17F4 JUMP JUMPDEST PUSH1 0x80 DUP5 ADD MSTORE DUP9 DUP11 MSTORE PUSH1 0x4 PUSH1 0x20 MSTORE PUSH1 0x40 DUP11 KECCAK256 SWAP4 DUP4 MLOAD DUP6 SSTORE MLOAD DUP1 MLOAD SWAP1 PUSH8 0xFFFFFFFFFFFFFFFF DUP3 GT PUSH2 0xD1B JUMPI PUSH1 0x1 PUSH1 0x40 SHL DUP3 GT PUSH2 0xD1B JUMPI PUSH1 0x20 PUSH1 0x1 DUP8 ADD SWAP2 DUP14 DUP4 SLOAD DUP6 DUP6 SSTORE DUP6 DUP2 DUP2 LT PUSH2 0xD00 JUMPI JUMPDEST POP POP POP ADD SWAP1 DUP13 MSTORE PUSH1 0x20 DUP13 KECCAK256 DUP13 JUMPDEST DUP4 DUP2 LT PUSH2 0xCEC JUMPI POP POP POP POP PUSH1 0x80 SWAP3 SWAP2 PUSH2 0xAF8 SWAP2 MLOAD PUSH1 0x2 DUP7 ADD SSTORE MLOAD ISZERO ISZERO PUSH1 0x3 DUP6 ADD SWAP1 PUSH1 0xFF DUP1 NOT DUP4 SLOAD AND SWAP2 ISZERO ISZERO AND OR SWAP1 SSTORE JUMP JUMPDEST ADD MLOAD DUP1 MLOAD SWAP1 PUSH8 0xFFFFFFFFFFFFFFFF DUP3 GT PUSH2 0xCD8 JUMPI PUSH2 0xB19 PUSH1 0x4 DUP5 ADD SLOAD PUSH2 0x10D5 JUMP JUMPDEST PUSH1 0x1F DUP2 GT PUSH2 0xCA5 JUMPI JUMPDEST POP PUSH1 0x20 SWAP1 PUSH1 0x1F DUP4 GT PUSH1 0x1 EQ PUSH2 0xC38 JUMPI PUSH1 0x4 SWAP3 SWAP2 DUP11 SWAP2 DUP4 PUSH2 0xC2D JUMPI JUMPDEST POP POP DUP2 PUSH1 0x1 SHL SWAP2 PUSH1 0x0 NOT SWAP1 PUSH1 0x3 SHL SHR NOT AND OR SWAP2 ADD SSTORE JUMPDEST PUSH1 0x2 SLOAD PUSH1 0x1 PUSH1 0x1 PUSH1 0xA0 SHL SUB AND DUP1 EXTCODESIZE ISZERO PUSH2 0xC29 JUMPI DUP7 PUSH1 0x40 MLOAD DUP1 SWAP3 PUSH4 0xD5FFD935 PUSH1 0xE0 SHL DUP3 MSTORE DUP9 PUSH1 0x4 DUP4 ADD MSTORE PUSH1 0x40 PUSH1 0x24 DUP4 ADD MSTORE DUP2 DUP4 DUP2 PUSH2 0xB94 PUSH1 0x44 DUP3 ADD DUP13 DUP13 PUSH2 0x1842 JUMP JUMPDEST SUB SWAP3 GAS CALL DUP1 ISZERO PUSH2 0xC1E JUMPI PUSH2 0xBF1 JUMPI JUMPDEST POP SWAP2 PUSH2 0xBC7 DUP6 SWAP5 SWAP3 PUSH1 0x0 DUP1 MLOAD PUSH1 0x20 PUSH2 0x1997 DUP4 CODECOPY DUP2 MLOAD SWAP2 MSTORE SWAP5 PUSH1 0x40 MLOAD SWAP5 DUP6 SWAP5 DUP6 PUSH2 0x1866 JUMP JUMPDEST SUB SWAP1 LOG2 PUSH32 0x4D9DB1A2F6B8D06DAB17E9E5B1C4883EA6C6B230063E72C4EE6CC1143744C288 DUP3 DUP1 LOG2 DUP1 RETURN JUMPDEST DUP6 SWAP5 SWAP3 PUSH1 0x0 DUP1 MLOAD PUSH1 0x20 PUSH2 0x1997 DUP4 CODECOPY DUP2 MLOAD SWAP2 MSTORE SWAP5 SWAP3 SWAP8 PUSH2 0xC12 PUSH2 0xBC7 SWAP4 PUSH2 0x1141 JUMP JUMPDEST SWAP8 SWAP3 SWAP5 POP SWAP3 SWAP5 POP PUSH2 0xBA3 JUMP JUMPDEST PUSH1 0x40 MLOAD RETURNDATASIZE DUP10 DUP3 RETURNDATACOPY RETURNDATASIZE SWAP1 REVERT JUMPDEST DUP7 DUP1 REVERT JUMPDEST ADD MLOAD SWAP1 POP CODESIZE DUP1 PUSH2 0xB3D JUMP JUMPDEST SWAP1 PUSH1 0x4 DUP5 ADD DUP11 MSTORE PUSH1 0x20 DUP11 KECCAK256 SWAP2 DUP11 JUMPDEST PUSH1 0x1F NOT DUP6 AND DUP2 LT PUSH2 0xC8D JUMPI POP SWAP2 DUP4 SWAP2 PUSH1 0x1 SWAP4 PUSH1 0x4 SWAP6 PUSH1 0x1F NOT DUP2 AND LT PUSH2 0xC74 JUMPI JUMPDEST POP POP POP DUP2 SHL ADD SWAP2 ADD SSTORE PUSH2 0xB53 JUMP JUMPDEST ADD MLOAD PUSH1 0x0 NOT PUSH1 0xF8 DUP5 PUSH1 0x3 SHL AND SHR NOT AND SWAP1 SSTORE CODESIZE DUP1 DUP1 PUSH2 0xC66 JUMP JUMPDEST SWAP2 SWAP3 PUSH1 0x20 PUSH1 0x1 DUP2 SWAP3 DUP7 DUP6 ADD MLOAD DUP2 SSTORE ADD SWAP5 ADD SWAP3 ADD PUSH2 0xC46 JUMP JUMPDEST PUSH2 0xCD2 SWAP1 PUSH1 0x4 DUP6 ADD DUP12 MSTORE PUSH1 0x20 DUP12 KECCAK256 PUSH1 0x1F DUP6 ADD PUSH1 0x5 SHR DUP2 ADD SWAP2 PUSH1 0x20 DUP7 LT PUSH2 0x5CA JUMPI PUSH1 0x1F ADD PUSH1 0x5 SHR ADD SWAP1 PUSH2 0x182B JUMP JUMPDEST CODESIZE PUSH2 0xB22 JUMP JUMPDEST PUSH4 0x4E487B71 PUSH1 0xE0 SHL DUP10 MSTORE PUSH1 0x41 PUSH1 0x4 MSTORE PUSH1 0x24 DUP10 REVERT JUMPDEST PUSH1 0x1 SWAP1 PUSH1 0x20 DUP5 MLOAD SWAP5 ADD SWAP4 DUP2 DUP5 ADD SSTORE ADD PUSH2 0xAC7 JUMP JUMPDEST DUP5 DUP4 DUP8 PUSH2 0xD13 SWAP6 MSTORE KECCAK256 SWAP2 DUP3 ADD SWAP2 ADD PUSH2 0x182B JUMP JUMPDEST DUP14 CODESIZE DUP6 PUSH2 0xABA JUMP JUMPDEST PUSH4 0x4E487B71 PUSH1 0xE0 SHL DUP13 MSTORE PUSH1 0x41 PUSH1 0x4 MSTORE PUSH1 0x24 DUP13 REVERT JUMPDEST PUSH1 0x40 MLOAD PUSH3 0x461BCD PUSH1 0xE5 SHL DUP2 MSTORE PUSH1 0x20 PUSH1 0x4 DUP3 ADD MSTORE PUSH1 0x10 PUSH1 0x24 DUP3 ADD MSTORE PUSH16 0x105B1C9958591E481C995CDBDB1D9959 PUSH1 0x82 SHL PUSH1 0x44 DUP3 ADD MSTORE PUSH1 0x64 SWAP1 REVERT JUMPDEST PUSH2 0xD7B SWAP2 POP RETURNDATASIZE DUP1 DUP10 DUP4 RETURNDATACOPY PUSH2 0x792 DUP2 DUP4 PUSH2 0x1155 JUMP JUMPDEST CODESIZE PUSH2 0xA1A JUMP JUMPDEST POP CALLVALUE PUSH2 0x130 JUMPI PUSH1 0x20 CALLDATASIZE PUSH1 0x3 NOT ADD SLT PUSH2 0x130 JUMPI PUSH32 0x51DF27EF8D4882DED82AA403CD74BCD8AAA267C36DC91CAB36ED396F8DBFD2E1 PUSH1 0x20 PUSH1 0x4 CALLDATALOAD PUSH2 0xDC1 PUSH2 0x1590 JUMP JUMPDEST DUP1 PUSH1 0x3 SSTORE PUSH1 0x40 MLOAD SWAP1 DUP2 MSTORE LOG1 DUP1 RETURN JUMPDEST POP CALLVALUE PUSH2 0x130 JUMPI DUP1 PUSH1 0x3 NOT CALLDATASIZE ADD SLT PUSH2 0x130 JUMPI PUSH1 0x2 SLOAD PUSH1 0x40 MLOAD PUSH1 0x1 PUSH1 0x1 PUSH1 0xA0 SHL SUB SWAP1 SWAP2 AND DUP2 MSTORE PUSH1 0x20 SWAP1 RETURN JUMPDEST POP CALLVALUE PUSH2 0x130 JUMPI PUSH1 0x20 SWAP1 DUP2 PUSH1 0x3 NOT CALLDATASIZE ADD SLT PUSH2 0x130 JUMPI PUSH1 0x40 SWAP1 PUSH1 0x60 PUSH1 0x80 DUP4 MLOAD PUSH2 0xE1E DUP2 PUSH2 0x110F JUMP JUMPDEST DUP4 DUP2 MSTORE DUP3 DUP7 DUP3 ADD MSTORE DUP4 DUP6 DUP3 ADD MSTORE DUP4 DUP4 DUP3 ADD MSTORE ADD MSTORE PUSH1 0x4 CALLDATALOAD DUP2 MSTORE PUSH1 0x4 DUP4 MSTORE KECCAK256 PUSH2 0x9C1 PUSH1 0x40 MLOAD SWAP2 PUSH2 0xE4C DUP4 PUSH2 0x110F JUMP JUMPDEST DUP1 SLOAD DUP4 MSTORE PUSH1 0x40 MLOAD PUSH2 0xE64 DUP2 PUSH2 0x9A6 DUP2 PUSH1 0x1 DUP7 ADD PUSH2 0x18A2 JUMP JUMPDEST DUP5 DUP5 ADD SWAP1 DUP2 MSTORE PUSH1 0x2 DUP3 ADD SLOAD SWAP2 PUSH1 0x40 DUP6 ADD SWAP3 DUP4 MSTORE PUSH2 0xEBF PUSH2 0xE97 PUSH1 0x4 PUSH1 0xFF PUSH1 0x3 DUP6 ADD SLOAD AND SWAP4 PUSH1 0x60 DUP10 ADD SWAP5 ISZERO ISZERO DUP6 MSTORE ADD PUSH2 0x1177 JUMP JUMPDEST SWAP3 PUSH1 0x80 DUP8 ADD SWAP4 DUP5 MSTORE PUSH1 0x40 MLOAD SWAP8 DUP9 SWAP8 DUP2 DUP10 MSTORE MLOAD SWAP1 DUP9 ADD MSTORE MLOAD PUSH1 0xA0 PUSH1 0x40 DUP9 ADD MSTORE PUSH1 0xC0 DUP8 ADD SWAP1 PUSH2 0x1265 JUMP JUMPDEST SWAP3 MLOAD PUSH1 0x60 DUP7 ADD MSTORE MLOAD ISZERO ISZERO PUSH1 0x80 DUP6 ADD MSTORE MLOAD DUP4 DUP3 SUB PUSH1 0x1F NOT ADD PUSH1 0xA0 DUP6 ADD MSTORE PUSH2 0x1240 JUMP JUMPDEST POP CALLVALUE PUSH2 0x130 JUMPI PUSH1 0x20 CALLDATASIZE PUSH1 0x3 NOT ADD SLT PUSH2 0x130 JUMPI PUSH2 0x808 PUSH2 0xEFD PUSH2 0x10BF JUMP JUMPDEST PUSH2 0xF05 PUSH2 0x1590 JUMP JUMPDEST PUSH1 0x0 DUP1 MLOAD PUSH1 0x20 PUSH2 0x19B7 DUP4 CODECOPY DUP2 MLOAD SWAP2 MSTORE DUP4 MSTORE PUSH1 0x1 PUSH1 0x20 MSTORE PUSH2 0xF2B PUSH1 0x1 PUSH1 0x40 DUP6 KECCAK256 ADD SLOAD PUSH2 0x131F JUMP JUMPDEST PUSH2 0x1363 JUMP JUMPDEST POP CALLVALUE PUSH2 0x130 JUMPI PUSH1 0x40 CALLDATASIZE PUSH1 0x3 NOT ADD SLT PUSH2 0x130 JUMPI PUSH2 0xF4A PUSH2 0x10A4 JUMP JUMPDEST CALLER PUSH1 0x1 PUSH1 0x1 PUSH1 0xA0 SHL SUB DUP3 AND SUB PUSH2 0xF66 JUMPI PUSH2 0x808 SWAP1 PUSH1 0x4 CALLDATALOAD PUSH2 0x1519 JUMP JUMPDEST PUSH1 0x40 MLOAD PUSH4 0x334BD919 PUSH1 0xE1 SHL DUP2 MSTORE PUSH1 0x4 SWAP1 REVERT JUMPDEST POP CALLVALUE PUSH2 0x130 JUMPI PUSH1 0x20 CALLDATASIZE PUSH1 0x3 NOT ADD SLT PUSH2 0x130 JUMPI PUSH1 0x40 SWAP1 PUSH1 0x4 CALLDATALOAD DUP2 MSTORE PUSH1 0x4 PUSH1 0x20 MSTORE KECCAK256 DUP1 SLOAD PUSH2 0x9C1 PUSH1 0x2 DUP4 ADD SLOAD SWAP3 PUSH2 0xFB7 PUSH1 0x4 PUSH1 0xFF PUSH1 0x3 DUP5 ADD SLOAD AND SWAP3 ADD PUSH2 0x1177 JUMP JUMPDEST SWAP1 PUSH1 0x40 MLOAD SWAP5 DUP6 SWAP5 DUP6 MSTORE PUSH1 0x20 DUP6 ADD MSTORE ISZERO ISZERO PUSH1 0x40 DUP5 ADD MSTORE PUSH1 0x80 PUSH1 0x60 DUP5 ADD MSTORE PUSH1 0x80 DUP4 ADD SWAP1 PUSH2 0x1240 JUMP JUMPDEST POP CALLVALUE PUSH2 0x130 JUMPI PUSH1 0x40 CALLDATASIZE PUSH1 0x3 NOT ADD SLT PUSH2 0x130 JUMPI PUSH2 0x808 PUSH1 0x4 CALLDATALOAD PUSH2 0xFFD PUSH2 0x10A4 JUMP JUMPDEST SWAP1 DUP1 DUP5 MSTORE PUSH1 0x1 PUSH1 0x20 MSTORE PUSH2 0x1016 PUSH1 0x1 PUSH1 0x40 DUP7 KECCAK256 ADD SLOAD PUSH2 0x131F JUMP JUMPDEST PUSH2 0x1404 JUMP JUMPDEST POP CALLVALUE PUSH2 0x130 JUMPI PUSH1 0x20 CALLDATASIZE PUSH1 0x3 NOT ADD SLT PUSH2 0x130 JUMPI PUSH1 0x1 PUSH1 0x40 PUSH1 0x20 SWAP3 PUSH1 0x4 CALLDATALOAD DUP2 MSTORE DUP3 DUP5 MSTORE KECCAK256 ADD SLOAD PUSH1 0x40 MLOAD SWAP1 DUP2 MSTORE RETURN JUMPDEST SWAP1 POP CALLVALUE PUSH2 0x10A0 JUMPI PUSH1 0x20 CALLDATASIZE PUSH1 0x3 NOT ADD SLT PUSH2 0x10A0 JUMPI PUSH1 0x4 CALLDATALOAD PUSH4 0xFFFFFFFF PUSH1 0xE0 SHL DUP2 AND DUP1 SWAP2 SUB PUSH2 0x109C JUMPI PUSH1 0x20 SWAP3 POP PUSH4 0x7965DB0B PUSH1 0xE0 SHL DUP2 EQ SWAP1 DUP2 ISZERO PUSH2 0x108B JUMPI JUMPDEST POP ISZERO ISZERO DUP2 MSTORE RETURN JUMPDEST PUSH4 0x1FFC9A7 PUSH1 0xE0 SHL EQ SWAP1 POP CODESIZE PUSH2 0x1084 JUMP JUMPDEST DUP3 DUP1 REVERT JUMPDEST POP DUP1 REVERT JUMPDEST PUSH1 0x24 CALLDATALOAD SWAP1 PUSH1 0x1 PUSH1 0x1 PUSH1 0xA0 SHL SUB DUP3 AND DUP3 SUB PUSH2 0x10BA JUMPI JUMP JUMPDEST PUSH1 0x0 DUP1 REVERT JUMPDEST PUSH1 0x4 CALLDATALOAD SWAP1 PUSH1 0x1 PUSH1 0x1 PUSH1 0xA0 SHL SUB DUP3 AND DUP3 SUB PUSH2 0x10BA JUMPI JUMP JUMPDEST SWAP1 PUSH1 0x1 DUP3 DUP2 SHR SWAP3 AND DUP1 ISZERO PUSH2 0x1105 JUMPI JUMPDEST PUSH1 0x20 DUP4 LT EQ PUSH2 0x10EF JUMPI JUMP JUMPDEST PUSH4 0x4E487B71 PUSH1 0xE0 SHL PUSH1 0x0 MSTORE PUSH1 0x22 PUSH1 0x4 MSTORE PUSH1 0x24 PUSH1 0x0 REVERT JUMPDEST SWAP2 PUSH1 0x7F AND SWAP2 PUSH2 0x10E4 JUMP JUMPDEST PUSH1 0xA0 DUP2 ADD SWAP1 DUP2 LT PUSH8 0xFFFFFFFFFFFFFFFF DUP3 GT OR PUSH2 0x112B JUMPI PUSH1 0x40 MSTORE JUMP JUMPDEST PUSH4 0x4E487B71 PUSH1 0xE0 SHL PUSH1 0x0 MSTORE PUSH1 0x41 PUSH1 0x4 MSTORE PUSH1 0x24 PUSH1 0x0 REVERT JUMPDEST PUSH8 0xFFFFFFFFFFFFFFFF DUP2 GT PUSH2 0x112B JUMPI PUSH1 0x40 MSTORE JUMP JUMPDEST SWAP1 PUSH1 0x1F DUP1 NOT SWAP2 ADD AND DUP2 ADD SWAP1 DUP2 LT PUSH8 0xFFFFFFFFFFFFFFFF DUP3 GT OR PUSH2 0x112B JUMPI PUSH1 0x40 MSTORE JUMP JUMPDEST SWAP1 PUSH1 0x40 MLOAD SWAP2 DUP3 PUSH1 0x0 DUP3 SLOAD SWAP3 PUSH2 0x118B DUP5 PUSH2 0x10D5 JUMP JUMPDEST SWAP1 DUP2 DUP5 MSTORE PUSH1 0x1 SWAP5 DUP6 DUP2 AND SWAP1 DUP2 PUSH1 0x0 EQ PUSH2 0x11FA JUMPI POP PUSH1 0x1 EQ PUSH2 0x11B7 JUMPI JUMPDEST POP POP PUSH2 0x11B5 SWAP3 POP SUB DUP4 PUSH2 0x1155 JUMP JUMPDEST JUMP JUMPDEST SWAP1 SWAP4 SWAP2 POP PUSH1 0x0 MSTORE PUSH1 0x20 SWAP1 DUP2 PUSH1 0x0 KECCAK256 SWAP4 PUSH1 0x0 SWAP2 JUMPDEST DUP2 DUP4 LT PUSH2 0x11E2 JUMPI POP POP PUSH2 0x11B5 SWAP4 POP DUP3 ADD ADD CODESIZE DUP1 PUSH2 0x11A7 JUMP JUMPDEST DUP6 SLOAD DUP9 DUP5 ADD DUP6 ADD MSTORE SWAP5 DUP6 ADD SWAP5 DUP8 SWAP5 POP SWAP2 DUP4 ADD SWAP2 PUSH2 0x11CA JUMP JUMPDEST SWAP2 POP POP PUSH2 0x11B5 SWAP5 POP PUSH1 0x20 SWAP3 POP PUSH1 0xFF NOT AND DUP3 DUP5 ADD MSTORE ISZERO ISZERO PUSH1 0x5 SHL DUP3 ADD ADD CODESIZE DUP1 PUSH2 0x11A7 JUMP JUMPDEST PUSH1 0x0 JUMPDEST DUP4 DUP2 LT PUSH2 0x1230 JUMPI POP POP PUSH1 0x0 SWAP2 ADD MSTORE JUMP JUMPDEST DUP2 DUP2 ADD MLOAD DUP4 DUP3 ADD MSTORE PUSH1 0x20 ADD PUSH2 0x1220 JUMP JUMPDEST SWAP1 PUSH1 0x20 SWAP2 PUSH2 0x1259 DUP2 MLOAD DUP1 SWAP3 DUP2 DUP6 MSTORE DUP6 DUP1 DUP7 ADD SWAP2 ADD PUSH2 0x121D JUMP JUMPDEST PUSH1 0x1F ADD PUSH1 0x1F NOT AND ADD ADD SWAP1 JUMP JUMPDEST SWAP1 DUP2 MLOAD DUP1 DUP3 MSTORE PUSH1 0x20 DUP1 DUP1 SWAP4 ADD SWAP4 ADD SWAP2 PUSH1 0x0 JUMPDEST DUP3 DUP2 LT PUSH2 0x1285 JUMPI POP POP POP POP SWAP1 JUMP JUMPDEST DUP4 MLOAD DUP6 MSTORE SWAP4 DUP2 ADD SWAP4 SWAP3 DUP2 ADD SWAP3 PUSH1 0x1 ADD PUSH2 0x1277 JUMP JUMPDEST SWAP1 PUSH1 0x60 PUSH1 0x3 NOT DUP4 ADD SLT PUSH2 0x10BA JUMPI PUSH1 0x4 CALLDATALOAD SWAP2 PUSH1 0x24 CALLDATALOAD SWAP2 PUSH8 0xFFFFFFFFFFFFFFFF SWAP1 DUP2 DUP5 GT PUSH2 0x10BA JUMPI DUP3 PUSH1 0x23 DUP6 ADD SLT ISZERO PUSH2 0x10BA JUMPI DUP4 PUSH1 0x4 ADD CALLDATALOAD SWAP4 DUP3 DUP6 GT PUSH2 0x10BA JUMPI DUP4 PUSH1 0x24 DUP7 PUSH1 0x5 SHL DUP4 ADD ADD GT PUSH2 0x10BA JUMPI PUSH1 0x24 ADD SWAP4 SWAP3 PUSH1 0x44 CALLDATALOAD SWAP1 DUP4 DUP3 GT PUSH2 0x10BA JUMPI DUP1 PUSH1 0x23 DUP4 ADD SLT ISZERO PUSH2 0x10BA JUMPI DUP2 PUSH1 0x4 ADD CALLDATALOAD SWAP4 DUP5 GT PUSH2 0x10BA JUMPI PUSH1 0x24 DUP5 DUP4 ADD ADD GT PUSH2 0x10BA JUMPI PUSH1 0x24 ADD SWAP2 SWAP1 JUMP JUMPDEST DUP1 PUSH1 0x0 MSTORE PUSH1 0x1 PUSH1 0x20 MSTORE PUSH1 0x40 PUSH1 0x0 KECCAK256 CALLER PUSH1 0x0 MSTORE PUSH1 0x20 MSTORE PUSH1 0xFF PUSH1 0x40 PUSH1 0x0 KECCAK256 SLOAD AND ISZERO PUSH2 0x1345 JUMPI POP JUMP JUMPDEST PUSH1 0x44 SWAP1 PUSH1 0x40 MLOAD SWAP1 PUSH4 0xE2517D3F PUSH1 0xE0 SHL DUP3 MSTORE CALLER PUSH1 0x4 DUP4 ADD MSTORE PUSH1 0x24 DUP3 ADD MSTORE REVERT JUMPDEST PUSH1 0x1 PUSH1 0x1 PUSH1 0xA0 SHL SUB AND PUSH1 0x0 DUP2 DUP2 MSTORE PUSH32 0x75E26F58CCA2D71DBBEEEC7ADFB8D72DF51164003CE85AC5B2D9B2A24A398706 PUSH1 0x20 MSTORE PUSH1 0x40 DUP2 KECCAK256 SLOAD SWAP1 SWAP2 SWAP1 PUSH1 0x0 DUP1 MLOAD PUSH1 0x20 PUSH2 0x19B7 DUP4 CODECOPY DUP2 MLOAD SWAP2 MSTORE SWAP1 PUSH1 0xFF AND PUSH2 0x13FF JUMPI DUP1 DUP4 MSTORE PUSH1 0x1 PUSH1 0x20 MSTORE PUSH1 0x40 DUP4 KECCAK256 DUP3 DUP5 MSTORE PUSH1 0x20 MSTORE PUSH1 0x40 DUP4 KECCAK256 PUSH1 0x1 PUSH1 0xFF NOT DUP3 SLOAD AND OR SWAP1 SSTORE PUSH32 0x2F8788117E7EFF1D82E926EC794901D17C78024A50270940304540A733656F0D CALLER SWAP4 DUP1 LOG4 PUSH1 0x1 SWAP1 JUMP JUMPDEST POP POP SWAP1 JUMP JUMPDEST SWAP1 PUSH1 0x0 SWAP2 DUP1 DUP4 MSTORE PUSH1 0x1 PUSH1 0x20 MSTORE PUSH1 0x40 DUP4 KECCAK256 SWAP2 PUSH1 0x1 DUP1 PUSH1 0xA0 SHL SUB AND SWAP2 DUP3 DUP5 MSTORE PUSH1 0x20 MSTORE PUSH1 0xFF PUSH1 0x40 DUP5 KECCAK256 SLOAD AND ISZERO PUSH1 0x0 EQ PUSH2 0x13FF JUMPI DUP1 DUP4 MSTORE PUSH1 0x1 PUSH1 0x20 MSTORE PUSH1 0x40 DUP4 KECCAK256 DUP3 DUP5 MSTORE PUSH1 0x20 MSTORE PUSH1 0x40 DUP4 KECCAK256 PUSH1 0x1 PUSH1 0xFF NOT DUP3 SLOAD AND OR SWAP1 SSTORE PUSH32 0x2F8788117E7EFF1D82E926EC794901D17C78024A50270940304540A733656F0D CALLER SWAP4 DUP1 LOG4 PUSH1 0x1 SWAP1 JUMP JUMPDEST PUSH1 0x1 PUSH1 0x1 PUSH1 0xA0 SHL SUB AND PUSH1 0x0 DUP2 DUP2 MSTORE PUSH32 0x75E26F58CCA2D71DBBEEEC7ADFB8D72DF51164003CE85AC5B2D9B2A24A398706 PUSH1 0x20 MSTORE PUSH1 0x40 DUP2 KECCAK256 SLOAD SWAP1 SWAP2 SWAP1 PUSH1 0x0 DUP1 MLOAD PUSH1 0x20 PUSH2 0x19B7 DUP4 CODECOPY DUP2 MLOAD SWAP2 MSTORE SWAP1 PUSH1 0xFF AND ISZERO PUSH2 0x13FF JUMPI DUP1 DUP4 MSTORE PUSH1 0x1 PUSH1 0x20 MSTORE PUSH1 0x40 DUP4 KECCAK256 DUP3 DUP5 MSTORE PUSH1 0x20 MSTORE PUSH1 0x40 DUP4 KECCAK256 PUSH1 0xFF NOT DUP2 SLOAD AND SWAP1 SSTORE PUSH32 0xF6391F5C32D9C69D2A47EA670B442974B53935D1EDC7FD64EB21E047A839171B CALLER SWAP4 DUP1 LOG4 PUSH1 0x1 SWAP1 JUMP JUMPDEST SWAP1 PUSH1 0x0 SWAP2 DUP1 DUP4 MSTORE PUSH1 0x1 PUSH1 0x20 MSTORE PUSH1 0x40 DUP4 KECCAK256 SWAP2 PUSH1 0x1 DUP1 PUSH1 0xA0 SHL SUB AND SWAP2 DUP3 DUP5 MSTORE PUSH1 0x20 MSTORE PUSH1 0xFF PUSH1 0x40 DUP5 KECCAK256 SLOAD AND PUSH1 0x0 EQ PUSH2 0x13FF JUMPI DUP1 DUP4 MSTORE PUSH1 0x1 PUSH1 0x20 MSTORE PUSH1 0x40 DUP4 KECCAK256 DUP3 DUP5 MSTORE PUSH1 0x20 MSTORE PUSH1 0x40 DUP4 KECCAK256 PUSH1 0xFF NOT DUP2 SLOAD AND SWAP1 SSTORE PUSH32 0xF6391F5C32D9C69D2A47EA670B442974B53935D1EDC7FD64EB21E047A839171B CALLER SWAP4 DUP1 LOG4 PUSH1 0x1 SWAP1 JUMP JUMPDEST PUSH1 0x0 SLOAD PUSH1 0x1 PUSH1 0x1 PUSH1 0xA0 SHL SUB AND CALLER SUB PUSH2 0x15A4 JUMPI JUMP JUMPDEST PUSH1 0x40 MLOAD PUSH4 0x118CDAA7 PUSH1 0xE0 SHL DUP2 MSTORE CALLER PUSH1 0x4 DUP3 ADD MSTORE PUSH1 0x24 SWAP1 REVERT JUMPDEST PUSH8 0xFFFFFFFFFFFFFFFF DUP2 GT PUSH2 0x112B JUMPI PUSH1 0x5 SHL PUSH1 0x20 ADD SWAP1 JUMP JUMPDEST PUSH8 0xFFFFFFFFFFFFFFFF DUP2 GT PUSH2 0x112B JUMPI PUSH1 0x1F ADD PUSH1 0x1F NOT AND PUSH1 0x20 ADD SWAP1 JUMP JUMPDEST SWAP1 PUSH1 0x20 DUP1 DUP4 DUP4 SUB SLT PUSH2 0x10BA JUMPI DUP3 MLOAD PUSH8 0xFFFFFFFFFFFFFFFF SWAP4 DUP5 DUP3 GT PUSH2 0x10BA JUMPI ADD SWAP2 PUSH2 0x100 SWAP4 DUP5 DUP5 DUP4 SUB SLT PUSH2 0x10BA JUMPI PUSH1 0x40 SWAP4 DUP5 MLOAD SWAP6 DUP7 ADD DUP7 DUP2 LT DUP4 DUP3 GT OR PUSH2 0x112B JUMPI DUP6 MSTORE DUP1 MLOAD DUP7 MSTORE DUP4 DUP2 ADD MLOAD PUSH1 0x1 PUSH1 0x1 PUSH1 0xA0 SHL SUB DUP2 AND DUP2 SUB PUSH2 0x10BA JUMPI DUP5 DUP8 ADD MSTORE DUP5 DUP2 ADD MLOAD DUP6 DUP8 ADD MSTORE PUSH1 0x60 DUP2 ADD MLOAD PUSH1 0x60 DUP8 ADD MSTORE PUSH1 0x80 DUP2 ADD MLOAD DUP3 DUP2 GT PUSH2 0x10BA JUMPI DUP2 ADD DUP4 PUSH1 0x1F DUP3 ADD SLT ISZERO PUSH2 0x10BA JUMPI DUP1 MLOAD SWAP1 PUSH2 0x1686 DUP3 PUSH2 0x15BC JUMP JUMPDEST SWAP2 PUSH2 0x1693 DUP9 MLOAD SWAP4 DUP5 PUSH2 0x1155 JUMP JUMPDEST DUP1 DUP4 MSTORE DUP7 DUP1 DUP5 ADD SWAP2 PUSH1 0x5 SHL DUP4 ADD ADD SWAP2 DUP7 DUP4 GT PUSH2 0x10BA JUMPI DUP8 DUP1 SWAP2 ADD SWAP2 JUMPDEST DUP4 DUP4 LT PUSH2 0x172F JUMPI POP POP POP POP PUSH1 0x80 DUP8 ADD MSTORE PUSH1 0xA0 DUP2 ADD MLOAD PUSH1 0xA0 DUP8 ADD MSTORE PUSH1 0xC0 DUP2 ADD MLOAD DUP1 ISZERO ISZERO DUP2 SUB PUSH2 0x10BA JUMPI PUSH1 0xC0 DUP8 ADD MSTORE PUSH1 0xE0 DUP2 ADD MLOAD SWAP2 DUP3 GT PUSH2 0x10BA JUMPI ADD DUP2 PUSH1 0x1F DUP3 ADD SLT ISZERO PUSH2 0x10BA JUMPI DUP1 MLOAD SWAP2 PUSH2 0x170C PUSH2 0x1703 DUP5 PUSH2 0x15D4 JUMP JUMPDEST SWAP6 MLOAD SWAP6 DUP7 PUSH2 0x1155 JUMP JUMPDEST DUP3 DUP6 MSTORE DUP4 DUP4 DUP4 ADD ADD GT PUSH2 0x10BA JUMPI DUP3 PUSH2 0x1727 SWAP4 DUP6 ADD SWAP2 ADD PUSH2 0x121D JUMP JUMPDEST PUSH1 0xE0 DUP3 ADD MSTORE SWAP1 JUMP JUMPDEST DUP3 MLOAD DUP2 MSTORE SWAP2 DUP2 ADD SWAP2 DUP9 SWAP2 ADD PUSH2 0x16AF JUMP JUMPDEST ISZERO PUSH2 0x1746 JUMPI JUMP JUMPDEST PUSH1 0x40 MLOAD PUSH3 0x461BCD PUSH1 0xE5 SHL DUP2 MSTORE PUSH1 0x20 PUSH1 0x4 DUP3 ADD MSTORE PUSH1 0x15 PUSH1 0x24 DUP3 ADD MSTORE PUSH21 0x92DCECC2D8D2C840E0C2F2DEEAE840D8CADCCEE8D PUSH1 0x5B SHL PUSH1 0x44 DUP3 ADD MSTORE PUSH1 0x64 SWAP1 REVERT JUMPDEST SWAP2 SWAP1 DUP3 ADD DUP1 SWAP3 GT PUSH2 0x1790 JUMPI JUMP JUMPDEST PUSH4 0x4E487B71 PUSH1 0xE0 SHL PUSH1 0x0 MSTORE PUSH1 0x11 PUSH1 0x4 MSTORE PUSH1 0x24 PUSH1 0x0 REVERT JUMPDEST SWAP3 SWAP2 PUSH2 0x17B1 DUP3 PUSH2 0x15BC JUMP JUMPDEST SWAP2 PUSH2 0x17BF PUSH1 0x40 MLOAD SWAP4 DUP5 PUSH2 0x1155 JUMP JUMPDEST DUP3 SWAP5 DUP2 DUP5 MSTORE PUSH1 0x20 DUP1 SWAP5 ADD SWAP2 PUSH1 0x5 SHL DUP2 ADD SWAP3 DUP4 GT PUSH2 0x10BA JUMPI SWAP1 JUMPDEST DUP3 DUP3 LT PUSH2 0x17E5 JUMPI POP POP POP POP JUMP JUMPDEST DUP2 CALLDATALOAD DUP2 MSTORE SWAP1 DUP4 ADD SWAP1 DUP4 ADD PUSH2 0x17D8 JUMP JUMPDEST SWAP3 SWAP2 SWAP3 PUSH2 0x1800 DUP3 PUSH2 0x15D4 JUMP JUMPDEST SWAP2 PUSH2 0x180E PUSH1 0x40 MLOAD SWAP4 DUP5 PUSH2 0x1155 JUMP JUMPDEST DUP3 SWAP5 DUP2 DUP5 MSTORE DUP2 DUP4 ADD GT PUSH2 0x10BA JUMPI DUP3 DUP2 PUSH1 0x20 SWAP4 DUP5 PUSH1 0x0 SWAP7 ADD CALLDATACOPY ADD ADD MSTORE JUMP JUMPDEST DUP2 DUP2 LT PUSH2 0x1836 JUMPI POP POP JUMP JUMPDEST PUSH1 0x0 DUP2 SSTORE PUSH1 0x1 ADD PUSH2 0x182B JUMP JUMPDEST DUP2 DUP4 MSTORE SWAP1 SWAP2 PUSH1 0x1 PUSH1 0x1 PUSH1 0xFB SHL SUB DUP4 GT PUSH2 0x10BA JUMPI PUSH1 0x20 SWAP3 PUSH1 0x5 SHL DUP1 SWAP3 DUP5 DUP4 ADD CALLDATACOPY ADD ADD SWAP1 JUMP JUMPDEST SWAP3 PUSH2 0x187F DUP6 SWAP4 SWAP3 PUSH1 0x20 SWAP7 SWAP4 PUSH1 0x40 DUP8 MSTORE PUSH1 0x40 DUP8 ADD SWAP2 PUSH2 0x1842 JUMP JUMPDEST SWAP4 DUP6 DUP2 DUP7 SUB SWAP2 ADD MSTORE DUP2 DUP5 MSTORE DUP5 DUP5 ADD CALLDATACOPY PUSH1 0x0 DUP3 DUP3 ADD DUP5 ADD MSTORE PUSH1 0x1F ADD PUSH1 0x1F NOT AND ADD ADD SWAP1 JUMP JUMPDEST SWAP1 DUP2 SLOAD DUP1 DUP3 MSTORE PUSH1 0x20 DUP1 SWAP3 ADD SWAP3 PUSH1 0x0 MSTORE DUP2 PUSH1 0x0 KECCAK256 SWAP2 PUSH1 0x0 SWAP1 JUMPDEST DUP3 DUP3 LT PUSH2 0x18C8 JUMPI POP POP POP POP SWAP1 JUMP JUMPDEST DUP4 SLOAD DUP6 MSTORE SWAP4 DUP5 ADD SWAP4 PUSH1 0x1 SWAP4 DUP5 ADD SWAP4 SWAP1 SWAP2 ADD SWAP1 PUSH2 0x18BA JUMP JUMPDEST PUSH1 0x0 DUP2 DUP2 MSTORE PUSH1 0x4 PUSH1 0x20 MSTORE PUSH1 0x40 DUP2 KECCAK256 PUSH1 0x3 DUP2 ADD DUP1 SLOAD PUSH1 0xFF NOT AND PUSH1 0x1 OR SWAP1 SSTORE PUSH1 0x2 SLOAD PUSH1 0x1 PUSH1 0x1 PUSH1 0xA0 SHL SUB AND SWAP1 DUP2 EXTCODESIZE ISZERO PUSH2 0x109C JUMPI PUSH2 0x1944 DUP4 SWAP3 DUP4 SWAP3 PUSH1 0x40 MLOAD SWAP5 DUP6 DUP1 SWAP5 DUP2 SWAP4 PUSH4 0xD5FFD935 PUSH1 0xE0 SHL DUP4 MSTORE DUP11 PUSH1 0x4 DUP5 ADD MSTORE PUSH1 0x40 PUSH1 0x24 DUP5 ADD MSTORE PUSH1 0x1 PUSH1 0x44 DUP5 ADD SWAP2 ADD PUSH2 0x18A2 JUMP JUMPDEST SUB SWAP3 GAS CALL DUP1 ISZERO PUSH2 0x198B JUMPI SWAP1 PUSH32 0x4D9DB1A2F6B8D06DAB17E9E5B1C4883EA6C6B230063E72C4EE6CC1143744C288 SWAP3 SWAP2 PUSH2 0x197C JUMPI JUMPDEST POP DUP1 LOG2 JUMP JUMPDEST PUSH2 0x1985 SWAP1 PUSH2 0x1141 JUMP JUMPDEST CODESIZE PUSH2 0x1977 JUMP JUMPDEST PUSH1 0x40 MLOAD RETURNDATASIZE DUP5 DUP3 RETURNDATACOPY RETURNDATASIZE SWAP1 REVERT INVALID 0x27 PUSH9 0x1E3E622586071759D9 DUP2 0x49 SMOD MOD 0xE9 DUP2 0xDD SWAP1 0xCB 0xB9 0xD0 0xE8 SWAP6 SWAP3 DUP6 JUMP 0xBF KECCAK256 CODECOPY 0xBA STATICCALL SWAP3 LOG1 SWAP13 PUSH24 0xD2EA87C7F81D50C74403CB2F401780F3AD919571121EFE2B 0xDB TIMESTAMP PUSH31 0xB1A2646970667358221220CDB2CE3C704E5319BCF4B959E2845DE06B050D04 PUSH17 0xB87526F418EF69076AFE7D64736F6C6343 STOP ADDMOD EQ STOP CALLER 0x2F DUP8 DUP9 GT PUSH31 0x7EFF1D82E926EC794901D17C78024A50270940304540A733656F0D00000000 "},"methodIdentifiers":{"DEFAULT_ADMIN_ROLE()":"a217fddf","RESOLVER_ROLE()":"78fab260","addResolver(address)":"390a0b6f","challengePeriod()":"f3f480d9","conditionalTokens()":"5bd9e299","emergencyResolve(bytes32,uint256[],string)":"63317cb2","finalizeResolution(bytes32)":"ea685565","getPayoutNumerators(bytes32)":"6d996c91","getProposal(bytes32)":"430694cf","getRoleAdmin(bytes32)":"248a9ca3","grantRole(bytes32,address)":"2f2ff15d","hasRole(bytes32,address)":"91d14854","owner()":"8da5cb5b","proposals(bytes32)":"32ed5b12","proposeResolution(bytes32,uint256[],string)":"de5464c2","removeResolver(address)":"a1333536","renounceOwnership()":"715018a6","renounceRole(bytes32,address)":"36568abe","revokeRole(bytes32,address)":"d547741f","setChallengePeriod(uint256)":"5d475fdd","supportsInterface(bytes4)":"01ffc9a7","transferOwnership(address)":"f2fde38b"}}}}}