{
  "_format": "hh-sol-artifact-1",
  "contractName": "ConditionalTokens",
  "sourceName": "contracts/ConditionalTokens.sol",
  "abi": [
    {
      "inputs": [
        {
          "internalType": "address",
          "name": "_oracle",
          "type": "address"
        }
      ],
      "stateMutability": "nonpayable",
      "type": "constructor"
    },
    {
      "inputs": [
        {
          "internalType": "address",
          "name": "sender",
          "type": "address"
        },
        {
          "internalType": "uint256",
          "name": "balance",
          "type": "uint256"
        },
        {
          "internalType": "uint256",
          "name": "needed",
          "type": "uint256"
        },
        {
          "internalType": "uint256",
          "name": "tokenId",
          "type": "uint256"
        }
      ],
      "name": "ERC1155InsufficientBalance",
      "type": "error"
    },
    {
      "inputs": [
        {
          "internalType": "address",
          "name": "approver",
          "type": "address"
        }
      ],
      "name": "ERC1155InvalidApprover",
      "type": "error"
    },
    {
      "inputs": [
        {
          "internalType": "uint256",
          "name": "idsLength",
          "type": "uint256"
        },
        {
          "internalType": "uint256",
          "name": "valuesLength",
          "type": "uint256"
        }
      ],
      "name": "ERC1155InvalidArrayLength",
      "type": "error"
    },
    {
      "inputs": [
        {
          "internalType": "address",
          "name": "operator",
          "type": "address"
        }
      ],
      "name": "ERC1155InvalidOperator",
      "type": "error"
    },
    {
      "inputs": [
        {
          "internalType": "address",
          "name": "receiver",
          "type": "address"
        }
      ],
      "name": "ERC1155InvalidReceiver",
      "type": "error"
    },
    {
      "inputs": [
        {
          "internalType": "address",
          "name": "sender",
          "type": "address"
        }
      ],
      "name": "ERC1155InvalidSender",
      "type": "error"
    },
    {
      "inputs": [
        {
          "internalType": "address",
          "name": "operator",
          "type": "address"
        },
        {
          "internalType": "address",
          "name": "owner",
          "type": "address"
        }
      ],
      "name": "ERC1155MissingApprovalForAll",
      "type": "error"
    },
    {
      "inputs": [
        {
          "internalType": "address",
          "name": "owner",
          "type": "address"
        }
      ],
      "name": "OwnableInvalidOwner",
      "type": "error"
    },
    {
      "inputs": [
        {
          "internalType": "address",
          "name": "account",
          "type": "address"
        }
      ],
      "name": "OwnableUnauthorizedAccount",
      "type": "error"
    },
    {
      "inputs": [],
      "name": "ReentrancyGuardReentrantCall",
      "type": "error"
    },
    {
      "inputs": [
        {
          "internalType": "address",
          "name": "token",
          "type": "address"
        }
      ],
      "name": "SafeERC20FailedOperation",
      "type": "error"
    },
    {
      "anonymous": false,
      "inputs": [
        {
          "indexed": true,
          "internalType": "address",
          "name": "account",
          "type": "address"
        },
        {
          "indexed": true,
          "internalType": "address",
          "name": "operator",
          "type": "address"
        },
        {
          "indexed": false,
          "internalType": "bool",
          "name": "approved",
          "type": "bool"
        }
      ],
      "name": "ApprovalForAll",
      "type": "event"
    },
    {
      "anonymous": false,
      "inputs": [
        {
          "indexed": true,
          "internalType": "bytes32",
          "name": "conditionId",
          "type": "bytes32"
        },
        {
          "indexed": true,
          "internalType": "address",
          "name": "collateralToken",
          "type": "address"
        },
        {
          "indexed": false,
          "internalType": "uint256",
          "name": "outcomeSlotCount",
          "type": "uint256"
        },
        {
          "indexed": false,
          "internalType": "string",
          "name": "eventUri",
          "type": "string"
        }
      ],
      "name": "MarketCreated",
      "type": "event"
    },
    {
      "anonymous": false,
      "inputs": [
        {
          "indexed": true,
          "internalType": "bytes32",
          "name": "conditionId",
          "type": "bytes32"
        },
        {
          "indexed": false,
          "internalType": "uint256[]",
          "name": "payoutNumerators",
          "type": "uint256[]"
        }
      ],
      "name": "MarketResolved",
      "type": "event"
    },
    {
      "anonymous": false,
      "inputs": [
        {
          "indexed": true,
          "internalType": "address",
          "name": "previousOwner",
          "type": "address"
        },
        {
          "indexed": true,
          "internalType": "address",
          "name": "newOwner",
          "type": "address"
        }
      ],
      "name": "OwnershipTransferred",
      "type": "event"
    },
    {
      "anonymous": false,
      "inputs": [
        {
          "indexed": true,
          "internalType": "bytes32",
          "name": "conditionId",
          "type": "bytes32"
        },
        {
          "indexed": true,
          "internalType": "address",
          "name": "redeemer",
          "type": "address"
        },
        {
          "indexed": false,
          "internalType": "uint256[]",
          "name": "amounts",
          "type": "uint256[]"
        },
        {
          "indexed": false,
          "internalType": "uint256",
          "name": "payout",
          "type": "uint256"
        }
      ],
      "name": "PayoutRedeemed",
      "type": "event"
    },
    {
      "anonymous": false,
      "inputs": [
        {
          "indexed": true,
          "internalType": "bytes32",
          "name": "conditionId",
          "type": "bytes32"
        },
        {
          "indexed": true,
          "internalType": "address",
          "name": "stakeholder",
          "type": "address"
        },
        {
          "indexed": false,
          "internalType": "uint256",
          "name": "amount",
          "type": "uint256"
        }
      ],
      "name": "PositionMerged",
      "type": "event"
    },
    {
      "anonymous": false,
      "inputs": [
        {
          "indexed": true,
          "internalType": "bytes32",
          "name": "conditionId",
          "type": "bytes32"
        },
        {
          "indexed": true,
          "internalType": "address",
          "name": "stakeholder",
          "type": "address"
        },
        {
          "indexed": false,
          "internalType": "uint256",
          "name": "amount",
          "type": "uint256"
        }
      ],
      "name": "PositionSplit",
      "type": "event"
    },
    {
      "anonymous": false,
      "inputs": [
        {
          "indexed": true,
          "internalType": "address",
          "name": "operator",
          "type": "address"
        },
        {
          "indexed": true,
          "internalType": "address",
          "name": "from",
          "type": "address"
        },
        {
          "indexed": true,
          "internalType": "address",
          "name": "to",
          "type": "address"
        },
        {
          "indexed": false,
          "internalType": "uint256[]",
          "name": "ids",
          "type": "uint256[]"
        },
        {
          "indexed": false,
          "internalType": "uint256[]",
          "name": "values",
          "type": "uint256[]"
        }
      ],
      "name": "TransferBatch",
      "type": "event"
    },
    {
      "anonymous": false,
      "inputs": [
        {
          "indexed": true,
          "internalType": "address",
          "name": "operator",
          "type": "address"
        },
        {
          "indexed": true,
          "internalType": "address",
          "name": "from",
          "type": "address"
        },
        {
          "indexed": true,
          "internalType": "address",
          "name": "to",
          "type": "address"
        },
        {
          "indexed": false,
          "internalType": "uint256",
          "name": "id",
          "type": "uint256"
        },
        {
          "indexed": false,
          "internalType": "uint256",
          "name": "value",
          "type": "uint256"
        }
      ],
      "name": "TransferSingle",
      "type": "event"
    },
    {
      "anonymous": false,
      "inputs": [
        {
          "indexed": false,
          "internalType": "string",
          "name": "value",
          "type": "string"
        },
        {
          "indexed": true,
          "internalType": "uint256",
          "name": "id",
          "type": "uint256"
        }
      ],
      "name": "URI",
      "type": "event"
    },
    {
      "inputs": [
        {
          "internalType": "address",
          "name": "account",
          "type": "address"
        },
        {
          "internalType": "uint256",
          "name": "id",
          "type": "uint256"
        }
      ],
      "name": "balanceOf",
      "outputs": [
        {
          "internalType": "uint256",
          "name": "",
          "type": "uint256"
        }
      ],
      "stateMutability": "view",
      "type": "function"
    },
    {
      "inputs": [
        {
          "internalType": "address[]",
          "name": "accounts",
          "type": "address[]"
        },
        {
          "internalType": "uint256[]",
          "name": "ids",
          "type": "uint256[]"
        }
      ],
      "name": "balanceOfBatch",
      "outputs": [
        {
          "internalType": "uint256[]",
          "name": "",
          "type": "uint256[]"
        }
      ],
      "stateMutability": "view",
      "type": "function"
    },
    {
      "inputs": [
        {
          "internalType": "bytes32",
          "name": "conditionId",
          "type": "bytes32"
        },
        {
          "internalType": "address",
          "name": "collateralToken",
          "type": "address"
        },
        {
          "internalType": "uint256",
          "name": "outcomeSlotCount",
          "type": "uint256"
        },
        {
          "internalType": "string",
          "name": "eventUri",
          "type": "string"
        }
      ],
      "name": "createMarket",
      "outputs": [],
      "stateMutability": "nonpayable",
      "type": "function"
    },
    {
      "inputs": [
        {
          "internalType": "bytes32",
          "name": "conditionId",
          "type": "bytes32"
        }
      ],
      "name": "getMarket",
      "outputs": [
        {
          "components": [
            {
              "internalType": "bytes32",
              "name": "conditionId",
              "type": "bytes32"
            },
            {
              "internalType": "address",
              "name": "collateralToken",
              "type": "address"
            },
            {
              "internalType": "uint256",
              "name": "outcomeSlotCount",
              "type": "uint256"
            },
            {
              "internalType": "uint256",
              "name": "totalCollateral",
              "type": "uint256"
            },
            {
              "internalType": "uint256[]",
              "name": "payoutNumerators",
              "type": "uint256[]"
            },
            {
              "internalType": "uint256",
              "name": "payoutDenominator",
              "type": "uint256"
            },
            {
              "internalType": "bool",
              "name": "resolved",
              "type": "bool"
            },
            {
              "internalType": "string",
              "name": "eventUri",
              "type": "string"
            }
          ],
          "internalType": "struct ConditionalTokens.Market",
          "name": "",
          "type": "tuple"
        }
      ],
      "stateMutability": "view",
      "type": "function"
    },
    {
      "inputs": [
        {
          "internalType": "bytes32",
          "name": "conditionId",
          "type": "bytes32"
        }
      ],
      "name": "getPayoutNumerators",
      "outputs": [
        {
          "internalType": "uint256[]",
          "name": "",
          "type": "uint256[]"
        }
      ],
      "stateMutability": "view",
      "type": "function"
    },
    {
      "inputs": [
        {
          "internalType": "bytes32",
          "name": "conditionId",
          "type": "bytes32"
        },
        {
          "internalType": "uint256",
          "name": "outcomeIndex",
          "type": "uint256"
        }
      ],
      "name": "getTokenId",
      "outputs": [
        {
          "internalType": "uint256",
          "name": "",
          "type": "uint256"
        }
      ],
      "stateMutability": "pure",
      "type": "function"
    },
    {
      "inputs": [
        {
          "internalType": "address",
          "name": "account",
          "type": "address"
        },
        {
          "internalType": "address",
          "name": "operator",
          "type": "address"
        }
      ],
      "name": "isApprovedForAll",
      "outputs": [
        {
          "internalType": "bool",
          "name": "",
          "type": "bool"
        }
      ],
      "stateMutability": "view",
      "type": "function"
    },
    {
      "inputs": [
        {
          "internalType": "bytes32",
          "name": "",
          "type": "bytes32"
        }
      ],
      "name": "markets",
      "outputs": [
        {
          "internalType": "bytes32",
          "name": "conditionId",
          "type": "bytes32"
        },
        {
          "internalType": "address",
          "name": "collateralToken",
          "type": "address"
        },
        {
          "internalType": "uint256",
          "name": "outcomeSlotCount",
          "type": "uint256"
        },
        {
          "internalType": "uint256",
          "name": "totalCollateral",
          "type": "uint256"
        },
        {
          "internalType": "uint256",
          "name": "payoutDenominator",
          "type": "uint256"
        },
        {
          "internalType": "bool",
          "name": "resolved",
          "type": "bool"
        },
        {
          "internalType": "string",
          "name": "eventUri",
          "type": "string"
        }
      ],
      "stateMutability": "view",
      "type": "function"
    },
    {
      "inputs": [
        {
          "internalType": "bytes32",
          "name": "conditionId",
          "type": "bytes32"
        },
        {
          "internalType": "uint256",
          "name": "amount",
          "type": "uint256"
        }
      ],
      "name": "mergePositions",
      "outputs": [],
      "stateMutability": "nonpayable",
      "type": "function"
    },
    {
      "inputs": [],
      "name": "oracle",
      "outputs": [
        {
          "internalType": "address",
          "name": "",
          "type": "address"
        }
      ],
      "stateMutability": "view",
      "type": "function"
    },
    {
      "inputs": [],
      "name": "owner",
      "outputs": [
        {
          "internalType": "address",
          "name": "",
          "type": "address"
        }
      ],
      "stateMutability": "view",
      "type": "function"
    },
    {
      "inputs": [
        {
          "internalType": "bytes32",
          "name": "conditionId",
          "type": "bytes32"
        },
        {
          "internalType": "uint256[]",
          "name": "amounts",
          "type": "uint256[]"
        }
      ],
      "name": "redeemPositions",
      "outputs": [],
      "stateMutability": "nonpayable",
      "type": "function"
    },
    {
      "inputs": [
        {
          "internalType": "bytes32",
          "name": "",
          "type": "bytes32"
        },
        {
          "internalType": "address",
          "name": "",
          "type": "address"
        },
        {
          "internalType": "uint256",
          "name": "",
          "type": "uint256"
        }
      ],
      "name": "redemptions",
      "outputs": [
        {
          "internalType": "uint256",
          "name": "",
          "type": "uint256"
        }
      ],
      "stateMutability": "view",
      "type": "function"
    },
    {
      "inputs": [],
      "name": "renounceOwnership",
      "outputs": [],
      "stateMutability": "nonpayable",
      "type": "function"
    },
    {
      "inputs": [
        {
          "internalType": "bytes32",
          "name": "conditionId",
          "type": "bytes32"
        },
        {
          "internalType": "uint256[]",
          "name": "payoutNumerators",
          "type": "uint256[]"
        }
      ],
      "name": "resolveMarket",
      "outputs": [],
      "stateMutability": "nonpayable",
      "type": "function"
    },
    {
      "inputs": [
        {
          "internalType": "address",
          "name": "from",
          "type": "address"
        },
        {
          "internalType": "address",
          "name": "to",
          "type": "address"
        },
        {
          "internalType": "uint256[]",
          "name": "ids",
          "type": "uint256[]"
        },
        {
          "internalType": "uint256[]",
          "name": "values",
          "type": "uint256[]"
        },
        {
          "internalType": "bytes",
          "name": "data",
          "type": "bytes"
        }
      ],
      "name": "safeBatchTransferFrom",
      "outputs": [],
      "stateMutability": "nonpayable",
      "type": "function"
    },
    {
      "inputs": [
        {
          "internalType": "address",
          "name": "from",
          "type": "address"
        },
        {
          "internalType": "address",
          "name": "to",
          "type": "address"
        },
        {
          "internalType": "uint256",
          "name": "id",
          "type": "uint256"
        },
        {
          "internalType": "uint256",
          "name": "value",
          "type": "uint256"
        },
        {
          "internalType": "bytes",
          "name": "data",
          "type": "bytes"
        }
      ],
      "name": "safeTransferFrom",
      "outputs": [],
      "stateMutability": "nonpayable",
      "type": "function"
    },
    {
      "inputs": [
        {
          "internalType": "address",
          "name": "operator",
          "type": "address"
        },
        {
          "internalType": "bool",
          "name": "approved",
          "type": "bool"
        }
      ],
      "name": "setApprovalForAll",
      "outputs": [],
      "stateMutability": "nonpayable",
      "type": "function"
    },
    {
      "inputs": [
        {
          "internalType": "address",
          "name": "_oracle",
          "type": "address"
        }
      ],
      "name": "setOracle",
      "outputs": [],
      "stateMutability": "nonpayable",
      "type": "function"
    },
    {
      "inputs": [
        {
          "internalType": "bytes32",
          "name": "conditionId",
          "type": "bytes32"
        },
        {
          "internalType": "uint256",
          "name": "amount",
          "type": "uint256"
        }
      ],
      "name": "splitPosition",
      "outputs": [],
      "stateMutability": "payable",
      "type": "function"
    },
    {
      "inputs": [
        {
          "internalType": "bytes4",
          "name": "interfaceId",
          "type": "bytes4"
        }
      ],
      "name": "supportsInterface",
      "outputs": [
        {
          "internalType": "bool",
          "name": "",
          "type": "bool"
        }
      ],
      "stateMutability": "view",
      "type": "function"
    },
    {
      "inputs": [
        {
          "internalType": "address",
          "name": "newOwner",
          "type": "address"
        }
      ],
      "name": "transferOwnership",
      "outputs": [],
      "stateMutability": "nonpayable",
      "type": "function"
    },
    {
      "inputs": [
        {
          "internalType": "uint256",
          "name": "",
          "type": "uint256"
        }
      ],
      "name": "uri",
      "outputs": [
        {
          "internalType": "string",
          "name": "",
          "type": "string"
        }
      ],
      "stateMutability": "view",
      "type": "function"
    },
    {
      "stateMutability": "payable",
      "type": "receive"
    }
  ],
  "bytecode": "0x6080346200019d576001600160401b0390601f62002b4038819003918201601f19168301918483118484101762000187578084926020946040528339810103126200019d57516001600160a01b0391828216918290036200019d57604051906020820190811182821017620001875760405260008091526002546001908181811c911680156200017c575b60208210146200016857601f81116200011a575b50816002553315620001015760035460018060a01b03199233848316176003557f8be0079c531659141344cd1fd0a4f28419497f9722a3daafe3b4186f6b6457e0604051963393169180a3600455600754161760075561299d9081620001a38239f35b604051631e4fbdf760e01b815260048101839052602490fd5b60028352601f0160051c7f405787fa12a823e0f2b7631cc41b3ba8828b3321ca811111fa75cd3aa3bb5ace9081019082905b8281106200015c5750506200009e565b8481550182906200014c565b634e487b7160e01b83526022600452602483fd5b90607f16906200008a565b634e487b7160e01b600052604160045260246000fd5b600080fdfe6080604052600436101561001b575b361561001957600080fd5b005b60003560e01c8062fdd58e1461018a57806301ffc9a71461018557806303a4b019146101805780630e89341c1461017b5780632eb2c2d6146101765780634e1273f41461017157806365b5053a1461016c57806368a4c576146101675780636d996c9114610162578063715018a61461015d5780637564912b146101585780637adbf973146101535780637dc0d1d01461014e5780638da5cb5b14610149578063a22cb46514610144578063a3d7da1d1461013f578063b10c5c171461013a578063c3c95c7b14610135578063d5ffd93514610130578063dbeccb231461012b578063e985e9c514610126578063f242432a146101215763f2fde38b0361000e57611536565b611419565b6113bc565b61117c565b611016565b610ee8565b610cf0565b610b9c565b610ae0565b610ab7565b610a8e565b610a4b565b6109bd565b61087e565b61083b565b610812565b6107b6565b6106fd565b610592565b610345565b6102a1565b610233565b6101d4565b600435906001600160a01b03821682036101a557565b600080fd5b602435906001600160a01b03821682036101a557565b35906001600160a01b03821682036101a557565b346101a55760403660031901126101a55760206102186101f261018f565b6024356000526000835260406000209060018060a01b0316600052602052604060002090565b54604051908152f35b6001600160e01b03198116036101a557565b346101a55760203660031901126101a557602060043561025281610221565b63ffffffff60e01b16636cdb3d1360e11b8114908115610290575b811561027f575b506040519015158152f35b6301ffc9a760e01b14905038610274565b6303a24d0760e21b8114915061026d565b346101a55760803660031901126101a5576102ba6101aa565b606435906001600160401b03908183116101a557366023840112156101a55782600401359182116101a55736602483850101116101a557602461001993019060443590600435611df0565b919082519283825260005b848110610331575050826000602080949584010152601f8019910116010190565b602081830181015184830182015201610310565b346101a5576020806003193601126101a557604051906000826002549161036b836108df565b9283835260019085828216918260001461040b5750506001146103ae575b506103969250038361047d565b6103aa604051928284938452830190610305565b0390f35b84915060026000527f405787fa12a823e0f2b7631cc41b3ba8828b3321ca811111fa75cd3aa3bb5ace906000915b8583106103f3575050610396935082010138610389565b805483890185015287945086939092019181016103dc565b60ff19168582015261039695151560051b85010192503891506103899050565b634e487b7160e01b600052604160045260246000fd5b61010081019081106001600160401b0382111761045d57604052565b61042b565b602081019081106001600160401b0382111761045d57604052565b90601f801991011681019081106001600160401b0382111761045d57604052565b604051906104ab82610441565b565b6001600160401b03811161045d5760051b60200190565b81601f820112156101a5578035916104db836104ad565b926104e9604051948561047d565b808452602092838086019260051b8201019283116101a5578301905b828210610513575050505090565b81358152908301908301610505565b6001600160401b03811161045d57601f01601f191660200190565b92919261054982610522565b91610557604051938461047d565b8294818452818301116101a5578281602093846000960137010152565b9080601f830112156101a55781602061058f9335910161053d565b90565b346101a55760a03660031901126101a5576105ab61018f565b6105b36101aa565b90604435916001600160401b03908184116101a5576105d7600494369086016104c4565b906064358381116101a5576105ef90369087016104c4565b926084359081116101a5576106079036908701610574565b936001600160a01b03808216903382141580610694575b6106675783161561064f5715610638576100199550611886565b604051626a0d4560e21b8152600081880152602490fd5b604051632bfa23e760e11b8152600081890152602490fd5b6040805163711bec9160e11b815233818b019081526001600160a01b038616602082015290918291010390fd5b50600082815260016020908152604080832033845290915290205460ff161561061e565b90815180825260208080930193019160005b8281106106d8575050505090565b8351855293810193928101926001016106ca565b90602061058f9281815201906106b8565b346101a55760403660031901126101a5576004356001600160401b038082116101a557366023830112156101a5578160040135610739816104ad565b92610747604051948561047d565b81845260209160248386019160051b830101913683116101a557602401905b82821061079f57856024358681116101a5576103aa9161078d6107939236906004016104c4565b9061167b565b604051918291826106ec565b8380916107ab846101c0565b815201910190610766565b346101a55760603660031901126101a5576107f96107d26101aa565b600435600052600660205260406000209060018060a01b0316600052602052604060002090565b6044356000526020526020604060002054604051908152f35b346101a55760403660031901126101a55760206108336024356004356128e4565b604051908152f35b346101a55760203660031901126101a55760043560005260056020526103aa61086a6004604060002001612918565b6040519182916020835260208301906106b8565b346101a5576000806003193601126108dc576108986115c4565b600380546001600160a01b0319811690915581906001600160a01b03167f8be0079c531659141344cd1fd0a4f28419497f9722a3daafe3b4186f6b6457e08280a380f35b80fd5b90600182811c9216801561090f575b60208310146108f957565b634e487b7160e01b600052602260045260246000fd5b91607f16916108ee565b906040519182600082549261092d846108df565b90818452600194858116908160001461099a5750600114610957575b50506104ab9250038361047d565b9093915060005260209081600020936000915b8183106109825750506104ab93508201013880610949565b8554888401850152948501948794509183019161096a565b9150506104ab94506020925060ff191682840152151560051b8201013880610949565b346101a55760203660031901126101a5576004356000526005602052604060002080546103aa60018060a01b03600184015416926002810154906003810154600582015490610a16600760ff6006860154169401610919565b9360405197889788526020880152604087015260608601526080850152151560a084015260e060c084015260e0830190610305565b346101a55760203660031901126101a557610a6461018f565b610a6c6115c4565b600780546001600160a01b0319166001600160a01b0392909216919091179055005b346101a55760003660031901126101a5576007546040516001600160a01b039091168152602090f35b346101a55760003660031901126101a5576003546040516001600160a01b039091168152602090f35b346101a55760403660031901126101a557610af961018f565b60243590811515908183036101a5576001600160a01b038116928315610b8457610b45610b569233600052600160205260406000209060018060a01b0316600052602052604060002090565b9060ff801983541691151516179055565b6040519081527f17307eab39ab6107e8899845ad3d59bd9653f200f220920489ca2b5937696c3160203392a3005b60405162ced3e160e81b815260006004820152602490fd5b60403660031901126101a557602435600435610bb661252e565b610bca816000526005602052604060002090565b60036002820191610bdd835415156121f1565b610bfa610bf5610bf1600684015460ff1690565b1590565b612235565b610c05851515612281565b60018101546001600160a01b03168581610cd457610c2591503414612319565b01610c31848254611a85565b905554610c3d816115f0565b90610c47816115f0565b9060005b818110610ca557505090610c6891610c61611b30565b913361235c565b60405191825233917f350f90cf5a85929a7a6253f377d4a176450441fa6871167f699a8803cdc1cbc39080602081015b0390a36100196001600455565b80610cb3610ccf92876128e4565b610cbd8287611662565b5286610cc98286611662565b52611638565b610c4b565b610ceb91610ce234156122cd565b30903390612472565b610c25565b346101a55760403660031901126101a557602435600435610d0f61252e565b610d23816000526005602052604060002090565b6002810154610d338115156121f1565b610d47610bf5610bf1600685015460ff1690565b610d52841515612281565b610d5b816115f0565b610d64826115f0565b9160005b818110610e0057505090610d7c91336125e3565b60038101610d8b848254612594565b9055600101546001600160a01b03168281610df057610dbc9150600080808093335af1610db6611b43565b506125a1565b60405191825233917fc914cef50d73c9767b9ab705a1364637c64fbb17b8aea2e4bf4f056f0aff5aa6908060208101610c98565b610dfb91339061260c565b610dbc565b80610e0e610e5e92886128e4565b610e188286611662565b5287610e248287611662565b52610e5988610e52610e368488611662565b5160009081526020818152604080832033845290915290205490565b1015612551565b611638565b610d68565b9061058f91602081528151602082015260018060a01b036020830151166040820152604082015160608201526060820151608082015260808201519060e0610eb9610100938460a08501526101208401906106b8565b9360a081015160c0840152610ed660c08201518385019015159052565b015191601f1982850301910152610305565b346101a55760203660031901126101a5576103aa60408051610f0981610441565b606060e0600092838152836020820152838582015283838201528260808201528360a08201528360c082015201526004358152600560205220610fb66007610f4f61049e565b8354815260018401546001600160a01b03166020820152926002810154604085015260038101546060850152610f8760048201612918565b6080850152600581015460a0850152610fb0610fa7600683015460ff1690565b151560c0860152565b01610919565b60e082015260405191829182610e63565b60406003198201126101a557600435916024356001600160401b03928382116101a557806023830112156101a55781600401359384116101a55760248460051b830101116101a5576024019190565b346101a55761102436610fc7565b6007549192916001600160a01b031633036111405761104d826000526005602052604060002090565b92600284015461105e8115156121f1565b61107e6006860191611077610bf5610bf1855460ff1690565b841461265b565b6000809560048101965b8581106110e95750918160057f08fa4e1452e81caa286f92a5c26f4f713d231fd5585c56d9920451d8263ae2ed9695946110c66110d59515156126c7565b0155805460ff19166001179055565b6110e460405192839283612737565b0390a2005b9161113561113b916111236110ff868a8a61269f565b3561110a878d6126af565b90919082549060031b91821b91600019901b1916179055565b61112e85898961269f565b3590611a85565b92611638565b611088565b60405162461bcd60e51b815260206004820152601460248201527313db9b1e481bdc9858db194818d85b8818d85b1b60621b6044820152606490fd5b346101a55761118a36610fc7565b9161119361252e565b6111a7816000526005602052604060002090565b926111be6111b9600686015460ff1690565b612748565b60028401926111cf8454831461278a565b600060048601815b8654811015611324576111eb81868661269f565b351561131b576111fb81876128e4565b61124161122d33611216846000526000602052604060002090565b9060018060a01b0316600052602052604060002090565b5461123984898961269f565b351115612551565b88868661125b61125186886126af565b90549060031b1c90565b6112cb575b61127d9250846112c69594926112759261269f565b35903361289a565b61128881878761269f565b356112bf6112b7836112a8336112168d6000526006602052604060002090565b90600052602052604060002090565b918254611a85565b9055611638565b6111d7565b9561130861127d9360056112ff6112eb8961130e976112c69b9a9d61269f565b356112f96112518a8d6126af565b90611f77565b910154906127cf565b90611a85565b9491925050888686611260565b6112c690611638565b83867f894336d32a530e7fac8db1a22897ab66d8bec9d60d3bbd6091236e1b35a6735985888c6113558315156127ef565b6003810161137084825461136b81831115612831565b612594565b9055600101546001600160a01b031682816113ac5761139b9150600080808093335af1610db6611b43565b610c9860405192839233978461287d565b6113b791339061260c565b61139b565b346101a55760403660031901126101a557602060ff61140d6113dc61018f565b6113e46101aa565b6001600160a01b0391821660009081526001865260408082209290931681526020919091522090565b54166040519015158152f35b346101a55760a03660031901126101a55761143261018f565b61143a6101aa565b6084356001600160401b0381116101a557611459903690600401610574565b906001600160a01b03838116903382141580611512575b6114eb578216156114d257156114ba57610019926114b26064356044359160405192600184526020840152604083019160018352606084015260808301604052565b929091611886565b604051626a0d4560e21b815260006004820152602490fd5b604051632bfa23e760e11b815260006004820152602490fd5b60405163711bec9160e11b81523360048201526001600160a01b0386166024820152604490fd5b50600082815260016020908152604080832033845290915290205460ff1615611470565b346101a55760203660031901126101a55761154f61018f565b6115576115c4565b6001600160a01b039081169081156115ab57600354826bffffffffffffffffffffffff60a01b821617600355167f8be0079c531659141344cd1fd0a4f28419497f9722a3daafe3b4186f6b6457e0600080a3005b604051631e4fbdf760e01b815260006004820152602490fd5b6003546001600160a01b031633036115d857565b60405163118cdaa760e01b8152336004820152602490fd5b906115fa826104ad565b611607604051918261047d565b8281528092611618601f19916104ad565b0190602036910137565b634e487b7160e01b600052601160045260246000fd5b60001981146116475760010190565b611622565b634e487b7160e01b600052603260045260246000fd5b80518210156116765760209160051b010190565b61164c565b919091805183518082036116f657505061169581516115f0565b9060005b81518110156116ef57806116e06116ea9260051b60208082870101519189010151906000918252602082815260408084206001600160a01b03909316845291905290205490565b610cc98286611662565b611699565b5090925050565b604051635b05999160e01b815260048101919091526024810191909152604490fd5b92919080518251908181036116f657505060005b81518110156117e657600581901b82810160209081015191850101516001600160a01b038716611767575b505061176290611638565b61172c565b61177f87611216846000526000602052604060002090565b548181106117af57876112166117629594936117a79303936000526000602052604060002090565b559038611757565b6040516303dee4c560e01b81526001600160a01b038916600482015260248101919091526044810182905260648101839052608490fd5b5090600092939160018151148414611847576020908101519181015160408051938452918301526001600160a01b039092169133917fc3d58168c5ae7397731d063d5bbf3d657854427343f4c083240f7aacaa2d0f6291819081015b0390a4565b6040516001600160a01b039093169233927f4a39dc06d4c0dbc64b70af90fd698a233a518aa5d07e595d983b8c0526c8f7fb9282916118429183611a92565b9491909181518451908181036116f657505060005b825181101561198f57600581901b83810160209081015191870101516001600160a01b03929186908a8516611908575b6118de9482166118e3575b505050611638565b61189b565b6118fe916112166112b7926000526000602052604060002090565b90553885816118d6565b91929390506119258a611216846000526000602052604060002090565b5483811061195857918791846118de969594036119508d611216856000526000602052604060002090565b5594506118cb565b6040516303dee4c560e01b81526001600160a01b038c16600482015260248101919091526044810184905260648101839052608490fd5b509491939290936001855114600014611a3a576020858101518382015160408051928352928201526001600160a01b03838116929086169133917fc3d58168c5ae7397731d063d5bbf3d657854427343f4c083240f7aacaa2d0f6291a45b6001600160a01b038116611a03575b5050505050565b8451600103611a2957602080611a1f9601519201519233611c6d565b38808080806119fc565b611a3594919233611db9565b611a1f565b6040516001600160a01b03828116919085169033907f4a39dc06d4c0dbc64b70af90fd698a233a518aa5d07e595d983b8c0526c8f7fb9080611a7d888c83611a92565b0390a46119ed565b9190820180921161164757565b9091611aa961058f936040845260408401906106b8565b9160208184039101526106b8565b908160209103126101a5575161058f81610221565b909260a09261058f9594600180861b0316835260006020840152604083015260608201528160808201520190610305565b919261058f95949160a094600180871b038092168552166020840152604083015260608201528160808201520190610305565b60405190611b3d82610462565b60008252565b3d15611b6e573d90611b5482610522565b91611b62604051938461047d565b82523d6000602084013e565b606090565b9293919093843b611b85575050505050565b602091611ba8604051948593849363f23a6e6160e01b9889865260048601611acc565b038160006001600160a01b0388165af160009181611c3d575b50611c005782611bcf611b43565b8051919082611bf957604051632bfa23e760e11b81526001600160a01b0383166004820152602490fd5b6020915001fd5b6001600160e01b03191603611c1a575038808080806119fc565b604051632bfa23e760e11b81526001600160a01b03919091166004820152602490fd5b611c5f91925060203d8111611c66575b611c57818361047d565b810190611ab7565b9038611bc1565b503d611c4d565b939290949194853b611c82575b505050505050565b611ca5602093604051958694859463f23a6e6160e01b998a875260048701611afd565b038160006001600160a01b0388165af160009181611ce7575b50611ccc5782611bcf611b43565b6001600160e01b03191603611c1a5750388080808080611c7a565b611d0091925060203d8111611c6657611c57818361047d565b9038611cbe565b92611d3661058f9593611d449360018060a01b031686526000602087015260a0604087015260a08601906106b8565b9084820360608601526106b8565b916080818403910152610305565b939061058f9593611d3691611d449460018060a01b03809216885216602087015260a0604087015260a08601906106b8565b9293919093843b611d96575050505050565b602091611ba8604051948593849363bc197c8160e01b9889865260048601611d07565b939290949194853b611dcd57505050505050565b611ca5602093604051958694859463bc197c8160e01b998a875260048701611d52565b9290611ede7f5be89c45557fe9eb5c0a0bb4f41b9e3b39a1b33ad03e54ed7a797e4ab31a00a09395611e206115c4565b611e416002611e39886000526005602052604060002090565b015415611eef565b600287101580611ee3575b611e5590611f33565b611ec5611e61886115f0565b611e6961049e565b8881526001600160a01b038616602082015290896040830152600060608301526080820152600060a0820152600060c0820152611ea736848861053d565b60e0820152611ec0886000526005602052604060002090565b612132565b6040516001600160a01b039093169692938493846121c3565b0390a3565b50610100871115611e4c565b15611ef657565b60405162461bcd60e51b81526020600482015260156024820152744d61726b657420616c72656164792065786973747360581b6044820152606490fd5b15611f3a57565b60405162461bcd60e51b8152602060048201526015602482015274125b9d985b1a59081bdd5d18dbdb594818dbdd5b9d605a1b6044820152606490fd5b8181029291811591840414171561164757565b818110611f95575050565b60008155600101611f8a565b8151916001600160401b03831161045d5768010000000000000000831161045d578154838355808410612001575b50602080910191600052806000209060005b848110611fef575050505050565b83518382015592810192600101611fe1565b61201990836000528460206000209182019101611f8a565b38611fcf565b9190601f811161202e57505050565b6104ab926000526020600020906020601f840160051c8301931061205a575b601f0160051c0190611f8a565b909150819061204d565b91909182516001600160401b03811161045d5761208b8161208584546108df565b8461201f565b602080601f83116001146120c75750819293946000926120bc575b50508160011b916000199060031b1c1916179055565b0151905038806120a6565b90601f198316956120dd85600052602060002090565b926000905b88821061211a57505083600195969710612101575b505050811b019055565b015160001960f88460031b161c191690553880806120f7565b806001859682949686015181550195019301906120e2565b8151815560208201516001820180546001600160a01b0319166001600160a01b039092169190911790556104ab9160079060e090604081015160028501556060810151600385015561218b608082015160048601611fa1565b60a081015160058501556121ba6121a560c0830151151590565b600686019060ff801983541691151516179055565b01519101612064565b91926060938192845260406020850152816040850152848401376000828201840152601f01601f1916010190565b156121f857565b60405162461bcd60e51b815260206004820152601560248201527413585c9ad95d08191bd95cc81b9bdd08195e1a5cdd605a1b6044820152606490fd5b1561223c57565b60405162461bcd60e51b815260206004820152601760248201527f4d61726b657420616c7265616479207265736f6c7665640000000000000000006044820152606490fd5b1561228857565b60405162461bcd60e51b815260206004820152601760248201527f416d6f756e74206d75737420626520706f7369746976650000000000000000006044820152606490fd5b156122d457565b60405162461bcd60e51b815260206004820152601a60248201527f446f206e6f742073656e642056455420776974682045524332300000000000006044820152606490fd5b1561232057565b60405162461bcd60e51b8152602060048201526014602482015273125b98dbdc9c9958dd0815915508185b5bdd5b9d60621b6044820152606490fd5b6001600160a01b0381169390919084156114d25781518451908181036116f657505060005b82518110156123bf57806123ba9160051b6112bf6112b787611216602080868b010151958c010151946000526000602052604060002090565b612381565b5092919360018251146000146124365760208281015184820151604080519283529282015260009133917fc3d58168c5ae7397731d063d5bbf3d657854427343f4c083240f7aacaa2d0f629190a45b805160010361242c57906020806104ab959301519101519133611b73565b6104ab9333611d84565b60006040517f4a39dc06d4c0dbc64b70af90fd698a233a518aa5d07e595d983b8c0526c8f7fb33918061246a888883611a92565b0390a461240e565b6040516323b872dd60e01b60208201526001600160a01b03928316602482015292909116604483015260648083019390935291815260a08101918183106001600160401b0384111761045d576104ab926040525b906000602091828151910182855af115612522576000513d61251957506001600160a01b0381163b155b6124f75750565b604051635274afe760e01b81526001600160a01b039091166004820152602490fd5b600114156124f0565b6040513d6000823e3d90fd5b60026004541461253f576002600455565b604051633ee5aeb560e01b8152600490fd5b1561255857565b60405162461bcd60e51b8152602060048201526014602482015273496e73756666696369656e742062616c616e636560601b6044820152606490fd5b9190820391821161164757565b156125a857565b60405162461bcd60e51b8152602060048201526013602482015272159155081d1c985b9cd9995c8819985a5b1959606a1b6044820152606490fd5b91906001600160a01b038316156114ba576104ab92600060405161260681610462565b52611718565b60405163a9059cbb60e01b60208201526001600160a01b03909216602483015260448083019390935291815260808101916001600160401b0383118284101761045d576104ab926040526124c6565b1561266257565b60405162461bcd60e51b8152602060048201526015602482015274092dcecc2d8d2c840e0c2f2deeae840d8cadccee8d605b1b6044820152606490fd5b91908110156116765760051b0190565b80548210156116765760005260206000200190600090565b156126ce57565b60405162461bcd60e51b815260206004820152601a60248201527f496e76616c6964207061796f7574202d206e6f2077696e6e65720000000000006044820152606490fd5b81835290916001600160fb1b0383116101a55760209260051b809284830137010190565b91602061058f938181520191612713565b1561274f57565b60405162461bcd60e51b815260206004820152601360248201527213585c9ad95d081b9bdd081c995cdbdb1d9959606a1b6044820152606490fd5b1561279157565b60405162461bcd60e51b8152602060048201526016602482015275092dcecc2d8d2c840c2dadeeadce8e640d8cadccee8d60531b6044820152606490fd5b81156127d9570490565b634e487b7160e01b600052601260045260246000fd5b156127f657565b60405162461bcd60e51b81526020600482015260136024820152724e6f207061796f757420617661696c61626c6560681b6044820152606490fd5b1561283857565b60405162461bcd60e51b815260206004820152601760248201527f496e73756666696369656e7420636f6c6c61746572616c0000000000000000006044820152606490fd5b93929160209161289591604087526040870191612713565b930152565b906001600160a01b038216156114ba576104ab926128d560405192600184526020840152604083019160018352606084015260808301604052565b91600060405161260681610462565b906040519060208201928352604082015260408152606081018181106001600160401b0382111761045d5760405251902090565b9060405191828154918282526020928383019160005283600020936000905b82821061294d575050506104ab9250038361047d565b85548452600195860195889550938101939091019061293756fea264697066735822122029a07a869b648ffd4caec74ae6aa3c54ce4c42e182c03569aeaf44b9c24c0da364736f6c63430008140033",
  "linkReferences": {},
  "deployedLinkReferences": {}
}