{
  "_format": "hh-sol-artifact-1",
  "contractName": "AdminOracle",
  "sourceName": "contracts/AdminOracle.sol",
  "abi": [
    {
      "inputs": [
        {
          "internalType": "address",
          "name": "_conditionalTokens",
          "type": "address"
        }
      ],
      "stateMutability": "nonpayable",
      "type": "constructor"
    },
    {
      "inputs": [],
      "name": "AccessControlBadConfirmation",
      "type": "error"
    },
    {
      "inputs": [
        {
          "internalType": "address",
          "name": "account",
          "type": "address"
        },
        {
          "internalType": "bytes32",
          "name": "neededRole",
          "type": "bytes32"
        }
      ],
      "name": "AccessControlUnauthorizedAccount",
      "type": "error"
    },
    {
      "inputs": [
        {
          "internalType": "address",
          "name": "owner",
          "type": "address"
        }
      ],
      "name": "OwnableInvalidOwner",
      "type": "error"
    },
    {
      "inputs": [
        {
          "internalType": "address",
          "name": "account",
          "type": "address"
        }
      ],
      "name": "OwnableUnauthorizedAccount",
      "type": "error"
    },
    {
      "anonymous": false,
      "inputs": [
        {
          "indexed": false,
          "internalType": "uint256",
          "name": "newPeriod",
          "type": "uint256"
        }
      ],
      "name": "ChallengePeriodUpdated",
      "type": "event"
    },
    {
      "anonymous": false,
      "inputs": [
        {
          "indexed": true,
          "internalType": "address",
          "name": "previousOwner",
          "type": "address"
        },
        {
          "indexed": true,
          "internalType": "address",
          "name": "newOwner",
          "type": "address"
        }
      ],
      "name": "OwnershipTransferred",
      "type": "event"
    },
    {
      "anonymous": false,
      "inputs": [
        {
          "indexed": true,
          "internalType": "bytes32",
          "name": "conditionId",
          "type": "bytes32"
        }
      ],
      "name": "ResolutionFinalized",
      "type": "event"
    },
    {
      "anonymous": false,
      "inputs": [
        {
          "indexed": true,
          "internalType": "bytes32",
          "name": "conditionId",
          "type": "bytes32"
        },
        {
          "indexed": false,
          "internalType": "string",
          "name": "reason",
          "type": "string"
        }
      ],
      "name": "ResolutionOverwritten",
      "type": "event"
    },
    {
      "anonymous": false,
      "inputs": [
        {
          "indexed": true,
          "internalType": "bytes32",
          "name": "conditionId",
          "type": "bytes32"
        },
        {
          "indexed": false,
          "internalType": "uint256[]",
          "name": "payoutNumerators",
          "type": "uint256[]"
        },
        {
          "indexed": false,
          "internalType": "string",
          "name": "resultSource",
          "type": "string"
        }
      ],
      "name": "ResolutionProposed",
      "type": "event"
    },
    {
      "anonymous": false,
      "inputs": [
        {
          "indexed": true,
          "internalType": "bytes32",
          "name": "role",
          "type": "bytes32"
        },
        {
          "indexed": true,
          "internalType": "bytes32",
          "name": "previousAdminRole",
          "type": "bytes32"
        },
        {
          "indexed": true,
          "internalType": "bytes32",
          "name": "newAdminRole",
          "type": "bytes32"
        }
      ],
      "name": "RoleAdminChanged",
      "type": "event"
    },
    {
      "anonymous": false,
      "inputs": [
        {
          "indexed": true,
          "internalType": "bytes32",
          "name": "role",
          "type": "bytes32"
        },
        {
          "indexed": true,
          "internalType": "address",
          "name": "account",
          "type": "address"
        },
        {
          "indexed": true,
          "internalType": "address",
          "name": "sender",
          "type": "address"
        }
      ],
      "name": "RoleGranted",
      "type": "event"
    },
    {
      "anonymous": false,
      "inputs": [
        {
          "indexed": true,
          "internalType": "bytes32",
          "name": "role",
          "type": "bytes32"
        },
        {
          "indexed": true,
          "internalType": "address",
          "name": "account",
          "type": "address"
        },
        {
          "indexed": true,
          "internalType": "address",
          "name": "sender",
          "type": "address"
        }
      ],
      "name": "RoleRevoked",
      "type": "event"
    },
    {
      "inputs": [],
      "name": "DEFAULT_ADMIN_ROLE",
      "outputs": [
        {
          "internalType": "bytes32",
          "name": "",
          "type": "bytes32"
        }
      ],
      "stateMutability": "view",
      "type": "function"
    },
    {
      "inputs": [],
      "name": "RESOLVER_ROLE",
      "outputs": [
        {
          "internalType": "bytes32",
          "name": "",
          "type": "bytes32"
        }
      ],
      "stateMutability": "view",
      "type": "function"
    },
    {
      "inputs": [
        {
          "internalType": "address",
          "name": "resolver",
          "type": "address"
        }
      ],
      "name": "addResolver",
      "outputs": [],
      "stateMutability": "nonpayable",
      "type": "function"
    },
    {
      "inputs": [],
      "name": "challengePeriod",
      "outputs": [
        {
          "internalType": "uint256",
          "name": "",
          "type": "uint256"
        }
      ],
      "stateMutability": "view",
      "type": "function"
    },
    {
      "inputs": [],
      "name": "conditionalTokens",
      "outputs": [
        {
          "internalType": "contract ConditionalTokens",
          "name": "",
          "type": "address"
        }
      ],
      "stateMutability": "view",
      "type": "function"
    },
    {
      "inputs": [
        {
          "internalType": "bytes32",
          "name": "conditionId",
          "type": "bytes32"
        },
        {
          "internalType": "uint256[]",
          "name": "payoutNumerators",
          "type": "uint256[]"
        },
        {
          "internalType": "string",
          "name": "resultSource",
          "type": "string"
        }
      ],
      "name": "emergencyResolve",
      "outputs": [],
      "stateMutability": "nonpayable",
      "type": "function"
    },
    {
      "inputs": [
        {
          "internalType": "bytes32",
          "name": "conditionId",
          "type": "bytes32"
        }
      ],
      "name": "finalizeResolution",
      "outputs": [],
      "stateMutability": "nonpayable",
      "type": "function"
    },
    {
      "inputs": [
        {
          "internalType": "bytes32",
          "name": "conditionId",
          "type": "bytes32"
        }
      ],
      "name": "getPayoutNumerators",
      "outputs": [
        {
          "internalType": "uint256[]",
          "name": "",
          "type": "uint256[]"
        }
      ],
      "stateMutability": "view",
      "type": "function"
    },
    {
      "inputs": [
        {
          "internalType": "bytes32",
          "name": "conditionId",
          "type": "bytes32"
        }
      ],
      "name": "getProposal",
      "outputs": [
        {
          "components": [
            {
              "internalType": "bytes32",
              "name": "conditionId",
              "type": "bytes32"
            },
            {
              "internalType": "uint256[]",
              "name": "payoutNumerators",
              "type": "uint256[]"
            },
            {
              "internalType": "uint256",
              "name": "proposedAt",
              "type": "uint256"
            },
            {
              "internalType": "bool",
              "name": "finalized",
              "type": "bool"
            },
            {
              "internalType": "string",
              "name": "resultSource",
              "type": "string"
            }
          ],
          "internalType": "struct AdminOracle.ResolutionProposal",
          "name": "",
          "type": "tuple"
        }
      ],
      "stateMutability": "view",
      "type": "function"
    },
    {
      "inputs": [
        {
          "internalType": "bytes32",
          "name": "role",
          "type": "bytes32"
        }
      ],
      "name": "getRoleAdmin",
      "outputs": [
        {
          "internalType": "bytes32",
          "name": "",
          "type": "bytes32"
        }
      ],
      "stateMutability": "view",
      "type": "function"
    },
    {
      "inputs": [
        {
          "internalType": "bytes32",
          "name": "role",
          "type": "bytes32"
        },
        {
          "internalType": "address",
          "name": "account",
          "type": "address"
        }
      ],
      "name": "grantRole",
      "outputs": [],
      "stateMutability": "nonpayable",
      "type": "function"
    },
    {
      "inputs": [
        {
          "internalType": "bytes32",
          "name": "role",
          "type": "bytes32"
        },
        {
          "internalType": "address",
          "name": "account",
          "type": "address"
        }
      ],
      "name": "hasRole",
      "outputs": [
        {
          "internalType": "bool",
          "name": "",
          "type": "bool"
        }
      ],
      "stateMutability": "view",
      "type": "function"
    },
    {
      "inputs": [],
      "name": "owner",
      "outputs": [
        {
          "internalType": "address",
          "name": "",
          "type": "address"
        }
      ],
      "stateMutability": "view",
      "type": "function"
    },
    {
      "inputs": [
        {
          "internalType": "bytes32",
          "name": "",
          "type": "bytes32"
        }
      ],
      "name": "proposals",
      "outputs": [
        {
          "internalType": "bytes32",
          "name": "conditionId",
          "type": "bytes32"
        },
        {
          "internalType": "uint256",
          "name": "proposedAt",
          "type": "uint256"
        },
        {
          "internalType": "bool",
          "name": "finalized",
          "type": "bool"
        },
        {
          "internalType": "string",
          "name": "resultSource",
          "type": "string"
        }
      ],
      "stateMutability": "view",
      "type": "function"
    },
    {
      "inputs": [
        {
          "internalType": "bytes32",
          "name": "conditionId",
          "type": "bytes32"
        },
        {
          "internalType": "uint256[]",
          "name": "payoutNumerators",
          "type": "uint256[]"
        },
        {
          "internalType": "string",
          "name": "resultSource",
          "type": "string"
        }
      ],
      "name": "proposeResolution",
      "outputs": [],
      "stateMutability": "nonpayable",
      "type": "function"
    },
    {
      "inputs": [
        {
          "internalType": "address",
          "name": "resolver",
          "type": "address"
        }
      ],
      "name": "removeResolver",
      "outputs": [],
      "stateMutability": "nonpayable",
      "type": "function"
    },
    {
      "inputs": [],
      "name": "renounceOwnership",
      "outputs": [],
      "stateMutability": "nonpayable",
      "type": "function"
    },
    {
      "inputs": [
        {
          "internalType": "bytes32",
          "name": "role",
          "type": "bytes32"
        },
        {
          "internalType": "address",
          "name": "callerConfirmation",
          "type": "address"
        }
      ],
      "name": "renounceRole",
      "outputs": [],
      "stateMutability": "nonpayable",
      "type": "function"
    },
    {
      "inputs": [
        {
          "internalType": "bytes32",
          "name": "role",
          "type": "bytes32"
        },
        {
          "internalType": "address",
          "name": "account",
          "type": "address"
        }
      ],
      "name": "revokeRole",
      "outputs": [],
      "stateMutability": "nonpayable",
      "type": "function"
    },
    {
      "inputs": [
        {
          "internalType": "uint256",
          "name": "_period",
          "type": "uint256"
        }
      ],
      "name": "setChallengePeriod",
      "outputs": [],
      "stateMutability": "nonpayable",
      "type": "function"
    },
    {
      "inputs": [
        {
          "internalType": "bytes4",
          "name": "interfaceId",
          "type": "bytes4"
        }
      ],
      "name": "supportsInterface",
      "outputs": [
        {
          "internalType": "bool",
          "name": "",
          "type": "bool"
        }
      ],
      "stateMutability": "view",
      "type": "function"
    },
    {
      "inputs": [
        {
          "internalType": "address",
          "name": "newOwner",
          "type": "address"
        }
      ],
      "name": "transferOwnership",
      "outputs": [],
      "stateMutability": "nonpayable",
      "type": "function"
    }
  ],
  "bytecode": "0x608034620000e857601f62001c5438819003918201601f19168301916001600160401b03831184841017620000ed57808492602094604052833981010312620000e857516001600160a01b0380821691829003620000e8573315620000cf5760005460018060a01b03199133838316176000553391167f8be0079c531659141344cd1fd0a4f28419497f9722a3daafe3b4186f6b6457e0600080a360006003556002541617600255620000b23362000103565b50620000be3362000184565b50604051611a0c9081620002288239f35b604051631e4fbdf760e01b815260006004820152602490fd5b600080fd5b634e487b7160e01b600052604160045260246000fd5b6001600160a01b031660008181527fa6eef7e35abe7026729641147f7915573c7e97b47efa546f5f6e3230263bcb49602052604081205490919060ff16620001805781805260016020526040822081835260205260408220600160ff19825416179055339160008051602062001c348339815191528180a4600190565b5090565b6001600160a01b031660008181527f75e26f58cca2d71dbbeeec7adfb8d72df51164003ce85ac5b2d9b2a24a39870660205260408120549091907f92a19c77d2ea87c7f81d50c74403cb2f401780f3ad919571121efe2bdb427eb19060ff16620002225780835260016020526040832082845260205260408320600160ff1982541617905560008051602062001c34833981519152339380a4600190565b50509056fe608080604052600436101561001357600080fd5b600090813560e01c90816301ffc9a71461104757508063248a9ca31461101b5780632f2ff15d14610fdd57806332ed5b1214610f7857806336568abe14610f30578063390a0b6f14610ee0578063430694cf14610df85780635bd9e29914610dcf5780635d475fdd14610d8157806363317cb2146109c55780636d996c911461096e578063715018a61461091457806378fab260146108eb5780638da5cb5b146108c457806391d1485414610878578063a133353614610828578063a217fddf1461080c578063d547741f146107ca578063de5464c2146102ca578063ea685565146101c3578063f2fde38b146101335763f3f480d91461011357600080fd5b346101305780600319360112610130576020600354604051908152f35b80fd5b50346101305760203660031901126101305761014d6110bf565b610155611590565b6001600160a01b039081169081156101aa57600054826bffffffffffffffffffffffff60a01b821617600055167f8be0079c531659141344cd1fd0a4f28419497f9722a3daafe3b4186f6b6457e0600080a380f35b604051631e4fbdf760e01b815260048101849052602490fd5b5034610130576020366003190112610130576004358082526004602052604082206002810154908115610297576003015460ff1661025e5760035461020791611783565b421061021957610216906118df565b80f35b60405162461bcd60e51b815260206004820152601760248201527f4368616c6c656e676520706572696f64206163746976650000000000000000006044820152606490fd5b60405162461bcd60e51b8152602060048201526011602482015270105b1c9958591e48199a5b985b1a5e9959607a1b6044820152606490fd5b60405162461bcd60e51b815260206004820152600b60248201526a139bc81c1c9bdc1bdcd85b60aa1b6044820152606490fd5b5034610130576102d936611299565b3360009081527f75e26f58cca2d71dbbeeec7adfb8d72df51164003ce85ac5b2d9b2a24a39870660209081526040909120546000805160206119b7833981519152979695939493929160019160ff16156107ab5760025460405163c3c95c7b60e01b81526004810189905260249a5090899082908c9082906001600160a01b03165afa9081156107a057899161077e575b5060408101908151156107425760c001516106fe5761038b9051861461173f565b87885b8681106106c8575015610685578688526004815260408820600281015415159081610675575b5061062a575b604051916103c78361110f565b8783526103d53687876117a6565b918084019283526040840193428552606081018b81526103f636888c6117f4565b95608083019687528b8d526004845260408d20925183558c85840196519687519167ffffffffffffffff9889841161061357600160401b841161061357879083548585558086106105f9575b500191815287878220915b8481106105e75750505050506004929161047f91516002840155511515600383019060ff801983541691151516179055565b01935180519384116105d4578a8a9b9c5061049d869b9a9b546110d5565b83601f821161059b575b5050508b82601f861160011461051c5750936104f9969593819382936000805160206119978339815191529c9d9794610511575b50501b916000199060031b1c19161790555b60405194859485611866565b0390a260035415610508575080f35b610216906118df565b0151925038806104db565b868252808220949594939291601f198616915b828210610581575050916000805160206119978339815191529a9b959391856104f99998969410610568575b505050811b0190556104ed565b015160001960f88460031b161c1916905538808061055b565b8385015186558e9c5094870194938401939081019061052f565b82886105c2945220601f870160051c8101918588106105ca575b601f0160051c019061182b565b8b38836104a7565b90915081906105b5565b634e487b7160e01b8b5260416004528b8bfd5b8884519401938184015501889061044d565b84845282842061060d91810190870161182b565b38610442565b5090508f9150634e487b7160e01b81526041600452fd5b867fd66fa4e3b90b395938378d54e5695d17dc5a6da78074bf2e7949fffdae27024d6060604051848152600c858201526b13995dc81c1c9bdc1bdcd85b60a21b6040820152a26103ba565b60ff9150600301541615386103b4565b60649060198a6040519262461bcd60e51b845260048401528201527f4d75737420686176652077696e6e696e67206f7574636f6d65000000000000006044820152fd5b906106da908260051b87013590611783565b9060001981146106eb57830161038e565b634e487b7160e01b8a5260116004528a8afd5b60405162461bcd60e51b8152600481018390526019818c01527f416c7265616479207265736f6c766564206f6e20636861696e000000000000006044820152606490fd5b60405162461bcd60e51b8152600481018490526015818d01527413585c9ad95d08191bd95cc81b9bdd08195e1a5cdd605a1b6044820152606490fd5b61079a91503d808b833e6107928183611155565b8101906115f0565b3861036a565b6040513d8b823e3d90fd5b60405163e2517d3f60e01b8152336004820152602481018a9052604490fd5b5034610130576040366003190112610130576108086004356107ea6110a4565b908084526001602052610803600160408620015461131f565b611519565b5080f35b5034610130578060031936011261013057602090604051908152f35b5034610130576020366003190112610130576108086108456110bf565b61084d611590565b6000805160206119b783398151915283526001602052610873600160408520015461131f565b61147f565b50346101305760403660031901126101305760406108946110a4565b9160043581526001602052209060018060a01b0316600052602052602060ff604060002054166040519015158152f35b5034610130578060031936011261013057546040516001600160a01b039091168152602090f35b503461013057806003193601126101305760206040516000805160206119b78339815191528152f35b503461013057806003193601126101305761092d611590565b600080546001600160a01b0319811682556001600160a01b03167f8be0079c531659141344cd1fd0a4f28419497f9722a3daafe3b4186f6b6457e08280a380f35b5034610130576020366003190112610130576109a66109ad600160406109c194600435815260046020522001604051928380926118a2565b0382611155565b604051918291602083526020830190611265565b0390f35b5034610130576109d436611299565b906109e0939293611590565b60025460405163c3c95c7b60e01b815260048101879052908790829060249082906001600160a01b03165afa908115610c1e578791610d67575b5060c0810151610d2f576040610a33910151851461173f565b604051610a3f8161110f565b858152610a4d3686866117a6565b906020810191825260408101428152606082019060018252610a703687876117f4565b6080840152888a52600460205260408a2093835185555180519067ffffffffffffffff8211610d1b57600160401b8211610d1b57602060018701918d835485855585818110610d00575b50505001908c5260208c208c5b838110610cec575050505060809291610af891516002860155511515600385019060ff801983541691151516179055565b015180519067ffffffffffffffff8211610cd857610b1960048401546110d5565b601f8111610ca5575b50602090601f8311600114610c3857600492918a9183610c2d575b50508160011b916000199060031b1c1916179101555b6002546001600160a01b0316803b15610c295786604051809263d5ffd93560e01b825288600483015260406024830152818381610b94604482018c8c611842565b03925af18015610c1e57610bf1575b5091610bc78594926000805160206119978339815191529460405194859485611866565b0390a27f4d9db1a2f6b8d06dab17e9e5b1c4883ea6c6b230063e72c4ee6cc1143744c2888280a280f35b859492600080516020611997833981519152949297610c12610bc793611141565b97929450929450610ba3565b6040513d89823e3d90fd5b8680fd5b015190503880610b3d565b90600484018a5260208a20918a5b601f1985168110610c8d5750918391600193600495601f19811610610c74575b505050811b01910155610b53565b015160001960f88460031b161c19169055388080610c66565b91926020600181928685015181550194019201610c46565b610cd290600485018b5260208b20601f850160051c810191602086106105ca57601f0160051c019061182b565b38610b22565b634e487b7160e01b89526041600452602489fd5b600190602084519401938184015501610ac7565b848387610d13955220918201910161182b565b8d3885610aba565b634e487b7160e01b8c52604160045260248cfd5b60405162461bcd60e51b815260206004820152601060248201526f105b1c9958591e481c995cdbdb1d995960821b6044820152606490fd5b610d7b91503d8089833e6107928183611155565b38610a1a565b5034610130576020366003190112610130577f51df27ef8d4882ded82aa403cd74bcd8aaa267c36dc91cab36ed396f8dbfd2e16020600435610dc1611590565b80600355604051908152a180f35b50346101305780600319360112610130576002546040516001600160a01b039091168152602090f35b5034610130576020908160031936011261013057604090606060808351610e1e8161110f565b8381528286820152838582015283838201520152600435815260048352206109c160405191610e4c8361110f565b80548352604051610e64816109a681600186016118a2565b84840190815260028201549160408501928352610ebf610e97600460ff6003850154169360608901941515855201611177565b926080870193845260405197889781895251908801525160a0604088015260c0870190611265565b92516060860152511515608085015251838203601f190160a0850152611240565b503461013057602036600319011261013057610808610efd6110bf565b610f05611590565b6000805160206119b783398151915283526001602052610f2b600160408520015461131f565b611363565b503461013057604036600319011261013057610f4a6110a4565b336001600160a01b03821603610f665761080890600435611519565b60405163334bd91960e11b8152600490fd5b503461013057602036600319011261013057604090600435815260046020522080546109c1600283015492610fb7600460ff6003840154169201611177565b906040519485948552602085015215156040840152608060608401526080830190611240565b503461013057604036600319011261013057610808600435610ffd6110a4565b908084526001602052611016600160408620015461131f565b611404565b503461013057602036600319011261013057600160406020926004358152828452200154604051908152f35b9050346110a05760203660031901126110a05760043563ffffffff60e01b811680910361109c5760209250637965db0b60e01b811490811561108b575b5015158152f35b6301ffc9a760e01b14905038611084565b8280fd5b5080fd5b602435906001600160a01b03821682036110ba57565b600080fd5b600435906001600160a01b03821682036110ba57565b90600182811c92168015611105575b60208310146110ef57565b634e487b7160e01b600052602260045260246000fd5b91607f16916110e4565b60a0810190811067ffffffffffffffff82111761112b57604052565b634e487b7160e01b600052604160045260246000fd5b67ffffffffffffffff811161112b57604052565b90601f8019910116810190811067ffffffffffffffff82111761112b57604052565b906040519182600082549261118b846110d5565b9081845260019485811690816000146111fa57506001146111b7575b50506111b592500383611155565b565b9093915060005260209081600020936000915b8183106111e25750506111b5935082010138806111a7565b855488840185015294850194879450918301916111ca565b9150506111b594506020925060ff191682840152151560051b82010138806111a7565b60005b8381106112305750506000910152565b8181015183820152602001611220565b906020916112598151809281855285808601910161121d565b601f01601f1916010190565b90815180825260208080930193019160005b828110611285575050505090565b835185529381019392810192600101611277565b9060606003198301126110ba57600435916024359167ffffffffffffffff908184116110ba57826023850112156110ba578360040135938285116110ba578360248660051b830101116110ba576024019392604435908382116110ba57806023830112156110ba5781600401359384116110ba57602484830101116110ba576024019190565b80600052600160205260406000203360005260205260ff60406000205416156113455750565b6044906040519063e2517d3f60e01b82523360048301526024820152fd5b6001600160a01b031660008181527f75e26f58cca2d71dbbeeec7adfb8d72df51164003ce85ac5b2d9b2a24a39870660205260408120549091906000805160206119b78339815191529060ff166113ff5780835260016020526040832082845260205260408320600160ff198254161790557f2f8788117e7eff1d82e926ec794901d17c78024a50270940304540a733656f0d339380a4600190565b505090565b906000918083526001602052604083209160018060a01b03169182845260205260ff604084205416156000146113ff5780835260016020526040832082845260205260408320600160ff198254161790557f2f8788117e7eff1d82e926ec794901d17c78024a50270940304540a733656f0d339380a4600190565b6001600160a01b031660008181527f75e26f58cca2d71dbbeeec7adfb8d72df51164003ce85ac5b2d9b2a24a39870660205260408120549091906000805160206119b78339815191529060ff16156113ff578083526001602052604083208284526020526040832060ff1981541690557ff6391f5c32d9c69d2a47ea670b442974b53935d1edc7fd64eb21e047a839171b339380a4600190565b906000918083526001602052604083209160018060a01b03169182845260205260ff6040842054166000146113ff578083526001602052604083208284526020526040832060ff1981541690557ff6391f5c32d9c69d2a47ea670b442974b53935d1edc7fd64eb21e047a839171b339380a4600190565b6000546001600160a01b031633036115a457565b60405163118cdaa760e01b8152336004820152602490fd5b67ffffffffffffffff811161112b5760051b60200190565b67ffffffffffffffff811161112b57601f01601f191660200190565b90602080838303126110ba57825167ffffffffffffffff938482116110ba5701916101009384848303126110ba5760409384519586018681108382111761112b57855280518652838101516001600160a01b03811681036110ba578487015284810151858701526060810151606087015260808101518281116110ba57810183601f820112156110ba57805190611686826115bc565b9161169388519384611155565b808352868084019160051b830101918683116110ba5787809101915b83831061172f5750505050608087015260a081015160a087015260c081015180151581036110ba5760c087015260e08101519182116110ba570181601f820112156110ba5780519161170c611703846115d4565b95519586611155565b8285528383830101116110ba5782611727938501910161121d565b60e082015290565b82518152918101918891016116af565b1561174657565b60405162461bcd60e51b8152602060048201526015602482015274092dcecc2d8d2c840e0c2f2deeae840d8cadccee8d605b1b6044820152606490fd5b9190820180921161179057565b634e487b7160e01b600052601160045260246000fd5b92916117b1826115bc565b916117bf6040519384611155565b829481845260208094019160051b81019283116110ba57905b8282106117e55750505050565b813581529083019083016117d8565b929192611800826115d4565b9161180e6040519384611155565b8294818452818301116110ba578281602093846000960137010152565b818110611836575050565b6000815560010161182b565b81835290916001600160fb1b0383116110ba5760209260051b809284830137010190565b9261187f85939260209693604087526040870191611842565b9385818603910152818452848401376000828201840152601f01601f1916010190565b90815480825260208092019260005281600020916000905b8282106118c8575050505090565b8354855293840193600193840193909101906118ba565b600081815260046020526040812060038101805460ff191660011790556002546001600160a01b031690813b1561109c576119448392839260405194858094819363d5ffd93560e01b83528a60048401526040602484015260016044840191016118a2565b03925af1801561198b57907f4d9db1a2f6b8d06dab17e9e5b1c4883ea6c6b230063e72c4ee6cc1143744c288929161197c575b5080a2565b61198590611141565b38611977565b6040513d84823e3d90fdfe27681e3e622586071759d981490706e981dd90cbb9d0e895928556bf2039bafa92a19c77d2ea87c7f81d50c74403cb2f401780f3ad919571121efe2bdb427eb1a2646970667358221220cdb2ce3c704e5319bcf4b959e2845de06b050d0470b87526f418ef69076afe7d64736f6c634300081400332f8788117e7eff1d82e926ec794901d17c78024a50270940304540a733656f0d",
  "linkReferences": {},
  "deployedLinkReferences": {}
}