{
  "_format": "hh-sol-artifact-1",
  "contractName": "MarketFactory",
  "sourceName": "contracts/MarketFactory.sol",
  "abi": [
    {
      "inputs": [
        {
          "internalType": "address",
          "name": "_conditionalTokens",
          "type": "address"
        }
      ],
      "stateMutability": "nonpayable",
      "type": "constructor"
    },
    {
      "inputs": [
        {
          "internalType": "address",
          "name": "owner",
          "type": "address"
        }
      ],
      "name": "OwnableInvalidOwner",
      "type": "error"
    },
    {
      "inputs": [
        {
          "internalType": "address",
          "name": "account",
          "type": "address"
        }
      ],
      "name": "OwnableUnauthorizedAccount",
      "type": "error"
    },
    {
      "anonymous": false,
      "inputs": [
        {
          "indexed": true,
          "internalType": "address",
          "name": "token",
          "type": "address"
        },
        {
          "indexed": false,
          "internalType": "bool",
          "name": "approved",
          "type": "bool"
        }
      ],
      "name": "CollateralApproved",
      "type": "event"
    },
    {
      "anonymous": false,
      "inputs": [
        {
          "indexed": true,
          "internalType": "bytes32",
          "name": "conditionId",
          "type": "bytes32"
        }
      ],
      "name": "MarketDeactivated",
      "type": "event"
    },
    {
      "anonymous": false,
      "inputs": [
        {
          "indexed": true,
          "internalType": "address",
          "name": "previousOwner",
          "type": "address"
        },
        {
          "indexed": true,
          "internalType": "address",
          "name": "newOwner",
          "type": "address"
        }
      ],
      "name": "OwnershipTransferred",
      "type": "event"
    },
    {
      "anonymous": false,
      "inputs": [
        {
          "indexed": true,
          "internalType": "bytes32",
          "name": "conditionId",
          "type": "bytes32"
        },
        {
          "indexed": false,
          "internalType": "string",
          "name": "eventName",
          "type": "string"
        },
        {
          "indexed": false,
          "internalType": "string",
          "name": "fighterA",
          "type": "string"
        },
        {
          "indexed": false,
          "internalType": "string",
          "name": "fighterB",
          "type": "string"
        },
        {
          "indexed": false,
          "internalType": "enum MarketFactory.MarketType",
          "name": "marketType",
          "type": "uint8"
        },
        {
          "indexed": false,
          "internalType": "string[]",
          "name": "outcomeLabels",
          "type": "string[]"
        }
      ],
      "name": "UFCMarketCreated",
      "type": "event"
    },
    {
      "inputs": [
        {
          "internalType": "uint256",
          "name": "",
          "type": "uint256"
        }
      ],
      "name": "allMarkets",
      "outputs": [
        {
          "internalType": "bytes32",
          "name": "",
          "type": "bytes32"
        }
      ],
      "stateMutability": "view",
      "type": "function"
    },
    {
      "inputs": [
        {
          "internalType": "address",
          "name": "",
          "type": "address"
        }
      ],
      "name": "approvedCollateral",
      "outputs": [
        {
          "internalType": "bool",
          "name": "",
          "type": "bool"
        }
      ],
      "stateMutability": "view",
      "type": "function"
    },
    {
      "inputs": [],
      "name": "conditionalTokens",
      "outputs": [
        {
          "internalType": "contract ConditionalTokens",
          "name": "",
          "type": "address"
        }
      ],
      "stateMutability": "view",
      "type": "function"
    },
    {
      "inputs": [
        {
          "internalType": "string",
          "name": "eventName",
          "type": "string"
        },
        {
          "internalType": "string",
          "name": "fighterA",
          "type": "string"
        },
        {
          "internalType": "string",
          "name": "fighterB",
          "type": "string"
        },
        {
          "internalType": "uint256",
          "name": "eventDate",
          "type": "uint256"
        },
        {
          "internalType": "address",
          "name": "collateralToken",
          "type": "address"
        },
        {
          "internalType": "string",
          "name": "eventUri",
          "type": "string"
        }
      ],
      "name": "createGoesDistanceMarket",
      "outputs": [
        {
          "internalType": "bytes32",
          "name": "",
          "type": "bytes32"
        }
      ],
      "stateMutability": "nonpayable",
      "type": "function"
    },
    {
      "inputs": [
        {
          "internalType": "string",
          "name": "eventName",
          "type": "string"
        },
        {
          "internalType": "string",
          "name": "fighterA",
          "type": "string"
        },
        {
          "internalType": "string",
          "name": "fighterB",
          "type": "string"
        },
        {
          "internalType": "uint256",
          "name": "eventDate",
          "type": "uint256"
        },
        {
          "internalType": "address",
          "name": "collateralToken",
          "type": "address"
        },
        {
          "internalType": "string",
          "name": "eventUri",
          "type": "string"
        }
      ],
      "name": "createMethodMarket",
      "outputs": [
        {
          "internalType": "bytes32",
          "name": "",
          "type": "bytes32"
        }
      ],
      "stateMutability": "nonpayable",
      "type": "function"
    },
    {
      "inputs": [
        {
          "internalType": "string",
          "name": "eventName",
          "type": "string"
        },
        {
          "internalType": "string",
          "name": "fighterA",
          "type": "string"
        },
        {
          "internalType": "string",
          "name": "fighterB",
          "type": "string"
        },
        {
          "internalType": "uint256",
          "name": "eventDate",
          "type": "uint256"
        },
        {
          "internalType": "address",
          "name": "collateralToken",
          "type": "address"
        },
        {
          "internalType": "string",
          "name": "eventUri",
          "type": "string"
        }
      ],
      "name": "createWinnerMarket",
      "outputs": [
        {
          "internalType": "bytes32",
          "name": "",
          "type": "bytes32"
        }
      ],
      "stateMutability": "nonpayable",
      "type": "function"
    },
    {
      "inputs": [
        {
          "internalType": "bytes32",
          "name": "conditionId",
          "type": "bytes32"
        }
      ],
      "name": "deactivateMarket",
      "outputs": [],
      "stateMutability": "nonpayable",
      "type": "function"
    },
    {
      "inputs": [
        {
          "internalType": "string",
          "name": "eventName",
          "type": "string"
        },
        {
          "internalType": "string",
          "name": "fighterA",
          "type": "string"
        },
        {
          "internalType": "string",
          "name": "fighterB",
          "type": "string"
        },
        {
          "internalType": "enum MarketFactory.MarketType",
          "name": "marketType",
          "type": "uint8"
        }
      ],
      "name": "generateConditionId",
      "outputs": [
        {
          "internalType": "bytes32",
          "name": "",
          "type": "bytes32"
        }
      ],
      "stateMutability": "view",
      "type": "function"
    },
    {
      "inputs": [],
      "name": "getActiveMarketsCount",
      "outputs": [
        {
          "internalType": "uint256",
          "name": "count",
          "type": "uint256"
        }
      ],
      "stateMutability": "view",
      "type": "function"
    },
    {
      "inputs": [],
      "name": "getAllMarkets",
      "outputs": [
        {
          "internalType": "bytes32[]",
          "name": "",
          "type": "bytes32[]"
        }
      ],
      "stateMutability": "view",
      "type": "function"
    },
    {
      "inputs": [
        {
          "internalType": "bytes32",
          "name": "conditionId",
          "type": "bytes32"
        }
      ],
      "name": "getOutcomeLabels",
      "outputs": [
        {
          "internalType": "string[]",
          "name": "",
          "type": "string[]"
        }
      ],
      "stateMutability": "view",
      "type": "function"
    },
    {
      "inputs": [],
      "name": "owner",
      "outputs": [
        {
          "internalType": "address",
          "name": "",
          "type": "address"
        }
      ],
      "stateMutability": "view",
      "type": "function"
    },
    {
      "inputs": [],
      "name": "renounceOwnership",
      "outputs": [],
      "stateMutability": "nonpayable",
      "type": "function"
    },
    {
      "inputs": [
        {
          "internalType": "address",
          "name": "token",
          "type": "address"
        },
        {
          "internalType": "bool",
          "name": "approved",
          "type": "bool"
        }
      ],
      "name": "setCollateralApproval",
      "outputs": [],
      "stateMutability": "nonpayable",
      "type": "function"
    },
    {
      "inputs": [
        {
          "internalType": "address",
          "name": "newOwner",
          "type": "address"
        }
      ],
      "name": "transferOwnership",
      "outputs": [],
      "stateMutability": "nonpayable",
      "type": "function"
    },
    {
      "inputs": [
        {
          "internalType": "bytes32",
          "name": "",
          "type": "bytes32"
        }
      ],
      "name": "ufcMarkets",
      "outputs": [
        {
          "internalType": "bytes32",
          "name": "conditionId",
          "type": "bytes32"
        },
        {
          "internalType": "string",
          "name": "eventName",
          "type": "string"
        },
        {
          "internalType": "string",
          "name": "fighterA",
          "type": "string"
        },
        {
          "internalType": "string",
          "name": "fighterB",
          "type": "string"
        },
        {
          "internalType": "enum MarketFactory.MarketType",
          "name": "marketType",
          "type": "uint8"
        },
        {
          "internalType": "uint256",
          "name": "eventDate",
          "type": "uint256"
        },
        {
          "internalType": "bool",
          "name": "active",
          "type": "bool"
        },
        {
          "internalType": "address",
          "name": "collateralToken",
          "type": "address"
        }
      ],
      "stateMutability": "view",
      "type": "function"
    }
  ],
  "bytecode": "0x6080346100df57601f620027ce38819003918201601f19168301916001600160401b038311848410176100e4578084926020946040528339810103126100df57516001600160a01b0390818116908190036100df5733156100c657600080546001600160a01b03198082163390811784556040805196909593167f8be0079c531659141344cd1fd0a4f28419497f9722a3daafe3b4186f6b6457e08580a36001541617600155808052600460205220600160ff198254161790556126d39081620000fb8239f35b604051631e4fbdf760e01b815260006004820152602490fd5b600080fd5b634e487b7160e01b600052604160045260246000fdfe6080604052600436101561001257600080fd5b6000803560e01c8063010d2186146120625780634ca4888c14611f7c5780634e4797b5146117ab57806352d84d1e146117725780635bd9e299146117495780636264053314610f7e57806371225e6b14610ea2578063715018a614610e485780638da5cb5b14610e21578063b050b67214610de2578063b0772d0b14610d2e578063b83f211714610ca2578063d5a1db1414610bf8578063e4001f2714610207578063e4f54cf51461015a5763f2fde38b146100cd57600080fd5b34610157576020366003190112610157576100e6612291565b6100ee6123e8565b6001600160a01b0390811690811561013e57600054826001600160601b0360a01b821617600055167f8be0079c531659141344cd1fd0a4f28419497f9722a3daafe3b4186f6b6457e0600080a380f35b604051631e4fbdf760e01b815260048101849052602490fd5b80fd5b5034610157576020806003193601126102035760043582526003815260076040832001918254906001600160401b0382116101ed5792604051936101a3848460051b0186612158565b828552908152828120838086015b8484106101cf57604051828152806101cb8185018a61238c565b0390f35b60019182916101dd85612179565b81520192019201919084906101b1565b634e487b7160e01b600052604160045260246000fd5b5080fd5b503461015757610216366122a7565b9693949592916102289a91999a6123e8565b6001600160a01b03811682526004602052604082205461024a9060ff16612414565b610255428411612460565b600554998b858b8d8a8c81858d6040519787899860208a019b8c3788019160208301600081523701916020830160008152370190600160f81b60208301526021820152036021810182526041016102ac9082612158565b5190209a8b845260036020526040842054156102c7906124ac565b6102d0906124f0565b600555604051988960e081011060e08b016001600160401b0310176101ed5760e08a0160405260068a528789888c60005b60c08110610bdd575091602c9161046f610492948c604051818560208301378181019061034d602a8269206279204b4f2f544b4f60b01b9485602082015203600a810184520182612158565b61035684612559565b5261036083612559565b5060405191808660208501378083019261039d602e826d10313c9029bab136b4b9b9b4b7b760911b9687602082015203600e810184520182612158565b6103a685612566565b526103b084612566565b50806040519660208801378501946103e888826b10313c902232b1b4b9b4b7b760a11b9889602082015203600c810184520182612158565b6103f184612576565b526103fb83612576565b50610424602a60405180938c8a60208401378c820190602082015203600a810184520182612158565b61042d83612586565b5261043782612586565b50610460602e60405180938b8960208401378b820190602082015203600e810184520182612158565b61046982612596565b52612596565b5060405194859260208401378c820190602082015203600c810184520182612158565b61049b8b6125a6565b526104a58a6125a6565b506001546001600160a01b031690813b15610bd9576040516303a4b01960e01b8152600481018e90526001600160a01b0385166024820152600660448201526080606482015292859284929091839185918391610507916084840191906125b6565b03925af18015610bce57908391610bba575b50506040519261052884612121565b8a8452610536368b8e612609565b6020850152610546368688612609565b604085015261055636888a612609565b60608501526001608085015260a0840152600160c08401528760e084015260018060a01b0316610100830152888152600360205260408120908251825560208301518051906001600160401b03821161098b5781906105b860018601546120d4565b601f8111610b87575b50602090601f8311600114610b18578492610b0d575b50508160011b916000199060031b1c19161760018301555b60408301518051906001600160401b03821161098b57819061061460028601546120d4565b601f8111610ada575b50602090601f8311600114610a6b578492610a60575b50508160011b916000199060031b1c19161760028301555b60608301518051906001600160401b03821161098b57819061067060038601546120d4565b601f8111610a2d575b50602090601f83116001146109be5784926109b3575b50508160011b916000199060031b1c19161760038301555b600482016080840151600581101561099f5760ff8019835416911617905560a083015160058301556106ee60c08401511515600684019060ff801983541691151516179055565b60e0830151805190600160401b821161098b576007840154826007860155808310610913575b506020016007840183526020832083915b8383106107e5575050505050948897946107b76107da957fa288d5d6dd77b6573a9f886b36c4310244e9c0dc2e7de1b5abf1e8dfa7694cd299956107c595600860209f9b019061010060018060a01b03910151166001600160601b0360a01b8254161790556107938c612666565b6107aa6040519a8b9a60a08c5260a08c01916125b6565b918983038f8b01526125b6565b9186830360408801526125b6565b9060016060850152838203608085015261238c565b0390a2604051908152f35b80518051906001600160401b0382116108ff5761080284546120d4565b601f81116108c4575b50602090601f83116001146108575792826001949360209386958b9261084c575b5050600019600383901b1c191690841b1785555b01920192019190610725565b01519050388061082c565b908488526020882091885b601f19851681106108ac575083602093600196938796938794601f19811610610893575b505050811b018555610840565b015160001960f88460031b161c19169055388080610886565b91926020600181928685015181550194019201610862565b6108ef9085895260208920601f850160051c810191602086106108f5575b601f0160051c019061264f565b3861080b565b90915081906108e2565b634e487b7160e01b87526041600452602487fd5b60078501845260208420908382015b8183018110610932575050610714565b8086610940600193546120d4565b8061094e575b505001610922565b601f81118414610966575050600081555b8638610946565b828252610981601f60208420920160051c820185830161264f565b600083555561095f565b634e487b7160e01b83526041600452602483fd5b634e487b7160e01b83526021600452602483fd5b01519050388061068f565b9250600385018452602084209084935b601f1984168510610a12576001945083601f198116106109f9575b505050811b0160038301556106a7565b015160001960f88460031b161c191690553880806109e9565b818101518355602094850194600190930192909101906109ce565b610a5a9060038701865260208620601f850160051c810191602086106108f557601f0160051c019061264f565b38610679565b015190503880610633565b9250600285018452602084209084935b601f1984168510610abf576001945083601f19811610610aa6575b505050811b01600283015561064b565b015160001960f88460031b161c19169055388080610a96565b81810151835560209485019460019093019290910190610a7b565b610b079060028701865260208620601f850160051c810191602086106108f557601f0160051c019061264f565b3861061d565b0151905038806105d7565b9250600185018452602084209084935b601f1984168510610b6c576001945083601f19811610610b53575b505050811b0160018301556105ef565b015160001960f88460031b161c19169055388080610b43565b81810151835560209485019460019093019290910190610b28565b610bb49060018701865260208620601f850160051c810191602086106108f557601f0160051c019061264f565b386105c1565b610bc39061210e565b610203578138610519565b6040513d85823e3d90fd5b8480fd5b602094508093506060925084910101520189888c8b93610301565b503461015757602036600319011261015757600435610c156123e8565b8082526003602052604082205415610c6557808252600360205260408220600601805460ff191690557f69de45da87f2810fb331b57fb71ef84ed05e9b14551c59b43c5241c7926b47618280a280f35b60405162461bcd60e51b815260206004820152601560248201527413585c9ad95d08191bd95cc81b9bdd08195e1a5cdd605a1b6044820152606490fd5b503461015757604036600319011261015757610cbc612291565b6024359081151590818303610d2a577fd0780922098a7954b5b7fa7a30d189ace43dc3396b4d4bde7cba3ed0082f88ae91610d20602092610cfb6123e8565b60018060a01b03169485875260048452604087209060ff801983541691151516179055565b604051908152a280f35b8380fd5b503461015757806003193601126101575760405180916002549081835260208093018092600283527f405787fa12a823e0f2b7631cc41b3ba8828b3321ca811111fa75cd3aa3bb5ace90835b818110610dce5750505084610d90910385612158565b60405193838594850191818652518092526040850193925b828110610db757505050500390f35b835185528695509381019392810192600101610da8565b825484529286019260019283019201610d7a565b50346101575760203660031901126101575760209060ff906040906001600160a01b03610e0d612291565b168152600484522054166040519015158152f35b5034610157578060031936011261015757546040516001600160a01b039091168152602090f35b5034610157578060031936011261015757610e616123e8565b600080546001600160a01b0319811682556001600160a01b03167f8be0079c531659141344cd1fd0a4f28419497f9722a3daafe3b4186f6b6457e08280a380f35b5034610157576080366003190112610157576001600160401b039060043582811161020357610ed590369060040161225f565b92909160243582811161020357610ef090369060040161225f565b92604435908111610f7a57610f0990369060040161225f565b9060643593600585101561015757509260419282610f6f956020999488600554946040519a888c998f8b019e8f378901918e8301600081523701918b83016000815237019160ff60f81b9060f81b16888301526021820152036021810184520182612158565b519020604051908152f35b8280fd5b503461015757610f8d366122a7565b989990969394959291610f9e6123e8565b6001600160a01b038116825260046020526040822054610fc09060ff16612414565b610fcb428411612460565b600554998b858b8d8a8c81858d6040519787899860208a019b8c3788019160208301600081523701916020830160008152370190600160f91b60208301526021820152036021810182526041016110229082612158565b5190209a8b8452600360205260408420541561103d906124ac565b611046906124f0565b600555611051612515565b9860405161105e8161213d565b60168152752cb2b990169023b7b2b9903a37902232b1b4b9b4b7b760511b602082015261108a8b612559565b526110948a612559565b506040516110a18161213d565b600b81526a09cde405a408cd2dcd2e6d60ab1b60208201526110c28b612566565b526110cc8a612566565b506001546001600160a01b0316803b15610bd95790849184838f611106604051978896879586946303a4b01960e01b8652600486016125d7565b03925af18015610bce57908391611735575b50506040519261112784612121565b8a8452611135368b8e612609565b6020850152611145368688612609565b604085015261115536888a612609565b60608501526002608085015260a0840152600160c08401528760e084015260018060a01b0316610100830152888152600360205260408120908251825560208301518051906001600160401b03821161098b5781906111b760018601546120d4565b601f8111611702575b50602090601f8311600114611693578492611688575b50508160011b916000199060031b1c19161760018301555b60408301518051906001600160401b03821161098b57819061121360028601546120d4565b601f8111611655575b50602090601f83116001146115e65784926115db575b50508160011b916000199060031b1c19161760028301555b60608301518051906001600160401b03821161098b57819061126f60038601546120d4565b601f81116115a8575b50602090601f831160011461153957849261152e575b50508160011b916000199060031b1c19161760038301555b600482016080840151600581101561099f5760ff8019835416911617905560a083015160058301556112ed60c08401511515600684019060ff801983541691151516179055565b60e0830151805190600160401b821161098b5760078401548260078601558083106114b6575b506020016007840183526020832083915b8383106113a7575050505050948897946107b76107da957fa288d5d6dd77b6573a9f886b36c4310244e9c0dc2e7de1b5abf1e8dfa7694cd2999561139295600860209f9b019061010060018060a01b03910151166001600160601b0360a01b8254161790556107938c612666565b9060026060850152838203608085015261238c565b80518051906001600160401b0382116108ff576113c484546120d4565b601f8111611486575b50602090601f83116001146114195792826001949360209386958b9261140e575b5050600019600383901b1c191690841b1785555b01920192019190611324565b0151905038806113ee565b908488526020882091885b601f198516811061146e575083602093600196938796938794601f19811610611455575b505050811b018555611402565b015160001960f88460031b161c19169055388080611448565b91926020600181928685015181550194019201611424565b6114b09085895260208920601f850160051c810191602086106108f557601f0160051c019061264f565b386113cd565b60078501845260208420908382015b81830181106114d5575050611313565b80866114e3600193546120d4565b806114f1575b5050016114c5565b601f81118414611509575050600081555b86386114e9565b828252611524601f60208420920160051c820185830161264f565b6000835555611502565b01519050388061128e565b9250600385018452602084209084935b601f198416851061158d576001945083601f19811610611574575b505050811b0160038301556112a6565b015160001960f88460031b161c19169055388080611564565b81810151835560209485019460019093019290910190611549565b6115d59060038701865260208620601f850160051c810191602086106108f557601f0160051c019061264f565b38611278565b015190503880611232565b9250600285018452602084209084935b601f198416851061163a576001945083601f19811610611621575b505050811b01600283015561124a565b015160001960f88460031b161c19169055388080611611565b818101518355602094850194600190930192909101906115f6565b6116829060028701865260208620601f850160051c810191602086106108f557601f0160051c019061264f565b3861121c565b0151905038806111d6565b9250600185018452602084209084935b601f19841685106116e7576001945083601f198116106116ce575b505050811b0160018301556111ee565b015160001960f88460031b161c191690553880806116be565b818101518355602094850194600190930192909101906116a3565b61172f9060018701865260208620601f850160051c810191602086106108f557601f0160051c019061264f565b386111c0565b61173e9061210e565b610203578138611118565b50346101575780600319360112610157576001546040516001600160a01b039091168152602090f35b5034610157576020366003190112610157576004359060025482101561015757602061179d8361233f565b90546040519160031b1c8152f35b5034610157576117ba366122a7565b98996117cc97949596939291976123e8565b6001600160a01b0382168152600460205260408120546117ee9060ff16612414565b6117f9428411612460565b600554998b858b8d8a8c81858d6040519787899860208a019b8c37880191602083018d8152370191602083018a815237019086602083015260218201520360218101825260410161184a9082612158565b5190209a8b83526003602052604083205415611865906124ac565b61186e906124f0565b600555611879612515565b98604051868860208301378681019080642077696e7360d81b92836020820152036005810182526025016118ad9082612158565b6118b68c612559565b526118c08b612559565b5060405180918a8c60208401378a8201906020820152036005810182526025016118ea9082612158565b6118f38b612566565b526118fd8a612566565b506001546001600160a01b0316803b15610d2a5790839185838f611937604051978896879586946303a4b01960e01b8652600486016125d7565b03925af18015611f7157611f62575b50906040519261195584612121565b8a8452611963368b8e612609565b6020850152611973368688612609565b604085015261198336888a612609565b606085015282608085015260a0840152600160c08401528760e084015260018060a01b0316610100830152888152600360205260408120908251825560208301518051906001600160401b03821161098b5781906119e460018601546120d4565b601f8111611f2f575b50602090601f8311600114611ec0578492611eb5575b50508160011b916000199060031b1c19161760018301555b60408301518051906001600160401b03821161098b578190611a4060028601546120d4565b601f8111611e82575b50602090601f8311600114611e13578492611e08575b50508160011b916000199060031b1c19161760028301555b60608301518051906001600160401b03821161098b578190611a9c60038601546120d4565b601f8111611dd5575b50602090601f8311600114611d66578492611d5b575b50508160011b916000199060031b1c19161760038301555b600482016080840151600581101561099f5760ff8019835416911617905560a08301516005830155611b1a60c08401511515600684019060ff801983541691151516179055565b60e0830151805190600160401b821161098b576007840154826007860155808310611ce3575b506020016007840183526020832083915b838310611bd4575050505050948897946107b76107da957fa288d5d6dd77b6573a9f886b36c4310244e9c0dc2e7de1b5abf1e8dfa7694cd29995611bbf95600860209f9b019061010060018060a01b03910151166001600160601b0360a01b8254161790556107938c612666565b9060006060850152838203608085015261238c565b80518051906001600160401b0382116108ff57611bf184546120d4565b601f8111611cb3575b50602090601f8311600114611c465792826001949360209386958b92611c3b575b5050600019600383901b1c191690841b1785555b01920192019190611b51565b015190503880611c1b565b908488526020882091885b601f1985168110611c9b575083602093600196938796938794601f19811610611c82575b505050811b018555611c2f565b015160001960f88460031b161c19169055388080611c75565b91926020600181928685015181550194019201611c51565b611cdd9085895260208920601f850160051c810191602086106108f557601f0160051c019061264f565b38611bfa565b60078501845260208420908382015b8183018110611d02575050611b40565b8086611d10600193546120d4565b80611d1e575b505001611cf2565b601f81118414611d36575050600081555b8638611d16565b828252611d51601f60208420920160051c820185830161264f565b6000835555611d2f565b015190503880611abb565b9250600385018452602084209084935b601f1984168510611dba576001945083601f19811610611da1575b505050811b016003830155611ad3565b015160001960f88460031b161c19169055388080611d91565b81810151835560209485019460019093019290910190611d76565b611e029060038701865260208620601f850160051c810191602086106108f557601f0160051c019061264f565b38611aa5565b015190503880611a5f565b9250600285018452602084209084935b601f1984168510611e67576001945083601f19811610611e4e575b505050811b016002830155611a77565b015160001960f88460031b161c19169055388080611e3e565b81810151835560209485019460019093019290910190611e23565b611eaf9060028701865260208620601f850160051c810191602086106108f557601f0160051c019061264f565b38611a49565b015190503880611a03565b9250600185018452602084209084935b601f1984168510611f14576001945083601f19811610611efb575b505050811b016001830155611a1b565b015160001960f88460031b161c19169055388080611eeb565b81810151835560209485019460019093019290910190611ed0565b611f5c9060018701865260208620601f850160051c810191602086106108f557601f0160051c019061264f565b386119ed565b611f6b9061210e565b38611946565b6040513d84823e3d90fd5b5034610157576020366003190112610157576004358152600360205260408120805490611fab60018201612179565b611fb760028301612179565b91611fc460038201612179565b9261202760ff6004840154169461201960058501549361200b60ff60068801541696600860018060a01b0391015416976040519a8b526101008060208d01528b019061221f565b9089820360408b015261221f565b90878203606089015261221f565b93600581101561204e57859650608086015260a0850152151560c084015260e08301520390f35b634e487b7160e01b87526021600452602487fd5b503461015757806003193601126101575760025481805b82811061208b57602084604051908152f35b6120948161233f565b9054600391821b1c835260205260ff6006604084200154166120bf575b6120ba906124f0565b612079565b926120cc6120ba916124f0565b9390506120b1565b90600182811c92168015612104575b60208310146120ee57565b634e487b7160e01b600052602260045260246000fd5b91607f16916120e3565b6001600160401b0381116101ed57604052565b61012081019081106001600160401b038211176101ed57604052565b604081019081106001600160401b038211176101ed57604052565b90601f801991011681019081106001600160401b038211176101ed57604052565b906040519182600082549261218d846120d4565b9081845260019485811690816000146121fc57506001146121b9575b50506121b792500383612158565b565b9093915060005260209081600020936000915b8183106121e45750506121b7935082010138806121a9565b855488840185015294850194879450918301916121cc565b9150506121b794506020925060ff191682840152151560051b82010138806121a9565b919082519283825260005b84811061224b575050826000602080949584010152601f8019910116010190565b60208183018101518483018201520161222a565b9181601f8401121561228c578235916001600160401b03831161228c576020838186019501011161228c57565b600080fd5b600435906001600160a01b038216820361228c57565b60c060031982011261228c576001600160401b039160043583811161228c57826122d39160040161225f565b9390939260243582811161228c57816122ee9160040161225f565b9390939260443581811161228c57836123099160040161225f565b90939092606435926084356001600160a01b038116810361228c579260a43591821161228c5761233b9160040161225f565b9091565b6002548110156123765760026000527f405787fa12a823e0f2b7631cc41b3ba8828b3321ca811111fa75cd3aa3bb5ace0190600090565b634e487b7160e01b600052603260045260246000fd5b908082519081815260208091019281808460051b8301019501936000915b8483106123ba5750505050505090565b90919293949584806123d8600193601f198682030187528a5161221f565b98019301930191949392906123aa565b6000546001600160a01b031633036123fc57565b60405163118cdaa760e01b8152336004820152602490fd5b1561241b57565b60405162461bcd60e51b815260206004820152601760248201527f436f6c6c61746572616c206e6f7420617070726f7665640000000000000000006044820152606490fd5b1561246757565b60405162461bcd60e51b815260206004820152601760248201527f4576656e74206d75737420626520696e206675747572650000000000000000006044820152606490fd5b156124b357565b60405162461bcd60e51b81526020600482015260156024820152744d61726b657420616c72656164792065786973747360581b6044820152606490fd5b60001981146124ff5760010190565b634e487b7160e01b600052601160045260246000fd5b60409081519160608084018481106001600160401b038211176101ed578252600284528360005b8381106125495750505050565b808360208093850101520161253c565b8051156123765760200190565b8051600110156123765760400190565b8051600210156123765760600190565b8051600310156123765760800190565b8051600410156123765760a00190565b8051600510156123765760c00190565b908060209392818452848401376000828201840152601f01601f1916010190565b9081526001600160a01b03909116602082015260026040820152608060608201819052612606939101916125b6565b90565b9291926001600160401b0382116101ed5760405191612632601f8201601f191660200184612158565b82948184528183011161228c578281602093846000960137010152565b81811061265a575050565b6000815560010161264f565b600254600160401b8110156101ed57806001612685920160025561233f565b819291549060031b91821b91600019901b191617905556fea2646970667358221220837c46884e69dad55efe6fd37ee8d8428c21dddeab9c7420a10e61fd7d15d0ad64736f6c63430008140033",
  "linkReferences": {},
  "deployedLinkReferences": {}
}